:100000000C946D000C9495000C9495000C94950044
:100010000C9495000C9495000C9495000C9495000C
:100020000C9495000C9495000C9495000C949500FC
:100030000C9495000C9495000C9495000C949500EC
:100040000C94AE240C9495000C94291F0C94771FEB
:100050000C9495000C9495000C9495000C949500CC
:100060000C9495000C9495000000000024002700DB
:100070002A0000000000250028002B0000000000DE
:1000800023002600290004040404040404040202DA
:100090000202020203030303030301020408102007
:1000A0004080010204081020010204081020000012
:1000B0000007000201000003040600000000000029
:1000C00000009203CE053108530ACE0FB911581221
:1000D0007918621CE32045218B0311241FBECFEF4A
:1000E000D8E0DEBFCDBF14E0A0E0B1E0E8E6F4E583
:1000F00002C005900D92A634B107D9F715E0A6E429
:10010000B4E001C01D92A33EB107E1F710E0C8EDD5
:10011000D0E004C02297FE010E94EC29C23CD10726
:10012000C9F70E94BE210C94272A0C940000CF939B
:10013000DF93BC018230910510F462E070E0A09181
:10014000E105B091E205ED01E0E0F0E040E050E0D3
:1001500021C0888199818617970769F48A819B81DC
:10016000309719F09383828304C09093E2058093C3
:10017000E105FE0134C06817790738F441155105CF
:1001800019F08417950708F4AC01FE018A819B8160
:100190009C01E9012097E9F641155105A9F1CA0131
:1001A000861B970B049708F4BA01E0E0F0E02AC040
:1001B0008D919C91119784179507F9F46417750731
:1001C00081F412968D919C911397309719F0938337
:1001D000828304C09093E2058093E105FD0132968D
:1001E0004CC0CA01861B970BFD01E80FF91F6193F4
:1001F000719302978D939C9340C0FD0182819381FE
:100200009C01D9011097A1F68091DF059091E0053E
:10021000892B41F480914B0390914C039093E0051E
:100220008093DF0540914D0350914E0341155105D8
:1002300041F44DB75EB78091490390914A03481B42
:10024000590B2091DF053091E005CA01821B930B09
:100250008617970780F0AB014E5F5F4F84179507B5
:1002600050F0420F531F5093E0054093DF05F90112
:100270006193719302C0E0E0F0E0CF01DF91CF9194
:100280000895CF93DF93009709F450C0EC012297B3
:100290001B821A82A091E105B091E205109709F145
:1002A00040E050E0AC17BD0708F1BB83AA83FE0114
:1002B00021913191E20FF31FAE17BF0779F48D91B1
:1002C0009C911197280F391F2E5F3F4F3983288348
:1002D00012968D919C9113979B838A8341155105AA
:1002E00071F4D093E205C093E10520C012968D9180
:1002F0009C911397AD01009711F0DC01D3CFFA0167
:10030000D383C28321913191E20FF31FCE17DF0710
:1003100069F488819981280F391F2E5F3F4FFA01B8
:10032000318320838A819B8193838283DF91CF9164
:100330000895A0E0B0E0EFE9F1E00C94F829EC01B9
:10034000A880B980CA80DB80A114B104C104D104A3
:1003500041F484E2A82E89EDB82E8BE5C82E87E003
:10036000D82EC601B5012DE133EF41E050E00E94E7
:10037000CF2927EA31E440E050E00E948E297B013A
:100380008C01C601B5012DE133EF41E050E00E9440
:10039000CF29CA01B9012CEE34EF4FEF5FEF0E9475
:1003A0008E296E0D7F1D801F911F97FF04C0615025
:1003B000704080409048688379838A839B839B0147
:1003C000AC015F77B901CA01CDB7DEB7EAE00C94A2
:1003D000142A0E94990108958FE493E00E949901E4
:1003E000089560934F03709350038093510390934B
:1003F00052030895A0E0B0E0E0E0F2E00C94F229AE
:100400006C01009729F4CB010E9497006C01C1C0D8
:100410008EEF882E8FEF982E8C0C9D1C8601060F78
:10042000171F0815190508F4B2C0F401A081B181A5
:10043000A617B707B8F0A530B10508F4AAC0CD01DA
:1004400004978617970708F4A4C01297A61BB70B4A
:10045000F801A193B193D4016D937C93CF010E94D5
:10046000410197C07B01EA1AFB0AEEEFFFEFEE0EA7
:10047000FF1E36016A0E7B1EC091E105D091E20598
:1004800044245524AA24BB244AC0C615D705E1F547
:10049000488159814E155F05B8F1CA0104978E1540
:1004A0009F05B0F41296A40FB51FF401B183A08389
:1004B0002A813B814114510431F0D20113963C93BF
:1004C0002E93129766C03093E2052093E10561C038
:1004D0008A819B81F80193838283425050404E1958
:1004E0005F09518340834114510431F0D2011396C6
:1004F0001C930E93129704C01093E2050093E1053C
:10050000F4017183608345C088819981A816B9067A
:1005100008F45C012E018A819B819C01E9012097EE
:1005200009F0B3CF8091DF059091E005861597051E
:10053000E9F4A616B706D0F420914D0330914E038E
:100540002115310541F42DB73EB7809149039091B3
:100550004A03281B390B02171307C8F41093E00550
:100560000093DF05D4016D937C9313C0CB010E94EF
:100570009700EC01009759F0F40140815181B601D8
:100580000E94DC02C6010E9441016E0102C0CC241F
:10059000DD24C601CDB7DEB7E0E10C940E2AFB01E5
:1005A000DC0104C08D910190801921F4415050402C
:1005B000C8F7881B990B0895FB01DC0102C001906C
:1005C0000D9241505040D8F70895FB01DC010D9089
:1005D0000020E9F7119701900D920020E1F70895AE
:1005E000FB01DC0101900D920020E1F708950F93CB
:1005F0001F93CF93DF938130910509F06FC06F5F38
:100600007F4F09F083C085ED94E060E040E020E09A
:1006100000E00E94392186E494E060EC48EA21E0A1
:100620000AE00E943921ACE8B3E0FD01019000200E
:10063000E9F73197EA1BFB0B8CE494E0BD01AF01B5
:1006400023E030E00E946F11A4E9B3E0FD010190C6
:100650000020E9F73197EA1BFB0B88E694E0BD0127
:10066000AF0123E030E00E946F11ABE9B3E0FD0180
:1006700001900020E9F73197EA1BFB0B84E894E036
:10068000BD01AF0123E030E00E946F11A4EAB3E0A6
:10069000FD0101900020E9F73197EA1BFB0B80EA8E
:1006A00094E0BD01AF0123E030E00E946F118CEBBC
:1006B00094E04BE859E861EE79E22CE434E004E0A0
:1006C00010E00E94A71186EC94E00E94E80783EDF9
:1006D00094E066EC74E00E94CA0F18C0892BB1F454
:1006E0006F5F7F4F99F4C0EAD4E003E014E0198310
:1006F0000883CE0141960E946927CE0104960E948C
:1007000069276C9784E0C033D80789F7DF91CF91D0
:100710001F910F91089580E090E06FEF7FEF0E94AE
:10072000F702089581E090E06FEF7FEF0E94F702FB
:1007300008952F923F924F925F926F927F928F9285
:100740009F92AF92BF92CF92DF92EF92FF920F9360
:100750001F93CF93DF93809184030E948B2500D059
:1007600000D0AA2797FDA095BA2F25E030E040E001
:1007700050E0EDB7FEB72183328343835483BC013D
:10078000CD0120E030E040E050E0EFEFEE2EE3E07E
:10079000FE2E012D112DAA24BB2465010E944C269A
:1007A0000F900F900F900F902CE4622E24E0722E89
:1007B000882777FD8095982F0E947328AB01BC0194
:1007C000C3010E94E9109EEA892E95E0992EC4018A
:1007D00060E071E00E946B23C3010E94F310AB0143
:1007E000BC01C40122E030E00E945524C40162E152
:1007F00071E00E946824C3EDD4E0CE016CEB74E09C
:1008000043E553E00E9445108C0184E3282E81E0EB
:10081000382EC401B1010E946B23C401B8014AE023
:1008200050E00E944C231FE4412E11E0512EC401E0
:10083000B2010E9468246AE070E080E090E00E94CB
:100840002A25809186030E948B2500D000D0AA27FC
:1008500097FDA095BA2F28EE33E040E050E0EDB7C9
:10086000FEB72183328343835483BC01CD0120E052
:1008700030E040E050E0BFEFEB2EB3E0FB2E012D67
:10088000112D0E944C260F900F900F900F90830116
:10089000045E1F4F882777FD8095982F0E9473284C
:1008A000AB01BC01C8010E94E910C40160E571E020
:1008B0000E946B23C8010E94F310AB01BC01C4016C
:1008C00022E030E00E945524C4016FE671E00E94EE
:1008D0006824CE016CEB74E043E553E00E944510C0
:1008E0008C01C401B1010E946B23C401B8014AE02C
:1008F00050E00E944C23C401B2010E946824809100
:1009000088030E948B2500D000D0AA2797FDA095D0
:10091000BA2F24E630E040E050E0EDB7FEB7218387
:10092000328343835483BC01CD0120E030E040E0BA
:1009300050E0AFEFEA2EA3E0FA2E012D112D0E9418
:100940004C260F900F900F900F9028E330E0620E2E
:10095000731E882777FD8095982F0E947328AB011E
:10096000BC01C3010E94E910C40160E971E00E946A
:100970006B23C3010E94F310AB01BC01C40122E050
:1009800030E00E945524C40162E171E00E946824B5
:10099000CE016CEB74E043E553E00E9445108C01FE
:1009A000C401B1010E946B23C401B8014AE050E0C8
:1009B0000E944C23C401B2010E9468246AE070E0E6
:1009C00080E090E00E942A2580918A030E948B2576
:1009D00000D000D0AA2797FDA095BA2F2DE730E0D0
:1009E00040E050E0EDB7FEB7218332834383548368
:1009F000BC01CD0120E030E040E050E0FFEFEF2E01
:100A0000F3E0FF2E012D112DE6EFAE2EEFEFBE2EFF
:100A1000EFEFCE2EEFEFDE2E0E944C260F900F90C0
:100A20000F900F9000EA14E0882777FD8095982FAB
:100A30000E947328AB01BC01C8010E94E910C401E7
:100A400064EA71E00E946B23C8010E94F310AB01BD
:100A5000BC01C40122E030E00E945524C4016FE6CD
:100A600071E00E946824CE016CEB74E043E553E032
:100A70000E9445108C01C401B1010E946B23C40186
:100A8000B8014AE050E00E944C23C401B2010E9428
:100A9000682460E177E280E090E00E942A25DF91FF
:100AA000CF911F910F91FF90EF90DF90CF90BF906B
:100AB000AF909F908F907F906F905F904F903F90FE
:100AC0002F9008950F931F93DF93CF93CDB7DEB789
:100AD0002C970FB6F894DEBF0FBECDBF8EEA95E01F
:100AE00040E855E260E070E00E94B21F68EE73E0FB
:100AF00080E090E00E942A258BEE94E00E94490756
:100B0000892BE9F48EEA95E06AEB71E00E94682493
:100B100083E494E09A838983809148049091490406
:100B2000A0914A04B0914B048B839C83AD83BE8318
:100B30008BEE94E0BE016F5F7F4F0E9411078EEA3B
:100B400095E062EE71E00E946B238E01095F1F4FFA
:100B5000C8016BEE74E00E94DD058EEA95E0B801F5
:100B60000E942D222C960FB6F894DEBF0FBECDBF8B
:100B7000CF91DF911F910F910895DB01FC0123E4D8
:100B800034E03183208312962D913D914D915C91FB
:100B90001597228333834483558308950F9383EFFE
:100BA00094E060E040E020E000E00E9439218BEE1C
:100BB00094E00E94B4210F910895EF92FF920F9359
:100BC0001F93182F092FE82EF92EC7010E94B42178
:100BD00082E090E0E80EF91E8FE090E060E0A7016F
:100BE00024E030E00E94120F812F902F1F910F916F
:100BF000FF90EF900895AB018FE090E064E024E077
:100C000030E00E94260E0895AB0181E090E064E0A0
:100C100024E030E00E94260E0895AB0185E090E0CC
:100C200064E024E030E00E94260E08956F927F92E7
:100C30008F929F92AF92BF92CF92DF92EF92FF92EC
:100C40000F931F933C017B014A01590187E0C82E95
:100C500085E0D82EC6010E94A20F82E090E0E80E47
:100C6000F91EC601B7010E94FB05E2E0F0E0AE0EFE
:100C7000BF1EC601B5010E9404060E5F1F4FC601CC
:100C8000B8010E940D06F40182819381A481B5818F
:100C9000F30182839383A483B5831F910F91FF9007
:100CA000EF90DF90CF90BF90AF909F908F907F900C
:100CB0006F9008958F929F92AF92BF92CF92DF92E2
:100CC000EF92FF920F931F93DF93CF93CDB7DEB7D1
:100CD0006E970FB6F894DEBF0FBECDBF4C017B01FF
:100CE0006A015901CE0101966FEF4FEF2FEF00E03F
:100CF0000E94392123E434E038872F83F701828171
:100D00009381A481B58189879A87AB87BC873E8709
:100D10002D87F60182819381A481B5818F87988B7D
:100D2000A98BBA8B3C8B2B8BF50182819381A4819B
:100D3000B5818D8B9E8BAF8BB88F3A8F298F8B812E
:100D40009C81AD81BE818B8F9C8FAD8FBE8FC40186
:100D5000BE01695F7F4FAE01435F5F4F9E012D5E15
:100D60003F4F8E01075E1F4F0E9416066E960FB60C
:100D7000F894DEBF0FBECDBFCF91DF911F910F91D1
:100D8000FF90EF90DF90CF90BF90AF909F908F90AB
:100D90000895DF93CF93CDB7DEB768970FB6F89479
:100DA000DEBF0FBECDBFFB01DA012281338144815A
:100DB00055812B833C834D835E8363E474E07887A5
:100DC0006F8329873A874B875C877E876D8712966A
:100DD0002D913D914D915C9115972F87388B498BC3
:100DE0005A8B7C8B6B8B21E02E832B813C814D8138
:100DF0005E812D8B3E8B4F8B588FBE01695F7F4F7D
:100E0000AE01435F5F4F9E012D5E3F4F0E945A0629
:100E100068960FB6F894DEBF0FBECDBFCF91DF91BD
:100E20000895DF93CF93CDB7DEB762970FB6F894EE
:100E3000DEBF0FBECDBFFB012281338144815581CE
:100E40002B833C834D835E8363E474E078876F83F8
:100E500029873A874B875C877E876D8721E02E83C1
:100E60002B813C814D815E812F87388B498B5A8B3A
:100E7000BE01695F7F4FAE01435F5F4F0E94C906AD
:100E800062960FB6F894DEBF0FBECDBFCF91DF9153
:100E90000895CF92DF92EF92FF920F931F93DF930B
:100EA000CF93CDB7DEB7A4970FB6F894DEBF0FBED1
:100EB000CDBF6C017E010894E11CF11C86E0F701B6
:100EC00011928A95E9F782E690E00E94CD218C018B
:100ED000895B9F4F0E94440BF6011783068387E0CE
:100EE00095E00E94A20FCE01079660E040E020E06E
:100EF00000E00E94392187E095E0BE01675F7F4FE7
:100F00000E94FB0589E090E060E0A70126E030E068
:100F10000E94120FF60186819781B70120E63AEE12
:100F200040E050E0F0EAEF2EFFE0FF2E012D112D02
:100F30000E94D7178C0181309105D1F5F6016681A9
:100F40007781CE010D960E94841287E095E0BE0164
:100F5000615F7F4F0E94FB05F60166817781CE01BC
:100F600043960E946E1287E095E0BE016B5E7F4F54
:100F70000E940406F60166817781CE0149960E949F
:100F8000791287E095E0BE01655E7F4F0E940D06F5
:100F9000F60166817781CE014F960E94631289A186
:100FA0009AA1ABA1BCA1F60182839383A483B583EC
:100FB000C801A4960FB6F894DEBF0FBECDBFCF9187
:100FC000DF911F910F91FF90EF90DF90CF900895E8
:100FD000FC011382128288EE93E0A0E0B0E08483EB
:100FE0009583A683B7838BEB93E09183808388E01E
:100FF00084870895DF93CF930F92CDB7DEB7FC01BE
:101000006983A081B18112962D913C911397BE0105
:101010006F5F7F4F41E050E0F90109950F90CF914C
:10102000DF910895CF93DF93EC0107C0E881F98148
:101030000680F781E02DCE010995E881F9810480D1
:10104000F581E02DCE010995892B81F7DF91CF91B4
:10105000089520E0FC018485883009F021E0822F8A
:1010600008950F9389EF94E060E040E020E000E015
:101070000E9439210F910895FC016485683011F4B4
:1010800080E008956295660F607E685F83E090E07F
:101090000E944A0E0895CF93DF93EC018C8588302F
:1010A00011F480E019C0CE010E943C08843191F017
:1010B000882381F0883171F08C3151F4E881F98115
:1010C0000480F581E02DCE01099520E0892B19F0EF
:1010D00021E001C020E0822FDF91CF910895EF92AF
:1010E000FF920F931F93CF93DF93EC018C85883091
:1010F00089F10E94190C0E94F6247B018C01CE011B
:101100000E943C08882301F10E94F6246E197F0991
:10111000800B910B685E734080409040A8F461E0C2
:1011200070E080E090E00E942A25E9CF8C850E9443
:10113000610CEC85F0E0EE0FFF1FE552FB4F1182D2
:10114000108288E08C8706C0CE010E943C0888236C
:1011500081F3ECCFDF91CF911F910F91FF90EF9032
:1011600008950F931F93DF93CF930F92CDB7DEB700
:101170008C01DC01ED91FC910480F581E02D099555
:10118000892B19F42FEF3FEF0AC0F8018485BE01C7
:101190006F5F7F4F0E94BF0D8981282F30E0C9010A
:1011A0000F90CF91DF911F910F910895FC018485DD
:1011B0000E94CE0D0895DF93CF930F92CDB7DEB787
:1011C000FC018485BE016F5F7F4F41E050E00E94CB
:1011D000CE0D181619061CF02FEF3FEF03C08981C2
:1011E000282F30E0C9010F90CF91DF910895FC01C5
:1011F0006485683019F420E030E005C087E095E0B0
:101200000E94C40E9C01C90108950F931F93CF93B0
:10121000DF938C01EA01FC018485883019F481E0B8
:1012200090E007C00E94680D892B39F481E090E0BE
:10123000F80193838283C0E0D0E0CE01DF91CF91AB
:101240001F910F910895CF92DF92EF92FF920F932B
:101250001F93CF93DF938C017B016A01FC0184858E
:10126000883009F059C0C0E0D0E0CE018295880FE7
:10127000807E682F685F83E090E00E944A0E88239A
:1012800021F0883111F08C3119F4F801C48704C0C1
:101290002196C830D10549F7F80124852830E1F1BD
:1012A0008091B0039091B10301969093B103809324
:1012B000B003892B31F480E094E09093B1038093E4
:1012C000B0034091B0035091B103822F61E020E060
:1012D0000E94960C82E090E0E80EF91EF8018485E9
:1012E000B701A6010E94020D09C061E070E080E034
:1012F00090E00E942A25C8010E943C08882321F41E
:1013000088E0F801848708C0C8010E943C08873142
:1013100061F721E030E002C020E030E0C901DF9158
:10132000CF911F910F91FF90EF90DF90CF90089594
:101330006F927F928F929F92AF92BF92CF92DF92E5
:10134000EF92FF920F931F93DF93CF93CDB7DEB74A
:10135000E5970FB6F894DEBF0FBECDBF4C015B0121
:101360003A0193E1E92EF12CEC0EFD1EC7010E941B
:10137000B421CE014B960E94440B6E010894C11C0F
:10138000D11CC6010E94B4218E01095F1F4FC80104
:101390006BEE74E00E94BD05C701B8010E942218DF
:1013A000C701B501A6010E94A11A9C0181309105D7
:1013B000C9F4D401ED91FC910484F585E02D83E41A
:1013C00094E09E878D878B819C81AD81BE818F87C4
:1013D000988BA98BBA8BC401BE01635F7F4FA301B9
:1013E00009959C01C901E5960FB6F894DEBF0FBEC2
:1013F000CDBFCF91DF911F910F91FF90EF90DF90C4
:10140000CF90BF90AF909F908F907F906F900895F6
:10141000DC01ED91FC91008CF18DE02D0995089592
:10142000DB01FC0123E434E03183208351962D91CC
:101430003D914D915C91549722833383448355832E
:101440000895FC01858996890895FC01818D928D0E
:101450000895DF93CF930F92CDB7DEB7FC01698378
:10146000A081B18112962D913C911397BE016F5FBF
:101470007F4F41E050E0F90109950F90CF91DF9146
:101480000895CF93DF93EC0107C0E881F9810680CE
:10149000F781E02DCE010995898D9A8D892BA9F7C9
:1014A000DF91CF9108950F938FEF94E060E040E0DB
:1014B00020E000E00E9439210F910895DF93CF933F
:1014C0000F92CDB7DEB7FC01818D928D892B19F477
:1014D0002FEF3FEF09C08485BE016F5F7F4F0E94F1
:1014E000BF0D8981282F30E0C9010F90CF91DF9186
:1014F0000895CF93DF93EC019A01498D5A8D4115E0
:101500005105A1F02417350710F08C8502C08C8599
:10151000A9010E94CE0D9C01181619063CF4898D74
:101520009A8D821B930B9A8F898F02C02FEF3FEF0A
:10153000C901DF91CF9108950F931F93DF93CF934C
:101540000F92CDB7DEB78C01FC01818D928D892B76
:10155000A9F08485BE016F5F7F4F41E050E00E949B
:10156000CE0D1816190654F4F801818D928D01974D
:10157000928F818F8981282F30E002C02FEF3FEFBB
:10158000C9010F90CF91DF911F910F910895EF92B4
:10159000FF920F931F93DF93CF93CDB7DEB72897BA
:1015A0000FB6F894DEBF0FBECDBF8C01DC01ED910C
:1015B000FC910284F385E02D099587E095E0F80120
:1015C00064850E94C40E892B19F420E030E025C008
:1015D000D8011C968C917E010894E11CF11CB70186
:1015E00048E050E00E94CE0D9C0118161906ACF49C
:1015F000C8010F96B7010E9496219D8180E02E813F
:10160000820F911DF801968B858B9F8180E0288544
:10161000820F911D928F818F9C01C90128960FB670
:10162000F894DEBF0FBECDBFCF91DF911F910F9118
:10163000FF90EF9008950F931F938C01FB019A0187
:10164000DC0157966D917C9158971C968C91AF0157
:101650000E94380D9C01F8018789908D820F931F9D
:10166000908F878BC9011F910F910895FC0184858C
:101670000E94350C0895FC01108E178A6E5F7F4F13
:1016800084850E94DC0C0895FC011382128288EE8E
:1016900093E0A0E0B0E084839583A683B78387EDD1
:1016A00093E09183808388E08487CF010F960E9426
:1016B000B42108956F927F928F929F92AF92BF92C2
:1016C000CF92DF92EF92FF920F931F93DF93CF930E
:1016D000CDB7DEB7E5970FB6F894DEBF0FBECDBF2E
:1016E0004C015B013A0183E1E82EF12CEC0EFD1E6A
:1016F000C7010E94B421CE014B960E94440B6E019B
:101700000894C11CD11CC6010E94B4218E01095F3E
:101710001F4FC8016BEE74E00E94BD05C701B80100
:101720000E942218C701B501A6010E94A11A9C01BE
:1017300081309105C9F4D401ED91FC910088F189C3
:10174000E02D83E494E09E878D878B819C81AD8121
:10175000BE818F87988BA98BBA8BC401BE01635F52
:101760007F4FA30109959C01C901E5960FB6F89436
:10177000DEBF0FBECDBFCF91DF911F910F91FF90C4
:10178000EF90DF90CF90BF90AF909F908F907F9021
:101790006F900895CF93DF93EC018C85883061F0D2
:1017A0000E94610CEC85F0E0EE0FFF1FE552FB4F4D
:1017B0001182108288E08C87DF91CF910895EF929B
:1017C000FF920F931F93CF93DF938C017B01FC015A
:1017D0008485883031F5C0E0D0E0CE018295880F55
:1017E000807E682F685F83E090E00E944A0E882325
:1017F00011F0883119F4F801C48704C02196C8306B
:10180000D10559F7F8018485883059F0F686E586C8
:10181000128E118E62E0A70120E00E94960C81E0FA
:1018200001C080E0DF91CF911F910F91FF90EF9069
:101830000895682F87E095E048E050E00E948F0F00
:1018400008959B01682F6295660F607E685FC901ED
:101850000E944A0E08959B01682F6295660F607E74
:10186000645FC9010E940E0E08951F93182F87E030
:1018700095E0612F40E250E00E948F0F10C0812F51
:1018800062E070E00E94210C83FF09C0812F62E0BA
:1018900070E048E10E942B0C20E030E00FC0812F67
:1018A00062E070E00E94210C84FFE9CF812F62E0AA
:1018B00070E040E10E942B0C21E030E0C9011F9153
:1018C00008951F93182F87E095E0612F40E150E0C5
:1018D0000E948F0F812F62E070E04FEF0E942B0C6F
:1018E0001F9108950F931F93182F062F472F60E124
:1018F00070E00E942B0C812F61E170E0402F0E946C
:101900002B0C1F910F9108950F931F93182F062FE3
:10191000472F64E070E00E942B0C812F65E070E09F
:10192000402F0E942B0C1F910F910895FF920F934F
:101930001F93CF93DF93082FF62EEA01122F862FE5
:101940008150853010F080E024C0802F0E94610C0F
:101950001F29802F60E070E0412F0E942B0C209700
:1019600019F0802FBE010BC060910505709106052E
:101970006F5F7F4F7093060560930505802F0E946F
:10198000840C87E095E0602F41E050E00E948F0FCB
:1019900081E0DF91CF911F910F91FF900895AB01EE
:1019A000682F6295660F607E645F8CE090E024E0B3
:1019B00030E00E94260E08951F93CF93DF93182FD7
:1019C000FB01EA018081882349F48181882331F475
:1019D0008281882319F48381882369F0209759F044
:1019E000812FBF010E94CF0C812FBE010E94720C7B
:1019F00021E030E002C020E030E0C901DF91CF916A
:101A00001F9108951F93CF93DF93182FFB01EA01D5
:101A100080818F3F51F481818F3F91F482818F3F8C
:101A200079F483818F3F61F41EC0882349F481815A
:101A3000882331F48281882319F48381882399F0E3
:101A4000209789F0812FBF010E94CF0C812FBE010A
:101A50000E94720C87E095E0612F44E050E00E9404
:101A60008F0F81E001C080E0DF91CF911F91089539
:101A7000AF92BF92DF92EF92FF920F931F93CF939B
:101A8000DF93D82EEB015A01890187E095E06D2D97
:101A90000E94F60E8017910710F0780106C087E0CB
:101AA00095E06D2D0E94F60E7C0187E095E06D2D8E
:101AB000AE01950187010E94610EC701DF91CF91B0
:101AC0001F910F91FF90EF90DF90BF90AF9008951E
:101AD000CF92DF92EF92FF921F93CF93DF93182F55
:101AE0006B01EA0188E04130580710F0C0E0D8E00F
:101AF00087E095E0612F0E94F60E7C01812F63E064
:101B000070E00E94210C873129F08C3119F0C0E07F
:101B1000D0E003C0EC16FD0658F387E095E0612F96
:101B2000A6019E010E94A20E87E095E0612F40E28F
:101B300050E00E948F0F0DC0812F63E070E00E9483
:101B4000210C882331F4812F0E94610CC0E0D0E089
:101B50000DC0812F62E070E00E94210C84FFECCF69
:101B6000812F62E070E040E10E942B0CCE01DF91FA
:101B7000CF911F91FF90EF90DF90CF9008950F933A
:101B8000282FAB0187E095E0622F21E030E001E0F3
:101B90000E94440F81E090E00F910895CF92DF9270
:101BA000FF920F931F93CF93DF93F82E6B018A015F
:101BB00087E095E06F2D0E94C40EEC01009761F460
:101BC0008F2D63E070E00E94210C8431D9F08823CE
:101BD000C9F08C31B9F01FC0081719070CF4E801DF
:101BE0001C161D067CF487E095E06F2DA6019E0172
:101BF00000E00E94440F87E095E06F2D40E450E044
:101C00000E948F0FCE01DF91CF911F910F91FF9016
:101C1000DF90CF900895CFEFDFEFF4CF2A989EBDED
:101C20000DB407FEFDCF9EB58EBD0DB407FEFDCFF2
:101C30008EB56EBD0DB407FEFDCF8EB54EBD0DB495
:101C400007FEFDCF8EB52A9A81E008952A989EBDA1
:101C50000DB407FEFDCF9EB58EBD0DB407FEFDCFC2
:101C60008EB56EBD0DB407FEFDCF8EB560E070E0A1
:101C70000BC0FA01E60FF71F80818EBD0DB407FE81
:101C8000FDCF8EB56F5F7F4F6217730790F32A9A6F
:101C9000C90108952A989EBD0DB407FEFDCF9EB5DB
:101CA0008EBD0DB407FEFDCF8EB56EBD0DB407FE23
:101CB000FDCF8EB51EBC0DB407FEFDCF8EB52A9AA2
:101CC0000895AF92BF92CF92DF92EF92FF920F935F
:101CD0001F93C62E7A015901862F64E270E00E949C
:101CE000210CD82E8C2D65E270E00E94210CC2944C
:101CF000CC0C90EEC922E80EF11C9D2D80E0E80E80
:101D0000F91E84E1C80EC7016C2DA50198010E943F
:101D1000260EE00EF11E1C2D185084E290E0612F7B
:101D20004F2D0E940E0E85E290E0612F4E2D0E94F5
:101D30000E0E1F910F91FF90EF90DF90CF90BF900C
:101D4000AF9008950F931F93FA01890140E050E08E
:101D50009F010E94610E1F910F910895FF920F93B2
:101D60001F93F82E66E270E00E94210C182F00E00D
:101D70008F2D67E270E00E94210C080F111DC80131
:101D80001F910F91FF900895FF920F931F93CF9390
:101D9000DF93F62EC0E0D0E08F2D0E94AE0E8C01B6
:101DA000009721F08F2D0E94AE0EEC01C017D107D5
:101DB00099F7CE01DF91CF911F910F91FF90089578
:101DC000FF920F931F93F82E60E270E00E94210CA7
:101DD000182F00E08F2D61E270E00E94210C080FA7
:101DE000111DC8011F910F91FF900895FF920F934D
:101DF0001F93CF93DF93F62EC0E0D0E08F2D0E948B
:101E0000E00E8C01009721F08F2D0E94E00EEC0176
:101E1000C017D10799F7CE01DF91CF911F910F9194
:101E2000FF9008952A989EBD0DB407FEFDCF9EB584
:101E30008EBD0DB407FEFDCF8EB56EBD0DB407FE91
:101E4000FDCF8EB560E070E00BC01EBC0DB407FE88
:101E5000FDCF8EB5FA01E60FF71F80836F5F7F4FCE
:101E60006217730790F32A9AC90108950F931F937D
:101E7000CA016295660F607E685EA90198010E94A2
:101E8000120F1F910F9108958F929F92AF92BF9260
:101E9000CF92DF92EF92FF920F931F93CF93DF9336
:101EA0007C01A62E6A014901B02E862F68E270E0FF
:101EB0000E94210C182F8A2D69E270E00E94210CEB
:101EC000312F20E0E901C80FD11DC7016A2DAE01F5
:101ED000960184010E94360FBB20A1F47E01E80C1C
:101EE000F91C1A2D1295110F107E145F88E290E0F4
:101EF000612F4F2D0E940E0E89E290E0612F4E2D32
:101F00000E940E0EDF91CF911F910F91FF90EF90E5
:101F1000DF90CF90BF90AF909F908F9008951F93C8
:101F2000162F6295660F607E645F81E090E00E94EC
:101F30000E0E812F61E070E00E94210C8823C9F70A
:101F40001F9108950F931F93229A6CE271E080E035
:101F500090E00E942A250E942E1200E0102F129578
:101F6000110F107E145F8EE190E0612F42E00E941D
:101F70000E0E8FE190E0612F42E00E940E0E0F5F87
:101F8000083061F71F910F91089581E090E0089566
:101F9000CA010895FC017183608308950F9388E05E
:101FA00095E060E040E020E000E00E9439210F91E0
:101FB00008958F929F92AF92BF92CF92DF92EF924D
:101FC000FF920F931F93DF93CF93CDB7DEB72C977C
:101FD0000FB6F894DEBF0FBECDBF5B0169017A0179
:101FE0004801CB0161E072E00E94F0021C86C7014B
:101FF000B6012AE030E040E050E00E94AD29605D8B
:102000006B878E01065F1F4F0DC0C701B6012AE026
:1020100030E040E050E00E94AD29605DF80160834F
:1020200001501040C701B6012AE030E040E050E026
:102030000E94AD29C901DA016C017D01C114D104EE
:10204000E104F10411F70F5F1F4FC501B8010E94B1
:10205000E502C5016CE072E00E94E502C501B40131
:102060000E94E5022C960FB6F894DEBF0FBECDBFDE
:10207000CF91DF911F910F91FF90EF90DF90CF9064
:10208000BF90AF909F908F9008958F929F92AF9244
:10209000BF92CF92DF92EF92FF920F931F93DF9345
:1020A000CF93CDB7DEB7C654D0400FB6F894DEBF9D
:1020B0000FBECDBF8C015B014A0133E2C32ED12C90
:1020C000CC0EDD1EFC0160817181C6010E94F81EEC
:1020D00025E0E22EF12CEC0EFD1EF501228133816C
:1020E00044815581C801B7010EE412E00E94D90F66
:1020F000C6010E94161C0091B4031091B503C601DD
:1021000062E172E040E550E09701EE24FF240E9476
:10211000641E8C01009709F047C0C60161E272E0BD
:10212000A4010E94AD1DC6016AE272E045E352E0DF
:102130000E94AD1D1C821B828BEF93E09A838983E2
:10214000CE010196B5010E940222AC01C60163E5F1
:1021500072E00E948E1DC601B5010E940222C601D6
:102160000E94851DC6010E946D1C8C01885C9040F8
:102170008436910550F0C80117FF03C090958195F2
:102180009F4F00271127081B190BEFA5F8A9A08165
:10219000B1811A962D913C911B97CF01F9010995B8
:1021A000CE0183960E94F21BC801CA5BDF4F0FB6B7
:1021B000F894DEBF0FBECDBFCF91DF911F910F917D
:1021C000FF90EF90DF90CF90BF90AF909F908F9057
:1021D0000895FC0187859089039721F4408F518FE2
:1021E000628F738F0895FC0187859089039729F08A
:1021F00070E060E090E080E004C0708D618D928DB1
:10220000838D272F362F492F582FB901CA010895E2
:10221000EF92FF920F931F93CF93DF93EC017B011B
:10222000CB0162E672E00E946B238C018A819B8164
:10223000892B39F4BE016C5F7F4FC7010E947B245C
:1022400005C06B857C85C7010E946B23080F191F91
:10225000C7016DE672E00E946B23080F191F8F857E
:1022600098898130910591F0823091051CF4892B79
:1022700039F025C08230910579F0039701F514C03B
:102280006196C701BE010E947B2417C0688D798DBD
:10229000C7010E946B2311C0688D798DC7014AE088
:1022A00050E00E94392309C0488D598D6A8D7B8D7D
:1022B000C70122E030E00E945224080F191FC70115
:1022C00064E872E00E946B239C01200F311FC9015A
:1022D000DF91CF911F910F91FF90EF9008958F9212
:1022E0009F92AF92BF92CF92DF92EF92FF920F93A5
:1022F0001F938C015B014A01690183E094E0F801BE
:102300009183808381E090E09383828338E8E32E99
:1023100032E0F32EC8010496B7010E944F27F8015E
:10232000D08AC786C8014196B7010E944F27F8019D
:10233000B486A386968685861F910F91FF90EF90B5
:10234000DF90CF90BF90AF909F908F9008950F93A4
:102350001F93FC0189E094E091838083428353833F
:102360006483758337832683118700871F910F91BC
:1023700008950F938EE095E060E040E020E000E0FB
:102380000E9439210F910895AF92BF92CF92DF92B0
:10239000EF92FF920F931F93CF93DF935C017B012A
:1023A000CB0169E872E00E9468248C01C7016BE8E8
:1023B00072E00E946824EC01C7016EE972E00E949D
:1023C0006824C00FD11FC80FD91F00E010E0CC2433
:1023D000DD2422C0F501668177816C0D7D1DC7016A
:1023E0000E940222C80FD91FF501808591850197AF
:1023F0000817190721F4C7010E940D2205C0C70163
:1024000060EB72E00E946824C80FD91F0F5F1F4F56
:102410008CE190E0C80ED91EF501808591850817E2
:102420001907C4F2C70162EB72E00E9468248C01B4
:10243000C70164EB72E00E9468249C01200F311FE9
:102440002C0F3D1FC901DF91CF911F910F91FF907C
:10245000EF90DF90CF90BF90AF9008958AE061E059
:102460000E9419268AE061E00E94AD258CB580614A
:102470008CBD8CB580648CBD8DE061E00E94AD2583
:102480008BE061E00E94AD250895FB0180E380832D
:10249000842F82958F704F704A3014F4405D01C0D4
:1024A000495C41833197882311F0482FF1CF08957B
:1024B0000F9384E195E060E040E020E000E00E94BE
:1024C00039210F9108950F931F938C01625E7F4F06
:1024D0000E94A321C8011F910F9108950F931F938C
:1024E0008C016A5E7F4F0E94A321C8011F910F914A
:1024F00008950F931F938C016E5E7F4F0E94A3215E
:10250000C8011F910F9108950F931F938C01625F73
:102510007F4F0E94A321C8011F910F9108952F9210
:102520003F924F925F926F927F928F929F92AF9263
:10253000BF92CF92DF92EF92FF920F931F93DF93A0
:10254000CF93CDB7DEB7E8970FB6F894DEBF0FBED6
:10255000CDBF5C013A014B0129010E94F6247B01A9
:102560008C01F7E4CF2ED12CCA0CDB1C14C00E94C6
:10257000F6246E197F09800B910B66167706880684
:10258000990618F477247A941AC262E370E080E026
:1025900090E00E942A25C6010E94C70A1816190653
:1025A00034F7C601BE01635F7F4F42E250E00E94F4
:1025B000790A8D85823009F0FEC12CE530E0A20E4B
:1025C000B31EF5018081918124EA3FEFA20EB31E74
:1025D0008334910509F0EFC129893A894B895C89D7
:1025E000E52EFF2400271127B22FAA279927882735
:1025F000E82AF92A0A2B1B2BB42FA32F922F882706
:1026000080709070B070E82AF92A0A2B1B2B232FB8
:10261000342F452F5527207040705070E22AF32A3E
:10262000042B152BF201E082F18202831383B501A2
:10263000685F7F4FCE01899646E050E00E94CF024E
:10264000009799F4F50180819181A281B381E81608
:10265000F9060A071B0748F084819581A681B78196
:102660008E159F05A007B10728F4C6010E94410AF4
:102670007724A5C18D8D9E8DAF8DB8A1F50186877C
:102680009787A08BB18B00E010E0C6010E949C0AE6
:102690000F5F1F4F0E3C1105C1F795012E5E3F4F96
:1026A00038AF2FABC50146969EAB8DABF5017E963C
:1026B000FCABEBAB8AE1882E912C8A0C9B1C95011C
:1026C0002A5D3F4F3AAB29ABC5018A9698AB8FA7DD
:1026D00002E2202E312C2A0C3B1C772418E5412ED7
:1026E000512C4A0C5B1C5FC1C6010E949C0A8333BB
:1026F000910509F414C1843391058CF4813091055E
:1027000069F18230910524F4892B09F44CC140C150
:102710008330910551F1069709F03AC142C08A33DE
:10272000910509F490C08B3391053CF485339105F4
:1027300069F0C69709F02CC150C08B33910509F49C
:10274000B8C08F3F910509F023C12DC1C6010E9479
:102750009C0AC6010E949C0A782E25C1C6010E94CF
:102760009C0AC6016FA978AD62C0C6010E949C0A8E
:10277000182FC6016DA97EA944E050E00E94790A95
:10278000EE24FF24012F10E00450104006C0C601C3
:102790000E949C0A0894E11CF11CE016F106BCF3AF
:1027A00002C1C6010E949C0A182FC6016BA97CA910
:1027B00044E050E00E94790AEE24FF24012F10E04B
:1027C0000450104006C0C6010E949C0A0894E11CF7
:1027D000F11CE016F106BCF3E6C0C6010E949C0A9B
:1027E000182FF40180819181A281B3810097A10506
:1027F000B105D9F0CE010196B4010E94A32123E4D2
:1028000034E038872F83F201208131814281538166
:1028100029873A874B875C878B819C81AD81BE81FC
:1028200082179307A407B50759F4C601B40144E021
:1028300050E00E94790AB7C0C6010E949C0A11505C
:102840001123D1F7B0C0C6010E949C0AC60169A934
:102850007AA944E050E00E94790AF50126A137A147
:1028600040A551A5E52EFF2400271127B22FAA2746
:1028700099278827E82AF92A0A2B1B2BB42FA32F84
:10288000922F882780709070B070E82AF92A0A2B5E
:102890001B2B232F342F452F55272070407050704D
:1028A000E22AF32A042B152BE6A2F7A200A711A710
:1028B0007AC0C6010E949C0AC6016FA578A944E0AF
:1028C00050E00E94790AF50122A533A544A555A53B
:1028D000E52EFF2400271127B22FAA279927882742
:1028E000E82AF92A0A2B1B2BB42FA32F922F882713
:1028F00080709070B070E82AF92A0A2B1B2B232FC6
:10290000342F452F5527207040705070E22AF32A4B
:10291000042B152BE2A6F3A604A715A744C0C601F5
:102920000E949C0AC601B10144E050E00E94790A6D
:10293000F50122A133A144A155A1E52EFF240027D2
:102940001127B22FAA2799278827E82AF92A0A2BC4
:102950001B2BB42FA32F922F882780709070B070FC
:10296000E82AF92A0A2B1B2B232F342F452F552712
:10297000207040705070E22AF32A042B152BE2A23B
:10298000F3A204A315A3E6A6F7A600AB11AB0BC0F8
:10299000C6010E949C0A182F04C0C6010E949C0A0E
:1029A00011501123D1F7C6010E94250A18161906E5
:1029B0000CF49ACE01C07724C6010E94410A872DEB
:1029C000E8960FB6F894DEBF0FBECDBFCF91DF9172
:1029D0001F910F91FF90EF90DF90CF90BF90AF903D
:1029E0009F908F907F906F905F904F903F902F902F
:1029F00008950E96FC0184E1DF011D928A95E9F7A6
:102A000008954F925F926F927F928F929F92AF92B2
:102A1000BF92CF92DF92EF92FF920F931F93DF93BB
:102A2000CF93CDB7DEB7E2970FB6F894DEBF0FBEF7
:102A3000CDBF6C01462E3A01F3E18F2E912C8C0E06
:102A40009D1EE0E25E2EF401252D11922A95E9F7F4
:102A5000CE0107966FEF4FEF2FEF0FEF0E94392156
:102A600077E4A72EB12CAC0CBD1C83E494E09E87C8
:102A70008D8789859A85AB85BC858F87988BA98B37
:102A8000BA8BC501BE01635F7F4F43E450E00E94F3
:102A90003B0B8F5F9F4F09F4F3C081E08B8B8C8BD6
:102AA00086E08D8B1E8AF60124813581468157810F
:102AB000E52EFF2400271127B22FAA279927882760
:102AC000E82AF92A0A2B1B2BB42FA32F922F882731
:102AD00080709070B070E82AF92A0A2B1B2B232FE4
:102AE000342F452F5527207040705070E22AF32A6A
:102AF000042B152BEB82FC820D831E83EF8AF88E4C
:102B0000098F1A8F7B8E6C8E80E890E09A83898380
:102B10009E8F8D8FC501B4014CE150E00E941B0BCC
:102B2000F40111925A94E9F7A8E06A2E712C6C0C0A
:102B30007D1CD401F30186E001900D928150E1F7F4
:102B40008E010D5E1F4FC501B80140E150E00E94AB
:102B50001B0B80E2F80111928A95E9F7EE24FF241D
:102B6000902E012FC501692D702F40E250E00E9488
:102B70001B0B0894E11CF11CF6E0EF16F10491F731
:102B800093E69B8B82E88C8B83E58D8B9E8B85E314
:102B90008F8B91E0988F498E8DE38A8F87E08B8FA2
:102BA0009C8FDE015D96F30186E001900D928150CD
:102BB000E1F78CE08BA38CA38E010D5E1F4FCE013D
:102BC000859666EB72E00E94F002C601BE01655D6B
:102BD0007F4FF60143850E944512C601BE01635D29
:102BE0007F4FF60144850E944512C601BE01615D1A
:102BF0007F4FF60145850E944512C501B8014EE19F
:102C000050E00E941B0BF3E04F16F1F482E38B8B34
:102C100094E09C8BF60186858D8B87858E8B8089D1
:102C20008F8B8189888F86E3898F9A8F828D8B8F96
:102C3000838D8C8F848D8D8F858D8E8FC501B8018E
:102C40004CE050E00E941B0B87E38B8B96E09C8B43
:102C500081E08D8B83E08E8B9F8B8FE0888F8AE362
:102C6000898F8BE38A8F8FEF8B8FC501BE016D5EDD
:102C70007F4F49E050E00E941B0BC5010E94360BBC
:102C8000E2960FB6F894DEBF0FBECDBFCF91DF91B5
:102C90001F910F91FF90EF90DF90CF90BF90AF907A
:102CA0009F908F907F906F905F904F9008952F929C
:102CB0003F924F925F926F927F928F929F92AF92CC
:102CC000BF92CF92DF92EF92FF920F931F93DF9309
:102CD000CF9300D000D0CDB7DEB78C0161E070E0BB
:102CE00080E090E020ED37E040E050E00E94B72621
:102CF000D80114966C93149715967C931597169695
:102D00008C93169717969C9317976C9311967C93B8
:102D1000119712968C93129713969C9377E4272E13
:102D2000312C200E311EC10164E470E00E94DF0BE3
:102D3000882319F46624772422C10E94F6244B01CB
:102D40005C016624772466E4C62ED12CC00ED11E09
:102D50005EE3452E512C400E511E42E0E42EFBC096
:102D6000882309F5F80184819581A681B7810196B0
:102D7000A11DB11D84839583A683B7830E94F62489
:102D8000681979098A099B0928EE33E040E050E090
:102D90000E94AD29C80161E0A9010E94011581E0EE
:102DA000D6018C93C2C0843001F5F80184819581ED
:102DB000A681B7810196A11DB11D84839583A68349
:102DC000B7830E94F624681979098A099B0928EEBD
:102DD00033E040E050E00E94AD29C80163E0A90162
:102DE0000E940115D601EC92A0C0813069F5F20174
:102DF0004081518162817381C8019E012F5F3F4FE5
:102E00000E948F12F82EF2E08F1709F089C0898195
:102E10009A81AB81BC81F80184839583A683B783B3
:102E20000E94F624681979098A099B0928EE33E083
:102E300040E050E00E94AD29C80163E0A9010E9472
:102E40000115D601FC9271C0823009F06EC0F2010A
:102E50004081518162817381C8019E012F5F3F4F84
:102E60000E948F12F82EF5E08F1709F053C0E3E0AF
:102E7000D601EC93F80182A193A1A4A1B5A100977A
:102E8000A105B10541F484E893E0A0E0B0E082A39D
:102E900093A3A4A3B5A3F80186A197A1A0A5B1A56A
:102EA0000097A105B10561F482A193A1A4A1B5A1E8
:102EB000B695A7959795879586A397A3A0A7B1A741
:102EC000F80182A593A5A4A5B5A50097A105B10514
:102ED00061F486A197A1A0A5B1A5880F991FAA1F8B
:102EE000BB1F82A793A7A4A7B5A7F80186A197A1A6
:102EF000A0A5B1A586A797A7A0ABB1AB82A593A5C6
:102F0000A4A5B5A582AB93ABA4ABB5ABA1E06A2EEB
:102F1000712C0BC0F6E08F1719F4D6011C9205C076
:102F2000BFEFFB1611F4F6011082F1E06F16710489
:102F300091F00E94F624681979098A099B09D80141
:102F4000DA962D913D914D915C91DD9726173707CB
:102F50004807590728F0F6018081833009F000CF37
:102F6000C1010E94CA0BF80184819581A681B781B5
:102F70000196A11DB11D84839583A683B783C301E8
:102F80000F900F900F900F90CF91DF911F910F91A5
:102F9000FF90EF90DF90CF90BF90AF909F908F9079
:102FA0007F906F905F904F903F902F900895CF92B9
:102FB000DF92EF92FF920F931F93CF93DF93EC0179
:102FC000D62EC72E1AA21BA21CA21DA21EA21FA291
:102FD00018A619A61AA61BA61CA61DA61EAA1FAADD
:102FE00018AE19AE2AAF3BAF4CAF5DAFEE96E8829C
:102FF000F9820A831B83EE978E01085F1F4F86E0DC
:10300000F80111928A95E9F7CE010E94F914D801CE
:103010002D2D3C2DC901FC0186E001900D928150BF
:10302000E1F7CA5BDF4F1882C654D040CE010E9440
:103030005716DF91CF911F910F91FF90EF90DF9086
:10304000CF9008959C01FB0182819381A481B58179
:10305000F90182839383A483B5831782168208952E
:10306000CF93DF93FB0101C0319680818823E1F784
:10307000EB01A0E0B0E020E030E021C06E3261F46E
:103080002F3F310509F07CF5FA01EA0FFB1F22837F
:10309000119620E030E012C0C901E3E0880F991FCB
:1030A000EA95E1F7220F331F820F931F262F332754
:1030B00027FD309520533040280F391F2196688115
:1030C000662319F0A430B105CCF22F3F310509F089
:1030D00054F4A430B1053CF4A40FB51F12962C9300
:1030E00021E030E002C020E030E0C901DF91CF9163
:1030F00008950F938AE195E060E040E020E000E071
:103100000E9439210F9108952F923F924F925F9222
:103110006F927F928F929F92AF92BF92CF92DF92E7
:10312000EF92FF920F931F93DF93CF93CDB7DEB74C
:1031300069970FB6F894DEBF0FBECDBF4C018B016F
:103140001A010E94F6242B013C01F8E0EF2EF12C2D
:10315000E80CF91C5801CC24DD2414C00E94F6248C
:103160006419750986099709A616B706C806D9060F
:1031700018F42FEF3FEF0BC162E370E080E090E0C6
:103180000E942A25C7010E94C70A1816190634F79B
:10319000F4012281338144815581818D928DA38DEB
:1031A000B48D8A879B87AC87BD87281739074A0764
:1031B0005B0709F0EAC0858D968DC59709F0E5C0DB
:1031C00000C18E01025F1F4FC701B8014CE050E003
:1031D0000E94790AF801528143815B834A83F4019A
:1031E000268137818E859F852817390711F457FD71
:1031F00006C0C7010E94410A2CEF3FEFC8C04F70C4
:103200005270452B31F0C7010E94410A2BEF3FEF6E
:10321000BEC0F801768067806114710441F0AA2471
:10322000BB2448012E010894411C511C28C0C70131
:103230000E94410A2AEF3FEFAAC0C701B20141E054
:1032400050E00E94790A8981882321F408C0C701CF
:103250000E949C0A8981815089838F5FC1F789818F
:10326000882359F700E010E0C7010E949C0A0F5F15
:103270001F4F04301105C1F70894A11CB11CF401C3
:10328000D480C580AC14BD04C0F244245524C701C9
:10329000BE016F5F7F4F41E050E00E94790A998143
:1032A000892F807C61F4992321F40DC0C7010E940D
:1032B0009C0A8981815089838F5FC1F704C0C7014F
:1032C0000E949C0A19828981882309F7C701BE01DF
:1032D0006C5F7F4F42E050E00E94790AC701BE0157
:1032E0006A5F7F4F42E050E00E94790A00E010E000
:1032F000C7010E949C0A0F5F1F4F04301105C1F7E0
:10330000C701BE016E5F7F4F42E050E00E94790A24
:10331000DC80CD80F1E0CF16D10419F5BE80AF80FE
:1033200081E0A816B104E9F49A818B81049731F009
:10333000C7010E94410A27EF3FEF29C0E2E0F0E019
:103340002E0E3F1EC701B10144E050E00E94790AF1
:1033500021E030E01CC0C7010E949C0A0F5F1F4F94
:1033600002C000E010E09A808B800815190598F3E0
:103370000894411C511C4614570408F488CFC70117
:103380000E94410A26EF3FEF02C02EEF3FEFC90136
:1033900069960FB6F894DEBF0FBECDBFCF91DF9117
:1033A0001F910F91FF90EF90DF90CF90BF90AF9063
:1033B0009F908F907F906F905F904F903F902F9055
:1033C000089583E494E099878887C7010E94250ABD
:1033D0000C970CF0F6CE2DEF3FEFD9CF6F927F9286
:1033E0008F929F92AF92BF92CF92DF92EF92FF9215
:1033F0000F931F93DF93CF9300D00F92CDB7DEB71B
:103400008C01F62EE72E0E94F624F801778366835E
:10341000B8E0CB2ED12CC00ED11E0A5F1F4FC601C3
:10342000B80142E050E00E941B0B81E090E09B83DA
:103430008A83A2E08A2E912C8C0E9D1EC601B401B7
:1034400042E050E00E941B0B80E091E09B838A8366
:10345000C601B40142E050E00E941B0B1B821A829D
:10346000C601B40142E050E00E941B0BC601B4014A
:1034700042E050E00E941B0BC601B40142E050E064
:103480000E941B0B2F2D3E2DC9018C017C013E019A
:103490000894611C711C20C00894E11CF11CF70108
:1034A0008081882311F08E32B9F75701A01AB10A32
:1034B0001A141B0474F48E2D801B8983C601B3017A
:1034C00041E050E00E941B0BC601B801A5010E941B
:1034D0001B0B87010F5F1F4FF7018081882311F0BD
:1034E0007801DDCF1982C601BE016F5F7F4F41E0D9
:1034F00050E00E941B0B00E011E01B830A83C60111
:10350000B40142E050E00E941B0B1B830A83C601FA
:10351000B40142E050E00E941B0B81E090E00F906C
:103520000F900F90CF91DF911F910F91FF90EF902F
:10353000DF90CF90BF90AF909F908F907F906F90D3
:1035400008958F929F92AF92BF92CF92DF92EF92A7
:10355000FF920F931F93DF93CF9300D000D000D042
:10356000CDB7DEB76C017B014A010E943018892B70
:1035700019F001E010E067C0F60122813381448137
:10358000558180911C0590911D05A0911E05B0915B
:103590001F05281739074A075B0719F40EEF1FEFBD
:1035A00052C018E0A12EB12CAC0CBD1C0E94F62418
:1035B0009B01AC012F70307020503C4FC501B90108
:1035C0000E94DF0B813019F000E010E03CC083E482
:1035D00094E09A838983F60182819381A481B581E5
:1035E0008B839C83AD83BE83C501BE016F5F7F4F1C
:1035F00045E350E00E943B0B8C01009709F1C601A6
:10360000B7010E94EE198C010097D1F0C5010E940C
:10361000360B8C010097A1F0EE24FF24C60168E868
:1036200073E1A4010E9484188C010894E11CF11C30
:10363000F3E0EF16F10421F08FEF0F3F180771F35D
:10364000C5010E94CA0BC80126960FB6F894DEBFCA
:103650000FBECDBFCF91DF911F910F91FF90EF90E3
:10366000DF90CF90BF90AF909F908F900895FC0116
:1036700086859785089771F4228933898FEF2F3FCC
:10368000380741F040E084899589821793071CF040
:1036900041E001C040E0842F0895FC0186859785B4
:1036A000089771F4228933898FEF2F3F380741F053
:1036B00040E084899589821793071CF041E001C09E
:1036C00040E0842F0895DC011C96ED91FC911D973C
:1036D000A081B18114962D913C911597CF01F901EC
:1036E00009950895DC011C96ED91FC911D97A08130
:1036F000B18118962D913C911997CF01F901099547
:103700000895DC011C96ED91FC911D97A081B1817B
:103710001A962D913C911B97CF01F90109950895B7
:103720000F931F93DF93CF9300D000D000D0CDB77D
:10373000DEB7DB01FC0124853585F90180819181AB
:10374000FC010485158583E494E09A8389831296AD
:103750008D919D910D90BC91A02D8B839C83AD8309
:10376000BE83C901BE016F5F7F4FF80109952696A0
:103770000FB6F894DEBF0FBECDBFCF91DF911F9182
:103780000F910895FC01A485B585ED91FC911197E9
:103790000684F785E02DCD0109950895DC011C967E
:1037A000ED91FC911D97A081B18154962D913C9192
:1037B0005597CF01F9010995089520E0FC01848512
:1037C0009585892B09F021E0822F0895FC0160A1E5
:1037D00071A182A193A10895FC0140A351A362A30A
:1037E00073A308950F931F938C01FC01A485B585E5
:1037F000ED91FC9111970288F389E02DCD01099597
:10380000F80117861686118A108A138A128A158A79
:10381000148A178A168A80E395E7A0E0B0E080A3B7
:1038200091A3A2A3B3A31F910F91089521E030E0CB
:10383000FC01378726870895CF93DF93EC01EC8551
:10384000FD85A081B18116962D913C911797CF01EE
:10385000F90109959C0197FD0EC08E859F850897FB
:1038600051F48A899B89181619062CF48C899D8934
:1038700001969D8B8C8BC901DF91CF910895CF93D9
:10388000DF93EC01AC85BD85ED91FC91119700882B
:10389000F189E02DCD0109959C018E859F850897C2
:1038A00069F48A899B891816190644F437FD06C005
:1038B0008C899D89820F931F9D8B8C8BC901DF9111
:1038C000CF9108950F9380E295E060E040E020E022
:1038D00000E00E9439210F9108954F925F926F92FC
:1038E0007F928F929F92BF92CF92DF92EF92FF9240
:1038F0000F931F93CF93DF93EC018E859F850297E3
:103900001CF4EEEFFFEF9CC0BB2482E0482E512C4C
:1039100003E0602E712C14E0812E912C198A188AF4
:103920005F864E860E94F6247B018C01BDEBCB2E78
:10393000B2E0DB2E4DC0E881F9810680F781E02DF1
:10394000CE010995B82E8FEFB81609F441C08E85C7
:103950009F858230910519F0039779F511C0F60122
:1039600080818A3219F08B1509F068C00894C11C57
:10397000D11CF6018081882301F57F866E861DC0EB
:103980004B2D552747FD5095CA01C0970A9798F4CB
:10399000888999899C01A3E0220F331FAA95E1F73A
:1039A000880F991F280F391F20533040240F351FCF
:1039B000398B288B02C09F868E860E94F6247B015D
:1039C0008C0106C068EE73E080E090E00E942A253A
:1039D000FAE0BF1609F445C00E94F6246E197F096B
:1039E000800B910B28A139A14AA15BA16217730733
:1039F0008407950760F4E881F9810480F581E02D62
:103A0000CE010995892B09F096CFDCCFBB242E85FA
:103A10003F852430310531F488899989883C9105A6
:103A20000CF47CCF8AE0B81619F0EDEFFFEF08C078
:103A30002430310519F4E889F98902C0ECEFFFEF71
:103A4000CF01DF91CF911F910F91FF90EF90DF9009
:103A5000CF90BF909F908F907F906F905F904F908E
:103A6000089588899989883C910584F2D0CF0F9375
:103A70001F938C01FC01848595850E940D2282E0B4
:103A800090E0F801978786871F910F910895EF9234
:103A9000FF920F931F93CF93DF93EC018B017A0179
:103AA0008E859F8502971CF4CE010E94371DEC8500
:103AB000FD85A081B18112962D913C911397CF0184
:103AC000B801A701F9010995DF91CF911F910F91DD
:103AD000FF90EF9008951F93CF93DF93EC01162F83
:103AE0008E859F8502971CF4CE010E94371DEC85C0
:103AF000FD85A081B1812D913C91CF01612FF9010C
:103B00000995DF91CF911F910895FC0186859785D6
:103B100002971CF4CF010E94371D0895EF92FF9287
:103B20000F931F938C017A01FC01848595850E9477
:103B30006B23F801848595856DED72E00E946B23FF
:103B4000F80184859585B7014AE050E00E944C2336
:103B50001F910F91FF90EF900895EF92FF920F93B6
:103B60001F938C017A01FC01848595850E946B234B
:103B7000F801848595856DED72E00E946B23F80154
:103B800084859585B7010E9468241F910F91FF904D
:103B9000EF9008956F927F928F929F92AF92BF9213
:103BA000CF92DF92EF92FF920F931F93CF93DF9309
:103BB000EC015B013A014901B7018C859D850E94AA
:103BC0006B238C859D8560EE72E00E946B238E8D49
:103BD0009F8D892B19F18C859D8562EE72E00E9484
:103BE0006B238C859D85A114B10421F0B5010E9441
:103BF0006B2303C0B3010E94022280E58816910462
:103C000069F08C859D856AEE72E00E946B238C853D
:103C10009D85B4014AE050E00E94D6228C859D85A6
:103C2000B8010E946B238C859D856CEE72E00E942A
:103C30006824A114B10401F18C859D8566EF72E0C2
:103C40000E946B238C859D85B5010E946B2380E5C6
:103C50008816910469F08C859D856AEE72E00E9459
:103C60006B238C859D85B4014AE050E00E94D622EA
:103C70008C859D850E940D228C859D856DEF72E05F
:103C80000E946B238C859D85C114D10411F0B6016F
:103C900004C06091B2037091B3030E94682481E074
:103CA00090E09F878E8780E090E0DF91CF911F9119
:103CB0000F91FF90EF90DF90CF90BF90AF909F90CB
:103CC0008F907F906F9008952F923F924F925F92C6
:103CD0006F927F928F929F92AF92BF92CF92DF921C
:103CE000EF92FF920F931F93DF93CF93CDB7DEB781
:103CF0002E970FB6F894DEBF0FBECDBF5C016B01EF
:103D00004A0129011801FE86ED86DC011E966D90A0
:103D10007C901F97B2E06B16710418F00EEF1FEF46
:103D20004DC0FC01468D578D2485358541155105C3
:103D3000C9F0D901ED91FC910485158583E494E0E7
:103D40009A838983F501828D938DA48DB58D8B83A4
:103D50009C83AD83BE83C901BE016F5F7F4FF801B5
:103D6000099509C0D901ED91FC910684F785E02DF4
:103D7000C901A4010995892BF9F097E0E92EF12CEE
:103D8000EC0EFD1EC70160E040E020E000E00E9474
:103D90003921C501B601A701940182017101CD84C9
:103DA000DE840E94CA1D8C01672841F4009731F41B
:103DB000C5010E94371D02C00FEF1FEFC8012E96EC
:103DC0000FB6F894DEBF0FBECDBFCF91DF911F912C
:103DD0000F91FF90EF90DF90CF90BF90AF909F90AA
:103DE0008F907F906F905F904F903F902F900895AD
:103DF0000F931F938C01FC011382128288EE93E0D3
:103E0000A0E0B0E084839583A683B7838FE094E03D
:103E10009183808375876487C80148960E94B42186
:103E2000F801178E168E17861686118A108A138A45
:103E3000128A158A148A178A168A80E395E7A0E009
:103E4000B0E080A391A3A2A3B3A31F910F91089503
:103E500008951F920F920FB60F9211242F933F9344
:103E60004F938F939F93EF93FF938091C00082FDB8
:103E70001DC04091C60020916605309167052F5FF7
:103E80003F4F2F7330708091680590916905281716
:103E9000390771F0E0916605F0916705EA5DFA4F28
:103EA0004083309367052093660502C08091C60069
:103EB000FF91EF919F918F914F913F912F910F9093
:103EC0000FBE0F901F901895E091BA05F091BB05B9
:103ED000E05CFF4F8191919120813181821B930B96
:103EE0008F739070892B11F00E94281F08951F92E4
:103EF0000F920FB60F9211242F933F938F939F939E
:103F0000EF93FF932091AA053091AB058091AC050A
:103F10009091AD052817390731F48091C1008F7D4C
:103F20008093C10014C0E091AC05F091AD05E65955
:103F3000FA4F20818091AC059091AD0501968F7369
:103F400090709093AD058093AC052093C600FF91CF
:103F5000EF919F918F913F912F910F900FBE0F90F6
:103F60001F901895AF92BF92DF92EF92FF920F933E
:103F70001F93CF93DF93EC017A018B01DD24403056
:103F800081EE580780E0680780E0780711F0DD24B3
:103F9000D39491E0A92EB12CEC89FD89DD2069F044
:103FA000C50108A002C0880F991F0A94E2F7808318
:103FB00060E079E08DE390E005C0108260E874E88D
:103FC0008EE190E0A80197010E94AD292150304078
:103FD00040405040569547953795279580E12030D1
:103FE000380720F0DD2011F0DD24D6CFE889F989EB
:103FF0003083EA89FB89208319A2EE89FF894081F9
:1040000021E030E0C9010C8C02C0880F991F0A948E
:10401000E2F7482B4083EE89FF894081C9010D8C6E
:1040200002C0880F991F0A94E2F7482B4083EE895B
:10403000FF894081C9010E8C02C0880F991F0A9424
:10404000E2F7482B4083EE89FF8980810F8C02C004
:10405000220F331F0A94E2F7209528232083DF9153
:10406000CF911F910F91FF90EF90DF90BF90AF9095
:104070000895DC011C96ED91FC911D97E05CFF4FCB
:104080002191319180819181281B390B2F733070E0
:10409000C9010895DC011C96ED91FC911D97E05C2F
:1040A000FF4F20813181E054F040DF01AE5BBF4F14
:1040B0008D919C9111972817390719F42FEF3FEF35
:1040C00007C08D919C91E80FF91F8081282F30E067
:1040D000C9010895DC011C96ED91FC911D97E05CEF
:1040E000FF4F20813181E054F040DF01AE5BBF4FD4
:1040F0008D919C9111972817390719F42FEF3FEFF5
:1041000010C08D919C911197E80FF91F20818D911E
:104110009C91119701968F73907011969C938E933A
:1041200030E0C9010895DC0191968C919197882324
:1041300039F05496ED91FC915597808186FFF9CF27
:1041400091961C920895CF93DF93EC01EE85FF8545
:10415000E05CFF4F20813181E054F0402F5F3F4F02
:104160002F733070DF01AE5BBF4F8D919C91119723
:1041700028173907D1F3E05CFF4F80819181E0542B
:10418000F040E80FF91F6083EE85FF85E05CFF4F8C
:1041900031832083EE89FF89208181E090E00F8CBC
:1041A00002C0880F991F0A94E2F7282B208381E030
:1041B00089A3EC89FD8980818064808381E090E01F
:1041C000DF91CF9108951092B1051092B00588EE5D
:1041D00093E0A0E0B0E08093B2059093B305A09384
:1041E000B405B093B50583E394E09093AF05809355
:1041F000AE0586E295E09093BB058093BA058AE60A
:1042000095E09093BD058093BC0585EC90E090937C
:10421000BF058093BE0584EC90E09093C105809328
:10422000C00580EC90E09093C3058093C20581ECBB
:1042300090E09093C5058093C40582EC90E0909344
:10424000C7058093C60586EC90E09093C9058093DE
:10425000C80584E08093CA0583E08093CB0587E09E
:104260008093CC0585E08093CD0581E08093CE05D9
:1042700008950F93FC0183E494E09183808362832B
:104280004383248305830F91089583E494E09093FE
:10429000D1058093D0051092D2051092D3051092CB
:1042A000D4051092D50508958F929F92AF92BF9238
:1042B000CF92DF92EF92FF920F931F93CF93DF93F2
:1042C0004C016B017C01AA24BB24C0E0D0E0C601F4
:1042D000F70162814AE050E00E94E7228C01C601AA
:1042E0006EE20E94FA21080F191FA00EB11E21963E
:1042F0000894E11CF11CC330D10549F7C601F40153
:1043000065814AE050E00E94E7229501280F391F9D
:10431000C901DF91CF911F910F91FF90EF90DF9036
:10432000CF90BF90AF909F908F9008959C01FB011C
:1043300080819181A281B381F90182839383A483D7
:10434000B583C90108959C01FB0183E494E0D90180
:104350008D939C9380819181A281B381F9018283A5
:104360009383A483B5830895FC0183E494E091834F
:10437000808312821382148215820895CF93DF9373
:104380000E9450250E946205C4E6DFE10E94990365
:104390002097E1F30E94641FF9CF0E9497000895CF
:1043A000CF92DF92EF92FF920F931F93CF93DF9301
:1043B0007C016B018A01C0E0D0E00FC0D6016D9195
:1043C0006D01D701ED91FC910190F081E02DC701C5
:1043D0000995C80FD91F015010400115110571F73B
:1043E000CE01DF91CF911F910F91FF90EF90DF9061
:1043F000CF900895DC01ED91FC910190F081E02DCA
:10440000099508959C01DB01ED91FC910190F081EB
:10441000E02DCB01B90109950895EF92FF920F931A
:104420001F938C01DC01ED91FC910190F081E02D56
:104430006DE009957C01D801ED91FC910190F0812E
:10444000E02DC8016AE009959C012E0D3F1DC901B0
:104450001F910F91FF90EF900895EF92FF920F93AD
:104460001F937C01DB01ED91FC910190F081E02D27
:10447000CB01B70109958C01C7010E940D22080FDD
:10448000191FC8011F910F91FF90EF900895CF93CE
:10449000DF93EC016115710519F420E030E00FC0E5
:1044A000DB010D900020E9F71197A61BB70BE881FF
:1044B000F9810280F381E02DAD0109959C01C901CC
:1044C000DF91CF9108954F925F927F928F929F924A
:1044D000AF92BF92CF92DF92EF92FF920F931F9312
:1044E000DF93CF93CDB7DEB7A1970FB6F894DEBFB9
:1044F0000FBECDBF2C01742ECB01223008F42AE070
:1045000019A231E2C32ED12CCC0EDD1E822E9924AD
:10451000AA24BB24672D752FA50194010E94AD2903
:1045200079018A01C801B701A50194010E948E2971
:10453000472D461B0894C108D1084A3014F4405D49
:1045400001C0495CF6014083E114F1040105110545
:1045500021F07E2C5F2DC801DDCFC201B6010E9483
:104560004722A1960FB6F894DEBF0FBECDBFCF9104
:10457000DF911F910F91FF90EF90DF90CF90BF9050
:10458000AF909F908F907F905F904F900895DC0147
:104590002115310541F4ED91FC910190F081E02D60
:1045A000642F099508950E9463220895EF92FF9267
:1045B0000F931F939A017B0100E010E0B801A7015F
:1045C0000E94C7221F910F91FF90EF900895EF92E4
:1045D000FF920F931F939A01E62EFF2400E010E054
:1045E000B801A7010E94C7221F910F91FF90EF9081
:1045F0000895CF92DF92EF92FF920F931F93CF9384
:10460000DF93EC016A017B012115310541F4E8815A
:10461000F9810190F081E02D642F09951FC02A30A7
:104620003105D1F477FF17C0E881F9810190F0815D
:10463000E02D6DE209958C0144275527BA014C19EC
:104640005D096E097F09CE012AE00E94632298016C
:10465000280F391F04C02AE00E9463229C01C9016F
:10466000DF91CF911F910F91FF90EF90DF90CF904E
:104670000895EF92FF920F931F937B019A010027F9
:10468000F7FC0095102FB801A7010E94F9221F9195
:104690000F91FF90EF900895CF92DF92EF92FF92EB
:1046A0000F931F936C017B019A010027F7FC009583
:1046B000102FB801A7010E94F9228C01C6010E94A7
:1046C0000D22080F191FC8011F910F91FF90EF9045
:1046D000DF90CF9008950E94472208957F928F9295
:1046E0009F92AF92BF92CF92DF92EF92FF920F9381
:1046F0001F93CF93DF934C017A018B01722ECB0174
:10470000BA01A80197010E948A29882321F0C401D7
:104710006BE373E021C0C0E0D0E057016801E8948A
:10472000D7F8C601B5012FEF3FEF4FE75FE70E94D3
:104730008A29882351F4C601B5012FEF3FEF4FE7D7
:104740005FE70E94D427181614F0C1E0D0E021974B
:1047500039F0C4016FE373E00E944722EC0193C07B
:10476000C801B7012FEF3FEF4FE75FE40E94232915
:10477000181654F0C801B7012FEF3FEF4FE75FEC79
:104780000E94D427882324F4C40163E473E0E4CFB7
:10479000C801B70120E030E040E050E00E94D4279B
:1047A00087FD03C0C0E0D0E00EC0D401ED91FC91C4
:1047B0000190F081E02DC4016DE20995EC0117FB39
:1047C000109517F9109520E030E040E05FE3DD241C
:1047D0000BC0CA01B90120E030E040E251E40E9480
:1047E000D8279B01AC01D394D71498F3C801B70123
:1047F0000E9470275B016C010E9445287B018C019F
:10480000C401B801A7012AE030E00E94C722C80F06
:10481000D91F772039F0C40167E473E00E94472272
:10482000C80FD91FC801B7010E9471289B01AC01B4
:10483000C601B5010E946F2724C020E030E040E2AD
:1048400051E40E9427297B018C010E9440285B01D2
:104850006C01CC24B7FCC094DC2CC401B601A501CA
:104860002AE030E00E94F922C80FD91FC601B50125
:104870000E9473289B01AC01C801B7010E946F27F9
:104880007A947720D1F6CE01DF91CF911F910F91CD
:10489000FF90EF90DF90CF90BF90AF909F908F9060
:1048A0007F9008950E946E230895EF92FF920F93D8
:1048B0001F937C010E946E238C01C7010E940D2270
:1048C000080F191FC8011F910F91FF90EF900895D5
:1048D000EF92FF920F931F937C010E9447228C015D
:1048E000C7010E940D22080F191FC8011F910F91C7
:1048F000FF90EF900895AF92BF92CF92DF92EF9228
:10490000FF920F931F93CF93DF935C016B01EE2413
:10491000FF24C0E0D0E010C0D501ED91FC910081F2
:104920001181C601BE010E94D526682FC501F8017C
:104930000995E80EF91E2196F60184819581C81724
:10494000D90750F3C701DF91CF911F910F91FF90CD
:10495000EF90DF90CF90BF90AF9008951F920F928D
:104960000FB60F9211242F933F938F939F93AF9382
:10497000BF938091DA059091DB05A091DC05B091A1
:10498000DD053091DE050196A11DB11D232F2D5FA0
:104990002D3720F02D570196A11DB11D2093DE0566
:1049A0008093DA059093DB05A093DC05B093DD05D9
:1049B0008091D6059091D705A091D805B091D905E1
:1049C0000196A11DB11D8093D6059093D705A093A4
:1049D000D805B093D905BF91AF919F918F913F9129
:1049E0002F910F900FBE0F901F9018958FB7F894CE
:1049F0002091DA053091DB054091DC055091DD0511
:104A00008FBFB901CA0108959FB7F8942091D605C8
:104A10003091D7054091D8055091D90586B5A89B0E
:104A200006C08F3F21F02F5F3F4F4F4F5F4F9FBF1B
:104A3000542F432F322F2227280F311D411D511D86
:104A400082E0220F331F441F551F8A95D1F7B90109
:104A5000CA010895EF92FF920F931F93CF93DF93B4
:104A60007B018C010E940425EB010EC00E940425ED
:104A70006C1B7D0B685E7340C8F30894E108F10875
:104A800001091109C851DC4FE114F10401051105B8
:104A900069F7DF91CF911F910F91FF90EF900895EB
:104AA000789484B5826084BD84B5816084BD85B509
:104AB000826085BD85B5816085BDEEE6F0E08081D0
:104AC00081608083E1E8F0E01082808182608083F1
:104AD000808181608083E0E8F0E080818160808374
:104AE000E1EBF0E0808184608083E0EBF0E08081A6
:104AF00081608083EAE7F0E0808184608083808148
:104B000082608083808181608083808180688083EF
:104B10001092C1000895982F8E3008F09E50977023
:104B20008091B6038295880F880F807C892B8093B3
:104B30007C0080917A00806480937A0080917A0072
:104B400086FDFCCF2091780040917900942F80E081
:104B500030E0282B392BC9010895CF93DF93482FDC
:104B600050E0CA0186569F4FFC0134914A575F4F6F
:104B7000FA018491882369F190E0880F991FFC0164
:104B8000E859FF4FA591B491FC01EE58FF4FC59134
:104B9000D491662351F42FB7F8948C91932F90956C
:104BA00089238C93888189230BC0623061F42FB7ED
:104BB000F8948C91932F909589238C938881832BE3
:104BC00088832FBF06C09FB7F8948C91832B8C935A
:104BD0009FBFDF91CF910895833071F0843028F426
:104BE0008130A1F0823021F514C08630B1F08730D9
:104BF000D1F08430E9F404C0809180008F7703C045
:104C0000809180008F7D80938000089584B58F7798
:104C100002C084B58F7D84BD08958091B0008F77E8
:104C20008093B00008958091B0008F7D8093B00094
:104C30000895FF920F931F93F62E482F50E0CA015C
:104C400082559F4FFC012491CA0186569F4FFC015B
:104C500014914A575F4FFA0104910023C9F02223AF
:104C600019F0822F0E94EC25E02FF0E0EE0FFF1FDD
:104C7000EE58FF4FA591B4919FB7F894FF2021F40F
:104C80008C911095812302C08C91812B8C939FBFB6
:104C90001F910F91FF9008952F923F924F925F9234
:104CA0006F927F928F929F92AF92BF92CF92DF923C
:104CB000EF92FF920F931F93DF93CF93CDB7DEB7A1
:104CC0003B014C0119012A016D897E898F89988DDC
:104CD0006A197B098C099D09621A730A840A950A6C
:104CE000A40193010E948E29E218F3080409150912
:104CF000A80197010E94CF292A0D3B1D4C1D5D1D67
:104D0000B901CA01CF91DF911F910F91FF90EF90F0
:104D1000DF90CF90BF90AF909F908F907F906F90DB
:104D20005F904F903F902F900895EF92FF920F93D6
:104D30001F937B018C01611571058105910529F493
:104D400020E030E040E050E00BC00E94EC01A80100
:104D500097010E94CF29AC01CB01DA019C01AD0182
:104D6000B901CA011F910F91FF90EF900895EF9242
:104D7000FF920F931F937B018C01621773078407C7
:104D8000950764F4261B370B480B590BCA01B90170
:104D90000E949526E60EF71E081F191FB701C801CD
:104DA0001F910F91FF90EF900895FC0184819581F0
:104DB0006817790748F40190F081E02D309721F0D1
:104DC000E60FF71F8081089580E008950F931F93E9
:104DD000CF93DF93EC018B016F5F7F4F88819981C7
:104DE0000E94FA01009711F480E005C0998388833E
:104DF0001B830A8381E0DF91CF911F910F9108956A
:104E0000CF93DF93EC0188819981892B29F08A81E6
:104E10009B818617970760F4CE010E94E6268823BF
:104E200041F08C819D81892B19F4E881F9811082F0
:104E300081E0DF91CF910895CF93DF93EC018881DA
:104E40009981009711F00E944101198218821D82F8
:104E50001C821B821A82DF91CF910895EF92FF92FC
:104E60000F931F93CF93DF93EC017B018A01BA016B
:104E70000E940027882321F4CE010E941C2707C02E
:104E80001D830C8388819981B7010E94F002CE01B5
:104E9000DF91CF911F910F91FF90EF900895CF93E5
:104EA000DF93EC01198218821B821A821D821C82F8
:104EB0001E826115710551F0DB010D900020E9F7AC
:104EC0001197A61BB70BAD010E942E27DF91CF9142
:104ED0000895FC01808191810E94410108955058FC
:104EE000BB27AA270ED075C166D130F06BD120F058
:104EF00031F49F3F11F41EF45BC10EF4E095E7FB23
:104F000051C1E92F77D180F3BA176207730784077D
:104F1000950718F071F49EF58FC10EF4E0950B2EF5
:104F2000BA2FA02D0B01B90190010C01CA01A001FB
:104F30001124FF27591B99F0593F50F4503E68F156
:104F40001A16F040A22F232F342F4427585FF3CF97
:104F5000469537952795A795F0405395C9F77EF468
:104F60001F16BA0B620B730B840BBAF09150A1F0B1
:104F7000FF0FBB1F661F771F881FC2F70EC0BA0F37
:104F8000621F731F841F48F4879577956795B795BF
:104F9000F7959E3F08F0B3CF9395880F08F09927B7
:104FA000EE0F979587950895D9D008F481E008957C
:104FB0000CD00FC107D140F0FED030F021F45F3F9C
:104FC00019F0F0C0511139C1F3C014D198F39923ED
:104FD000C9F35523B1F3951B550BBB27AA276217BD
:104FE0007307840738F09F5F5F4F220F331F441F02
:104FF000AA1FA9F333D00E2E3AF0E0E830D091503A
:105000005040E695001CCAF729D0FE2F27D0660F26
:10501000771F881FBB1F261737074807AB07B0E865
:1050200009F0BB0B802DBF01FF2793585F4F2AF07B
:105030009E3F510568F0B6C000C15F3FECF3983E5B
:10504000DCF3869577956795B795F7959F5FC9F7D8
:10505000880F911D9695879597F90895E1E0660F61
:10506000771F881FBB1F621773078407BA0720F0DA
:10507000621B730B840BBA0BEE1F88F7E095089543
:1050800004D06894B111D9C00895BCD088F09F575E
:1050900090F0B92F9927B751A0F0D1F0660F771F84
:1050A000881F991F1AF0BA95C9F712C0B13081F064
:1050B000C3D0B1E00895C0C0672F782F8827B85FAC
:1050C00039F0B93FCCF3869577956795B395D9F7C5
:1050D0003EF490958095709561957F4F8F4F9F4FCF
:1050E0000895E89409C097FB3EF4909580957095DB
:1050F00061957F4F8F4F9F4F9923A9F0F92F96E924
:10510000BB279395F695879577956795B795F11198
:10511000F8CFFAF4BB0F11F460FF1BC06F5F7F4F35
:105120008F4F9F4F16C0882311F096E911C0772347
:1051300021F09EE8872F762F05C0662371F096E850
:10514000862F70E060E02AF09A95660F771F881F1F
:10515000DAF7880F9695879597F90895990F0008C3
:10516000550FAA0BE0E8FEEF16161706E807F90739
:10517000C0F012161306E407F50798F0621B730BD4
:10518000840B950B39F40A2661F0232B242B252B55
:1051900021F408950A2609F4A140A6958FEF811DF8
:1051A000811D089597F99F6780E870E060E0089599
:1051B0009FEF80EC089500240A941616170618062F
:1051C0000906089500240A9412161306140605060B
:1051D0000895092E0394000C11F4882352F0BB0F9C
:1051E00040F4BF2B11F460FF04C06F5F7F4F8F4FFF
:1051F0009F4F089557FD9058440F551F59F05F3F3A
:1052000071F04795880F97FB991F61F09F3F79F0E8
:1052100087950895121613061406551FF2CF46956A
:10522000F1DF08C0161617061806991FF1CF8695EC
:105230007105610508940895E894BB2766277727D0
:10524000CB0197F908958ADF08F48FEF08950BD00A
:10525000C0CFB1DF28F0B6DF18F0952309F0A2CF58
:10526000A7CF1124EACFC6DFA0F3959FD1F3950F06
:1052700050E0551F629FF001729FBB27F00DB11DDA
:10528000639FAA27F00DB11DAA1F649F6627B00D6A
:10529000A11D661F829F2227B00DA11D621F739F53
:1052A000B00DA11D621F839FA00D611D221F749F61
:1052B0003327A00D611D231F849F600D211D822FA8
:1052C000762F6A2F11249F5750408AF0E1F08823EF
:1052D0004AF0EE0FFF1FBB1F661F771F881F9150FC
:1052E0005040A9F79E3F510570F05CCFA6CF5F3FBD
:1052F000ECF3983EDCF3869577956795B795F7952F
:10530000E7959F5FC1F7FE2B880F911D96958795B6
:1053100097F9089523DF880B990B0895629FD001B8
:10532000739FF001829FE00DF11D649FE00DF11D60
:10533000929FF00D839FF00D749FF00D659FF00D0F
:105340009927729FB00DE11DF91F639FB00DE11DFC
:10535000F91FBD01CF0111240895A1E21A2EAA1B45
:10536000BB1BFD010DC0AA1FBB1FEE1FFF1FA21715
:10537000B307E407F50720F0A21BB30BE40BF50B12
:10538000661F771F881F991F1A9469F7609570959B
:10539000809590959B01AC01BD01CF01089597FBCD
:1053A000092E05260ED057FD04D0D7DF0AD0001CE9
:1053B00038F450954095309521953F4F4F4F5F4FB2
:1053C0000895F6F790958095709561957F4F8F4F72
:1053D0009F4F0895EE0FFF1F0590F491E02D099463
:1053E0002F923F924F925F926F927F928F929F92F5
:1053F000AF92BF92CF92DF92EF92FF920F931F93E3
:10540000CF93DF93CDB7DEB7CA1BDB0B0FB6F89493
:10541000DEBF0FBECDBF09942A88398848885F84D3
:105420006E847D848C849B84AA84B984C884DF8044
:10543000EE80FD800C811B81AA81B981CE0FD11D28
:105440000FB6F894DEBF0FBECDBFED01089510E09A
:10545000C8EDD0E004C0FE010E94EC292296CA3DAE
:08546000D107C9F7F894FFCF52
:105468005265616420766F6C7461676520285629DF
:10547800200055706C6F6164696E6720766F6C747C
:105488006167652076616C756520746F2058697650
:10549800656C7900786976656C79636C69656E749A
:1054A8002E7075742072657475726E6564200000C4
:1054B8005265616420456E657267792066726F6D0A
:1054C8002053656E736F72203120285729200055AC
:1054D800706C6F6164696E6720456E6572677920CC
:1054E80076616C756520746F20586976656C7900F3
:1054F800526561642048756D69646974792028254E
:1055080048292000526561642054656D7065726198
:10551800747572652028432920004661696C6564AA
:1055280020746F20636F6E666967757265204574B5
:105538006865726E6574207573696E6720444843A8
:10554800500057697A35353030696F204D6F647572
:105558006C652049502041646472657373203A2059
:10556800002F76322F66656564732F002E006373F3
:1055780076006170692E786976656C792E636F6D37
:1055880000582D4170694B657900557365722D413E
:1055980067656E7400586976656C792D417264751B
:1055A800696E6F2D4C69622F312E30002C006A73A2
:1055B8006F6E00436F6E74656E742D4C656E677404
:1055C80068007B2022696422203A202200222C20B5
:1055D8002263757272656E745F76616C75652220E0
:1055E8003A20220022207D00007B0022766572731B
:1055F800696F6E223A22312E302E30222C0022641E
:1056080061746173747265616D7322203A205B0066
:105618002C005D007D0057495A6E6574004854544B
:10562800502F2A2E2A2000417574686F72697A619A
:1056380074696F6E3A20426173696320003A2000F2
:105648002000687474703A2F2F003A002048545490
:10565800502F312E3100486F73743A20005573650E
:10566800722D4167656E743A200041726475696EE7
:105678006F2F322E300047455400504F535400507E
:1056880055540044454C45544500436F6E74656E4F
:10569800742D4C656E6774683A20006E616E0069FF
:1056A8006E66006F7666002E002000E3050000019C
:1056B8000000006576504949437250464F5345559E
:1056C800564557563344664C3333597874307630E0
:1056D80048564D7A4549346B425848704F7742488E
:1056E800537732000E000F0010001100566F6C74D3
:1056F80061676500456E657267790048756D696414
:105708006974790054656D706572617475726500AD
:1057180000040A031F030100000000FA070509F747
:1057280008DB08B108120823099809D6086F084B46
:1057380008290800000000290A1B0B250A9C0A5E9C
:105748000A410ADF0BCA0B3B0B5A0B360BC70A7907
:105758000A080A100A210A00000000C50FC80F0035
:10576800000000081100000000C411000000006BD8
:105778001D471D631B1C1C721B811B901BC21B3FFA
:105788001CF21BCE1BDD1B371B4D1BE61BEC1B0045
:10579800000000A320D02139206A204A209320004D
:0657A80000000054210086
:00000001FF
