:100000000C946A000C9492000C9492000C94920050
:100010000C9492000C9492000C9492000C94920018
:100020000C9492000C9492000C9492000C94920008
:100030000C9492000C9492000C9492000C949200F8
:100040000C94031B0C9492000C94BD160C940B178B
:100050000C9492000C9492000C9492000C949200D8
:100060000C9492000C9492000000000024002700E1
:100070002A0000000000250028002B0000000000DE
:1000800023002600290004040404040404040202DA
:100090000202020203030303030301020408102007
:1000A0004080010204081020010204081020000012
:1000B0000007000201000003040600000000000029
:1000C00000000C02C2022705ED06BD0BDE11E5148F
:1000D0007718D91811241FBECFEFD8E0DEBFCDBFEF
:1000E00012E0A0E0B1E0E4EBFAE302C005900D926B
:1000F000A83DB107D9F713E0A8EDB2E001C01D9209
:10010000A23FB107E1F710E0C4EDD0E004C02297B0
:10011000FE010E941D1DC23CD107C9F70E94521961
:100120000C94581D0C940000CF93DF93BC018230D7
:10013000910510F462E070E0A091F003B091F1033A
:10014000ED01E0E0F0E040E050E021C088819981DD
:100150008617970769F48A819B81309719F09383FA
:10016000828304C09093F1038093F003FE0134C0B6
:100170006817790738F44115510519F08417950768
:1001800008F4AC01FE018A819B819C01E901209762
:10019000E9F641155105A9F1CA01861B970B049791
:1001A00008F4BA01E0E0F0E02AC08D919C9111972B
:1001B00084179507F9F46417750781F412968D91E9
:1001C0009C911397309719F09383828304C0909386
:1001D000F1038093F003FD0132964CC0CA01861BE7
:1001E000970BFD01E80FF91F6193719302978D93AF
:1001F0009C9340C0FD01828193819C01D90110979D
:10020000A1F68091EE039091EF03892B41F4809148
:100210004F02909150029093EF038093EE03409130
:100220005102509152024115510541F44DB75EB74C
:1002300080914D0290914E02481B590B2091EE0384
:100240003091EF03CA01821B930B8617970780F04A
:10025000AB014E5F5F4F8417950750F0420F531F5D
:100260005093EF034093EE03F9016193719302C041
:10027000E0E0F0E0CF01DF91CF910895CF93DF93DD
:10028000009709F450C0EC0122971B821A82A091BA
:10029000F003B091F103109709F140E050E0AC1782
:1002A000BD0708F1BB83AA83FE0121913191E20FC2
:1002B000F31FAE17BF0779F48D919C911197280F0A
:1002C000391F2E5F3F4F3983288312968D919C9161
:1002D00013979B838A834115510571F4D093F103E1
:1002E000C093F00320C012968D919C911397AD019D
:1002F000009711F0DC01D3CFFA01D383C28321919F
:100300003191E20FF31FCE17DF0769F488819981DD
:10031000280F391F2E5F3F4FFA01318320838A81D6
:100320009B8193838283DF91CF910895A0E0B0E019
:10033000ECE9F1E00C94291DEC01A880B980CA8099
:10034000DB80A114B104C104D10441F484E2A82EDD
:1003500089EDB82E8BE5C82E87E0D82EC601B501F1
:100360002DE133EF41E050E00E94001D27EA31E427
:1003700040E050E00E94BF1C7B018C01C601B5012A
:100380002DE133EF41E050E00E94001DCA01B901A8
:100390002CEE34EF4FEF5FEF0E94BF1C6E0D7F1D00
:1003A000801F911F97FF04C06150704080409048AB
:1003B000688379838A839B839B01AC015F77B90152
:1003C000CA01CDB7DEB7EAE00C94451D0E94960144
:1003D000089583E592E00E94960108956093530288
:1003E0007093540280935502909356020895FB0136
:1003F000DC0104C08D910190801921F441505040DE
:10040000C8F7881B990B0895FB01DC0101900D9240
:100410000020E1F7089508950F9380EF92E060E0E7
:1004200040E020E000E00E94CD1888ED92E060EC12
:1004300048EA21E00AE00E94CD188EED92E060E0EB
:1004400071E00E94E0070F9108950F931F93DF93CF
:10045000CF93CDB7DEB72C970FB6F894DEBF0FBEA3
:10046000CDBF8DEB93E040E855E260E070E00E9484
:10047000461768EE73E080E090E00E947F1B86E004
:1004800093E00E943D04892BE9F48DEB93E063E354
:1004900071E00E94F01A85ED92E09A838983809141
:1004A000DA029091DB02A091DC02B091DD028B8335
:1004B0009C83AD83BE8386E093E0BE016F5F7F4F78
:1004C0000E9405048DEB93E06BE571E00E94ED1A4C
:1004D0008E01095F1F4FC80166E073E00E94D102E0
:1004E0008DEB93E0B8010E94B6198DEB93E06AE7BB
:1004F00071E00E94F01A8EED92E067E572E00E94D2
:1005000079078823E9F08EED92E06DEB73E00E94AD
:1005100066078C01883C910529F48DEB93E069E82E
:1005200071E012C08DEB93E065E971E00E94ED1A75
:100530008DEB93E0B8014AE050E00E94CE1A06C06D
:100540008DEB93E063EB71E00E94F01A2C960FB6EE
:10055000F894DEBF0FBECDBFCF91DF911F910F91F9
:100560000895DB01FC0125ED32E0318320831296F2
:100570002D913D914D915C91159722833383448356
:10058000558308950F938EE093E060E040E020E013
:1005900000E00E94CD1886E093E00E9448190F9178
:1005A0000895EF92FF920F931F93182F092FE82EB3
:1005B000F92EC7010E94481982E090E0E80EF91E6A
:1005C0008FE090E060E0A70124E030E00E94E00AC4
:1005D000812F902F1F910F91FF90EF900895AB0105
:1005E0008FE090E064E024E030E00E94F409089598
:1005F000AB0181E090E064E024E030E00E94F40987
:100600000895AB0185E090E064E024E030E00E94D2
:10061000F40908956F927F928F929F92AF92BF924A
:10062000CF92DF92EF92FF920F931F933C017B01D9
:100630004A01590182E2C82E83E0D82EC6010E94E9
:10064000700B82E090E0E80EF91EC601B7010E942F
:10065000EF02E2E0F0E0AE0EBF1EC601B5010E945F
:10066000F8020E5F1F4FC601B8010E940103F4019A
:1006700082819381A481B581F30182839383A483D2
:10068000B5831F910F91FF90EF90DF90CF90BF90B7
:10069000AF909F908F907F906F9008958F929F92D0
:1006A000AF92BF92CF92DF92EF92FF920F931F9380
:1006B000DF93CF93CDB7DEB76E970FB6F894DEBF5A
:1006C0000FBECDBF4C017B016A015901CE010196DD
:1006D0006FEF4FEF2FEF00E00E94CD1825ED32E0D5
:1006E00038872F83F70182819381A481B58189871F
:1006F0009A87AB87BC873E872D87F60182819381DD
:10070000A481B5818F87988BA98BBA8B3C8B2B8B5F
:10071000F50182819381A481B5818D8B9E8BAF8BF6
:10072000B88F3A8F298F8B819C81AD81BE818B8F51
:100730009C8FAD8FBE8FC401BE01695F7F4FAE013C
:10074000435F5F4F9E012D5E3F4F8E01075E1F4F3F
:100750000E940A036E960FB6F894DEBF0FBECDBF9F
:10076000CF91DF911F910F91FF90EF90DF90CF908D
:10077000BF90AF909F908F900895DF93CF93CDB7A8
:10078000DEB768970FB6F894DEBF0FBECDBFFB0192
:10079000DA0122813381448155812B833C834D834F
:1007A0005E8365ED72E078876F8329873A874B8790
:1007B0005C877E876D8712962D913D914D915C915E
:1007C00015972F87388B498B5A8B7C8B6B8B21E04D
:1007D0002E832B813C814D815E812D8B3E8B4F8BF7
:1007E000588FBE01695F7F4FAE01435F5F4F9E012F
:1007F0002D5E3F4F0E944E0368960FB6F894DEBF01
:100800000FBECDBFCF91DF910895DF93CF93CDB7CA
:10081000DEB762970FB6F894DEBF0FBECDBFFB0107
:1008200022813381448155812B833C834D835E83B8
:1008300065ED72E078876F8329873A874B875C87FD
:100840007E876D8721E02E832B813C814D815E81E7
:100850002F87388B498B5A8BBE01695F7F4FAE0162
:10086000435F5F4F0E94BD0362960FB6F894DEBFF0
:100870000FBECDBFCF91DF910895CF92DF92EF925F
:10088000FF920F931F93DF93CF93CDB7DEB7A4975B
:100890000FB6F894DEBF0FBECDBF6C017E01089489
:1008A000E11CF11C86E0F70111928A95E9F782E6D6
:1008B00090E00E9461198C01895B9F4F0E9418068D
:1008C000F6011783068382E293E00E94700BCE014B
:1008D000079660E040E020E000E00E94CD1882E250
:1008E00093E0BE01675F7F4F0E94EF0289E090E0D6
:1008F00060E0A70126E030E00E94E00AF601868170
:100900009781B70120E63AEE40E050E0F0EAEF2EA2
:10091000FFE0FF2E012D112D0E943C118C01813032
:100920009105D1F5F60166817781CE010D960E9481
:10093000E90B82E293E0BE01615F7F4F0E94EF020C
:10094000F60166817781CE0143960E94D30B82E245
:1009500093E0BE016B5E7F4F0E94F802F601668154
:100960007781CE0149960E94DE0B82E293E0BE01C0
:10097000655E7F4F0E940103F60166817781CE019B
:100980004F960E94C80B89A19AA1ABA1BCA1F60108
:1009900082839383A483B583C801A4960FB6F89489
:1009A000DEBF0FBECDBFCF91DF911F910F91FF90A2
:1009B000EF90DF90CF900895DC01ED91FC91008CD9
:1009C000F18DE02D09950895DB01FC0125ED32E064
:1009D0003183208351962D913D914D915C91549797
:1009E00022833383448355830895FC018589968946
:1009F0000895FC01818D928D0895DF93CF930F921E
:100A0000CDB7DEB7FC016983A081B18112962D912B
:100A10003C911397BE016F5F7F4F41E050E0F901B9
:100A200009950F90CF91DF910895CF93DF93EC015B
:100A300007C0E881F9810680F781E02DCE01099594
:100A4000898D9A8D892BA9F7DF91CF9108950F9306
:100A500084E193E060E040E020E000E00E94CD18F7
:100A60000F910895DF93CF930F92CDB7DEB7FC01BE
:100A7000818D928D892B19F42FEF3FEF09C084856A
:100A8000BE016F5F7F4F0E948D098981282F30E062
:100A9000C9010F90CF91DF910895CF93DF93EC01BF
:100AA0009A01498D5A8D41155105A1F0241735073A
:100AB00010F08C8502C08C85A9010E949C099C01C4
:100AC000181619063CF4898D9A8D821B930B9A8F08
:100AD000898F02C02FEF3FEFC901DF91CF910895B9
:100AE0000F931F93DF93CF930F92CDB7DEB78C0197
:100AF000FC01818D928D892BA9F08485BE016F5FE9
:100B00007F4F41E050E00E949C091816190654F4EA
:100B1000F801818D928D0197928F818F8981282F85
:100B200030E002C02FEF3FEFC9010F90CF91DF916E
:100B30001F910F910895EF92FF920F931F93DF93F0
:100B4000CF93CDB7DEB728970FB6F894DEBF0FBEB0
:100B5000CDBF8C01DC01ED91FC910284F385E02D89
:100B6000099582E293E0F80164850E94920A892B3C
:100B700019F420E030E025C0D8011C968C917E014C
:100B80000894E11CF11CB70148E050E00E949C0968
:100B90009C0118161906ACF4C8010F96B7010E9403
:100BA0002A199D8180E02E81820F911DF801968B7C
:100BB000858B9F8180E02885820F911D928F818F88
:100BC0009C01C90128960FB6F894DEBF0FBECDBFB9
:100BD000CF91DF911F910F91FF90EF9008950F93A8
:100BE0001F938C01FB019A01DC0157966D917C915A
:100BF00058971C968C91AF010E9406099C01F80140
:100C00008789908D820F931F908F878BC9011F91C9
:100C10000F910895FC0184850E9403080895FC014A
:100C2000108E178A6E5F7F4F84850E94AA080895F0
:100C3000FC011382128288EE93E0A0E0B0E084838E
:100C40009583A683B78385E892E09183808388E0CB
:100C50008487CF010F960E94481908956F927F9262
:100C60008F929F92AF92BF92CF92DF92EF92FF92BC
:100C70000F931F93DF93CF93CDB7DEB7E5970FB6F2
:100C8000F894DEBF0FBECDBF4C015B013A0183E19A
:100C9000E82EF12CEC0EFD1EC7010E944819CE0172
:100CA0004B960E9418066E010894C11CD11CC60107
:100CB0000E9448198E01095F1F4FC80166E073E06A
:100CC0000E94B102C701B8010E948711C701B50196
:100CD000A6010E9406149C0181309105C9F4D4013B
:100CE000ED91FC910088F189E02D85ED92E09E87E1
:100CF0008D878B819C81AD81BE818F87988BA98BDD
:100D0000BA8BC401BE01635F7F4FA30109959C01AB
:100D1000C901E5960FB6F894DEBF0FBECDBFCF91E7
:100D2000DF911F910F91FF90EF90DF90CF90BF90D8
:100D3000AF909F908F907F906F900895CF93DF93A7
:100D4000EC018C85883061F00E942F08EC85F0E082
:100D5000EE0FFF1FEA50FD4F1182108288E08C8752
:100D6000DF91CF910895EF92FF920F931F93CF934E
:100D7000DF938C017B01FC018485883031F5C0E074
:100D8000D0E0CE018295880F807E682F685F83E077
:100D900090E00E94180A882311F0883119F4F801B4
:100DA000C48704C02196C830D10559F7F80184855D
:100DB000883059F0F686E586128E118E62E0A70122
:100DC00020E00E94640881E001C080E0DF91CF91C3
:100DD0001F910F91FF90EF9008950F938AE193E098
:100DE00060E040E020E000E00E94CD180F910895FF
:100DF000DF92EF92FF920F931F93CF93DF938C01BB
:100E00007B01EC012596CE010E94FF148823C1F4DA
:100E1000E114F10441F40CC0CE010E948F15682F3B
:100E2000C7010E948E19CE010E94AB15892BA1F734
:100E3000CE010E94C614CE010E94231580E03EC060
:100E4000CE010E94AB15892BC1F1CE010E948F15F6
:100E5000D82EE114F10421F0C7016D2D0E948E19E6
:100E6000F8018081882319F0813039F507C0F0E25C
:100E7000DF1619F581E0F801808320C08D2D8053A5
:100E80008A30C0F4F801818192819C0153E0220FE5
:100E9000331F5A95E1F7880F991F280F391F2053E8
:100EA00030408D2D992787FD9095280F391F32836B
:100EB000218303C082E0F801808381E0DF91CF913C
:100EC0001F910F91FF90EF90DF9008950F931F9364
:100ED000CF93DF93EC018B01CE01B8010E94F8069D
:100EE0008823D1F789819A81DF91CF911F910F914A
:100EF0000895EF92FF920F931F93CF93DF938C018E
:100F0000F62EE72EDC011C9212961C921E9211976F
:100F1000EC012596CE0165ED71E040E550E00E94C0
:100F20004C16892B11F480E044C0CE016FEE71E0C5
:100F30000E94F01ACE0165E272E00E94ED1AEF2DD8
:100F4000FE2DDF010D900020E9F79D01215030407A
:100F50002E1B3F0BF801A381B481FD0101900020FD
:100F6000E9F73197EA1BFB0B2E0F3F1F225F3F4F24
:100F7000CE01B9014AE050E00E945F1ACE010E9402
:100F80009619CE0166E372E00E94ED1AD80113961D
:100F90006D917C911497CE010E94ED1ACE016DE304
:100FA00072E00E94ED1ACE016F2D7E2D0E94F01A84
:100FB00081E0DF91CF911F910F91FF90EF90089505
:100FC000FC017483638305960E949C140895682F26
:100FD00082E293E048E050E00E945D0B08959B019F
:100FE000682F6295660F607E685FC9010E94180ACB
:100FF00008959B01682F6295660F607E645FC9014A
:101000000E94DC0908951F93182F82E293E0612F5C
:1010100040E250E00E945D0B10C0812F62E070E062
:101020000E94EF0783FF09C0812F62E070E048E172
:101030000E94F90720E030E00FC0812F62E070E0ED
:101040000E94EF0784FFE9CF812F62E070E040E16A
:101050000E94F90721E030E0C9011F9108951F9314
:10106000182F82E293E0612F40E150E00E945D0B77
:10107000812F62E070E04FEF0E94F9071F91089501
:101080000F931F93182F062F472F60E170E00E94E7
:10109000F907812F61E170E0402F0E94F9071F914D
:1010A0000F9108950F931F93182F062F472F64E079
:1010B00070E00E94F907812F65E070E0402F0E94E8
:1010C000F9071F910F910895FF920F931F93CF93EC
:1010D000DF93082FF62EEA01122F862F81508530DC
:1010E00010F080E024C0802F0E942F081F29802F3D
:1010F00060E070E0412F0E94F907209719F0802FDF
:10110000BE010BC060912003709121036F5F7F4F80
:101110007093210360932003802F0E94520882E283
:1011200093E0602F41E050E00E945D0B81E0DF9191
:10113000CF911F910F91FF900895AB01682F629599
:10114000660F607E645F8CE090E024E030E00E94F7
:10115000F40908951F93CF93DF93182FFB01EA0141
:101160008081882349F48181882331F48281882316
:1011700019F48381882369F0209759F0812FBF01EA
:101180000E949D08812FBE010E94400821E030E0AE
:1011900002C020E030E0C901DF91CF911F91089596
:1011A0001F93CF93DF93182FFB01EA0180818F3FBC
:1011B00051F481818F3F91F482818F3F79F4838153
:1011C0008F3F61F41EC0882349F48181882331F464
:1011D0008281882319F48381882399F0209789F0EC
:1011E000812FBF010E949D08812FBE010E944008EF
:1011F00082E293E0612F44E050E00E945D0B81E0C9
:1012000001C080E0DF91CF911F910895AF92BF920E
:10121000DF92EF92FF920F931F93CF93DF93D82E1D
:10122000EB015A01890182E293E06D2D0E94C40A0C
:101230008017910710F0780106C082E293E06D2DCF
:101240000E94C40A7C0182E293E06D2DAE019501FB
:1012500087010E942F0AC701DF91CF911F910F9143
:10126000FF90EF90DF90BF90AF900895CF92DF9204
:10127000EF92FF921F93CF93DF93182F6B01EA0138
:1012800088E04130580710F0C0E0D8E082E293E0F7
:10129000612F0E94C40A7C01812F63E070E00E94EC
:1012A000EF07873129F08C3119F0C0E0D0E003C09E
:1012B000EC16FD0658F382E293E0612FA6019E0131
:1012C0000E94700A82E293E0612F40E250E00E94A7
:1012D0005D0B0DC0812F63E070E00E94EF07882353
:1012E00031F4812F0E942F08C0E0D0E00DC0812F83
:1012F00062E070E00E94EF0784FFECCF812F62E094
:1013000070E040E10E94F907CE01DF91CF911F917B
:10131000FF90EF90DF90CF9008950F93282FAB01AF
:1013200082E293E0622F21E030E001E00E94120BA4
:1013300081E090E00F910895CF92DF92FF920F939A
:101340001F93CF93DF93F82E6B018A0182E293E023
:101350006F2D0E94920AEC01009761F48F2D63E0DB
:1013600070E00E94EF078431D9F08823C9F08C31F6
:10137000B9F01FC0081719070CF4E8011C161D0668
:101380007CF482E293E06F2DA6019E0100E00E94B2
:10139000120B82E293E06F2D40E450E00E945D0B5F
:1013A000CE01DF91CF911F910F91FF90DF90CF90F1
:1013B0000895CFEFDFEFF4CF2A989EBD0DB407FE5E
:1013C000FDCF9EB58EBD0DB407FEFDCF8EB56EBDB3
:1013D0000DB407FEFDCF8EB54EBD0DB407FEFDCF9B
:1013E0008EB52A9A81E008952A989EBD0DB407FE15
:1013F000FDCF9EB58EBD0DB407FEFDCF8EB56EBD83
:101400000DB407FEFDCF8EB560E070E00BC0FA01B1
:10141000E60FF71F80818EBD0DB407FEFDCF8EB5A0
:101420006F5F7F4F6217730790F32A9AC90108957F
:101430002A989EBD0DB407FEFDCF9EB58EBD0DB49E
:1014400007FEFDCF8EB56EBD0DB407FEFDCF8EB588
:101450001EBC0DB407FEFDCF8EB52A9A0895AF923B
:10146000BF92CF92DF92EF92FF920F931F93C62EFF
:101470007A015901862F64E270E00E94EF07D82EAE
:101480008C2D65E270E00E94EF07C294CC0C90EEC8
:10149000C922E80EF11C9D2D80E0E80EF91E84E1C2
:1014A000C80EC7016C2DA50198010E94F409E00E39
:1014B000F11E1C2D185084E290E0612F4F2D0E94E8
:1014C000DC0985E290E0612F4E2D0E94DC091F911E
:1014D0000F91FF90EF90DF90CF90BF90AF90089565
:1014E0000F931F93FA01890140E050E09F010E9491
:1014F0002F0A1F910F910895FF920F931F93F82EBB
:1015000066E270E00E94EF07182F00E08F2D67E27F
:1015100070E00E94EF07080F111DC8011F910F9185
:10152000FF900895FF920F931F93CF93DF93F62EB2
:10153000C0E0D0E08F2D0E947C0A8C01009721F042
:101540008F2D0E947C0AEC01C017D10799F7CE01BC
:10155000DF91CF911F910F91FF900895FF920F930C
:101560001F93F82E60E270E00E94EF07182F00E052
:101570008F2D61E270E00E94EF07080F111DC80176
:101580001F910F91FF900895FF920F931F93CF9398
:10159000DF93F62EC0E0D0E08F2D0E94AE0A8C01C2
:1015A000009721F08F2D0E94AE0AEC01C017D107E1
:1015B00099F7CE01DF91CF911F910F91FF90089580
:1015C0002A989EBD0DB407FEFDCF9EB58EBD0DB40D
:1015D00007FEFDCF8EB56EBD0DB407FEFDCF8EB5F7
:1015E00060E070E00BC01EBC0DB407FEFDCF8EB5F1
:1015F000FA01E60FF71F80836F5F7F4F6217730753
:1016000090F32A9AC90108950F931F93CA01629516
:10161000660F607E685EA90198010E94E00A1F9132
:101620000F9108958F929F92AF92BF92CF92DF92C7
:10163000EF92FF920F931F93CF93DF937C01A62E1F
:101640006A014901B02E862F68E270E00E94EF0720
:10165000182F8A2D69E270E00E94EF07312F20E0F9
:10166000E901C80FD11DC7016A2DAE0196018401A1
:101670000E94040BBB20A1F47E01E80CF91C1A2D7A
:101680001295110F107E145F88E290E0612F4F2DAC
:101690000E94DC0989E290E0612F4E2D0E94DC0956
:1016A000DF91CF911F910F91FF90EF90DF90CF903E
:1016B000BF90AF909F908F9008951F93162F6295C3
:1016C000660F607E645F81E090E00E94DC09812FFC
:1016D00061E070E00E94EF078823C9F71F91089529
:1016E0000F931F93229A6CE271E080E090E00E94D9
:1016F0007F1B0E94930B00E0102F1295110F107E9C
:10170000145F8EE190E0612F42E00E94DC098FE1DE
:1017100090E0612F42E00E94DC090F5F083061F722
:101720001F910F9108958AE061E00E944C1C8AE0AD
:1017300061E00E94E01B8CB580618CBD8CB580643B
:101740008CBD8DE061E00E94E01B8BE061E00E94B7
:10175000E01B0895FB0180E38083842F82958F70C6
:101760004F704A3014F4405D01C0495C41833197A9
:10177000882311F0482FF1CF08950F9383E293E06F
:1017800060E040E020E000E00E94CD180F91089555
:101790000F931F938C01625E7F4F0E943719C8011F
:1017A0001F910F9108950F931F938C016A5E7F4FD5
:1017B0000E943719C8011F910F9108950F931F932D
:1017C0008C016E5E7F4F0E943719C8011F910F91E7
:1017D00008950F931F938C01625F7F4F0E9437190A
:1017E000C8011F910F9108952F923F924F925F92DF
:1017F0006F927F928F929F92AF92BF92CF92DF9221
:10180000EF92FF920F931F93DF93CF93CDB7DEB785
:10181000E8970FB6F894DEBF0FBECDBF5C013A016A
:101820004B0129010E944B1B7B018C01F7E4CF2E59
:10183000D12CCA0CDB1C14C00E944B1B6E197F09F3
:10184000800B910B661677068806990618F47724A4
:101850007A941AC262E370E080E090E00E947F1BFD
:10186000C6010E949B051816190634F7C601BE0171
:10187000635F7F4F42E250E00E944D058D858230CC
:1018800009F0FEC12CE530E0A20EB31EF501808107
:10189000918124EA3FEFA20EB31E8334910509F033
:1018A000EFC129893A894B895C89E52EFF240027FD
:1018B0001127B22FAA2799278827E82AF92A0A2B65
:1018C0001B2BB42FA32F922F882780709070B0709D
:1018D000E82AF92A0A2B1B2B232F342F452F5527B3
:1018E000207040705070E22AF32A042B152BF2016D
:1018F000E082F18202831383B501685F7F4FCE01DE
:10190000899646E050E00E94F701009799F4F501AE
:1019100080819181A281B381E816F9060A071B072D
:1019200048F084819581A681B7818E159F05A00717
:10193000B10728F4C6010E9415057724A5C18D8D35
:101940009E8DAF8DB8A1F50186879787A08BB18B4F
:1019500000E010E0C6010E9470050F5F1F4F0E3CB3
:101960001105C1F795012E5E3F4F38AF2FABC50172
:1019700046969EAB8DABF5017E96FCABEBAB8AE158
:10198000882E912C8A0C9B1C95012A5D3F4F3AAB07
:1019900029ABC5018A9698AB8FA702E2202E312C85
:1019A0002A0C3B1C772418E5412E512C4A0C5B1C59
:1019B0005FC1C6010E9470058333910509F414C10B
:1019C000843391058CF48130910569F18230910561
:1019D00024F4892B09F44CC140C18330910551F1A5
:1019E000069709F03AC142C08A33910509F490C0C4
:1019F0008B3391053CF48533910569F0C69709F066
:101A00002CC150C08B33910509F4B8C08F3F9105AC
:101A100009F023C12DC1C6010E947005C6010E94B4
:101A20007005782E25C1C6010E947005C6016FA9F8
:101A300078AD62C0C6010E947005182FC6016DA95D
:101A40007EA944E050E00E944D05EE24FF24012FC2
:101A500010E00450104006C0C6010E9470050894B2
:101A6000E11CF11CE016F106BCF302C1C6010E94A4
:101A70007005182FC6016BA97CA944E050E00E94B4
:101A80004D05EE24FF24012F10E00450104006C045
:101A9000C6010E9470050894E11CF11CE016F106D5
:101AA000BCF3E6C0C6010E947005182FF4018081C6
:101AB0009181A281B3810097A105B105D9F0CE0132
:101AC0000196B4010E94371925ED32E038872F8343
:101AD000F201208131814281538129873A874B87E6
:101AE0005C878B819C81AD81BE8182179307A4079F
:101AF000B50759F4C601B40144E050E00E944D0519
:101B0000B7C0C6010E94700511501123D1F7B0C0B3
:101B1000C6010E947005C60169A97AA944E050E097
:101B20000E944D05F50126A137A140A551A5E52E3E
:101B3000FF2400271127B22FAA2799278827E82AF0
:101B4000F92A0A2B1B2BB42FA32F922F88278070E2
:101B50009070B070E82AF92A0A2B1B2B232F342F00
:101B6000452F5527207040705070E22AF32A042B2D
:101B7000152BE6A2F7A200A711A77AC0C6010E9402
:101B80007005C6016FA578A944E050E00E944D059C
:101B9000F50122A533A544A555A5E52EFF24002770
:101BA0001127B22FAA2799278827E82AF92A0A2B72
:101BB0001B2BB42FA32F922F882780709070B070AA
:101BC000E82AF92A0A2B1B2B232F342F452F5527C0
:101BD000207040705070E22AF32A042B152BE2A6E5
:101BE000F3A604A715A744C0C6010E947005C6014C
:101BF000B10144E050E00E944D05F50122A133A15E
:101C000044A155A1E52EFF2400271127B22FAA27B2
:101C100099278827E82AF92A0A2B1B2BB42FA32FF0
:101C2000922F882780709070B070E82AF92A0A2BCA
:101C30001B2B232F342F452F5527207040705070B9
:101C4000E22AF32A042B152BE2A2F3A204A315A384
:101C5000E6A6F7A600AB11AB0BC0C6010E9470054B
:101C6000182F04C0C6010E94700511501123D1F72E
:101C7000C6010E94F904181619060CF49ACE01C088
:101C80007724C6010E941505872DE8960FB6F894B3
:101C9000DEBF0FBECDBFCF91DF911F910F91FF909F
:101CA000EF90DF90CF90BF90AF909F908F907F90FC
:101CB0006F905F904F903F902F9008950E96FC018B
:101CC00084E1DF011D928A95E9F708954F925F92B2
:101CD0006F927F928F929F92AF92BF92CF92DF923C
:101CE000EF92FF920F931F93DF93CF93CDB7DEB7A1
:101CF000E2970FB6F894DEBF0FBECDBF6C01462E43
:101D00003A01F3E18F2E912C8C0E9D1EE0E25E2EA7
:101D1000F401252D11922A95E9F7CE0107966FEF70
:101D20004FEF2FEF0FEF0E94CD1877E4A72EB12CC5
:101D3000AC0CBD1C85ED92E09E878D8789859A85C8
:101D4000AB85BC858F87988BA98BBA8BC501BE01EB
:101D5000635F7F4F43E450E00E940F068F5F9F4F09
:101D600009F4F3C081E08B8B8C8B86E08D8B1E8A0F
:101D7000F6012481358146815781E52EFF24002715
:101D80001127B22FAA2799278827E82AF92A0A2B90
:101D90001B2BB42FA32F922F882780709070B070C8
:101DA000E82AF92A0A2B1B2B232F342F452F5527DE
:101DB000207040705070E22AF32A042B152BEB821E
:101DC000FC820D831E83EF8AF88E098F1A8F7B8E1B
:101DD0006C8E80E890E09A8389839E8F8D8FC501F9
:101DE000B4014CE150E00E94EF05F40111925A94C5
:101DF000E9F7A8E06A2E712C6C0C7D1CD401F3016C
:101E000086E001900D928150E1F78E010D5E1F4F2B
:101E1000C501B80140E150E00E94EF0580E2F80101
:101E200011928A95E9F7EE24FF24902E012FC50127
:101E3000692D702F40E250E00E94EF050894E11CEC
:101E4000F11CF6E0EF16F10491F793E69B8B82E824
:101E50008C8B83E58D8B9E8B85E38F8B91E0988FA8
:101E6000498E8DE38A8F87E08B8F9C8FDE015D9694
:101E7000F30186E001900D928150E1F78CE08BA395
:101E80008CA38E010D5E1F4FCE01859666E472E035
:101E90000E940402C601BE01655D7F4FF6014385C5
:101EA0000E94AA0BC601BE01635D7F4FF601448507
:101EB0000E94AA0BC601BE01615D7F4FF6014585F8
:101EC0000E94AA0BC501B8014EE150E00E94EF0547
:101ED000F3E04F16F1F482E38B8B94E09C8BF601D8
:101EE00086858D8B87858E8B80898F8B8189888F66
:101EF00086E3898F9A8F828D8B8F838D8C8F848DD3
:101F00008D8F858D8E8FC501B8014CE050E00E9409
:101F1000EF0587E38B8B96E09C8B81E08D8B83E0D4
:101F20008E8B9F8B8FE0888F8AE3898F8BE38A8FDC
:101F30008FEF8B8FC501BE016D5E7F4F49E050E092
:101F40000E94EF05C5010E940A06E2960FB6F894BA
:101F5000DEBF0FBECDBFCF91DF911F910F91FF90DC
:101F6000EF90DF90CF90BF90AF909F908F907F9039
:101F70006F905F904F9008952F923F924F925F9293
:101F80006F927F928F929F92AF92BF92CF92DF9289
:101F9000EF92FF920F931F93DF93CF9300D000D067
:101FA000CDB7DEB78C0161E070E080E090E020ED1D
:101FB00037E040E050E00E94A11CD80114966C93D9
:101FC000149715967C93159716968C9316971796DB
:101FD0009C9317976C9311967C93119712968C9300
:101FE000129713969C9377E4272E312C200E311EE6
:101FF000C10164E470E00E94B306882319F46624EA
:10200000772422C10E944B1B4B015C01662477247C
:1020100066E4C62ED12CC00ED11E5EE3452E512C97
:10202000400E511E42E0E42EFBC0882309F5F80162
:1020300084819581A681B7810196A11DB11D8483FC
:102040009583A683B7830E944B1B681979098A0977
:102050009B0928EE33E040E050E00E94DE1CC801FE
:1020600061E0A9010E94660E81E0D6018C93C2C096
:10207000843001F5F80184819581A681B7810196AC
:10208000A11DB11D84839583A683B7830E944B1B3A
:10209000681979098A099B0928EE33E040E050E08D
:1020A0000E94DE1CC80163E0A9010E94660ED601F1
:1020B000EC92A0C0813069F5F201408151816281CA
:1020C0007381C8019E012F5F3F4F0E94F40BF82ED1
:1020D000F2E08F1709F089C089819A81AB81BC81B8
:1020E000F80184839583A683B7830E944B1B6819EC
:1020F00079098A099B0928EE33E040E050E00E940C
:10210000DE1CC80163E0A9010E94660ED601FC92A4
:1021100071C0823009F06EC0F2014081518162814C
:102120007381C8019E012F5F3F4F0E94F40BF82E70
:10213000F5E08F1709F053C0E3E0D601EC93F80106
:1021400082A193A1A4A1B5A10097A105B10541F475
:1021500084E893E0A0E0B0E082A393A3A4A3B5A396
:10216000F80186A197A1A0A5B1A50097A105B10589
:1021700061F482A193A1A4A1B5A1B695A795979565
:10218000879586A397A3A0A7B1A7F80182A593A5D9
:10219000A4A5B5A50097A105B10561F486A197A1F5
:1021A000A0A5B1A5880F991FAA1FBB1F82A793A73F
:1021B000A4A7B5A7F80186A197A1A0A5B1A586A758
:1021C00097A7A0ABB1AB82A593A5A4A5B5A582ABFB
:1021D00093ABA4ABB5ABA1E06A2E712C0BC0F6E0BB
:1021E0008F1719F4D6011C9205C0BFEFFB1611F42E
:1021F000F6011082F1E06F16710491F00E944B1B02
:10220000681979098A099B09D801DA962D913D91BF
:102210004D915C91DD97261737074807590728F03D
:10222000F6018081833009F000CFC1010E949E0633
:10223000F80184819581A681B7810196A11DB11D08
:1022400084839583A683B783C3010F900F900F906B
:102250000F90CF91DF911F910F91FF90EF90DF9042
:10226000CF90BF90AF909F908F907F906F905F9036
:102270004F903F902F900895CF92DF92EF92FF9270
:102280000F931F93CF93DF93EC01D62EC72E1AA284
:102290001BA21CA21DA21EA21FA218A619A61AA646
:1022A0001BA61CA61DA61EAA1FAA18AE19AE2AAFF1
:1022B0003BAF4CAF5DAFEE96E882F9820A831B8399
:1022C000EE978E01085F1F4F86E0F80111928A9504
:1022D000E9F7CE010E945E0ED8012D2D3C2DC901DB
:1022E000FC0186E001900D928150E1F7CA5BDF4F5F
:1022F0001882C654D040CE010E94BC0FDF91CF910E
:102300001F910F91FF90EF90DF90CF9008959C0167
:10231000FB0182819381A481B581F901828393833A
:10232000A483B583178216820895CF93DF93FB01B0
:1023300001C0319680818823E1F7EB01A0E0B0E095
:1023400020E030E021C06E3261F42F3F310509F00A
:102350007CF5FA01EA0FFB1F2283119620E030E0A2
:1023600012C0C901E3E0880F991FEA95E1F7220F37
:10237000331F820F931F262F332727FD30952053BD
:102380003040280F391F21966881662319F0A43048
:10239000B105CCF22F3F310509F054F4A430B1055A
:1023A0003CF4A40FB51F12962C9321E030E002C03C
:1023B00020E030E0C901DF91CF9108950F9389E2C9
:1023C00093E060E040E020E000E00E94CD180F9133
:1023D00008952F923F924F925F926F927F928F92C9
:1023E0009F92AF92BF92CF92DF92EF92FF920F93A4
:1023F0001F93DF93CF93CDB7DEB769970FB6F894ED
:10240000DEBF0FBECDBF4C018B011A010E944B1BDA
:102410002B013C01F8E0EF2EF12CE80CF91C5801DF
:10242000CC24DD2414C00E944B1B64197509860955
:102430009709A616B706C806D90618F42FEF3FEF7E
:102440000BC162E370E080E090E00E947F1BC70157
:102450000E949B051816190634F7F4012281338176
:1024600044815581818D928DA38DB48D8A879B8700
:10247000AC87BD87281739074A075B0709F0EAC010
:10248000858D968DC59709F0E5C000C18E01025F6C
:102490001F4FC701B8014CE050E00E944D05F80104
:1024A000528143815B834A83F401268137818E8583
:1024B0009F852817390711F457FD06C0C7010E94F0
:1024C00015052CEF3FEFC8C04F705270452B31F00F
:1024D000C7010E9415052BEF3FEFBEC0F8017680C3
:1024E00067806114710441F0AA24BB2448012E01C5
:1024F0000894411C511C28C0C7010E9415052AEFF1
:102500003FEFAAC0C701B20141E050E00E944D0573
:102510008981882321F408C0C7010E947005898140
:10252000815089838F5FC1F78981882359F700E043
:1025300010E0C7010E9470050F5F1F4F04301105A6
:10254000C1F70894A11CB11CF401D480C580AC145F
:10255000BD04C0F244245524C701BE016F5F7F4F04
:1025600041E050E00E944D059981892F807C61F403
:10257000992321F40DC0C7010E9470058981815003
:1025800089838F5FC1F704C0C7010E94700519825B
:102590008981882309F7C701BE016C5F7F4F42E044
:1025A00050E00E944D05C701BE016A5F7F4F42E0C7
:1025B00050E00E944D0500E010E0C7010E94700548
:1025C0000F5F1F4F04301105C1F7C701BE016E5FD9
:1025D0007F4F42E050E00E944D05DC80CD80F1E06D
:1025E000CF16D10419F5BE80AF8081E0A816B104E2
:1025F000E9F49A818B81049731F0C7010E94150597
:1026000027EF3FEF29C0E2E0F0E02E0E3F1EC701AA
:10261000B10144E050E00E944D0521E030E01CC0D3
:10262000C7010E9470050F5F1F4F02C000E010E05D
:102630009A808B800815190598F30894411C511C49
:102640004614570408F488CFC7010E94150526EFE9
:102650003FEF02C02EEF3FEFC90169960FB6F89425
:10266000DEBF0FBECDBFCF91DF911F910F91FF90C5
:10267000EF90DF90CF90BF90AF909F908F907F9022
:102680006F905F904F903F902F90089585ED92E06E
:1026900099878887C7010E94F9040C970CF0F6CE41
:1026A0002DEF3FEFD9CF6F927F928F929F92AF9293
:1026B000BF92CF92DF92EF92FF920F931F93DF931F
:1026C000CF9300D00F92CDB7DEB78C01F62EE72E58
:1026D0000E944B1BF80177836683B8E0CB2ED12C88
:1026E000C00ED11E0A5F1F4FC601B80142E050E084
:1026F0000E94EF0581E090E09B838A83A2E08A2E0E
:10270000912C8C0E9D1EC601B40142E050E00E9447
:10271000EF0580E091E09B838A83C601B40142E02B
:1027200050E00E94EF051B821A82C601B40142E00C
:1027300050E00E94EF05C601B40142E050E00E9463
:10274000EF05C601B40142E050E00E94EF052F2DD5
:102750003E2DC9018C017C013E010894611C711C55
:1027600020C00894E11CF11CF7018081882311F03E
:102770008E32B9F75701A01AB10A1A141B0474F467
:102780008E2D801B8983C601B30141E050E00E9479
:10279000EF05C601B801A5010E94EF0587010F5F93
:1027A0001F4FF7018081882311F07801DDCF198256
:1027B000C601BE016F5F7F4F41E050E00E94EF0510
:1027C00000E011E01B830A83C601B40142E050E03F
:1027D0000E94EF051B830A83C601B40142E050E06A
:1027E0000E94EF0581E090E00F900F900F90CF9145
:1027F000DF911F910F91FF90EF90DF90CF90BF90EE
:10280000AF909F908F907F906F9008958F929F923E
:10281000AF92BF92CF92DF92EF92FF920F931F93EE
:10282000DF93CF9300D000D000D0CDB7DEB76C01DE
:102830007B014A010E949511892B19F001E010E0FB
:1028400067C0F601228133814481558180912B0339
:1028500090912C03A0912D03B0912E0328173907D6
:102860004A075B0719F40EEF1FEF52C018E0A12EC4
:10287000B12CAC0CBD1C0E944B1B9B01AC012F70FA
:10288000307020503C4FC501B9010E94B306813021
:1028900019F000E010E03CC085ED92E09A83898356
:1028A000F60182819381A481B5818B839C83AD8362
:1028B000BE83C501BE016F5F7F4F45E350E00E94BC
:1028C0000F068C01009709F1C601B7010E9453134E
:1028D0008C010097D1F0C5010E940A068C01009777
:1028E000A1F0EE24FF24C60168E873E1A4010E9470
:1028F000E9118C010894E11CF11CF3E0EF16F104DE
:1029000021F08FEF0F3F180771F3C5010E949E065B
:10291000C80126960FB6F894DEBF0FBECDBFCF918B
:10292000DF911F910F91FF90EF90DF90CF90BF90BC
:10293000AF909F908F900895FC011382128288EED1
:1029400093E0A0E0B0E084839583A683B78389EA0F
:1029500092E09183808388E084870895DF93CF930A
:102960000F92CDB7DEB7FC016983A081B1811296C9
:102970002D913C911397BE016F5F7F4F41E050E076
:10298000F90109950F90CF91DF910895CF93DF93CF
:10299000EC0107C0E881F9810680F781E02DCE01C6
:1029A0000995E881F9810480F581E02DCE01099532
:1029B000892B81F7DF91CF91089520E0FC01848578
:1029C000883009F021E0822F08950F938FE293E081
:1029D00060E040E020E000E00E94CD180F910895F3
:1029E000FC016485683011F480E008956295660FFB
:1029F000607E685F83E090E00E94180A0895CF939C
:102A0000DF93EC018C85883011F480E019C0CE0191
:102A10000E94F014843191F0882381F0883171F0A4
:102A20008C3151F4E881F9810480F581E02DCE01EB
:102A3000099520E0892B19F021E001C020E0822FC8
:102A4000DF91CF910895EF92FF920F931F93CF9351
:102A5000DF93EC018C85883089F10E94E7070E94A2
:102A60004B1B7B018C01CE010E94F014882301F1E5
:102A70000E944B1B6E197F09800B910B685E73409F
:102A800080409040A8F461E070E080E090E00E9417
:102A90007F1BE9CF8C850E942F08EC85F0E0EE0FBC
:102AA000FF1FEA50FD4F1182108288E08C8706C01C
:102AB000CE010E94F014882381F3ECCFDF91CF91F7
:102AC0001F910F91FF90EF9008950F931F93DF9345
:102AD000CF930F92CDB7DEB78C01DC01ED91FC9165
:102AE0000480F581E02D0995892B19F42FEF3FEF34
:102AF0000AC0F8018485BE016F5F7F4F0E948D0977
:102B00008981282F30E0C9010F90CF91DF911F916B
:102B10000F910895FC0184850E949C090895DF931C
:102B2000CF930F92CDB7DEB7FC018485BE016F5FF6
:102B30007F4F41E050E00E949C09181619061CF0D6
:102B40002FEF3FEF03C08981282F30E0C9010F909C
:102B5000CF91DF910895FC016485683019F420E07D
:102B600030E005C082E293E00E94920A9C01C90114
:102B700008950F931F93CF93DF938C01EA01FC011B
:102B80008485883019F481E090E007C00E943609FE
:102B9000892B39F481E090E0F80193838283C0E0CF
:102BA000D0E0CE01DF91CF911F910F910895CF9288
:102BB000DF92EF92FF920F931F93CF93DF938C01DD
:102BC0007B016A01FC018485883009F059C0C0E0AE
:102BD000D0E0CE018295880F807E682F685F83E009
:102BE00090E00E94180A882321F0883111F08C317E
:102BF00019F4F801C48704C02196C830D10549F7FB
:102C0000F80124852830E1F180917F0290918002C3
:102C100001969093800280937F02892B31F480E0AB
:102C200094E09093800280937F0240917F025091C4
:102C30008002822F61E020E00E94640882E090E040
:102C4000E80EF91EF8018485B701A6010E94D0089C
:102C500009C061E070E080E090E00E947F1BC80145
:102C60000E94F014882321F488E0F801848708C0CA
:102C7000C8010E94F014873161F721E030E002C002
:102C800020E030E0C901DF91CF911F910F91FF90BB
:102C9000EF90DF90CF9008956F927F928F929F92E6
:102CA000AF92BF92CF92DF92EF92FF920F931F935A
:102CB000DF93CF93CDB7DEB7E5970FB6F894DEBFBD
:102CC0000FBECDBF4C015B013A0193E1E92EF12C1F
:102CD000EC0EFD1EC7010E944819CE014B960E94C2
:102CE00018066E010894C11CD11CC6010E94481927
:102CF0008E01095F1F4FC80166E073E00E94B102B8
:102D0000C701B8010E948711C701B501A6010E9441
:102D100006149C0181309105C9F4D401ED91FC9118
:102D20000484F585E02D85ED92E09E878D878B816B
:102D30009C81AD81BE818F87988BA98BBA8BC40192
:102D4000BE01635F7F4FA30109959C01C901E59610
:102D50000FB6F894DEBF0FBECDBFCF91DF911F91AC
:102D60000F91FF90EF90DF90CF90BF90AF909F902A
:102D70008F907F906F90089508951F920F920FB6D5
:102D80000F9211242F933F934F938F939F93EF9321
:102D9000FF938091C00082FD1DC04091C60020912C
:102DA0007503309176032F5F3F4F2F733070809102
:102DB0007703909178032817390771F0E091750334
:102DC000F0917603EB5CFC4F4083309376032093C5
:102DD000750302C08091C600FF91EF919F918F9182
:102DE0004F913F912F910F900FBE0F901F9018950C
:102DF000E091C903F091CA03E05CFF4F819191918A
:102E000020813181821B930B8F739070892B11F07D
:102E10000E94BC1608951F920F920FB60F921124B4
:102E20002F933F938F939F93EF93FF932091B90339
:102E30003091BA038091BB039091BC0328173907E6
:102E400031F48091C1008F7D8093C10014C0E09166
:102E5000BB03F091BC03E758FC4F20818091BB037A
:102E60009091BC0301968F7390709093BC038093F4
:102E7000BB032093C600FF91EF919F918F913F91EB
:102E80002F910F900FBE0F901F901895AF92BF9289
:102E9000DF92EF92FF920F931F93CF93DF93EC019A
:102EA0007A018B01DD24403081EE580780E068070D
:102EB00080E0780711F0DD24D39491E0A92EB12CA5
:102EC000EC89FD89DD2069F0C50108A002C0880FEA
:102ED000991F0A94E2F7808360E079E08DE390E047
:102EE00005C0108260E874E88EE190E0A8019701C7
:102EF0000E94DE1C2150304040405040569547957E
:102F00003795279580E12030380720F0DD2011F03B
:102F1000DD24D6CFE889F9893083EA89FB892083CB
:102F200019A2EE89FF89408121E030E0C9010C8CB3
:102F300002C0880F991F0A94E2F7482B4083EE895C
:102F4000FF894081C9010D8C02C0880F991F0A9426
:102F5000E2F7482B4083EE89FF894081C9010E8C3E
:102F600002C0880F991F0A94E2F7482B4083EE892C
:102F7000FF8980810F8C02C0220F331F0A94E2F771
:102F8000209528232083DF91CF911F910F91FF90EF
:102F9000EF90DF90BF90AF900895DC011C96ED910B
:102FA000FC911D97E05CFF4F2191319180819181CF
:102FB000281B390B2F733070C9010895DC011C9652
:102FC000ED91FC911D97E05CFF4F20813181E05431
:102FD000F040DF01AE5BBF4F8D919C911197281798
:102FE000390719F42FEF3FEF07C08D919C91E80F3F
:102FF000F91F8081282F30E0C9010895DC011C965B
:10300000ED91FC911D97E05CFF4F20813181E054F0
:10301000F040DF01AE5BBF4F8D919C911197281757
:10302000390719F42FEF3FEF10C08D919C91119744
:10303000E80FF91F20818D919C91119701968F7354
:10304000907011969C938E9330E0C9010895DC0135
:1030500091968C919197882339F05496ED91FC913B
:103060005597808186FFF9CF91961C920895CF9352
:10307000DF93EC01EE85FF85E05CFF4F208131811D
:10308000E054F0402F5F3F4F2F733070DF01AE5B95
:10309000BF4F8D919C91119728173907D1F3E05CB0
:1030A000FF4F80819181E054F040E80FF91F608369
:1030B000EE85FF85E05CFF4F31832083EE89FF8939
:1030C000208181E090E00F8C02C0880F991F0A9444
:1030D000E2F7282B208381E089A3EC89FD89808198
:1030E0008064808381E090E0DF91CF910895109219
:1030F000C0031092BF0388EE93E0A0E0B0E080939D
:10310000C1039093C203A093C303B093C40385EC9F
:1031100092E09093BE038093BD0385E393E0909388
:10312000CA038093C90389E793E09093CC0380930B
:10313000CB0385EC90E09093CE038093CD0384EC99
:1031400090E09093D0038093CF0380EC90E0909335
:10315000D2038093D10381EC90E09093D4038093C9
:10316000D30382EC90E09093D6038093D50386EC52
:1031700090E09093D8038093D70384E08093D903A1
:1031800083E08093DA0387E08093DB0385E080931C
:10319000DC0381E08093DD0308950F93FC0185ED4E
:1031A00092E09183808362834383248305830F911C
:1031B000089585ED92E09093E0038093DF031092F1
:1031C000E1031092E2031092E3031092E4030895E6
:1031D0008F929F92AF92BF92CF92DF92EF92FF9227
:1031E0000F931F93CF93DF934C016B017C01AA24B3
:1031F000BB24C0E0D0E0C601F70162814AE050E0A4
:103200000E947C1A8C01C6016EE20E948E19080F82
:10321000191FA00EB11E21960894E11CF11CC330A9
:10322000D10549F7C601F40165814AE050E00E94EA
:103230007C1A9501280F391FC901DF91CF911F9189
:103240000F91FF90EF90DF90CF90BF90AF909F9045
:103250008F9008959C01FB0180819181A281B381AF
:10326000F90182839383A483B583C90108959C01E6
:10327000FB0185ED92E0D9018D939C938081918132
:10328000A281B381F90182839383A483B5830895D6
:10329000FC0185ED92E09183808312821382148277
:1032A00015820895CF93DF930E94A51B0E942502EB
:1032B000C8EFD6E10E940B022097E1F30E94F816B6
:1032C000F9CF0E9494000895CF92DF92EF92FF927F
:1032D0000F931F93CF93DF937C016B018A01C0E0B2
:1032E000D0E00FC0D6016D916D01D701ED91FC9139
:1032F0000190F081E02DC7010995C80FD91F015039
:1033000010400115110571F7CE01DF91CF911F918A
:103310000F91FF90EF90DF90CF900895DC01ED9139
:10332000FC910190F081E02D09950895EF92FF92B4
:103330000F931F938C01DC01ED91FC910190F081C2
:10334000E02D6DE009957C01D801ED91FC91019093
:10335000F081E02DC8016AE009959C012E0D3F1D0A
:10336000C9011F910F91FF90EF900895EF92FF9286
:103370000F931F937C01DB01ED91FC910190F08193
:10338000E02DCB01B70109958C01C7010E94961968
:10339000080F191FC8011F910F91FF90EF9008951A
:1033A000CF93DF93EC016115710519F420E030E053
:1033B0000FC0DB010D900020E9F71197A61BB70B9A
:1033C000E881F9810280F381E02DAD0109959C012E
:1033D000C901DF91CF9108954F925F927F928F92B2
:1033E0009F92AF92BF92CF92DF92EF92FF920F9394
:1033F0001F93DF93CF93CDB7DEB7A1970FB6F894A5
:10340000DEBF0FBECDBF2C01742ECB01223008F4DD
:103410002AE019A231E2C32ED12CCC0EDD1E822E61
:103420009924AA24BB24672D752FA50194010E941D
:10343000DE1C79018A01C801B701A50194010E942F
:10344000BF1C472D461B0894C108D1084A3014F40C
:10345000405D01C0495CF6014083E114F1040105BF
:10346000110521F07E2C5F2DC801DDCFC201B60110
:103470000E94D019A1960FB6F894DEBF0FBECDBF43
:10348000CF91DF911F910F91FF90EF90DF90CF9040
:10349000BF90AF909F908F907F905F904F900895D6
:1034A000DC012115310541F4ED91FC910190F08191
:1034B000E02D642F099508950E94EC190895CF928C
:1034C000DF92EF92FF920F931F936C017B019A01A1
:1034D00000E010E0B801A7010E94501A8C01C6015B
:1034E0000E949619080F191FC8011F910F91FF9094
:1034F000EF90DF90CF900895EF92FF920F931F937C
:103500009A01E62EFF2400E010E0B801A7010E9416
:10351000501A1F910F91FF90EF900895CF92DF9274
:10352000EF92FF920F931F93CF93DF93EC016A0109
:103530007B012115310541F4E881F9810190F08189
:10354000E02D642F09951FC02A303105D1F477FF93
:1035500017C0E881F9810190F081E02D6DE20995B5
:103560008C0144275527BA014C195D096E097F0962
:10357000CE012AE00E94EC199801280F391F04C0DF
:103580002AE00E94EC199C01C901DF91CF911F91A3
:103590000F91FF90EF90DF90CF900895CF92DF9240
:1035A000EF92FF920F931F936C017B019A0100270A
:1035B000F7FC0095102FB801A7010E948E1A8C010C
:1035C000C6010E949619080F191FC8011F910F917B
:1035D000FF90EF90DF90CF9008950E94D01908954A
:1035E000EF92FF920F931F937C010E94D0198C01E0
:1035F000C7010E949619080F191FC8011F910F914A
:10360000FF90EF9008951F920F920FB60F92112422
:103610002F933F938F939F93AF93BF938091E90331
:103620009091EA03A091EB03B091EC033091ED038C
:103630000196A11DB11D232F2D5F2D3720F02D5791
:103640000196A11DB11D2093ED038093E903909392
:10365000EA03A093EB03B093EC038091E503909110
:10366000E603A091E703B091E8030196A11DB11D07
:103670008093E5039093E603A093E703B093E803F8
:10368000BF91AF919F918F913F912F910F900FBE5E
:103690000F901F9018958FB7F8942091E9033091FF
:1036A000EA034091EB035091EC038FBFB901CA01CB
:1036B00008959FB7F8942091E5033091E603409177
:1036C000E7035091E80386B5A89B06C08F3F21F021
:1036D0002F5F3F4F4F4F5F4F9FBF542F432F322FCE
:1036E0002227280F311D411D511D82E0220F331F5B
:1036F000441F551F8A95D1F7B901CA010895EF9269
:10370000FF920F931F93CF93DF937B018C010E9455
:10371000591BEB010EC00E94591B6C1B7D0B685E90
:103720007340C8F30894E108F10801091109C85170
:10373000DC4FE114F1040105110569F7DF91CF9128
:103740001F910F91FF90EF900895789484B5826057
:1037500084BD84B5816084BD85B5826085BD85B535
:10376000816085BDEEE6F0E0808181608083E1E8E4
:10377000F0E010828081826080838081816080831C
:10378000E0E8F0E0808181608083E1EBF0E080811F
:1037900084608083E0EBF0E0808181608083EAE7F1
:1037A000F0E080818460808380818260808380817A
:1037B000816080838081806880831092C100089539
:1037C000CF93DF93482F50E0CA0186569F4FFC01EC
:1037D00034914A575F4FFA018491882369F190E050
:1037E000880F991FFC01E859FF4FA591B491FC0186
:1037F000EE58FF4FC591D491662351F42FB7F8943A
:103800008C91932F909589238C93888189230BC069
:10381000623061F42FB7F8948C91932F909589239F
:103820008C938881832B88832FBF06C09FB7F89421
:103830008C91832B8C939FBFDF91CF910895833020
:1038400071F0843028F48130A1F0823021F514C069
:103850008630B1F08730D1F08430E9F404C0809133
:1038600080008F7703C0809180008F7D80938000DF
:10387000089584B58F7702C084B58F7D84BD089587
:103880008091B0008F778093B00008958091B00050
:103890008F7D8093B0000895FF920F931F93F62EB3
:1038A000482F50E0CA0182559F4FFC012491CA0164
:1038B00086569F4FFC0114914A575F4FFA010491BD
:1038C0000023C9F0222319F0822F0E941F1CE02F31
:1038D000F0E0EE0FFF1FEE58FF4FA591B4919FB798
:1038E000F894FF2021F48C911095812302C08C91D3
:1038F000812B8C939FBF1F910F91FF900895EF92A2
:10390000FF920F931F937B018C0161157105810557
:10391000910529F420E030E040E050E00BC00E9427
:10392000E901A80197010E94001DAC01CB01DA0159
:103930009C01AD01B901CA011F910F91FF90EF9059
:103940000895EF92FF920F931F937B018C016217F2
:1039500073078407950764F4261B370B480B590B34
:10396000CA01B9010E947F1CE60EF71E081F191F2D
:10397000B701C8011F910F91FF90EF900895629FCA
:10398000D001739FF001829FE00DF11D649FE00D57
:10399000F11D929FF00D839FF00D749FF00D659FB8
:1039A000F00D9927729FB00DE11DF91F639FB00DB7
:1039B000E11DF91FBD01CF0111240895A1E21A2EC6
:1039C000AA1BBB1BFD010DC0AA1FBB1FEE1FFF1FC3
:1039D000A217B307E407F50720F0A21BB30BE40B13
:1039E000F50B661F771F881F991F1A9469F760955A
:1039F0007095809590959B01AC01BD01CF01089514
:103A000097FB092E05260ED057FD04D0D7DF0AD02C
:103A1000001C38F450954095309521953F4F4F4FFD
:103A20005F4F0895F6F790958095709561957F4F5B
:103A30008F4F9F4F0895EE0FFF1F0590F491E02DDB
:103A400009942F923F924F925F926F927F928F9242
:103A50009F92AF92BF92CF92DF92EF92FF920F931D
:103A60001F93CF93DF93CDB7DEB7CA1BDB0B0FB627
:103A7000F894DEBF0FBECDBF09942A8839884888E4
:103A80005F846E847D848C849B84AA84B984C8847A
:103A9000DF80EE80FD800C811B81AA81B981CE0F71
:103AA000D11D0FB6F894DEBF0FBECDBFED01089556
:043AB000F894FFCFB8
:103AB40037373137313136302D756D7576356A5675
:103AC40050656967794A65584D726B66534E6961F2
:103AD400715A767270326459757479374834304F3C
:103AE4004337004661696C656420746F20636F6EB0
:103AF4006669677572652045746865726E657420C1
:103B04007573696E6720444843500057697A3535A8
:103B14003030696F204D6F64756C652049502041C9
:103B2400646472657373203A2000636F6E6E65631C
:103B340074696E67202E2E2E004F4B2042524F2F59
:103B44005349532E00736F7272792062726F2F7310
:103B540069732C206661696C6564203A20636F6424
:103B6400652000736F7272792062726F2F736973AC
:103B74002C20636F6E6E656374696F6E2066616975
:103B84006C65642E0061726475696E6F2D7477655F
:103B940065742E61707073706F742E636F6D005056
:103BA4004F535420687474703A2F2F61726475698E
:103BB4006E6F2D74776565742E61707073706F7499
:103BC4002E636F6D2F757064617465204854545072
:103BD4002F312E3000436F6E74656E742D4C656EFC
:103BE4006774683A2000746F6B656E3D00267374C9
:103BF400617475733D0057495A6E6574002000F274
:103C040003000001000000546869732069732054A4
:103C1400776565742066726F6D2041726475696E94
:103C24006F204475656D696C616E6F76652E00005A
:103C34000400000000FD04EF05F9047005320515C9
:103C440005B3069E060F062E060A069B054D05DCE7
:103C540004E404F50400000000AE14B915AB158F9C
:103C6400156515C614D7154C168A152315FF14DDD2
:103C7400140000000037186419CD17FE17DE17274B
:083C84001800000000E8180020
:00000001FF
