:100000000C9469000C9491000C9491000C94910054
:100010000C9491000C9491000C9491000C9491001C
:100020000C9491000C9491000C9491000C9491000C
:100030000C9491000C9491000C9491000C949100FC
:100040000C94B21A0C9491000C9489160C94D71647
:100050000C9491000C9491000C9491000C949100DC
:100060000C9491000C9491000000000024002700E3
:100070002A0000000000250028002B0000000000DE
:1000800023002600290004040404040404040202DA
:100090000202020203030303030301020408102007
:1000A0004080010204081020010204081020000012
:1000B0000007000201000003040600000000000029
:1000C00000001D028803EB050D08A90DCA13431893
:1000D000A51811241FBECFEFD8E0DEBFCDBF12E0C0
:1000E000A0E0B1E0E4EAFAE302C005900D92A63C7C
:1000F000B107D9F713E0A6ECB2E001C01D92AA3D0A
:10010000B107E1F710E0C2EDD0E004C02297FE0194
:100110000E94151DC23CD107C9F70E941E190C94FC
:10012000501D0C940000CF93DF93BC0182309105E9
:1001300010F462E070E0A091D803B091D903ED0112
:10014000E0E0F0E040E050E021C08881998186172E
:10015000970769F48A819B81309719F09383828392
:1001600004C09093D9038093D803FE0134C068176C
:10017000790738F44115510519F08417950708F4EB
:10018000AC01FE018A819B819C01E9012097E9F67F
:1001900041155105A9F1CA01861B970B049708F474
:1001A000BA01E0E0F0E02AC08D919C91119784178C
:1001B0009507F9F46417750781F412968D919C9157
:1001C0001397309719F09383828304C09093D903D7
:1001D0008093D803FD0132964CC0CA01861B970B51
:1001E000FD01E80FF91F6193719302978D939C9322
:1001F00040C0FD01828193819C01D9011097A1F635
:100200008091D6039091D703892B41F480915502B8
:10021000909156029093D7038093D6034091570252
:10022000509158024115510541F44DB75EB7809188
:10023000530290915402481B590B2091D6033091E0
:10024000D703CA01821B930B8617970780F0AB0177
:100250004E5F5F4F8417950750F0420F531F509326
:10026000D7034093D603F9016193719302C0E0E094
:10027000F0E0CF01DF91CF910895CF93DF93009706
:1002800009F450C0EC0122971B821A82A091D80376
:10029000B091D903109709F140E050E0AC17BD07C9
:1002A00008F1BB83AA83FE0121913191E20FF31F74
:1002B000AE17BF0779F48D919C911197280F391FC4
:1002C0002E5F3F4F3983288312968D919C9113970F
:1002D0009B838A834115510571F4D093D903C09350
:1002E000D80320C012968D919C911397AD01009771
:1002F00011F0DC01D3CFFA01D383C2832191319174
:10030000E20FF31FCE17DF0769F488819981280F68
:10031000391F2E5F3F4FFA01318320838A819B81F1
:1003200093838283DF91CF910895A0E0B0E0EBE961
:10033000F1E00C94211DEC01A880B980CA80DB801B
:10034000A114B104C104D10441F484E2A82E89EDC2
:10035000B82E8BE5C82E87E0D82EC601B5012DE159
:1003600033EF41E050E00E94E41C27EA31E440E032
:1003700050E00E94901C7B018C01C601B5012DE16B
:1003800033EF41E050E00E94E41CCA01B9012CEEB9
:1003900034EF4FEF5FEF0E94901C6E0D7F1D801FAA
:1003A000911F97FF04C0615070408040904868835F
:1003B00079838A839B839B01AC015F77B901CA0172
:1003C000CDB7DEB7EAE00C943D1D0E94950108957B
:1003D00089E592E00E949501089560935902709317
:1003E0005A0280935B0290935C020895FB01DC014A
:1003F00004C08D910190801921F441505040C8F7FC
:10040000881B990B0895FB01DC0101900D920020DF
:10041000E1F708956AE070E00E94AF1CCB01E1E0D3
:10042000F0E006C06AE070E00E94AF1CCB0131969C
:1004300018161906BCF3CF0108950F938EED92E0C4
:1004400060E040E020E000E00E94991886EC92E035
:1004500060EC48EA20E70AE00E9499188CEC92E0F0
:100460000E94A2050F9108950F931F93DF93CF93DE
:10047000CDB7DEB72C970FB6F894DEBF0FBECDBF59
:1004800085EA93E040E855E260E070E00E941217D0
:1004900084EF92E00E940305892BE9F485EA93E05A
:1004A00060E071E00E949F1A83EC92E09A83898356
:1004B0008091C8029091C902A091CA02B091CB026A
:1004C0008B839C83AD83BE8384EF92E0BE016F5F1C
:1004D0007F4F0E94CB0485EA93E068E271E00E94BE
:1004E0009C1A8E01095F1F4FC80164EF72E00E94E1
:1004F000970385EA93E0B8010E9482192C960FB603
:10050000F894DEBF0FBECDBFCF91DF911F910F9149
:100510000895CF93DF93EC018CEC92E06DE572E0EF
:1005200040E550E00E945207892B09F46AC085EA31
:1005300093E06EE471E00E949F1A8CEC92E06CE50F
:1005400071E00E949C1A8CEC92E04EE454ED64E859
:1005500076E42AE030E00E943D1A8CEC92E06BE6F3
:1005600071E00E949F1A8CEC92E069E771E00E94B2
:100570009F1A8CEC92E06CE871E00E949C1A8CEC63
:1005800092E067E971E00E949F1A8CEC92E068ECBF
:1005900071E00E949C1A8CEC92E065ED71E00E9483
:1005A0009F1A8CEC92E06FED71E00E949C1ACE01D4
:1005B0000E940A02BC01685F7F4F8CEC92E04AE027
:1005C00050E00E947D1A8CEC92E060EF71E00E9496
:1005D0009F1A8CEC92E067E072E00E949F1A8CEC0C
:1005E00092E00E9462198CEC92E069E172E00E9454
:1005F0009C1A8CEC92E0BE014AE050E00E947D1A09
:1006000014C085EA93E062E272E00E949F1A85EAD4
:1006100093E00E94621985EA93E064E372E00E942D
:100620009F1A8CEC92E00E9429060E94FA1A6093AD
:10063000D9027093DA028093DB029093DC02DF919F
:10064000CF910895CF93DF938EE00E948F1B8FE0B0
:100650000E948F1BEC018CEC92E00E94B106892B6A
:1006600049F08CEC92E00E949506682F85EA93E0B1
:100670000E945A198CEC92E00E940506882391F49E
:100680008091DD02882371F085EA93E00E9462196F
:1006900085EA93E064E372E00E949F1A8CEC92E09A
:1006A0000E9429068CEC92E00E9405068823B1F492
:1006B0000E94FA1A2091D9023091DA024091DB02AD
:1006C0005091DC02621B730B840B950B61517742D6
:1006D0008040904018F0CE010E9489028CEC92E09C
:1006E0000E9405068093DD02DF91CF910895DB0122
:1006F000FC0123EC32E03183208312962D913D9151
:100700004D915C91159722833383448355830895DB
:100710000F938CEF92E060E040E020E000E00E9468
:10072000991884EF92E00E9414190F910895EF92A6
:10073000FF920F931F93182F092FE82EF92EC70150
:100740000E94141982E090E0E80EF91E8FE090E01C
:1007500060E0A70124E030E00E94CC0C812F902FB4
:100760001F910F91FF90EF900895AB018FE090E003
:1007700064E024E030E00E94E00B0895AB0181E0EA
:1007800090E064E024E030E00E94E00B0895AB01CB
:1007900085E090E064E024E030E00E94E00B089502
:1007A0006F927F928F929F92AF92BF92CF92DF9281
:1007B000EF92FF920F931F933C017B014A01590175
:1007C00080E1C82E83E0D82EC6010E945C0D82E035
:1007D00090E0E80EF91EC601B7010E94B503E2E001
:1007E000F0E0AE0EBF1EC601B5010E94BE030E5F53
:1007F0001F4FC601B8010E94C703F4018281938193
:10080000A481B581F30182839383A483B5831F916F
:100810000F91FF90EF90DF90CF90BF90AF909F909F
:100820008F907F906F9008958F929F92AF92BF921A
:10083000CF92DF92EF92FF920F931F93DF93CF93AC
:10084000CDB7DEB76E970FB6F894DEBF0FBECDBF43
:100850004C017B016A015901CE0101966FEF4FEF08
:100860002FEF00E00E94991823EC32E038872F83A5
:10087000F70182819381A481B58189879A87AB87AB
:10088000BC873E872D87F60182819381A481B58143
:100890008F87988BA98BBA8B3C8B2B8BF501828130
:1008A0009381A481B5818D8B9E8BAF8BB88F3A8F4E
:1008B000298F8B819C81AD81BE818B8F9C8FAD8F69
:1008C000BE8FC401BE01695F7F4FAE01435F5F4FC2
:1008D0009E012D5E3F4F8E01075E1F4F0E94D00389
:1008E0006E960FB6F894DEBF0FBECDBFCF91DF91ED
:1008F0001F910F91FF90EF90DF90CF90BF90AF903E
:100900009F908F900895DF93CF93CDB7DEB7689710
:100910000FB6F894DEBF0FBECDBFFB01DA01228116
:100920003381448155812B833C834D835E8363EC0B
:1009300072E078876F8329873A874B875C877E8749
:100940006D8712962D913D914D915C9115972F8752
:10095000388B498B5A8B7C8B6B8B21E02E832B81C0
:100960003C814D815E812D8B3E8B4F8B588FBE011C
:10097000695F7F4FAE01435F5F4F9E012D5E3F4F2A
:100980000E94140468960FB6F894DEBF0FBECDBF68
:10099000CF91DF910895DF93CF93CDB7DEB7629704
:1009A0000FB6F894DEBF0FBECDBFFB0122813381AD
:1009B000448155812B833C834D835E8363EC72E0DD
:1009C00078876F8329873A874B875C877E876D8717
:1009D00021E02E832B813C814D815E812F87388BD6
:1009E000498B5A8BBE01695F7F4FAE01435F5F4FFA
:1009F0000E94830462960FB6F894DEBF0FBECDBF8F
:100A0000CF91DF910895CF92DF92EF92FF920F93F3
:100A10001F93DF93CF93CDB7DEB7A4970FB6F894AB
:100A2000DEBF0FBECDBF6C017E010894E11CF11C3E
:100A300086E0F70111928A95E9F782E690E00E943C
:100A40002D198C01895B9F4F0E94FE08F6011783C8
:100A5000068380E193E00E945C0DCE01079660E082
:100A600040E020E000E00E94991880E193E0BE01A0
:100A7000675F7F4F0E94B50389E090E060E0A701C7
:100A800026E030E00E94CC0CF60186819781B70108
:100A900020E63AEE40E050E0F0EAEF2EFFE0FF2ED5
:100AA000012D112D0E9428138C0181309105D1F563
:100AB000F60166817781CE010D960E94D50D80E109
:100AC00093E0BE01615F7F4F0E94B503F60166812E
:100AD0007781CE0143960E94BF0D80E193E0BE0175
:100AE0006B5E7F4F0E94BE03F60166817781CE0167
:100AF00049960E94CA0D80E193E0BE01655E7F4F7A
:100B00000E94C703F60166817781CE014F960E944D
:100B1000B40D89A19AA1ABA1BCA1F60182839383F4
:100B2000A483B583C801A4960FB6F894DEBF0FBEA8
:100B3000CDBFCF91DF911F910F91FF90EF90DF908C
:100B4000CF900895FC011382128288EE93E0A0E01A
:100B5000B0E084839583A683B78383E792E0918393
:100B6000808388E084870895DF93CF930F92CDB779
:100B7000DEB7FC016983A081B18112962D913C9171
:100B80001397BE016F5F7F4F41E050E0F901099577
:100B90000F90CF91DF910895CF93DF93EC0107C0C1
:100BA000E881F9810680F781E02DCE010995E88181
:100BB000F9810480F581E02DCE010995892B81F71B
:100BC000DF91CF91089520E0FC018485883009F001
:100BD00021E0822F08950F9382E093E060E040E0EF
:100BE00020E000E00E9499180F910895FC016485AF
:100BF000683011F480E008956295660F607E685F4A
:100C000083E090E00E94040C0895CF93DF93EC0101
:100C10008C85883011F480E019C0CE010E94F60561
:100C2000843191F0882381F0883171F08C3151F456
:100C3000E881F9810480F581E02DCE01099520E05D
:100C4000892B19F021E001C020E0822FDF91CF91A4
:100C50000895EF92FF920F931F93CF93DF93EC01D0
:100C60008C85883089F10E94D3090E94FA1A7B0191
:100C70008C01CE010E94F605882301F10E94FA1A28
:100C80006E197F09800B910B685E73408040904025
:100C9000A8F461E070E080E090E00E942E1BE9CFB4
:100CA0008C850E941B0AEC85F0E0EE0FFF1FEC51D3
:100CB000FD4F1182108288E08C8706C0CE010E9411
:100CC000F605882381F3ECCFDF91CF911F910F912F
:100CD000FF90EF9008950F931F93DF93CF930F92A0
:100CE000CDB7DEB78C01DC01ED91FC910480F5817C
:100CF000E02D0995892B19F42FEF3FEF0AC0F80179
:100D00008485BE016F5F7F4F0E94790B8981282FF8
:100D100030E0C9010F90CF91DF911F910F9108959D
:100D2000FC0184850E94880B0895DF93CF930F9276
:100D3000CDB7DEB7FC018485BE016F5F7F4F41E018
:100D400050E00E94880B181619061CF02FEF3FEF99
:100D500003C08981282F30E0C9010F90CF91DF9126
:100D60000895FC016485683019F420E030E005C086
:100D700080E193E00E947E0C9C01C90108950F93CD
:100D80001F93CF93DF938C01EA01FC0184858830A7
:100D900019F481E090E007C00E94220B892B39F4FE
:100DA00081E090E0F80193838283C0E0D0E0CE013F
:100DB000DF91CF911F910F910895CF92DF92EF9223
:100DC000FF920F931F93CF93DF938C017B016A01F6
:100DD000FC018485883009F059C0C0E0D0E0CE0124
:100DE0008295880F807E682F685F83E090E00E9484
:100DF000040C882321F0883111F08C3119F4F801AA
:100E0000C48704C02196C830D10549F7F80124856C
:100E10002830E1F180916C0290916D0201969093DF
:100E20006D0280936C02892B31F480E094E0909302
:100E30006D0280936C0240916C0250916D02822F82
:100E400061E020E00E94500A82E090E0E80EF91E86
:100E5000F8018485B701A6010E94BC0A09C061E0BF
:100E600070E080E090E00E942E1BC8010E94F60511
:100E7000882321F488E0F801848708C0C8010E9413
:100E8000F605873161F721E030E002C020E030E074
:100E9000C901DF91CF911F910F91FF90EF90DF90EB
:100EA000CF9008956F927F928F929F92AF92BF9250
:100EB000CF92DF92EF92FF920F931F93DF93CF9326
:100EC000CDB7DEB7E5970FB6F894DEBF0FBECDBF46
:100ED0004C015B013A0193E1E92EF12CEC0EFD1E71
:100EE000C7010E941419CE014B960E94FE086E01A4
:100EF0000894C11CD11CC6010E9414198E01095FFF
:100F00001F4FC80164EF72E00E947703C701B80168
:100F10000E947313C701B501A6010E94F2159C013E
:100F200081309105C9F4D401ED91FC910484F585DB
:100F3000E02D83EC92E09E878D878B819C81AD8133
:100F4000BE818F87988BA98BBA8BC401BE01635F6A
:100F50007F4FA30109959C01C901E5960FB6F8944E
:100F6000DEBF0FBECDBFCF91DF911F910F91FF90DC
:100F7000EF90DF90CF90BF90AF909F908F907F9039
:100F80006F900895DC01ED91FC91008CF18DE02DC6
:100F900009950895DB01FC0123EC32E031832083C5
:100FA00051962D913D914D915C91549722833383BD
:100FB000448355830895FC01858996890895FC0131
:100FC000818D928D0895DF93CF930F92CDB7DEB7C9
:100FD000FC016983A081B18112962D913C911397F8
:100FE000BE016F5F7F4F41E050E0F90109950F901E
:100FF000CF91DF910895CF93DF93EC0107C0E88193
:10100000F9810680F781E02DCE010995898D9A8DB1
:10101000892BA9F7DF91CF9108950F9388E093E092
:1010200060E040E020E000E00E9499180F910895F0
:10103000DF93CF930F92CDB7DEB7FC01818D928DF8
:10104000892B19F42FEF3FEF09C08485BE016F5F34
:101050007F4F0E94790B8981282F30E0C9010F90C2
:10106000CF91DF910895CF93DF93EC019A01498DE1
:101070005A8D41155105A1F02417350710F08C85C4
:1010800002C08C85A9010E94880B9C0118161906C4
:101090003CF4898D9A8D821B930B9A8F898F02C0A5
:1010A0002FEF3FEFC901DF91CF9108950F931F9369
:1010B000DF93CF930F92CDB7DEB78C01FC01818D0A
:1010C000928D892BA9F08485BE016F5F7F4F41E02F
:1010D00050E00E94880B1816190654F4F801818D0F
:1010E000928D0197928F818F8981282F30E002C0E5
:1010F0002FEF3FEFC9010F90CF91DF911F910F911B
:101100000895EF92FF920F931F93DF93CF93CDB784
:10111000DEB728970FB6F894DEBF0FBECDBF8C01A7
:10112000DC01ED91FC910284F385E02D099580E1CD
:1011300093E0F80164850E947E0C892B19F420E06D
:1011400030E025C0D8011C968C917E010894E11CEA
:10115000F11CB70148E050E00E94880B9C01181672
:101160001906ACF4C8010F96B7010E94F6189D81CC
:1011700080E02E81820F911DF801968B858B9F81D7
:1011800080E02885820F911D928F818F9C01C9017B
:1011900028960FB6F894DEBF0FBECDBFCF91DF917A
:1011A0001F910F91FF90EF9008950F931F938C0163
:1011B000FB019A01DC0157966D917C9158971C9622
:1011C0008C91AF010E94F20A9C01F8018789908DF1
:1011D000820F931F908F878BC9011F910F910895E4
:1011E000FC0184850E94EF090895FC01108E178A86
:1011F0006E5F7F4F84850E94960A0895FC011382DA
:10120000128288EE93E0A0E0B0E084839583A68309
:10121000B7838FE892E09183808388E08487CF0151
:101220000F960E94141908956F927F928F929F9249
:10123000AF92BF92CF92DF92EF92FF920F931F93E4
:10124000DF93CF93CDB7DEB7E5970FB6F894DEBF47
:101250000FBECDBF4C015B013A0183E1E82EF12CBA
:10126000EC0EFD1EC7010E941419CE014B960E9480
:10127000FE086E010894C11CD11CC6010E941419FD
:101280008E01095F1F4FC80164EF72E00E9477036F
:10129000C701B8010E947313C701B501A6010E94DE
:1012A000F2159C0181309105C9F4D401ED91FC91B6
:1012B0000088F189E02D83EC92E09E878D878B81F9
:1012C0009C81AD81BE818F87988BA98BBA8BC4011D
:1012D000BE01635F7F4FA30109959C01C901E5969B
:1012E0000FB6F894DEBF0FBECDBFCF91DF911F9137
:1012F0000F91FF90EF90DF90CF90BF90AF909F90B5
:101300008F907F906F900895CF93DF93EC018C8541
:10131000883061F00E941B0AEC85F0E0EE0FFF1FA1
:10132000EC51FD4F1182108288E08C87DF91CF91C4
:101330000895EF92FF920F931F93CF93DF938C0149
:101340007B01FC018485883031F5C0E0D0E0CE011E
:101350008295880F807E682F685F83E090E00E940E
:10136000040C882311F0883119F4F801C48704C0F3
:101370002196C830D10559F7F8018485883059F095
:10138000F686E586128E118E62E0A70120E00E94AB
:10139000500A81E001C080E0DF91CF911F910F9151
:1013A000FF90EF900895682F80E193E048E050E0CF
:1013B0000E94490D08959B01682F6295660F607E1B
:1013C000685FC9010E94040C08959B01682F629513
:1013D000660F607E645FC9010E94C80B08951F9369
:1013E000182F80E193E0612F40E250E00E94490D08
:1013F00010C0812F62E070E00E94DB0983FF09C00A
:10140000812F62E070E048E10E94E50920E030E0D1
:101410000FC0812F62E070E00E94DB0984FFE9CFFA
:10142000812F62E070E040E10E94E50921E030E0B8
:10143000C9011F9108951F93182F80E193E0612F38
:1014400040E150E00E94490D812F62E070E04FEFD3
:101450000E94E5091F9108950F931F93182F062FDF
:10146000472F60E170E00E94E509812F61E170E0A3
:10147000402F0E94E5091F910F9108950F931F932C
:10148000182F062F472F64E070E00E94E509812F96
:1014900065E070E0402F0E94E5091F910F910895CB
:1014A000FF920F931F93CF93DF93082FF62EEA013D
:1014B000122F862F8150853010F080E024C0802FBD
:1014C0000E941B0A1F29802F60E070E0412F0E94BC
:1014D000E509209719F0802FBE010BC060910E0323
:1014E00070910F036F5F7F4F70930F0360930E0334
:1014F000802F0E943E0A80E193E0602F41E050E09F
:101500000E94490D81E0DF91CF911F910F91FF90D3
:101510000895AB01682F6295660F607E645F8CE072
:1015200090E024E030E00E94E00B08951F93CF93F9
:10153000DF93182FFB01EA018081882349F4818120
:10154000882331F48281882319F48381882369F008
:10155000209759F0812FBF010E94890A812FBE0177
:101560000E942C0A21E030E002C020E030E0C901F6
:10157000DF91CF911F9108951F93CF93DF93182F81
:10158000FB01EA0180818F3F51F481818F3F91F40B
:1015900082818F3F79F483818F3F61F41EC088235D
:1015A00049F48181882331F48281882319F483816D
:1015B000882399F0209789F0812FBF010E94890A22
:1015C000812FBE010E942C0A80E193E0612F44E04C
:1015D00050E00E94490D81E001C080E0DF91CF9191
:1015E0001F910895AF92BF92DF92EF92FF920F93F7
:1015F0001F93CF93DF93D82EEB015A01890180E12D
:1016000093E06D2D0E94B00C8017910710F07801C7
:1016100006C080E193E06D2D0E94B00C7C0180E15A
:1016200093E06D2DAE01950187010E941B0CC7014F
:10163000DF91CF911F910F91FF90EF90DF90BF90BE
:10164000AF900895CF92DF92EF92FF921F93CF93C6
:10165000DF93182F6B01EA0188E04130580710F042
:10166000C0E0D8E080E193E0612F0E94B00C7C01E3
:10167000812F63E070E00E94DB09873129F08C3113
:1016800019F0C0E0D0E003C0EC16FD0658F380E18D
:1016900093E0612FA6019E010E945C0C80E193E023
:1016A000612F40E250E00E94490D0DC0812F63E0A0
:1016B00070E00E94DB09882331F4812F0E941B0A0D
:1016C000C0E0D0E00DC0812F62E070E00E94DB0935
:1016D00084FFECCF812F62E070E040E10E94E509D9
:1016E000CE01DF91CF911F91FF90EF90DF90CF90CF
:1016F00008950F93282FAB0180E193E0622F21E042
:1017000030E001E00E94FE0C81E090E00F9108952E
:10171000CF92DF92FF920F931F93CF93DF93F82E18
:101720006B018A0180E193E06F2D0E947E0CEC0139
:10173000009761F48F2D63E070E00E94DB09843133
:10174000D9F08823C9F08C31B9F01FC008171907E8
:101750000CF4E8011C161D067CF480E193E06F2D6B
:10176000A6019E0100E00E94FE0C80E193E06F2D37
:1017700040E450E00E94490DCE01DF91CF911F91CE
:101780000F91FF90DF90CF900895CFEFDFEFF4CF70
:101790002A989EBD0DB407FEFDCF9EB58EBD0DB43B
:1017A00007FEFDCF8EB56EBD0DB407FEFDCF8EB525
:1017B0004EBD0DB407FEFDCF8EB52A9A81E0089587
:1017C0002A989EBD0DB407FEFDCF9EB58EBD0DB40B
:1017D00007FEFDCF8EB56EBD0DB407FEFDCF8EB5F5
:1017E00060E070E00BC0FA01E60FF71F80818EBD4C
:1017F0000DB407FEFDCF8EB56F5F7F4F6217730785
:1018000090F32A9AC90108952A989EBD0DB407FE47
:10181000FDCF9EB58EBD0DB407FEFDCF8EB56EBD5E
:101820000DB407FEFDCF8EB51EBC0DB407FEFDCF77
:101830008EB52A9A0895AF92BF92CF92DF92EF921F
:10184000FF920F931F93C62E7A015901862F64E2EF
:1018500070E00E94DB09D82E8C2D65E270E00E94BA
:10186000DB09C294CC0C90EEC922E80EF11C9D2D30
:1018700080E0E80EF91E84E1C80EC7016C2DA501B9
:1018800098010E94E00BE00EF11E1C2D185084E21E
:1018900090E0612F4F2D0E94C80B85E290E0612FF0
:1018A0004E2D0E94C80B1F910F91FF90EF90DF907B
:1018B000CF90BF90AF9008950F931F93FA018901C5
:1018C00040E050E09F010E941B0C1F910F91089572
:1018D000FF920F931F93F82E66E270E00E94DB09DF
:1018E000182F00E08F2D67E270E00E94DB09080FDF
:1018F000111DC8011F910F91FF900895FF920F9342
:101900001F93CF93DF93F62EC0E0D0E08F2D0E947F
:10191000680C8C01009721F08F2D0E94680CEC015F
:10192000C017D10799F7CE01DF91CF911F910F9189
:10193000FF900895FF920F931F93F82E60E270E0DE
:101940000E94DB09182F00E08F2D61E270E00E94F9
:10195000DB09080F111DC8011F910F91FF90089519
:10196000FF920F931F93CF93DF93F62EC0E0D0E04A
:101970008F2D0E949A0C8C01009721F08F2D0E94D0
:101980009A0CEC01C017D10799F7CE01DF91CF91E6
:101990001F910F91FF9008952A989EBD0DB407FEE8
:1019A000FDCF9EB58EBD0DB407FEFDCF8EB56EBDCD
:1019B0000DB407FEFDCF8EB560E070E00BC01EBC1D
:1019C0000DB407FEFDCF8EB5FA01E60FF71F808339
:1019D0006F5F7F4F6217730790F32A9AC9010895CA
:1019E0000F931F93CA016295660F607E685EA9011E
:1019F00098010E94CC0C1F910F9108958F929F9295
:101A0000AF92BF92CF92DF92EF92FF920F931F930C
:101A1000CF93DF937C01A62E6A014901B02E862F59
:101A200068E270E00E94DB09182F8A2D69E270E0FD
:101A30000E94DB09312F20E0E901C80FD11DC70149
:101A40006A2DAE01960184010E94F00CBB20A1F426
:101A50007E01E80CF91C1A2D1295110F107E145FEF
:101A600088E290E0612F4F2D0E94C80B89E290E040
:101A7000612F4E2D0E94C80BDF91CF911F910F91C6
:101A8000FF90EF90DF90CF90BF90AF909F908F909E
:101A900008951F93162F6295660F607E645F81E044
:101AA00090E00E94C80B812F61E070E00E94DB098A
:101AB0008823C9F71F9108950F931F93229A6CE210
:101AC00071E080E090E00E942E1B0E947F0D00E0FC
:101AD000102F1295110F107E145F8EE190E0612F90
:101AE00042E00E94C80B8FE190E0612F42E00E942B
:101AF000C80B0F5F083061F71F910F9108958AE0BE
:101B000061E00E941D1C8AE061E00E94B11B8CB55F
:101B100080618CBD8CB580648CBD8DE061E00E94DD
:101B2000B11B8BE061E00E94B11B0895FB0180E3D3
:101B30008083842F82958F704F704A3014F4405DFB
:101B400001C0495C41833197882311F0482FF1CFC0
:101B500008950F9381E193E060E040E020E000E031
:101B60000E9499180F9108950F931F938C01625E44
:101B70007F4F0E940319C8011F910F9108950F9381
:101B80001F938C016A5E7F4F0E940319C8011F9149
:101B90000F9108950F931F938C016E5E7F4F0E94EB
:101BA0000319C8011F910F9108950F931F938C0182
:101BB000625F7F4F0E940319C8011F910F91089522
:101BC0002F923F924F925F926F927F928F929F924D
:101BD000AF92BF92CF92DF92EF92FF920F931F933B
:101BE000DF93CF93CDB7DEB7E8970FB6F894DEBF9B
:101BF0000FBECDBF5C013A014B0129010E94FA1AC8
:101C00007B018C01F7E4CF2ED12CCA0CDB1C14C055
:101C10000E94FA1A6E197F09800B910B66167706DF
:101C20008806990618F477247A941AC262E370E061
:101C300080E090E00E942E1BC6010E9481081816C9
:101C4000190634F7C601BE01635F7F4F42E250E0E0
:101C50000E9433088D85823009F0FEC12CE530E00A
:101C6000A20EB31EF5018081918124EA3FEFA20EFE
:101C7000B31E8334910509F0EFC129893A894B8954
:101C80005C89E52EFF2400271127B22FAA27992768
:101C90008827E82AF92A0A2B1B2BB42FA32F922F6F
:101CA000882780709070B070E82AF92A0A2B1B2BC5
:101CB000232F342F452F5527207040705070E22A73
:101CC000F32A042B152BF201E082F18202831383A5
:101CD000B501685F7F4FCE01899646E050E00E94D3
:101CE000F601009799F4F50180819181A281B38179
:101CF000E816F9060A071B0748F084819581A6813A
:101D0000B7818E159F05A007B10728F4C6010E9470
:101D1000FB077724A5C18D8D9E8DAF8DB8A1F501F0
:101D200086879787A08BB18B00E010E0C6010E94E8
:101D300056080F5F1F4F0E3C1105C1F795012E5E2F
:101D40003F4F38AF2FABC50146969EAB8DABF5012B
:101D50007E96FCABEBAB8AE1882E912C8A0C9B1C07
:101D600095012A5D3F4F3AAB29ABC5018A9698ABE6
:101D70008FA702E2202E312C2A0C3B1C772418E579
:101D8000412E512C4A0C5B1C5FC1C6010E945608B3
:101D90008333910509F414C1843391058CF48130A7
:101DA000910569F18230910524F4892B09F44CC125
:101DB00040C18330910551F1069709F03AC142C004
:101DC0008A33910509F490C08B3391053CF4853337
:101DD000910569F0C69709F02CC150C08B3391056D
:101DE00009F4B8C08F3F910509F023C12DC1C60188
:101DF0000E945608C6010E945608782E25C1C601C9
:101E00000E945608C6016FA978AD62C0C6010E9443
:101E10005608182FC6016DA97EA944E050E00E9423
:101E20003308EE24FF24012F10E00450104006C0B8
:101E3000C6010E9456080894E11CF11CE016F10648
:101E4000BCF302C1C6010E945608182FC6016BA937
:101E50007CA944E050E00E943308EE24FF24012FC7
:101E600010E00450104006C0C6010E9456080894B5
:101E7000E11CF11CE016F106BCF3E6C0C6010E94AD
:101E80005608182FF40180819181A281B3810097B7
:101E9000A105B105D9F0CE010196B4010E94031944
:101EA00023EC32E038872F83F20120813181428197
:101EB000538129873A874B875C878B819C81AD81D1
:101EC000BE8182179307A407B50759F4C601B40170
:101ED00044E050E00E943308B7C0C6010E94560893
:101EE00011501123D1F7B0C0C6010E945608C60197
:101EF00069A97AA944E050E00E943308F50126A1BF
:101F000037A140A551A5E52EFF2400271127B22FA8
:101F1000AA2799278827E82AF92A0A2B1B2BB42FEE
:101F2000A32F922F882780709070B070E82AF92A2A
:101F30000A2B1B2B232F342F452F55272070407041
:101F40005070E22AF32A042B152BE6A2F7A200A771
:101F500011A77AC0C6010E945608C6016FA578A9CC
:101F600044E050E00E943308F50122A533A544A5C2
:101F700055A5E52EFF2400271127B22FAA27992760
:101F80008827E82AF92A0A2B1B2BB42FA32F922F7C
:101F9000882780709070B070E82AF92A0A2B1B2BD2
:101FA000232F342F452F5527207040705070E22A80
:101FB000F32A042B152BE2A6F3A604A715A744C009
:101FC000C6010E945608C601B10144E050E00E94DB
:101FD0003308F50122A133A144A155A1E52EFF2428
:101FE00000271127B22FAA2799278827E82AF92A3C
:101FF0000A2B1B2BB42FA32F922F88278070907051
:10200000B070E82AF92A0A2B1B2B232F342F452FD7
:102010005527207040705070E22AF32A042B152BAC
:10202000E2A2F3A204A315A3E6A6F7A600AB11ABA8
:102030000BC0C6010E945608182F04C0C6010E949A
:10204000560811501123D1F7C6010E94DF07181658
:1020500019060CF49ACE01C07724C6010E94FB0732
:10206000872DE8960FB6F894DEBF0FBECDBFCF9197
:10207000DF911F910F91FF90EF90DF90CF90BF9075
:10208000AF909F908F907F906F905F904F903F9018
:102090002F9008950E96FC0184E1DF011D928A9530
:1020A000E9F708954F925F926F927F928F929F927D
:1020B000AF92BF92CF92DF92EF92FF920F931F9356
:1020C000DF93CF93CDB7DEB7E2970FB6F894DEBFBC
:1020D0000FBECDBF6C01462E3A01F3E18F2E912C3D
:1020E0008C0E9D1EE0E25E2EF401252D11922A95A4
:1020F000E9F7CE0107966FEF4FEF2FEF0FEF0E943A
:10210000991877E4A72EB12CAC0CBD1C83EC92E09F
:102110009E878D8789859A85AB85BC858F87988BAF
:10212000A98BBA8BC501BE01635F7F4F43E450E0CA
:102130000E94F5088F5F9F4F09F4F3C081E08B8BFD
:102140008C8B86E08D8B1E8AF60124813581468139
:102150005781E52EFF2400271127B22FAA279927A0
:102160008827E82AF92A0A2B1B2BB42FA32F922F9A
:10217000882780709070B070E82AF92A0A2B1B2BF0
:10218000232F342F452F5527207040705070E22A9E
:10219000F32A042B152BEB82FC820D831E83EF8A1E
:1021A000F88E098F1A8F7B8E6C8E80E890E09A8370
:1021B00089839E8F8D8FC501B4014CE150E00E9450
:1021C000D508F40111925A94E9F7A8E06A2E712C0F
:1021D0006C0C7D1CD401F30186E001900D928150BE
:1021E000E1F78E010D5E1F4FC501B80140E150E0DF
:1021F0000E94D50880E2F80111928A95E9F7EE2451
:10220000FF24902E012FC501692D702F40E250E070
:102210000E94D5080894E11CF11CF6E0EF16F104C9
:1022200091F793E69B8B82E88C8B83E58D8B9E8B5D
:1022300085E38F8B91E0988F498E8DE38A8F87E0BD
:102240008B8F9C8FDE015D96F30186E001900D92ED
:102250008150E1F78CE08BA38CA38E010D5E1F4FA4
:10226000CE0185966CE472E00E940302C601BE01B5
:10227000655D7F4FF60143850E94960DC601BE0144
:10228000635D7F4FF60144850E94960DC601BE0135
:10229000615D7F4FF60145850E94960DC501B8012D
:1022A0004EE150E00E94D508F3E04F16F1F482E3CE
:1022B0008B8B94E09C8BF60186858D8B87858E8B2E
:1022C00080898F8B8189888F86E3898F9A8F828D11
:1022D0008B8F838D8C8F848D8D8F858D8E8FC50197
:1022E000B8014CE050E00E94D50887E38B8B96E064
:1022F0009C8B81E08D8B83E08E8B9F8B8FE0888F12
:102300008AE3898F8BE38A8F8FEF8B8FC501BE01A4
:102310006D5E7F4F49E050E00E94D508C5010E94E4
:10232000F008E2960FB6F894DEBF0FBECDBFCF9196
:10233000DF911F910F91FF90EF90DF90CF90BF90B2
:10234000AF909F908F907F906F905F904F90089587
:102350002F923F924F925F926F927F928F929F92B5
:10236000AF92BF92CF92DF92EF92FF920F931F93A3
:10237000DF93CF9300D000D0CDB7DEB78C0161E002
:1023800070E080E090E020ED37E040E050E00E9417
:10239000721CD80114966C93149715967C9315971C
:1023A00016968C93169717969C9317976C93119685
:1023B0007C93119712968C93129713969C9377E4C3
:1023C000272E312C200E311EC10164E470E00E94E2
:1023D0009909882319F46624772422C10E94FA1AE5
:1023E0004B015C016624772466E4C62ED12CC00E16
:1023F000D11E5EE3452E512C400E511E42E0E42ECC
:10240000FBC0882309F5F80184819581A681B781F5
:102410000196A11DB11D84839583A683B7830E9475
:10242000FA1A681979098A099B0928EE33E040E015
:1024300050E00E94C21CC80161E0A9010E94521034
:1024400081E0D6018C93C2C0843001F5F80184810B
:102450009581A681B7810196A11DB11D84839583C5
:10246000A683B7830E94FA1A681979098A099B0919
:1024700028EE33E040E050E00E94C21CC80163E057
:10248000A9010E945210D601EC92A0C0813069F5DA
:10249000F2014081518162817381C8019E012F5FE9
:1024A0003F4F0E94E00DF82EF2E08F1709F089C02F
:1024B00089819A81AB81BC81F80184839583A6834D
:1024C000B7830E94FA1A681979098A099B0928EECC
:1024D00033E040E050E00E94C21CC80163E0A90163
:1024E0000E945210D601FC9271C0823009F06EC079
:1024F000F2014081518162817381C8019E012F5F89
:102500003F4F0E94E00DF82EF5E08F1709F053C001
:10251000E3E0D601EC93F80182A193A1A4A1B5A1B7
:102520000097A105B10541F484E893E0A0E0B0E094
:1025300082A393A3A4A3B5A3F80186A197A1A0A504
:10254000B1A50097A105B10561F482A193A1A4A151
:10255000B5A1B695A7959795879586A397A3A0A7AC
:10256000B1A7F80182A593A5A4A5B5A50097A105DB
:10257000B10561F486A197A1A0A5B1A5880F991F07
:10258000AA1FBB1F82A793A7A4A7B5A7F80186A17E
:1025900097A1A0A5B1A586A797A7A0ABB1AB82A52F
:1025A00093A5A4A5B5A582AB93ABA4ABB5ABA1E0B5
:1025B0006A2E712C0BC0F6E08F1719F4D6011C920D
:1025C00005C0BFEFFB1611F4F6011082F1E06F16A3
:1025D000710491F00E94FA1A681979098A099B0915
:1025E000D801DA962D913D914D915C91DD9726179A
:1025F00037074807590728F0F6018081833009F032
:1026000000CFC1010E948409F80184819581A681CF
:10261000B7810196A11DB11D84839583A683B783DD
:10262000C3010F900F900F900F90CF91DF911F91EA
:102630000F91FF90EF90DF90CF90BF90AF909F9061
:102640008F907F906F905F904F903F902F90089564
:10265000CF92DF92EF92FF920F931F93CF93DF936E
:10266000EC01D62EC72E1AA21BA21CA21DA21EA2CE
:102670001FA218A619A61AA61BA61CA61DA61EAA4E
:102680001FAA18AE19AE2AAF3BAF4CAF5DAFEE96A6
:10269000E882F9820A831B83EE978E01085F1F4F41
:1026A00086E0F80111928A95E9F7CE010E944A105E
:1026B000D8012D2D3C2DC901FC0186E001900D9221
:1026C0008150E1F7CA5BDF4F1882C654D040CE017B
:1026D0000E94A811DF91CF911F910F91FF90EF9071
:1026E000DF90CF9008959C01FB0182819381A481AA
:1026F000B581F90182839383A483B58317821682FF
:102700000895CF93DF93FB0101C031968081882328
:10271000E1F7EB01A0E0B0E020E030E021C06E3254
:1027200061F42F3F310509F07CF5FA01EA0FFB1F38
:102730002283119620E030E012C0C901E3E0880F47
:10274000991FEA95E1F7220F331F820F931F262F5F
:10275000332727FD309520533040280F391F21960D
:102760006881662319F0A430B105CCF22F3F310502
:1027700009F054F4A430B1053CF4A40FB51F12962F
:102780002C9321E030E002C020E030E0C901DF916D
:10279000CF9108950F9387E193E060E040E020E05F
:1027A00000E00E9499180F9108952F923F924F9246
:1027B0005F926F927F928F929F92AF92BF92CF92D1
:1027C000DF92EF92FF920F931F93DF93CF93CDB7DA
:1027D000DEB769970FB6F894DEBF0FBECDBF4C01D0
:1027E0008B011A010E94FA1A2B013C01F8E0EF2E2E
:1027F000F12CE80CF91C5801CC24DD2414C00E94F3
:10280000FA1A6419750986099709A616B706C80643
:10281000D90618F42FEF3FEF0BC162E370E080E0C0
:1028200090E00E942E1BC7010E948108181619060D
:1028300034F7F4012281338144815581818D928D59
:10284000A38DB48D8A879B87AC87BD8728173907EE
:102850004A075B0709F0EAC0858D968DC59709F098
:10286000E5C000C18E01025F1F4FC701B8014CE0F7
:1028700050E00E943308F801528143815B834A8310
:10288000F401268137818E859F852817390711F439
:1028900057FD06C0C7010E94FB072CEF3FEFC8C0E1
:1028A0004F705270452B31F0C7010E94FB072BEF90
:1028B0003FEFBEC0F801768067806114710441F07B
:1028C000AA24BB2448012E010894411C511C28C095
:1028D000C7010E94FB072AEF3FEFAAC0C701B20160
:1028E00041E050E00E9433088981882321F408C028
:1028F000C7010E9456088981815089838F5FC1F783
:102900008981882359F700E010E0C7010E9456082A
:102910000F5F1F4F04301105C1F70894A11CB11CB3
:10292000F401D480C580AC14BD04C0F24424552405
:10293000C701BE016F5F7F4F41E050E00E94330846
:102940009981892F807C61F4992321F40DC0C701FE
:102950000E9456088981815089838F5FC1F704C026
:10296000C7010E94560819828981882309F7C70187
:10297000BE016C5F7F4F42E050E00E943308C70108
:10298000BE016A5F7F4F42E050E00E94330800E0E2
:1029900010E0C7010E9456080F5F1F4F0430110559
:1029A000C1F7C701BE016E5F7F4F42E050E00E9459
:1029B0003308DC80CD80F1E0CF16D10419F5BE805C
:1029C000AF8081E0A816B104E9F49A818B81049765
:1029D00031F0C7010E94FB0727EF3FEF29C0E2E07B
:1029E000F0E02E0E3F1EC701B10144E050E00E940E
:1029F000330821E030E01CC0C7010E9456080F5F79
:102A00001F4F02C000E010E09A808B800815190566
:102A100098F30894411C511C4614570408F488CFBD
:102A2000C7010E94FB0726EF3FEF02C02EEF3FEFEA
:102A3000C90169960FB6F894DEBF0FBECDBFCF9126
:102A4000DF911F910F91FF90EF90DF90CF90BF909B
:102A5000AF909F908F907F906F905F904F903F903E
:102A60002F90089583EC92E099878887C7010E9490
:102A7000DF070C970CF0F6CE2DEF3FEFD9CF6F921A
:102A80007F928F929F92AF92BF92CF92DF92EF92FE
:102A9000FF920F931F93DF93CF9300D00F92CDB788
:102AA000DEB78C01F62EE72E0E94FA1AF801778322
:102AB0006683B8E0CB2ED12CC00ED11E0A5F1F4F0B
:102AC000C601B80142E050E00E94D50881E090E0E4
:102AD0009B838A83A2E08A2E912C8C0E9D1EC601B8
:102AE000B40142E050E00E94D50880E091E09B8371
:102AF0008A83C601B40142E050E00E94D5081B82DF
:102B00001A82C601B40142E050E00E94D508C60115
:102B1000B40142E050E00E94D508C601B40142E091
:102B200050E00E94D5082F2D3E2DC9018C017C015B
:102B30003E010894611C711C20C00894E11CF11C2A
:102B4000F7018081882311F08E32B9F75701A01A5E
:102B5000B10A1A141B0474F48E2D801B8983C601DC
:102B6000B30141E050E00E94D508C601B801A501BB
:102B70000E94D50887010F5F1F4FF70180818823CE
:102B800011F07801DDCF1982C601BE016F5F7F4F62
:102B900041E050E00E94D50800E011E01B830A8369
:102BA000C601B40142E050E00E94D5081B830A83AD
:102BB000C601B40142E050E00E94D50881E090E0F7
:102BC0000F900F900F90CF91DF911F910F91FF9079
:102BD000EF90DF90CF90BF90AF909F908F907F90BD
:102BE0006F9008958F929F92AF92BF92CF92DF9293
:102BF000EF92FF920F931F93DF93CF9300D000D0FB
:102C000000D0CDB7DEB76C017B014A010E94811371
:102C1000892B19F001E010E067C0F60122813381B1
:102C2000448155818091190390911A03A0911B034F
:102C3000B0911C03281739074A075B0719F40EEFF8
:102C40001FEF52C018E0A12EB12CAC0CBD1C0E948D
:102C5000FA1A9B01AC012F70307020503C4FC50117
:102C6000B9010E949909813019F000E010E03CC0E0
:102C700083EC92E09A838983F60182819381A48117
:102C8000B5818B839C83AD83BE83C501BE016F5F1D
:102C90007F4F45E350E00E94F5088C01009709F151
:102CA000C601B7010E943F158C010097D1F0C50104
:102CB0000E94F0088C010097A1F0EE24FF24C601C9
:102CC00068E873E1A4010E94D5138C010894E11C0B
:102CD000F11CF3E0EF16F10421F08FEF0F3F18071E
:102CE00071F3C5010E948409C80126960FB6F894B5
:102CF000DEBF0FBECDBFCF91DF911F910F91FF902F
:102D0000EF90DF90CF90BF90AF909F908F900895FD
:102D100008951F920F920FB60F9211242F933F9395
:102D20004F938F939F93EF93FF938091C00082FD09
:102D30001DC04091C60020915D0330915E032F5F5E
:102D40003F4F2F73307080915F039091600328177D
:102D5000390771F0E0915D03F0915E03E35EFC4F93
:102D6000408330935E0320935D0302C08091C600D0
:102D7000FF91EF919F918F914F913F912F910F90E4
:102D80000FBE0F901F901895E091B103F091B20320
:102D9000E05CFF4F8191919120813181821B930BE7
:102DA0008F739070892B11F00E94881608951F92DE
:102DB0000F920FB60F9211242F933F938F939F93EF
:102DC000EF93FF932091A1033091A2038091A3037D
:102DD0009091A4032817390731F48091C1008F7DA9
:102DE0008093C10014C0E091A303F091A403EF59B4
:102DF000FC4F20818091A3039091A40301968F73CF
:102E000090709093A4038093A3032093C600FF9136
:102E1000EF919F918F913F912F910F900FBE0F9047
:102E20001F901895AF92BF92DF92EF92FF920F938F
:102E30001F93CF93DF93EC017A018B01DD244030A7
:102E400081EE580780E0680780E0780711F0DD2404
:102E5000D39491E0A92EB12CEC89FD89DD2069F095
:102E6000C50108A002C0880F991F0A94E2F7808369
:102E700060E079E08DE390E005C0108260E874E8DE
:102E80008EE190E0A80197010E94C21C21503040C1
:102E900040405040569547953795279580E1203022
:102EA000380720F0DD2011F0DD24D6CFE889F9893C
:102EB0003083EA89FB89208319A2EE89FF8940814A
:102EC00021E030E0C9010C8C02C0880F991F0A94E0
:102ED000E2F7482B4083EE89FF894081C9010D8CC0
:102EE00002C0880F991F0A94E2F7482B4083EE89AD
:102EF000FF894081C9010E8C02C0880F991F0A9476
:102F0000E2F7482B4083EE89FF8980810F8C02C055
:102F1000220F331F0A94E2F7209528232083DF91A4
:102F2000CF911F910F91FF90EF90DF90BF90AF90E6
:102F30000895DC011C96ED91FC911D97E05CFF4F1C
:102F40002191319180819181281B390B2F73307031
:102F5000C9010895DC011C96ED91FC911D97E05C80
:102F6000FF4F20813181E054F040DF01AE5BBF4F65
:102F70008D919C9111972817390719F42FEF3FEF86
:102F800007C08D919C91E80FF91F8081282F30E0B8
:102F9000C9010895DC011C96ED91FC911D97E05C40
:102FA000FF4F20813181E054F040DF01AE5BBF4F25
:102FB0008D919C9111972817390719F42FEF3FEF46
:102FC00010C08D919C911197E80FF91F20818D9170
:102FD0009C91119701968F73907011969C938E938C
:102FE00030E0C9010895DC0191968C919197882376
:102FF00039F05496ED91FC915597808186FFF9CF79
:1030000091961C920895CF93DF93EC01EE85FF8596
:10301000E05CFF4F20813181E054F0402F5F3F4F53
:103020002F733070DF01AE5BBF4F8D919C91119774
:1030300028173907D1F3E05CFF4F80819181E0547C
:10304000F040E80FF91F6083EE85FF85E05CFF4FDD
:1030500031832083EE89FF89208181E090E00F8C0D
:1030600002C0880F991F0A94E2F7282B208381E081
:1030700089A3EC89FD8980818064808381E090E070
:10308000DF91CF9108951092A8031092A70388EEC4
:1030900093E0A0E0B0E08093A9039093AA03A093EB
:1030A000AB03B093AC0383EB92E09093A6038093C1
:1030B000A5038DE193E09093B2038093B10381E681
:1030C00093E09093B4038093B30385EC90E09093E6
:1030D000B6038093B50384EC90E09093B80380939B
:1030E000B70380EC90E09093BA038093B90381EC2E
:1030F00090E09093BC038093BB0382EC90E09093AC
:10310000BE038093BD0386EC90E09093C003809350
:10311000BF0384E08093C10383E08093C20387E010
:103120008093C30385E08093C40381E08093C5034B
:1031300008950F93FC0183EC92E091838083628376
:103140004383248305830F91089583EC92E0909349
:10315000C8038093C7031092C9031092CA03109248
:10316000CB031092CC0308958F929F92AF92BF929F
:10317000CF92DF92EF92FF920F931F93CF93DF9343
:103180004C016B017C01AA24BB24C0E0D0E0C60145
:10319000F70162814AE050E00E942B1A8C01C601BF
:1031A0006EE20E945A19080F191FA00EB11E219637
:1031B0000894E11CF11CC330D10549F7C601F401A4
:1031C00065814AE050E00E942B1A9501280F391FB3
:1031D000C901DF91CF911F910F91FF90EF90DF9088
:1031E000CF90BF90AF909F908F9008959C01FB016E
:1031F00080819181A281B381F90182839383A48329
:10320000B583C90108959C01FB0183EC92E0D901CB
:103210008D939C9380819181A281B381F9018283F6
:103220009383A483B5830895FC0183EC92E091839A
:10323000808312821382148215820895CF93DF93C4
:103240000E94541B0E943402C4ECD6E10E94220367
:103250002097E1F30E94C416F9CF0E9493000895CD
:10326000CF92DF92EF92FF920F931F93CF93DF9352
:103270007C016B018A01C0E0D0E00FC0D6016D91E6
:103280006D01D701ED91FC910190F081E02DC70116
:103290000995C80FD91F015010400115110571F78C
:1032A000CE01DF91CF911F910F91FF90EF90DF90B2
:1032B000CF900895DC01ED91FC910190F081E02D1B
:1032C00009950895EF92FF920F931F938C01DC01F3
:1032D000ED91FC910190F081E02D6DE009957C016C
:1032E000D801ED91FC910190F081E02DC8016AE0D8
:1032F00009959C012E0D3F1DC9011F910F91FF9053
:10330000EF900895EF92FF920F931F937C01DB01E2
:10331000ED91FC910190F081E02DCB01B701099571
:103320008C01C7010E946219080F191FC8011F9163
:103330000F91FF90EF900895CF93DF93EC0161150B
:10334000710519F420E030E00FC0DB010D90002082
:10335000E9F71197A61BB70BE881F9810280F38189
:10336000E02DAD0109959C01C901DF91CF91089530
:103370004F925F927F928F929F92AF92BF92CF9225
:10338000DF92EF92FF920F931F93DF93CF93CDB70E
:10339000DEB7A1970FB6F894DEBF0FBECDBF2C01EC
:1033A000742ECB01223008F42AE019A231E2C32E98
:1033B000D12CCC0EDD1E822E9924AA24BB24672D8D
:1033C000752FA50194010E94C21C79018A01C801D0
:1033D000B701A50194010E94901C472D461B08943B
:1033E000C108D1084A3014F4405D01C0495CF601BF
:1033F0004083E114F1040105110521F07E2C5F2DBD
:10340000C801DDCFC201B6010E949C19A1960FB67A
:10341000F894DEBF0FBECDBFCF91DF911F910F910A
:10342000FF90EF90DF90CF90BF90AF909F908F90E4
:103430007F905F904F900895DC012115310541F494
:10344000ED91FC910190F081E02D642F0995089594
:103450000E94B8190895EF92FF920F931F939A015B
:10346000E62EFF2400E010E0B801A7010E941C1A1C
:103470001F910F91FF90EF900895CF92DF92EF92FE
:10348000FF920F931F93CF93DF93EC016A017B01AF
:103490002115310541F4E881F9810190F081E02D99
:1034A000642F09951FC02A303105D1F477FF17C06A
:1034B000E881F9810190F081E02D6DE209958C01A0
:1034C00044275527BA014C195D096E097F09CE01C1
:1034D0002AE00E94B8199801280F391F04C02AE079
:1034E0000E94B8199C01C901DF91CF911F910F91E2
:1034F000FF90EF90DF90CF900895CF92DF92EF9200
:10350000FF920F931F936C017B019A010027F7FC38
:103510000095102FB801A7010E943D1A8C01C60129
:103520000E946219080F191FC8011F910F91FF9087
:10353000EF90DF90CF9008950E949C190895EF922C
:10354000FF920F931F937C010E949C198C01C7016D
:103550000E946219080F191FC8011F910F91FF9057
:10356000EF9008951F920F920FB60F9211242F9390
:103570003F938F939F93AF93BF938091D10390918B
:10358000D203A091D303B091D4033091D503019617
:10359000A11DB11D232F2D5F2D3720F02D57019632
:1035A000A11DB11D2093D5038093D1039093D20325
:1035B000A093D303B093D4038091CD039091CE0315
:1035C000A091CF03B091D0030196A11DB11D8093AE
:1035D000CD039093CE03A093CF03B093D003BF91BC
:1035E000AF919F918F913F912F910F900FBE0F90B0
:1035F0001F9018958FB7F8942091D1033091D20382
:103600004091D3035091D4038FBFB901CA010895EB
:103610009FB7F8942091CD033091CE034091CF0312
:103620005091D00386B5A89B06C08F3F21F02F5F35
:103630003F4F4F4F5F4F9FBF542F432F322F2227B3
:10364000280F311D411D511D82E0220F331F441FE1
:10365000551F8A95D1F7B901CA010895EF92FF92DB
:103660000F931F93CF93DF937B018C010E94081B64
:10367000EB010EC00E94081B6C1B7D0B685E734043
:10368000C8F30894E108F10801091109C851DC4F99
:10369000E114F1040105110569F7DF91CF911F9144
:1036A0000F91FF90EF900895789484B5826084BD67
:1036B00084B5816084BD85B5826085BD85B5816036
:1036C00085BDEEE6F0E0808181608083E1E8F0E096
:1036D0001082808182608083808181608083E0E8C5
:1036E000F0E0808181608083E1EBF0E080818460A4
:1036F0008083E0EBF0E0808181608083EAE7F0E0A6
:103700008081846080838081826080838081816009
:1037100080838081806880831092C1000895982FF3
:103720008E3008F09E50977080916E028295880FBF
:10373000880F807C892B80937C0080917A00806444
:1037400080937A0080917A0086FDFCCF20917800EA
:1037500040917900942F80E030E0282B392BC9016B
:103760000895CF93DF93482F50E0CA0186569F4FAC
:10377000FC0134914A575F4FFA018491882369F123
:1037800090E0880F991FFC01E859FF4FA591B49173
:10379000FC01EE58FF4FC591D491662351F42FB729
:1037A000F8948C91932F909589238C938881892309
:1037B0000BC0623061F42FB7F8948C91932F9095E1
:1037C00089238C938881832B88832FBF06C09FB762
:1037D000F8948C91832B8C939FBFDF91CF910895A8
:1037E000833071F0843028F48130A1F0823021F5EB
:1037F00014C08630B1F08730D1F08430E9F404C0D1
:10380000809180008F7703C0809180008F7D8093AE
:103810008000089584B58F7702C084B58F7D84BD04
:1038200008958091B0008F778093B00008958091C3
:10383000B0008F7D8093B0000895FF920F931F9387
:10384000F62E482F50E0CA0182559F4FFC0124916B
:10385000CA0186569F4FFC0114914A575F4FFA01E7
:1038600004910023C9F0222319F0822F0E94F01B3B
:10387000E02FF0E0EE0FFF1FEE58FF4FA591B4913F
:103880009FB7F894FF2021F48C911095812302C0FA
:103890008C91812B8C939FBF1F910F91FF90089566
:1038A000EF92FF920F931F937B018C0161157105BD
:1038B0008105910529F420E030E040E050E00BC0A4
:1038C0000E94E801A80197010E94E41CAC01CB0111
:1038D000DA019C01AD01B901CA011F910F91FF905E
:1038E000EF900895EF92FF920F931F937B018C014D
:1038F000621773078407950764F4261B370B480B80
:10390000590BCA01B9010E94501CE60EF71E081F90
:10391000191FB701C8011F910F91FF90EF900895F3
:10392000629FD001739FF001829FE00DF11D649FA3
:10393000E00DF11D929FF00D839FF00D749FF00D2F
:10394000659FF00D9927729FB00DE11DF91F639FD0
:10395000B00DE11DF91FBD01CF011124089597FBA2
:10396000092E07260AD077FD04D049D006D00020C2
:103970001AF4709561957F4F0895F6F790958195AB
:103980009F4F0895A1E21A2EAA1BBB1BFD010DC07B
:10399000AA1FBB1FEE1FFF1FA217B307E407F507FF
:1039A00020F0A21BB30BE40BF50B661F771F881FDB
:1039B000991F1A9469F760957095809590959B0171
:1039C000AC01BD01CF01089597FB092E05260ED04D
:1039D00057FD04D0D7DF0AD0001C38F4509540952D
:1039E000309521953F4F4F4F5F4F0895F6F79095D3
:1039F0008095709561957F4F8F4F9F4F0895AA1BBB
:103A0000BB1B51E107C0AA1FBB1FA617B70710F0C9
:103A1000A61BB70B881F991F5A95A9F780959095FB
:103A2000BC01CD010895EE0FFF1F0590F491E02D2C
:103A300009942F923F924F925F926F927F928F9252
:103A40009F92AF92BF92CF92DF92EF92FF920F932D
:103A50001F93CF93DF93CDB7DEB7CA1BDB0B0FB637
:103A6000F894DEBF0FBECDBF09942A8839884888F4
:103A70005F846E847D848C849B84AA84B984C8848A
:103A8000DF80EE80FD800C811B81AA81B981CE0F81
:103A9000D11D0FB6F894DEBF0FBECDBFED01089566
:043AA000F894FFCFC8
:103AA4004661696C656420746F20636F6E66696734
:103AB4007572652045746865726E657420757369E6
:103AC4006E6720444843500057495A3535303069B1
:103AD4006F2045746865726E6574204D6F64756CF3
:103AE4006520495020416464726573732000636FDC
:103AF4006E6E656374696E672E2E2E0050555420C9
:103B04002F76322F66656564732F002E63737620DB
:103B1400485454502F312E3100486F73743A206149
:103B240070692E636F736D2E636F6D00582D417035
:103B3400694B65793A200068394A6E68437946567C
:103B44006E6B4945747A6D67387A54487667663681
:103B540052384250306A6E6B6E76394A396330712E
:103B64005230397450377600557365722D4167654C
:103B74006E743A20004D792053656E736F72004362
:103B84006F6E74656E742D4C656E6774683A2000B0
:103B9400436F6E74656E742D547970653A20746544
:103BA40078742F63737600436F6E6E656374696F08
:103BB4006E3A20636C6F73650073656E736F723257
:103BC4002C00636F6E6E656374696F6E2066616945
:103BD4006C656400646973636F6E6E656374696EAB
:103BE400672E0073656E736F72312C0057495A6EDD
:103BF4006574002000DA03000001000000617069B0
:103C04002E786976656C792E636F6D00000401006F
:103C1400000000B405BF06B10695066B06CC05DDB1
:103C2400065207900629060506E30500000000E396
:103C340007D508DF0756081808FB0799098409F512
:103C4400081409F00881083308C207CA07DB070013
:103C5400000000031830199917CA17AA17F31700A0
:063C6400000000B418008E
:00000001FF
