:100000000C946A000C9492000C9492000C94920050
:100010000C9492000C9492000C9492000C94920018
:100020000C9492000C9492000C9492000C94920008
:100030000C9492000C9492000C9492000C949200F8
:100040000C94FA140C9492000C94F1100C943F113F
:100050000C9492000C9492000C9492000C949200D8
:100060000C9492000C9492000000000024002700E1
:100070002A0000000000250028002B0000000000DE
:1000800023002600290004040404040404040202DA
:100090000202020203030303030301020408102007
:1000A0004080010204081020010204081020000012
:1000B0000007000201000003040600000000000029
:1000C000000094009E0261045A063308D00D320EDF
:1000D000AB120D1311241FBECFEFD8E0DEBFCDBF92
:1000E00015E0A0E0B1E0E2E2FEE202C005900D9270
:1000F000AA31B107D9F716E0AAE1B5E001C01D9217
:10010000A432B107E1F710E0C4EDD0E004C02297BB
:10011000FE010E940B17C23CD107C9F70E9475135C
:100120000C940F170C9400000F9386E295E060E0AA
:1001300040E020E000E00E9401138AE195E060ECDD
:1001400048EA21E00AE00E94011380E295E060E5C0
:1001500070E00E9438060F910895CF92DF92EF92DF
:10016000FF920F931F93DF93CF93CDB7DEB72C97FA
:100170000FB6F894DEBF0FBECDBF93EFE92E95E02A
:10018000F92EC70140E855E260E070E00E947A1164
:1001900087E195E09A83898380911C0590911D05E4
:1001A000A0911E05B0911F058B839C83AD83BE83F8
:1001B0008CE3C82E85E0D82EC601BE016F5F7F4F4D
:1001C0000E94E10380E295E00E949E07C70160E083
:1001D00071E00E94E4148E01095F1F4FC801B6014F
:1001E0000E94AD02C701B8010E94D6132C960FB62B
:1001F000F894DEBF0FBECDBFCF91DF911F910F915D
:10020000FF90EF90DF90CF900895CF92DF92EF9222
:10021000FF920F931F93DF93CF93CDB7DEB72D9748
:100220000FB6F894DEBF0FBECDBF8E010F5F1F4F1C
:10023000C80160E275E00E942607C8010E945904C7
:10024000882309F45BC183EF95E06EE071E00E94C2
:10025000E714EE24E394C801102FF92E38C1812F42
:100260009F2D0E942705892B09F431C1812F9F2DD5
:100270000E940B05082F682F772767FD709583EF85
:1002800095E00E946B120A3009F01EC1EE2019F4AD
:10029000EE24E3941CC1812F9F2D69E171E00E943F
:1002A000E714812F9F2D69E271E00E94E714812FEE
:1002B0009F2D61E471E00E94E714812F9F2D63E57B
:1002C00071E00E94E714812F9F2D0E94B613812FA9
:1002D0009F2D6EE571E00E94E714812F9F2D6EE641
:1002E00071E00E94E714812F9F2D65E771E00E9465
:1002F000E714812F9F2D6CE771E00E94E714812F96
:100300009F2D66EB71E00E94E714812F9F2D62E024
:1003100072E00E94E714812F9F2D6AE172E00E9433
:10032000E714812F9F2D6CE372E00E94E714812F68
:100330009F2D6CE672E00E94E714812F9F2D6CE9DF
:1003400072E00E94E714812F9F2D65ED72E00E94FC
:10035000E714812F9F2D65E473E00E94E714812F3D
:100360009F2D6EE473E00E94E714812F9F2D66E5B8
:1003700073E00E94E714812F9F2D6DE573E00E94CA
:10038000E714812F9F2D66E673E00E94E414812F0D
:100390009F2D67E973E00E94E414812F9F2D6BED80
:1003A00073E00E94E714CC24DD247E010894E11C54
:1003B000F11C8C2D0E94D7158C01C70168EF73E0EA
:1003C0000E94E414C7016DEF73E00E94E414C701BA
:1003D000B6014AE050E00E94D114C70165E274E022
:1003E0000E94E414C701B8014AE050E00E94D11411
:1003F000C70160E474E00E94E714C70166E474E09A
:100400000E94E7140894C11CD11C86E0C816D104D0
:1004100081F6C7016CE474E00E94E714C70165E54A
:1004200074E00E94E714C7016BED73E00E94E714CB
:1004300022E0C22ED12C7E010894E11CF11C8C2DEF
:100440000E9498168C01C70168EF73E00E94E414C3
:10045000C7016CE574E00E94E414C701B6014AE0EC
:1004600050E00E94D114C70165E274E00E94E414D8
:10047000C701B8014AE050E00E94D114C70160E40E
:1004800074E00E94E714C70166E474E00E94E71478
:100490000894C11CD11C8EE0C816D10481F6C70196
:1004A0006CE474E00E94E714C70165E874E00E9400
:1004B000E714C7016FE874E00E94E714C70167E919
:1004C00074E00E94E7140AC00D3009F0EE24812F79
:1004D0009F2D0E947B04882309F0C1CE6AE070E062
:1004E00080E090E00E947615CE0101960E949F0464
:1004F00083EF95E06FE974E00E94E7142D960FB644
:10050000F894DEBF0FBECDBFCF91DF911F910F9149
:10051000FF90EF90DF90CF900895DB01FC0127E181
:1005200035E03183208312962D913D914D915C9160
:100530001597228333834483558308950F9384E46E
:1005400095E060E040E020E000E00E9401138CE3D1
:1005500095E00E946B130F910895EF92FF920F9315
:100560001F93182F092FE82EF92EC7010E946B1335
:1005700082E090E0E80EF91E8FE090E060E0A701D5
:1005800024E030E00E94060D812F902F1F910F91E3
:10059000FF90EF900895AB018FE090E064E024E0DD
:1005A00030E00E941A0C0895AB0181E090E064E015
:1005B00024E030E00E941A0C0895AB0185E090E041
:1005C00064E024E030E00E941A0C08956F927F925C
:1005D0008F929F92AF92BF92CF92DF92EF92FF9253
:1005E0000F931F933C017B014A0159018EE5C82EF0
:1005F00085E0D82EC6010E94960D82E090E0E80EBC
:10060000F91EC601B7010E94CB02E2E0F0E0AE0E97
:10061000BF1EC601B5010E94D4020E5F1F4FC60166
:10062000B8010E94DD02F40182819381A481B58129
:10063000F30182839383A483B5831F910F91FF906D
:10064000EF90DF90CF90BF90AF909F908F907F9072
:100650006F9008958F929F92AF92BF92CF92DF9248
:10066000EF92FF920F931F93DF93CF93CDB7DEB737
:100670006E970FB6F894DEBF0FBECDBF4C017B0165
:100680006A015901CE0101966FEF4FEF2FEF00E0A5
:100690000E94011327E135E038872F83F70182811B
:1006A0009381A481B58189879A87AB87BC873E8770
:1006B0002D87F60182819381A481B5818F87988BE4
:1006C000A98BBA8B3C8B2B8BF50182819381A48102
:1006D000B5818D8B9E8BAF8BB88F3A8F298F8B8195
:1006E0009C81AD81BE818B8F9C8FAD8FBE8FC401ED
:1006F000BE01695F7F4FAE01435F5F4F9E012D5E7C
:100700003F4F8E01075E1F4F0E94E6026E960FB6A6
:10071000F894DEBF0FBECDBFCF91DF911F910F9137
:10072000FF90EF90DF90CF90BF90AF909F908F9011
:100730000895DF93CF93CDB7DEB768970FB6F894DF
:10074000DEBF0FBECDBFFB01DA01228133814481C0
:1007500055812B833C834D835E8367E175E0788709
:100760006F8329873A874B875C877E876D871296D0
:100770002D913D914D915C9115972F87388B498B29
:100780005A8B7C8B6B8B21E02E832B813C814D819E
:100790005E812D8B3E8B4F8B588FBE01695F7F4FE3
:1007A000AE01435F5F4F9E012D5E3F4F0E942A03C3
:1007B00068960FB6F894DEBF0FBECDBFCF91DF9124
:1007C0000895DF93CF93CDB7DEB762970FB6F89455
:1007D000DEBF0FBECDBFFB01228133814481558135
:1007E0002B833C834D835E8367E175E078876F835D
:1007F00029873A874B875C877E876D8721E02E8328
:100800002B813C814D815E812F87388B498B5A8BA0
:10081000BE01695F7F4FAE01435F5F4F0E94990346
:1008200062960FB6F894DEBF0FBECDBFCF91DF91B9
:100830000895FC011382128288EE93E0A0E0B0E0FC
:1008400084839583A683B7838DEB94E09183808323
:1008500064870895DF93CF930F92CDB7DEB7FC0185
:100860006983A081B18112962D913C911397BE01AD
:100870006F5F7F4F41E050E0F90109950F90CF91F4
:10088000DF910895CF93DF93EC0107C0E881F981F0
:100890000680F781E02DCE010995E881F981048079
:1008A000F581E02DCE010995892B81F7DF91CF915C
:1008B000089520E0FC018485883009F021E0822F32
:1008C00008950F938AE495E060E040E020E000E0C6
:1008D0000E9401130F910895FC016485683011F4A2
:1008E00080E008956295660F607E685F83E090E027
:1008F0000E943E0C0895CF93DF93EC018C858830E5
:1009000011F480E019C0CE010E946C04843191F092
:10091000882381F0883171F08C3151F4E881F981BC
:100920000480F581E02DCE01099520E0892B19F096
:1009300021E001C020E0822FDF91CF910895EF9256
:10094000FF920F931F93CF93DF93EC018C85883038
:1009500089F10E94F9090E9442157B018C01CE01A8
:100960000E946C04882301F10E9442156E197F09D0
:10097000800B910B685E734080409040A8F461E06A
:1009800070E080E090E00E947615E9CF8C850E94AF
:10099000550AEC85F0E0EE0FFF1FE45DFA4F11827F
:1009A000108288E08C8706C0CE010E946C048823E8
:1009B00081F3ECCFDF91CF911F910F91FF90EF90DA
:1009C00008950F931F93DF93CF930F92CDB7DEB7A8
:1009D0008C01DC01ED91FC910480F581E02D0995FD
:1009E000892B19F42FEF3FEF0AC0F8018485BE016F
:1009F0006F5F7F4F0E94B30B8981282F30E0C901C0
:100A00000F90CF91DF911F910F910895FC01848584
:100A10000E94C20B0895DF93CF930F92CDB7DEB73C
:100A2000FC018485BE016F5F7F4F41E050E00E9472
:100A3000C20B181619061CF02FEF3FEF03C0898177
:100A4000282F30E0C9010F90CF91DF910895FC016C
:100A50006485683019F420E030E005C08EE595E04B
:100A60000E94B80C9C01C90108950F931F93CF9366
:100A7000DF938C01EA01FC018485883019F481E060
:100A800090E007C00E945C0B892B39F481E090E074
:100A9000F80193838283C0E0D0E0CE01DF91CF9153
:100AA0001F910F910895CF92DF92EF92FF920F93D3
:100AB0001F93CF93DF938C017B016A01FC01848536
:100AC000883009F059C0C0E0D0E0CE018295880F8F
:100AD000807E682F685F83E090E00E943E0C882350
:100AE00021F0883111F08C3119F4F801C48704C069
:100AF0002196C830D10549F7F80124852830E1F165
:100B00008091B6049091B70401969093B7048093B6
:100B1000B604892B31F480E094E09093B70480937D
:100B2000B6044091B6045091B704822F61E020E0F2
:100B30000E948A0A82E090E0E80EF91EF80184859E
:100B4000B701A6010E94F60A09C061E070E080E0EA
:100B500090E00E947615C8010E946C04882321F45D
:100B600088E0F801848708C0C8010E946C048731BE
:100B700061F721E030E002C020E030E0C901DF9100
:100B8000CF911F910F91FF90EF90DF90CF9008953C
:100B90006F927F928F929F92AF92BF92CF92DF928D
:100BA000EF92FF920F931F93DF93CF93CDB7DEB7F2
:100BB000E5970FB6F894DEBF0FBECDBF4C015B01C9
:100BC0003A0193E1E92EF12CEC0EFD1EC7010E94C3
:100BD0006B13CE014B960E9424096E010894C11C30
:100BE000D11CC6010E946B138E01095F1F4FC80103
:100BF0006CE375E00E948D02C701B8010E94DB0D15
:100C0000C701B501A6010E945A109C0181309105CF
:100C1000C9F4D401ED91FC910484F585E02D87E1C0
:100C200095E09E878D878B819C81AD81BE818F876A
:100C3000988BA98BBA8BC401BE01635F7F4FA30160
:100C400009959C01C901E5960FB6F894DEBF0FBE69
:100C5000CDBFCF91DF911F910F91FF90EF90DF906B
:100C6000CF90BF90AF909F908F907F906F9008959E
:100C7000FC011382128289ED94E091838083758355
:100C800064830895DF93CF930F92CDB7DEB7FC0155
:100C90006983A081B18112962D913C911397BE0179
:100CA0006F5F7F4F41E050E0F90109950F90CF91C0
:100CB000DF9108950F9380E595E060E040E020E04B
:100CC00000E00E9401130F9108958F929F92BF92AE
:100CD000CF92DF92EF92FF920F931F93DF93CF9308
:100CE000CDB7DEB72D970FB6F894DEBF0FBECDBFE0
:100CF0007C010CE215E088249924BB246E01089441
:100D0000C11CD11CC6016B2D0E941904D8012D9164
:100D10003C91F7018481958128173907B1F4C60108
:100D20000E946C04843121F481E0882E912C0DC046
:100D3000C6010E946C048C3141F4C6010E94270553
:100D4000892B19F4C6010E949F04B3940E5F1F4FB4
:100D5000F8E0BF16B9F6892841F4D701ED91FC916E
:100D60000480F581E02DC70109952D960FB6F89402
:100D7000DEBF0FBECDBFCF91DF911F910F91FF90CE
:100D8000EF90DF90CF90BF909F908F9008954F92FB
:100D90005F926F927F928F929F92AF92BF92DF92FB
:100DA000EF92FF920F931F93DF93CF93CDB7DEB7F0
:100DB0002D970FB6F894DEBF0FBECDBF4C012B01AF
:100DC0003A010E9465069CE2E92E95E0F92E00E0CA
:100DD00010E0DD245E010894A11CB11CC5016D2D3D
:100DE0000E941904F70120813181F40184819581E9
:100DF0002817390761F4C5010E946C04873139F462
:100E0000C501B201A3010E943505080F191FD39433
:100E100082E090E0E80EF91E98E0D916F9F6C801D4
:100E20002D960FB6F894DEBF0FBECDBFCF91DF91E8
:100E30001F910F91FF90EF90DF90BF90AF909F9028
:100E40008F907F906F905F904F9008959F92AF9298
:100E5000BF92CF92DF92EF92FF920F931F93DF9397
:100E6000CF93CDB7DEB72D970FB6F894DEBF0FBE88
:100E7000CDBFC82E992E5B01CB010E9465060CE206
:100E800015E0DD247E010894E11CF11CC7016D2DE5
:100E90000E941904F80120813181F5018481958136
:100EA0002817390761F5C7010E946C04873129F0C2
:100EB000C7010E946C048C3111F5C7010E942705FF
:100EC000892BE9F0EC2DF92D8B819C819383828312
:100ED0008D819E81AF81B88584839583A683B783F6
:100EE00089859A85AB85BC8580879187A287B387E2
:100EF0008DEB94E0918380838D8584870BC0D394A0
:100F00000E5F1F4FF8E0DF1609F68C2D992D68E073
:100F10000E9419048C2D992D2D960FB6F894DEBFE2
:100F20000FBECDBFCF91DF911F910F91FF90EF903A
:100F3000DF90CF90BF90AF909F900895CF92DF92B7
:100F4000EF92FF920F931F93DF93CF93CDB7DEB74E
:100F50002D970FB6F894DEBF0FBECDBF6C0100E039
:100F600010E07E010894E11CF11CC701602F0E9473
:100F70001904C7010E946C048823B1F4F60144816E
:100F80005581802F61E020E00E948A0A802F0E9414
:100F90000B0A000F111F045D1A4FF6018481958121
:100FA000F8019183808305C00F5F1F4F0830110542
:100FB000E1F62D960FB6F894DEBF0FBECDBFCF91F0
:100FC000DF911F910F91FF90EF90DF90CF900895E8
:100FD000DC01ED91FC91008CF18DE02D09950895D7
:100FE000DB01FC0127E135E03183208351962D910F
:100FF0003D914D915C915497228333834483558373
:101000000895FC01858996890895FC01818D928D52
:101010000895DF93CF930F92CDB7DEB7FC016983BC
:10102000A081B18112962D913C911397BE016F5F03
:101030007F4F41E050E0F90109950F90CF91DF918A
:101040000895CF93DF93EC0107C0E881F981068012
:10105000F781E02DCE010995898D9A8D892BA9F70D
:10106000DF91CF9108950F9386E595E060E040E031
:1010700020E000E00E9401130F910895DF93CF93C9
:101080000F92CDB7DEB7FC01818D928D892B19F4BB
:101090002FEF3FEF09C08485BE016F5F7F4F0E9435
:1010A000B30B8981282F30E0C9010F90CF91DF91D8
:1010B0000895CF93DF93EC019A01498D5A8D411524
:1010C0005105A1F02417350710F08C8502C08C85DE
:1010D000A9010E94C20B9C01181619063CF4898DC7
:1010E0009A8D821B930B9A8F898F02C02FEF3FEF4F
:1010F000C901DF91CF9108950F931F93DF93CF9391
:101100000F92CDB7DEB78C01FC01818D928D892BBA
:10111000A9F08485BE016F5F7F4F41E050E00E94DF
:10112000C20B1816190654F4F801818D928D01979F
:10113000928F818F8981282F30E002C02FEF3FEFFF
:10114000C9010F90CF91DF911F910F910895EF92F8
:10115000FF920F931F93DF93CF93CDB7DEB72897FE
:101160000FB6F894DEBF0FBECDBF8C01DC01ED9150
:10117000FC910284F385E02D09958EE595E0F80158
:1011800064850E94B80C892B19F420E030E025C05A
:10119000D8011C968C917E010894E11CF11CB701CA
:1011A00048E050E00E94C20B9C0118161906ACF4EE
:1011B000C8010F96B7010E945E139D8180E02E81C9
:1011C000820F911DF801968B858B9F8180E0288589
:1011D000820F911D928F818F9C01C90128960FB6B5
:1011E000F894DEBF0FBECDBFCF91DF911F910F915D
:1011F000FF90EF9008950F931F938C01FB019A01CC
:10120000DC0157966D917C9158971C968C91AF019B
:101210000E942C0B9C01F8018789908D820F931FEF
:10122000908F878BC9011F910F910895FC018485D0
:101230000E94290A0895FC01108E178A6E5F7F4F65
:1012400084850E94D00A0895FC011382128288EEE0
:1012500093E0A0E0B0E084839583A683B78383EE18
:1012600094E09183808388E08487CF010F960E9469
:101270006B1308956F927F928F929F92AF92BF925D
:10128000CF92DF92EF92FF920F931F93DF93CF9352
:10129000CDB7DEB7E5970FB6F894DEBF0FBECDBF72
:1012A0004C015B013A0183E1E82EF12CEC0EFD1EAE
:1012B000C7010E946B13CE014B960E9424096E0158
:1012C0000894C11CD11CC6010E946B138E01095FDA
:1012D0001F4FC8016CE375E00E948D02C701B80181
:1012E0000E94DB0DC701B501A6010E945A109C01A6
:1012F00081309105C9F4D401ED91FC910088F18908
:10130000E02D87E195E09E878D878B819C81AD8163
:10131000BE818F87988BA98BBA8BC401BE01635F96
:101320007F4FA30109959C01C901E5960FB6F8947A
:10133000DEBF0FBECDBFCF91DF911F910F91FF9008
:10134000EF90DF90CF90BF90AF909F908F907F9065
:101350006F900895CF93DF93EC018C85883061F016
:101360000E94550AEC85F0E0EE0FFF1FE45DFA4F96
:101370001182108288E08C87DF91CF910895EF92DF
:10138000FF920F931F93CF93DF938C017B01FC019E
:101390008485883031F5C0E0D0E0CE018295880F99
:1013A000807E682F685F83E090E00E943E0C882377
:1013B00011F0883119F4F801C48704C02196C830AF
:1013C000D10559F7F8018485883059F0F686E5860D
:1013D000128E118E62E0A70120E00E948A0A81E04D
:1013E00001C080E0DF91CF911F910F91FF90EF90AE
:1013F0000895682F8EE595E048E050E00E94830D47
:1014000008959B01682F6295660F607E685FC90131
:101410000E943E0C08951F93182F63E070E00E9415
:10142000010A833111F080E008C08EE595E0612F5C
:1014300042E050E00E94830D81E01F9108959B01DE
:10144000682F6295660F607E645FC9010E94020C7E
:1014500008951F93182F8EE595E0612F40E250E02C
:101460000E94830D10C0812F62E070E00E94010A8B
:1014700083FF09C0812F62E070E048E10E941F0AEB
:1014800020E030E00FC0812F62E070E00E94010A8E
:1014900084FFE9CF812F62E070E040E10E941F0AE3
:1014A00021E030E0C9011F9108951F93182F8EE5A8
:1014B00095E0612F40E150E00E94830D812F62E0B2
:1014C00070E04FEF0E941F0A1F9108950F931F9322
:1014D000182F062F472F60E170E00E941F0A812F0E
:1014E00061E170E0402F0E941F0A1F910F91089543
:1014F0000F931F93182F062F472F64E070E00E9470
:101500001F0A812F65E070E0402F0E941F0A1F9183
:101510000F910895FF920F931F93CF93DF93082F9E
:10152000F62EEA01122F862F8150853010F080E0D0
:1015300024C0802F0E94550A1F29802F60E070E090
:10154000412F0E941F0A209719F0802FBE010BC067
:1015500060915C0570915D056F5F7F4F70935D05D5
:1015600060935C05802F0E94780A8EE595E0602FDD
:1015700041E050E00E94830D81E0DF91CF911F9107
:101580000F91FF900895AB01682F6295660F607E02
:10159000645F8CE090E024E030E00E941A0C089533
:1015A0001F93CF93DF93182FFB01EA0180818823DB
:1015B00049F48181882331F48281882319F483815D
:1015C000882369F0209759F0812FBF010E94C30A38
:1015D000812FBE010E94660A21E030E002C020E0B7
:1015E00030E0C901DF91CF911F9108951F93CF93F0
:1015F000DF93182FFB01EA0180818F3F51F4818135
:101600008F3F91F482818F3F79F483818F3F61F422
:101610001EC0882349F48181882331F48281882384
:1016200019F48381882399F0209789F0812FBF01D5
:101630000E94C30A812FBE010E94660A8EE595E0D2
:10164000612F44E050E00E94830D81E001C080E002
:10165000DF91CF911F910895AF92BF92DF92EF92E9
:10166000FF920F931F93CF93DF93D82EEB015A0174
:1016700089018EE595E06D2D0E94EA0C8017910797
:1016800010F0780106C08EE595E06D2D0E94EA0C01
:101690007C018EE595E06D2DAE01950187010E94DC
:1016A000550CC701DF91CF911F910F91FF90EF90E3
:1016B000DF90BF90AF900895CF92DF92EF92FF92AC
:1016C0001F93CF93DF93182F6B01EA0188E041301D
:1016D000580710F0C0E0D8E08EE595E0612F0E9439
:1016E000EA0C7C01812F63E070E00E94010A8731DF
:1016F00029F08C3119F0C0E0D0E003C0EC16FD06F3
:1017000058F38EE595E0612FA6019E010E94960C8C
:101710008EE595E0612F40E250E00E94830D0DC000
:10172000812F63E070E00E94010A882331F4812F49
:101730000E94550AC0E0D0E00DC0812F62E070E049
:101740000E94010A84FFECCF812F62E070E040E14B
:101750000E941F0ACE01DF91CF911F91FF90EF9061
:10176000DF90CF9008950F93282FAB018EE595E081
:10177000622F21E030E001E00E94380D81E090E02E
:101780000F910895CF92DF92FF920F931F93CF9303
:10179000DF93F82E6B018A018EE595E06F2D0E9494
:1017A000B80CEC01009761F48F2D63E070E00E94AB
:1017B000010A8431D9F08823C9F08C31B9F01FC0F7
:1017C000081719070CF4E8011C161D067CF48EE5B9
:1017D00095E06F2DA6019E0100E00E94380D8EE578
:1017E00095E06F2D40E450E00E94830DCE01DF9123
:1017F000CF911F910F91FF90DF90CF900895CFEF81
:10180000DFEFF4CF2A989EBD0DB407FEFDCF9EB545
:101810008EBD0DB407FEFDCF8EB56EBD0DB407FEB7
:10182000FDCF8EB54EBD0DB407FEFDCF8EB52A9A05
:1018300081E008952A989EBD0DB407FEFDCF9EB5A8
:101840008EBD0DB407FEFDCF8EB56EBD0DB407FE87
:10185000FDCF8EB560E070E00BC0FA01E60FF71F18
:1018600080818EBD0DB407FEFDCF8EB56F5F7F4FBB
:101870006217730790F32A9AC90108952A989EBDAA
:101880000DB407FEFDCF9EB58EBD0DB407FEFDCF96
:101890008EB56EBD0DB407FEFDCF8EB51EBC0DB46A
:1018A00007FEFDCF8EB52A9A0895AF92BF92CF92D0
:1018B000DF92EF92FF920F931F93C62E7A01590188
:1018C000862F64E270E00E94010AD82E8C2D65E21A
:1018D00070E00E94010AC294CC0C90EEC922E80E7E
:1018E000F11C9D2D80E0E80EF91E84E1C80EC701B1
:1018F0006C2DA50198010E941A0CE00EF11E1C2D02
:10190000185084E290E0612F4F2D0E94020C85E276
:1019100090E0612F4E2D0E94020C1F910F91FF90BD
:10192000EF90DF90CF90BF90AF9008950F931F93EB
:10193000FA01890140E050E09F010E94550C1F917F
:101940000F910895FF920F931F93F82E66E270E0B7
:101950000E94010A182F00E08F2D67E270E00E94BC
:10196000010A080F111DC8011F910F91FF900895E2
:10197000FF920F931F93CF93DF93F62EC0E0D0E03A
:101980008F2D0E94A20C8C01009721F08F2D0E94B8
:10199000A20CEC01C017D10799F7CE01DF91CF91CE
:1019A0001F910F91FF900895FF920F931F93F82EB0
:1019B00060E270E00E94010A182F00E08F2D61E2C2
:1019C00070E00E94010A080F111DC8011F910F91BC
:1019D000FF900895FF920F931F93CF93DF93F62EFE
:1019E000C0E0D0E08F2D0E94D40C8C01009721F034
:1019F0008F2D0E94D40CEC01C017D10799F7CE01AE
:101A0000DF91CF911F910F91FF9008952A989EBD6D
:101A10000DB407FEFDCF9EB58EBD0DB407FEFDCF04
:101A20008EB56EBD0DB407FEFDCF8EB560E070E0E3
:101A30000BC01EBC0DB407FEFDCF8EB5FA01E60F3C
:101A4000F71F80836F5F7F4F6217730790F32A9AA7
:101A5000C90108950F931F93CA016295660F607EB6
:101A6000685EA90198010E94060D1F910F910895CB
:101A70008F929F92AF92BF92CF92DF92EF92FF929E
:101A80000F931F93CF93DF937C01A62E6A01490128
:101A9000B02E862F68E270E00E94010A182F8A2D6E
:101AA00069E270E00E94010A312F20E0E901C80FCD
:101AB000D11DC7016A2DAE01960184010E942A0D35
:101AC000BB20A1F47E01E80CF91C1A2D1295110F10
:101AD000107E145F88E290E0612F4F2D0E94020C6F
:101AE00089E290E0612F4E2D0E94020CDF91CF9190
:101AF0001F910F91FF90EF90DF90CF90BF90AF902C
:101B00009F908F9008951F93162F6295660F607EA9
:101B1000645F81E090E00E94020C812F61E070E040
:101B20000E94010A8823C9F71F9108950F931F93FC
:101B3000229A6CE271E080E090E00E9476150E94AB
:101B4000B90D00E0102F1295110F107E145F8EE179
:101B500090E0612F42E00E94020C8FE190E0612F43
:101B600042E00E94020C0F5F083061F71F910F9155
:101B700008958AE061E00E9465168AE061E00E94B3
:101B8000F9158CB580618CBD8CB580648CBD8DE001
:101B900061E00E94F9158BE061E00E94F91508955B
:101BA0000F938FE595E060E040E020E000E00E94C8
:101BB00001130F9108959C01FB0182819381A481FF
:101BC000B581F90182839383A483B583178216823A
:101BD0000895CF93DF93FB0101C031968081882364
:101BE000E1F7EB01A0E0B0E020E030E021C06E3290
:101BF00061F42F3F310509F07CF5FA01EA0FFB1F74
:101C00002283119620E030E012C0C901E3E0880F82
:101C1000991FEA95E1F7220F331F820F931F262F9A
:101C2000332727FD309520533040280F391F219648
:101C30006881662319F0A430B105CCF22F3F31053D
:101C400009F054F4A430B1053CF4A40FB51F12966A
:101C50002C9321E030E002C020E030E0C901DF91A8
:101C6000CF9108950F9385E695E060E040E020E095
:101C700000E00E9401130F9108952F923F924F921E
:101C80005F926F927F928F929F92AF92BF92CF920C
:101C9000DF92EF92FF920F931F93DF93CF93CDB715
:101CA000DEB769970FB6F894DEBF0FBECDBF4C010B
:101CB0008B011A010E9442152B013C01F8E0EF2E26
:101CC000F12CE80CF91C5801CC24DD2414C00E942E
:101CD00042156419750986099709A616B706C8063C
:101CE000D90618F42FEF3FEF0BC162E370E080E0FC
:101CF00090E00E947615C7010E94A70818161906E1
:101D000034F7F4012281338144815581818D928D94
:101D1000A38DB48D8A879B87AC87BD872817390729
:101D20004A075B0709F0EAC0858D968DC59709F0D3
:101D3000E5C000C18E01025F1F4FC701B8014CE032
:101D400050E00E945908F801528143815B834A8325
:101D5000F401268137818E859F852817390711F474
:101D600057FD06C0C7010E9421082CEF3FEFC8C0F5
:101D70004F705270452B31F0C7010E9421082BEFA4
:101D80003FEFBEC0F801768067806114710441F0B6
:101D9000AA24BB2448012E010894411C511C28C0D0
:101DA000C7010E9421082AEF3FEFAAC0C701B20174
:101DB00041E050E00E9459088981882321F408C03D
:101DC000C7010E947C088981815089838F5FC1F798
:101DD0008981882359F700E010E0C7010E947C0840
:101DE0000F5F1F4F04301105C1F70894A11CB11CEF
:101DF000F401D480C580AC14BD04C0F24424552441
:101E0000C701BE016F5F7F4F41E050E00E9459085B
:101E10009981892F807C61F4992321F40DC0C70139
:101E20000E947C088981815089838F5FC1F704C03B
:101E3000C7010E947C0819828981882309F7C7019C
:101E4000BE016C5F7F4F42E050E00E945908C7011D
:101E5000BE016A5F7F4F42E050E00E94590800E0F7
:101E600010E0C7010E947C080F5F1F4F043011056E
:101E7000C1F7C701BE016E5F7F4F42E050E00E9494
:101E80005908DC80CD80F1E0CF16D10419F5BE8071
:101E9000AF8081E0A816B104E9F49A818B810497A0
:101EA00031F0C7010E94210827EF3FEF29C0E2E08F
:101EB000F0E02E0E3F1EC701B10144E050E00E9449
:101EC000590821E030E01CC0C7010E947C080F5F68
:101ED0001F4F02C000E010E09A808B8008151905A2
:101EE00098F30894411C511C4614570408F488CFF9
:101EF000C7010E94210826EF3FEF02C02EEF3FEFFF
:101F0000C90169960FB6F894DEBF0FBECDBFCF9161
:101F1000DF911F910F91FF90EF90DF90CF90BF90D6
:101F2000AF909F908F907F906F905F904F903F9079
:101F30002F90089587E195E099878887C7010E94CF
:101F400005080C970CF0F6CE2DEF3FEFD9CF6F922E
:101F50007F928F929F92AF92BF92CF92DF92EF9239
:101F6000FF920F931F93DF93CF9300D00F92CDB7C3
:101F7000DEB78C01F62EE72E0E944215F80177831A
:101F80006683B8E0CB2ED12CC00ED11E0A5F1F4F46
:101F9000C601B80142E050E00E94FB0881E090E0F9
:101FA0009B838A83A2E08A2E912C8C0E9D1EC601F3
:101FB000B40142E050E00E94FB0880E091E09B8386
:101FC0008A83C601B40142E050E00E94FB081B82F4
:101FD0001A82C601B40142E050E00E94FB08C6012B
:101FE000B40142E050E00E94FB08C601B40142E0A7
:101FF00050E00E94FB082F2D3E2DC9018C017C0171
:102000003E010894611C711C20C00894E11CF11C65
:10201000F7018081882311F08E32B9F75701A01A99
:10202000B10A1A141B0474F48E2D801B8983C60117
:10203000B30141E050E00E94FB08C601B801A501D0
:102040000E94FB0887010F5F1F4FF70180818823E3
:1020500011F07801DDCF1982C601BE016F5F7F4F9D
:1020600041E050E00E94FB0800E011E01B830A837E
:10207000C601B40142E050E00E94FB081B830A83C2
:10208000C601B40142E050E00E94FB0881E090E00C
:102090000F900F900F90CF91DF911F910F91FF90B4
:1020A000EF90DF90CF90BF90AF909F908F907F90F8
:1020B0006F9008958F929F92AF92BF92CF92DF92CE
:1020C000EF92FF920F931F93DF93CF9300D000D036
:1020D00000D0CDB7DEB76C017B014A010E94E90D4B
:1020E000892B19F001E010E067C0F60122813381ED
:1020F000448155818091670590916805A09169059B
:10210000B0916A05281739074A075B0719F40EEFE3
:102110001FEF52C018E0A12EB12CAC0CBD1C0E94C8
:1021200042159B01AC012F70307020503C4FC5010F
:10213000B9010E94BF09813019F000E010E03CC0F5
:1021400087E195E09A838983F60182819381A48156
:10215000B5818B839C83AD83BE83C501BE016F5F58
:102160007F4F45E350E00E941B098C01009709F165
:10217000C601B7010E94A70F8C010097D1F0C501DD
:102180000E9416098C010097A1F0EE24FF24C601DD
:1021900068E873E1A4010E943D0E8C010894E11CE3
:1021A000F11CF3E0EF16F10421F08FEF0F3F180759
:1021B00071F3C5010E94AA09C80126960FB6F894CA
:1021C000DEBF0FBECDBFCF91DF911F910F91FF906A
:1021D000EF90DF90CF90BF90AF909F908F90089539
:1021E00008951F920F920FB60F9211242F933F93D1
:1021F0004F938F939F93EF93FF938091C00082FD45
:102200001DC04091C6002091AB053091AC052F5FF9
:102210003F4F2F7330708091AD059091AE05281718
:10222000390771F0E091AB05F091AC05E559FA4F33
:1022300040833093AC052093AB0502C08091C6006B
:10224000FF91EF919F918F914F913F912F910F901F
:102250000FBE0F901F901895E091FF05F0910006BA
:10226000E05CFF4F8191919120813181821B930B22
:102270008F739070892B11F00E94F01008951F92B7
:102280000F920FB60F9211242F933F938F939F932A
:10229000EF93FF932091EF053091F0058091F105C8
:1022A0009091F2052817390731F48091C1008F7D94
:1022B0008093C10014C0E091F105F091F205E15561
:1022C000FA4F20818091F1059091F20501968F736C
:1022D00090709093F2058093F1052093C600FF91D2
:1022E000EF919F918F913F912F910F900FBE0F9083
:1022F0001F901895AF92BF92DF92EF92FF920F93CB
:102300001F93CF93DF93EC017A018B01DD244030E2
:1023100081EE580780E0680780E0780711F0DD243F
:10232000D39491E0A92EB12CEC89FD89DD2069F0D0
:10233000C50108A002C0880F991F0A94E2F78083A4
:1023400060E079E08DE390E005C0108260E874E819
:102350008EE190E0A80197010E94E71621503040DD
:1023600040405040569547953795279580E120305D
:10237000380720F0DD2011F0DD24D6CFE889F98977
:102380003083EA89FB89208319A2EE89FF89408185
:1023900021E030E0C9010C8C02C0880F991F0A941B
:1023A000E2F7482B4083EE89FF894081C9010D8CFB
:1023B00002C0880F991F0A94E2F7482B4083EE89E8
:1023C000FF894081C9010E8C02C0880F991F0A94B1
:1023D000E2F7482B4083EE89FF8980810F8C02C091
:1023E000220F331F0A94E2F7209528232083DF91E0
:1023F000CF911F910F91FF90EF90DF90BF90AF9022
:102400000895DC011C96ED91FC911D97E05CFF4F57
:102410002191319180819181281B390B2F7330706C
:10242000C9010895DC011C96ED91FC911D97E05CBB
:10243000FF4F20813181E054F040DF01AE5BBF4FA0
:102440008D919C9111972817390719F42FEF3FEFC1
:1024500007C08D919C91E80FF91F8081282F30E0F3
:10246000C9010895DC011C96ED91FC911D97E05C7B
:10247000FF4F20813181E054F040DF01AE5BBF4F60
:102480008D919C9111972817390719F42FEF3FEF81
:1024900010C08D919C911197E80FF91F20818D91AB
:1024A0009C91119701968F73907011969C938E93C7
:1024B00030E0C9010895DC0191968C9191978823B1
:1024C00039F05496ED91FC915597808186FFF9CFB4
:1024D00091961C920895CF93DF93EC01EE85FF85D2
:1024E000E05CFF4F20813181E054F0402F5F3F4F8F
:1024F0002F733070DF01AE5BBF4F8D919C911197B0
:1025000028173907D1F3E05CFF4F80819181E054B7
:10251000F040E80FF91F6083EE85FF85E05CFF4F18
:1025200031832083EE89FF89208181E090E00F8C48
:1025300002C0880F991F0A94E2F7282B208381E0BC
:1025400089A3EC89FD8980818064808381E090E0AB
:10255000DF91CF9108951092F6051092F50588EE5F
:1025600093E0A0E0B0E08093F7059093F805A09386
:10257000F905B093FA0587E095E09093F405809310
:10258000F3058BE695E0909300068093FF058FEAB4
:1025900095E0909302068093010685EC90E090937D
:1025A00004068093030684EC90E0909306068093E3
:1025B000050680EC90E0909308068093070681EC76
:1025C00090E090930A068093090682EC90E0909345
:1025D0000C0680930B0686EC90E090930E06809399
:1025E0000D0684E080930F0683E08093100687E059
:1025F0008093110685E08093120681E08093130694
:1026000008950F93FC0187E195E0918380836283B5
:102610004383248305830F91089587E195E0909388
:10262000160680931506109217061092180610923F
:10263000190610921A0608958F929F92AF92BF9238
:10264000CF92DF92EF92FF920F931F93CF93DF937E
:102650004C016B017C01AA24BB24C0E0D0E0C60180
:10266000F70162814AE050E00E947F148C01C601AC
:102670006EE20E94AE13080F191FA00EB11E219624
:102680000894E11CF11CC330D10549F7C601F401DF
:1026900065814AE050E00E947F149501280F391FA0
:1026A000C901DF91CF911F910F91FF90EF90DF90C3
:1026B000CF90BF90AF909F908F9008959C01FB01A9
:1026C00080819181A281B381F90182839383A48364
:1026D000B583C9010895FC0187E195E0918380836A
:1026E00012821382148215820895CF93DF930E9481
:1026F0009C150E94AD00CCE2D1E10E94050120971B
:10270000E1F30E942C11F9CFCF92DF92EF92FF926A
:102710000F931F93CF93DF937C016B018A01C0E07D
:10272000D0E00FC0D6016D916D01D701ED91FC9104
:102730000190F081E02DC7010995C80FD91F015004
:1027400010400115110571F7CE01DF91CF911F9156
:102750000F91FF90EF90DF90CF900895DC01ED9105
:10276000FC910190F081E02D09950895EF92FF9280
:102770000F931F938C01DC01ED91FC910190F0818E
:10278000E02D6DE009957C01D801ED91FC9101905F
:10279000F081E02DC8016AE009959C012E0D3F1DD6
:1027A000C9011F910F91FF90EF900895EF92FF9252
:1027B0000F931F937C01DB01ED91FC910190F0815F
:1027C000E02DCB01B70109958C01C7010E94B6131A
:1027D000080F191FC8011F910F91FF90EF900895E6
:1027E000CF93DF93EC016115710519F420E030E01F
:1027F0000FC0DB010D900020E9F71197A61BB70B66
:10280000E881F9810280F381E02DAD0109959C01F9
:10281000C901DF91CF9108954F925F927F928F927D
:102820009F92AF92BF92CF92DF92EF92FF920F935F
:102830001F93DF93CF93CDB7DEB7A1970FB6F89470
:10284000DEBF0FBECDBF2C01742ECB01223008F4A9
:102850002AE019A231E2C32ED12CCC0EDD1E822E2D
:102860009924AA24BB24672D752FA50194010E94E9
:10287000E71679018A01C801B701A50194010E94F8
:10288000C816472D461B0894C108D1084A3014F4D5
:10289000405D01C0495CF6014083E114F10401058B
:1028A000110521F07E2C5F2DC801DDCFC201B601DC
:1028B0000E94F013A1960FB6F894DEBF0FBECDBFF5
:1028C000CF91DF911F910F91FF90EF90DF90CF900C
:1028D000BF90AF909F908F907F905F904F900895A2
:1028E000DC012115310541F4ED91FC910190F0815D
:1028F000E02D642F099508950E940C140895EF921D
:10290000FF920F931F939A01E62EFF2400E010E040
:10291000B801A7010E9470141F910F91FF90EF90D2
:102920000895CF92DF92EF92FF920F931F93CF9370
:10293000DF93EC016A017B012115310541F4E88147
:10294000F9810190F081E02D642F09951FC02A3094
:102950003105D1F477FF17C0E881F9810190F0814A
:10296000E02D6DE209958C0144275527BA014C19D9
:102970005D096E097F09CE012AE00E940C149801BE
:10298000280F391F04C02AE00E940C149C01C901C1
:10299000DF91CF911F910F91FF90EF90DF90CF903B
:1029A0000895EF92FF920F931F937B019A010027E6
:1029B000F7FC0095102FB801A7010E9491141F91F8
:1029C0000F91FF90EF9008950E94F0130895EF92F9
:1029D000FF920F931F937C010E94F0138C01C7019B
:1029E0000E94B613080F191FC8011F910F91FF9085
:1029F000EF9008951F920F920FB60F9211242F930C
:102A00003F938F939F93AF93BF9380911F069091B5
:102A10002006A0912106B09122063091230601964E
:102A2000A11DB11D232F2D5F2D3720F02D570196AD
:102A3000A11DB11D2093230680931F0690932006AD
:102A4000A0932106B093220680911B0690911C064C
:102A5000A0911D06B0911E060196A11DB11D809387
:102A60001B0690931C06A0931D06B0931E06BF91F3
:102A7000AF919F918F913F912F910F900FBE0F902B
:102A80001F9018958FB7F89420911F06309120065B
:102A900040912106509122068FBFB901CA010895C5
:102AA0009FB7F89420911B0630911C0640911D069B
:102AB00050911E0686B5A89B06C08F3F21F02F5F60
:102AC0003F4F4F4F5F4F9FBF542F432F322F22272F
:102AD000280F311D411D511D82E0220F331F441F5D
:102AE000551F8A95D1F7B901CA010895EF92FF9257
:102AF0000F931F93CF93DF937B018C010E9450159E
:102B0000EB010EC00E9450156C1B7D0B685E73407C
:102B1000C8F30894E108F10801091109C851DC4F14
:102B2000E114F1040105110569F7DF91CF911F91BF
:102B30000F91FF90EF900895789484B5826084BDE2
:102B400084B5816084BD85B5826085BD85B58160B1
:102B500085BDEEE6F0E0808181608083E1E8F0E011
:102B60001082808182608083808181608083E0E840
:102B7000F0E0808181608083E1EBF0E0808184601F
:102B80008083E0EBF0E0808181608083EAE7F0E021
:102B90008081846080838081826080838081816085
:102BA00080838081806880831092C1000895982F6F
:102BB0008E3008F09E5097708091B8048295880FEF
:102BC000880F807C892B80937C0080917A008064C0
:102BD00080937A0080917A0086FDFCCF2091780066
:102BE00040917900942F80E030E0282B392BC901E7
:102BF0000895CF93DF93482F50E0CA0186569F4F28
:102C0000FC0134914A575F4FFA018491882369F19E
:102C100090E0880F991FFC01E859FF4FA591B491EE
:102C2000FC01EE58FF4FC591D491662351F42FB7A4
:102C3000F8948C91932F909589238C938881892384
:102C40000BC0623061F42FB7F8948C91932F90955C
:102C500089238C938881832B88832FBF06C09FB7DD
:102C6000F8948C91832B8C939FBFDF91CF91089523
:102C7000833071F0843028F48130A1F0823021F566
:102C800014C08630B1F08730D1F08430E9F404C04C
:102C9000809180008F7703C0809180008F7D80932A
:102CA0008000089584B58F7702C084B58F7D84BD80
:102CB00008958091B0008F778093B000089580913F
:102CC000B0008F7D8093B0000895FF920F931F9303
:102CD000F62E482F50E0CA0182559F4FFC012491E7
:102CE000CA0186569F4FFC0114914A575F4FFA0163
:102CF00004910023C9F0222319F0822F0E94381674
:102D0000E02FF0E0EE0FFF1FEE58FF4FA591B491BA
:102D10009FB7F894FF2021F48C911095812302C075
:102D20008C91812B8C939FBF1F910F91FF900895E1
:102D30000F931F93482F50E0CA0182559F4FFC010B
:102D40002491CA0186569F4FFC0104914A575F4F58
:102D5000FA011491112319F420E030E015C0222368
:102D600019F0822F0E943816812F90E0880F991F4A
:102D700084589F4FFC01A591B4918C9120E030E0E4
:102D8000802311F021E030E0C9011F910F910895D7
:102D9000629FD001739FF001829FE00DF11D649F3F
:102DA000E00DF11D929FF00D839FF00D749FF00DCB
:102DB000659FF00D9927729FB00DE11DF91F639F6C
:102DC000B00DE11DF91FBD01CF0111240895A1E24D
:102DD0001A2EAA1BBB1BFD010DC0AA1FBB1FEE1F95
:102DE000FF1FA217B307E407F50720F0A21BB30BE0
:102DF000E40BF50B661F771F881F991F1A9469F75C
:102E000060957095809590959B01AC01BD01CF01B7
:102E10000895EE0FFF1F0590F491E02D0994F894AA
:022E2000FFCFE2
:102E220073657276657220697320617420006E6525
:102E32007720636C69656E7400485454502F312EAC
:102E42003120323030204F4B00436F6E74656E7408
:102E52002D547970653A20746578742F68746D6C9E
:102E620000436F6E6E656374696F6E3A20636C6FB8
:102E7200736500526566726573683A2035003C21BD
:102E8200444F43545950452048544D4C3E003C68F1
:102E9200746D6C3E003C686561643E003C7469740C
:102EA2006C653E41726475696E6F20262057697A9F
:102EB200353530696F2057656220536572766572C9
:102EC200204D6F68616D61642044616E693C2F74AE
:102ED20069746C653E003C6C696E6B2072656C3D7A
:102EE2002269636F6E2220747970653D22696D617B
:102EF20067652F6769662220687265663D2268747D
:102F020074703A2F2F6D616D6467736D2E776562F1
:102F1200732E636F6D2F69636F2E67696622202F90
:102F22003E003C7374796C6520747970653D22743F
:102F32006578742F637373223E00626F6479207B1D
:102F42006261636B67726F756E642D636F6C6F7213
:102F52003A20234646434336363B7D006831207B88
:102F6200636F6C6F723A20233939303030303B2036
:102F72006261636B67726F756E642D636F6C6F72E3
:102F82003A20234643393830343B7D006834207B75
:102F9200636F6C6F723A20233939303030303B2006
:102FA2006261636B67726F756E642D636F6C6F72B3
:102FB2003A20234643393830343B7D006872207B07
:102FC200626F726465723A20313B2077696474687B
:102FD2003A203230253B20636F6C6F723A202346D1
:102FE20046303030303B206865696768743A203576
:102FF20070783B7D007461626C65207B636F6C6FDF
:10300200723A20233333333333333B20666F6E748B
:103012002D73697A653A20313170783B20666F6E84
:10302200742D66616D696C793A2056657264616EC1
:10303200612C20417269616C2C2048656C76657444
:103042006963612C2073616E732D73657269663BCF
:1030520020666F6E742D7765696768743A20626FB7
:103062006C643B7D003C2F7374796C653E003C2F91
:10307200686561643E003C626F64793E003C636552
:103082006E7465723E003C68313E456D62656464F3
:1030920065642057656220536572766572202D2023
:1030A2004D6F68616D61642044616E692032303118
:1030B200343C2F68313E003C68343E506F77657275
:1030C20065642062792041726475696E6F202620E2
:1030D20057697A3535303020436869702F57697ADD
:1030E200353530696F2045746865726E6574204DA0
:1030F2006F64756C653C2F68343E003C7461626C91
:10310200652077696474683D32302520626F72648D
:1031120065723D2230223E003C74723E003C746473
:1031220020616C69676E3D6C6566742077696474B2
:10313200683D3530253E3C623E416E616C6F6720D2
:10314200492F4F20003C2F623E3C2F74643E203CAE
:10315200746420616C69676E3D72696768743E00D1
:103162003C2F74643E003C2F74723E003C2F74610D
:10317200626C653E003C6872202F3E003C74642005
:10318200616C69676E3D6C6566742077696474680A
:103192003D3530253E3C623E4469676974616C206E
:1031A200492F4F20003C2F63656E7465723E003CD0
:1031B2002F626F64793E003C2F68746D6C3E004351
:1031C2006C69656E7420697320646973636F6E6ED7
:1031D200656374656400000401000000002A043580
:1031E2000527050B05E10442045305C80506059FA2
:1031F200047B045904000000004206C7069E070033
:103202000000000908FB0805087C083E082108BFE9
:1032120009AA091B093A091609A7085908E807F07B
:10322200070108000000006B12841301123212120F
:0A323200125B12000000001C1300E4
:00000001FF
