:100000000C94F2000C941A010C941A010C941A012D
:100010000C941A010C941A010C941A010C941A01F4
:100020000C941A010C941A010C941A010C941A01E4
:100030000C941A010C941A010C941A010C941A01D4
:100040000C947F2B0C941A010C944E270C949C2733
:100050000C941A010C941A010C941A010C941A01B4
:100060000C941A010C941A010123456789ABCDEF5A
:10007000FEDCBA9876543210F0E1D2C300000000E2
:10008000240027002A0000000000250028002B0083
:1000900000000000230026002900040404040404D6
:1000A0000404020202020202030303030303010227
:1000B00004081020408001020408102001020408F6
:1000C00010200000000700020100000304060000E9
:1000D00000000000000000407A10F35A00A0724EA9
:1000E00018090010A5D4E80000E87648170000E4DD
:1000F0000B54020000CA9A3B000000E1F505000025
:1001000080969800000040420F000000A086010089
:100110000000102700000000E80300000000640059
:10012000000000000A0000000000010000000000C4
:100130002C76D888DC674F0823DFC1DFAE59E1B1E8
:10014000B796E5E3E453C63AE651997696E8E6C2F7
:100150008426EB898C9B62ED407C6FFCEFBC9C9FFE
:1001600040F2BAA56FA5F490055A2AF75C936B6C20
:10017000F9676DC11BFCE0E40D47FEF520E6B50014
:10018000D0ED902E0300943577050080841E080082
:1001900000204E0A000000C80C333333330F986E32
:1001A00012831141EF8D2114893BE65516CFFEE6EF
:1001B000DB18D1844B381BF77C1D901DA4BBE424B5
:1001C000203284725E228100C9F124ECA1E53D2732
:1001D000F407CF09340CD8112719481F4F222927BB
:1001E00008296A2911241FBECFEFD8E0DEBFCDBF9A
:1001F00013E0A0E0B1E0ECEAFBE502C005900D924F
:10020000A63DB107D9F716E0A6EDB3E001C01D92F7
:10021000A134B107E1F711E0C4EED1E004C02297A8
:10022000FE010E94992DC03DD107C9F70E94E32924
:100230000C94D42D0C940000EF92FF920F931F9317
:10024000F22FF02E47FD02C0E4E001C0E4E1242FCC
:10025000332727FD309537FF03C0309521953F4F59
:100260004F2D512F0F2FEE2E0E9419058F2D912FFC
:100270001F910F91FF90EF900895CF93DF93BC01F2
:100280008230910510F462E070E0A0913F06B091D9
:100290004006ED01E0E0F0E040E050E021C0888160
:1002A00099818617970769F48A819B81309719F0A5
:1002B0009383828304C09093400680933F06FE019F
:1002C00034C06817790738F44115510519F08417BF
:1002D000950708F4AC01FE018A819B819C01E9012C
:1002E0002097E9F641155105A9F1CA01861B970B24
:1002F000049708F4BA01E0E0F0E02AC08D919C91E7
:10030000119784179507F9F46417750781F412960D
:100310008D919C911397309719F09383828304C039
:100320009093400680933F06FD0132964CC0CA016F
:10033000861B970BFD01E80FF91F619371930297DC
:100340008D939C9340C0FD01828193819C01D901D2
:100350001097A1F680913D0690913E06892B41F4BD
:10036000809154029091550290933E0680933D06F1
:1003700040915602509157024115510541F44DB735
:100380005EB78091520290915302481B590B209105
:100390003D0630913E06CA01821B930B86179707D4
:1003A00080F0AB014E5F5F4F8417950750F0420F0E
:1003B000531F50933E0640933D06F901619371939C
:1003C00002C0E0E0F0E0CF01DF91CF910895CF933C
:1003D000DF93009709F450C0EC0122971B821A8228
:1003E000A0913F06B0914006109709F140E050E01F
:1003F000AC17BD0708F1BB83AA83FE01219131919F
:10040000E20FF31FAE17BF0779F48D919C911197FE
:10041000280F391F2E5F3F4F3983288312968D9105
:100420009C9113979B838A834115510571F4D09356
:100430004006C0933F0620C012968D919C91139761
:10044000AD01009711F0DC01D3CFFA01D383C28351
:1004500021913191E20FF31FCE17DF0769F48881F4
:100460009981280F391F2E5F3F4FFA013183208376
:100470008A819B8193838283DF91CF910895A0E04D
:10048000B0E0E5E4F2E00C94A52DEC01A880B98081
:10049000CA80DB80A114B104C104D10441F484E218
:1004A000A82E89EDB82E8BE5C82E87E0D82EC60180
:1004B000B5012DE133EF41E050E00E947C2D27EAA9
:1004C00031E440E050E00E943B2D7B018C01C601ED
:1004D000B5012DE133EF41E050E00E947C2DCA01CF
:1004E000B9012CEE34EF4FEF5FEF0E943B2D6E0D04
:1004F0007F1D801F911F97FF04C061507040804096
:100500009048688379838A839B839B01AC015F77E2
:10051000B901CA01CDB7DEB7EAE00C94C12D0E9443
:100520003F02089588E592E00E943F02089560939B
:1005300058027093590280935A0290935B02089577
:100540001F93FC0199278827BC01E8941191103270
:10055000E9F3193010F01E30C8F31B3251F01D3290
:1005600049F4689406C00E940303610F711D811D48
:10057000911D119110531A30B0F33EF4909580956F
:10058000709561957F4F8F4F9F4F1F910895FB018D
:10059000DC0102C005900D9241505040D8F70895FB
:1005A000FB01DC0104C08D910190801921F44150C0
:1005B0005040C8F7881B990B0895FB01DC0102C06D
:1005C00001900D9241505040D8F70895DC0101C0D0
:1005D0006D9341505040E0F70895FB01DC0101901C
:1005E0000D920020E1F70895FB01DC0141505040DD
:1005F00048F001900D920020C9F701C01D924150B2
:100600005040E0F70895592F482F372F262F660FB7
:10061000771F881F991F660F771F881F991F620F0A
:10062000731F841F951F660F771F881F991F0895DA
:10063000AEE0B0E0EEE1F3E00C94AB2D0D891E8945
:1006400086E08C831A8309838FEF9FE79E838D83D7
:100650009E01275E3F4FCE0101966F89788DA901DB
:100660000E943C032F813885020F131FF80110826E
:100670002E96E4E00C94C72DABE0B0E0E2E4F3E0AA
:100680000C949D2D3C012B015A01FC01178216820E
:10069000838181FD03C06FEF7FEFC6C19AE0892E91
:1006A0001E010894211C311CF3012381F20123FD5A
:1006B000859123FF81912F01882309F4B2C18532EE
:1006C00039F423FD859123FF81912F01853229F48F
:1006D00090E0B3010E946907E7CF982FFF24EE2432
:1006E0009924FFE1FF15D0F09B3269F09C3228F489
:1006F000903259F0933291F40EC09D3249F090330C
:1007000069F441E024C052E0F52A84E0F82A28C0C8
:1007100098E0F92A25C0E0E1FE2A22C0F7FC29C0B2
:10072000892F80538A3070F4F6FE05C0989C902C77
:100730001124980E15C0E89CE02C1124E80EF0E27C
:10074000FF2A0EC09E3229F4F6FC6BC140E4F42A65
:1007500007C09C3619F450E8F52A02C0983649F4CF
:10076000F20123FD959123FF91912F01992309F027
:10077000B8CF892F8554833018F08052833038F4F5
:1007800044E050E0A40EB51E5FE359830FC09336DA
:1007900031F0933779F0933509F056C020C0F50158
:1007A0008081898342E050E0A40EB51E610101E022
:1007B00010E012C0F501C080D180F6FC03C06FEFDD
:1007C0007FEF02C0692D70E042E050E0A40EB51E3C
:1007D000C6010E945E078C015FE7F52214C0F50197
:1007E000C080D180F6FC03C06FEF7FEF02C0692D9F
:1007F00070E042E050E0A40EB51EC6010E9453070F
:100800008C0150E8F52AF3FE07C01AC080E290E0A0
:10081000B3010E946907EA948E2D90E0081719072A
:10082000A8F30EC0F601F7FC8591F7FE81916F01E8
:1008300090E0B3010E946907E110EA940150104072
:100840000115110579F7EAC0943611F0993669F56A
:10085000F7FE08C0F501208131814281538184E097
:1008600090E00AC0F501808191819C01442737FD09
:100870004095542F82E090E0A80EB91E9FE6F92221
:1008800057FF09C050954095309521953F4F4F4FE8
:100890005F4FE0E8FE2ACA01B901A1012AE030E079
:1008A0000E949507D82ED21840C0953729F41F2DE5
:1008B0001F7E2AE030E01DC01F2D197F9F3661F09A
:1008C000903720F4983509F0ACC00FC0903739F05C
:1008D000983709F0A6C004C028E030E00AC01061D3
:1008E00014FD146020E130E004C014FD166020E126
:1008F00032E017FF08C0F501608171818281938128
:1009000044E050E008C0F50180819181BC0180E0A5
:1009100090E042E050E0A40EB51EA1010E949507B0
:10092000D82ED2188FE7F82EF122F6FE0BC05EEF1C
:10093000F522D91438F4F4FE07C0F2FC05C08FEE9E
:10094000F82202C01D2D01C0192DF4FE0DC0FE01BC
:10095000ED0DF11D8081803319F499EEF92208C064
:100960001F5FF2FE05C003C08F2D867809F01F5F60
:100970000F2DF3FC14C0F0FE0FC01E1510F09D2CBF
:100980000BC09D2C9E0C911A1E2D06C080E290E09B
:10099000B3010E9469071F5F1E15C0F304C01E1536
:1009A00010F4E11A01C0EE2404FF0FC080E390E0D0
:1009B000B3010E94690702FF1DC001FD03C088E763
:1009C00090E00EC088E590E00BC0802F867891F013
:1009D00001FF02C08BE201C080E2F7FC8DE290E0F3
:1009E000B3010E94690706C080E390E0B3010E9452
:1009F00069079A94D914C0F3DA94F101ED0DF11D51
:100A0000808190E0B3010E946907DD20A9F706C04C
:100A100080E290E0B3010E946907EA94EE20C1F7FA
:100A200043CEF30166817781CB012B96E2E10C94F2
:100A3000B92DA9E0B0E0EFE1F5E00C94A12D6A0139
:100A4000122FA02EBE2C2BE3201718F42CE3922E8D
:100A500002C0902E9394AE014F5F5F4F27E0092DA7
:100A60000E947B06BC018981E82EFF24C7018970A2
:100A70009070019711F4ADE209C0B1FE02C0ABE283
:100A800005C0B0FC02C0A0E001C0A0E2E3FE3BC094
:100A9000AA2311F423E001C024E0211710F020E084
:100AA00002C0121B212FEB2CB4FE02C0322F0AC051
:100AB000F601322F80E202C0819331503323E1F7F7
:100AC000C20ED11CAA2319F0F601A1936F01F60101
:100AD0003196E2FE05C09EE4D6019C9381E404C0F9
:100AE0009EE6D6019C9381E611968C939183329673
:100AF000DF01832F90E202C09D9381508823E1F7AC
:100B0000E30FF11D40C0E2FE42C0AA2311F423E02E
:100B100001C024E0211710F020E002C0121B212F99
:100B2000EB2CB4FE02C0922F0AC0F601922F80E295
:100B300002C0819391509923E1F7C20ED11CAA23E0
:100B400019F0F601A1936F01F6013196E2FE08C09B
:100B500089E4D6018C938EE411968C9386E407C0C9
:100B600089E6D6018C938EE611968C9386E6818376
:100B70003296DF01892F20E202C02D938150882315
:100B8000E1F7E90FF11D10822EEF3FEFAFC016160F
:100B900017061CF041E050E003C0AB014F5F5F4F10
:100BA000AA2019F480E090E003C08A2D90E001961D
:100BB00020E030E0AA2311F021E030E0240F351FBF
:100BC000280F391F812F90E02817390714F020E0F3
:100BD00002C0121B212F4B2D50E0CA018071907072
:100BE000B4FC0DC0B3FC0BC0F601322F40E202C0D2
:100BF000419331503323E1F7C20ED11C01C0322F93
:100C0000AA2319F0F601A1936F01892B11F0132F7C
:100C10000AC0F601132F80E302C081931150112303
:100C2000E1F7C30ED11C092D060FBA8090E1892E81
:100C3000912C8E209F20E4FE04C0F1E3BF1609F43E
:100C40000150101614F001E003C0093008F008E06C
:100C50009B0177FF02C020E030E0CB010196821BB0
:100C6000930BFE013196E80FF91F8EE2F82E3B013F
:100C7000601A71088A2D90E044275527481B590BAC
:100C80008FEF2F3F380719F4D601FD926D016217DF
:100C900073072CF06216730614F4808101C080E3A0
:100CA0002150304031962417350724F0D6018D931A
:100CB0006D01E6CF2617370749F4B5E3BB1528F0D9
:100CC000BB1621F48114910409F481E3F6018193A8
:100CD000D601812F90E202C09C9381501196882307
:100CE000D9F7E10FF11D108220E030E0C90129960B
:100CF000EEE00C94BD2D283008F027E03327DA0110
:100D0000990F311D87FD916000966105710539F4D9
:100D100032602E5F3D9330E32A95E1F708959F3FBF
:100D200030F080387105610509F03C5F3C5F3D9310
:100D3000913008F08068911DDF93CF931F930F933C
:100D4000FF92EF92192F987F9695E92F9695969599
:100D5000E90FFF27E05DFE4F99273327EE24FF249C
:100D6000A701E70105900894079428F4360FE71EC1
:100D7000F81E491F511D660F771F881F991F069483
:100D8000A1F70590079428F4E70EF81E491F561F97
:100D9000C11D770F881F991F661F0694A1F7059044
:100DA000079428F4F80E491F561FC71FD11D880F3E
:100DB000991F661F771F0694A1F70590079420F4EA
:100DC000490F561FC71FD81F990F661F771F881F0F
:100DD0000694A9F784911095177041F0D695C795A0
:100DE00057954795F794E7941A95C1F7E6EDF0E02B
:100DF00068941590159135916591959105907FE2D4
:100E00007395E118F10A430B560BC90BD009C0F7D3
:100E1000E10CF11E431F561FC91FD01D7EF4703315
:100E200011F48A95E6CFE894015030F0080F0AF4E7
:100E30000027021708F4202F2395022F7A3328F079
:100E400079E37D932A95E9F710C07D932A9589F679
:100E5000069497956795379517951794E118F10AB9
:100E6000430B560BC90BD00998F023957E917395CF
:100E70007A3308F070E37C932013B8F77E917061A9
:100E80007D9330F0839571E37D9370E32A95E1F7CC
:100E90001124EF90FF900F911F91CF91DF9199272F
:100EA00087FD90950895FC010590615070400110F8
:100EB000D8F7809590958E0F9F1F0895FC01615083
:100EC000704001900110D8F7809590958E0F9F1F6C
:100ED00008950F931F93CF93DF938C01EB018B81C8
:100EE00081FF1BC082FF0DC02E813F818C819D81BF
:100EF0002817390764F4E881F9810193F983E883BD
:100F000006C0E885F985802F0995892B31F48E81FB
:100F10009F8101969F838E8302C00FEF1FEFC80150
:100F2000DF91CF911F910F910895FA01AA272830E0
:100F300051F1203181F1E8946F936E7F6E5F7F4FA6
:100F40008F4F9F4FAF4FB1E03ED0B4E03CD0670F22
:100F5000781F891F9A1FA11D680F791F8A1F911D75
:100F6000A11D6A0F711D811D911DA11D20D009F4C5
:100F700068943F912AE0269F11243019305D319307
:100F8000DEF6CF010895462F4770405D4193B3E0F0
:100F90000FD0C9F7F6CF462F4F70405D4A3318F097
:100FA000495D31FD4052419302D0A9F7EACFB4E048
:100FB000A6959795879577956795BA95C9F7009700
:100FC0006105710508959B01AC010A2E06945795A1
:100FD000479537952795BA95C9F7620F731F841FF8
:100FE000951FA01D089508950F938EE894E060E08A
:100FF00040E020E000E00E945E2986ED93E060EC96
:1010000048EA21E00AE00E945E298CED93E060EC62
:1010100048EA21E002E00E945E2982EE93E00E940D
:10102000DD180F910895AF92BF92CF92DF92EF92A9
:10103000FF920F931F93CF93DF93BC0182EE93E057
:101040000E940618882309F476C082EE93E00E947D
:10105000ED168C017C01C0E0D0E01DC0D7011296D6
:10106000ED91FC911397648175818CE096E00E946C
:10107000692BF801808191810197C817D90734F451
:101080008CE096E060E071E00E94692B219682E09E
:1010900090E0E80EF91ED8018D919C91C817D907F0
:1010A000ECF28CE096E00E94272AF801C080D18003
:1010B000EE24FF2456010894A108B10882EE93E0C3
:1010C0000E943716009731F18C01C0E0D0E013C0C8
:1010D000D8016D917C918CE096E00E94692BCA1535
:1010E000DB0534F48CE096E062E071E00E94692B4D
:1010F00021960E5F1F4FCC15DD0554F30894E11CBB
:10110000F11C8CE096E00E94272A82EE93E00E9478
:101110004413D4CF8CE096E0B7014AE050E00E943F
:10112000562B8CE096E065E071E00E946C2B82EE1D
:1011300093E00E946113DF91CF911F910F91FF9077
:10114000EF90DF90CF90BF90AF900895EF92FF9215
:101150000F931F93DF93CF93CDB7DEB7CC55D0401D
:101160000FB6F894DEBF0FBECDBF8CE096E040E82E
:1011700055E260E070E00E94D72760E177E280E00E
:1011800090E00E94FB2B84EA94E00E944A0B892B9A
:10119000E9F48CE096E066E171E00E946C2B83ED4F
:1011A00093E09A8389838091D8039091D903A09189
:1011B000DA03B091DB038B839C83AD83BE8384EA27
:1011C00094E0BE016F5F7F4F0E94120B8CE096E0AF
:1011D0006EE371E00E94692B8E01095F1F4FC80109
:1011E00064EA74E00E94DE098CE096E0B8010E9497
:1011F000472A68EE73E080E090E00E94FB2B8CE0D1
:1012000096E064E671E00E946C2B83ED93E09E878C
:101210008D878091DE039091DF03A091E003B09170
:10122000E1038F87988BA98BBA8B82EE93E0BE0186
:10123000635F7F4F4AEE5CE02CE532E001E612E0AE
:101240000E943A18882339F068EE73E080E090E05D
:101250000E94FB2B06C08CE096E062E771E00E94E2
:101260006C2B82EE93E068E672E00E94061882EE34
:1012700093E00E940E1788E692E00E94130882EE27
:1012800093E06AE872E00E94061882EE93E00E9402
:10129000ED16EE24FF24870182EE93E00E943716BC
:1012A000FC01009739F0808191810E94A0027B01AE
:1012B0008C01F2CF82EE93E00E94611382EE93E004
:1012C0000E9444138CE096E065E871E00E94692B6F
:1012D0008CE096E0B801A7012AE030E00E94422BA2
:1012E00082EE93E064EC72E00E94061882E093E0E4
:1012F0000E94130883E1E82EF12CEC0EFD1E63E33F
:1013000073E387ED91E441E021E087010E941C0135
:1013100000D000D000D0EDB7FEB731968E01035E4D
:101320001F4FADB7BEB712961C930E93119783E271
:1013300093E093838283F582E4820E9418038DB741
:101340009EB706960FB6F8949EBF0FBE8DBF82EE75
:1013500093E0B8010E94061884E593E00E94130808
:10136000C45ADF4F0FB6F894DEBF0FBECDBFCF918A
:10137000DF911F910F91FF90EF900895DB01FC0129
:1013800023ED33E03183208312962D913D914D91D1
:101390005C911597228333834483558308950F937B
:1013A0008CEA94E060E040E020E000E00E945E29EA
:1013B00084EA94E00E94D9290F910895EF92FF9258
:1013C0000F931F93182F092FE82EF92EC7010E94A3
:1013D000D92982E090E0E80EF91E8FE090E060E00D
:1013E000A70124E030E00E94F310812F902F1F917D
:1013F0000F91FF90EF900895AB018FE090E064E0D3
:1014000024E030E00E9407100895AB0181E090E0F5
:1014100064E024E030E00E9407100895AB0185E00D
:1014200090E064E024E030E00E94071008956F929D
:101430007F928F929F92AF92BF92CF92DF92EF9264
:10144000FF920F931F933C017B014A0159018AEBE4
:10145000C82E84E0D82EC6010E94831182E090E05D
:10146000E80EF91EC601B7010E94FC09E2E0F0E0B7
:10147000AE0EBF1EC601B5010E94050A0E5F1F4FCA
:10148000C601B8010E940E0AF40182819381A481F1
:10149000B581F30182839383A483B5831F910F9158
:1014A000FF90EF90DF90CF90BF90AF909F908F9084
:1014B0007F906F9008958F929F92AF92BF92CF923C
:1014C000DF92EF92FF920F931F93DF93CF93CDB7ED
:1014D000DEB76E970FB6F894DEBF0FBECDBF4C01DE
:1014E0007B016A015901CE0101966FEF4FEF2FEF9B
:1014F00000E00E945E2923ED33E038872F83F70157
:1015000082819381A481B58189879A87AB87BC87C3
:101510003E872D87F60182819381A481B5818F87D3
:10152000988BA98BBA8B3C8B2B8BF5018281938195
:10153000A481B5818D8B9E8BAF8BB88F3A8F298F0D
:101540008B819C81AD81BE818B8F9C8FAD8FBE8F37
:10155000C401BE01695F7F4FAE01435F5F4F9E01D3
:101560002D5E3F4F8E01075E1F4F0E94170A6E9639
:101570000FB6F894DEBF0FBECDBFCF91DF911F91A4
:101580000F91FF90EF90DF90CF90BF90AF909F9022
:101590008F900895DF93CF93CDB7DEB768970FB6DE
:1015A000F894DEBF0FBECDBFFB01DA01228133818B
:1015B000448155812B833C834D835E8363ED73E0CF
:1015C00078876F8329873A874B875C877E876D870B
:1015D00012962D913D914D915C9115972F87388BE7
:1015E000498B5A8B7C8B6B8B21E02E832B813C812A
:1015F0004D815E812D8B3E8B4F8B588FBE01695F75
:101600007F4FAE01435F5F4F9E012D5E3F4F0E94B3
:101610005B0A68960FB6F894DEBF0FBECDBFCF91C0
:10162000DF910895DF93CF93CDB7DEB762970FB602
:10163000F894DEBF0FBECDBFFB0122813381448110
:1016400055812B833C834D835E8363ED73E0788704
:101650006F8329873A874B875C877E876D8721E078
:101660002E832B813C814D815E812F87388B498B66
:101670005A8BBE01695F7F4FAE01435F5F4F0E948F
:10168000CA0A62960FB6F894DEBF0FBECDBFCF91E7
:10169000DF910895CF92DF92EF92FF920F931F9305
:1016A000DF93CF93CDB7DEB7A4970FB6F894DEBF24
:1016B0000FBECDBF6C017E010894E11CF11C86E0D9
:1016C000F70111928A95E9F782E690E00E94F229EB
:1016D0008C01895B9F4F0E94250DF60117830683BD
:1016E0008AEB94E00E948311CE01079660E040E00F
:1016F00020E000E00E945E298AEB94E0BE01675F73
:101700007F4F0E94FC0989E090E060E0A70126E09D
:1017100030E00E94F310F60186819781B70120E640
:101720003AEE40E050E0F0EAEF2EFFE0FF2E012D10
:10173000112D0E94A61E8C0181309105D1F5F60174
:1017400066817781CE010D960E9453198AEB94E051
:10175000BE01615F7F4F0E94FC09F60166817781BF
:10176000CE0143960E943D198AEB94E0BE016B5E68
:101770007F4F0E94050AF60166817781CE01499666
:101780000E9448198AEB94E0BE01655E7F4F0E947B
:101790000E0AF60166817781CE014F960E943219BA
:1017A00089A19AA1ABA1BCA1F60182839383A483F2
:1017B000B583C801A4960FB6F894DEBF0FBECDBFA7
:1017C000CF91DF911F910F91FF90EF90DF90CF901D
:1017D0000895DC01ED91FC91008CF18DE02D0995CF
:1017E0000895DB01FC0123ED33E031832083519622
:1017F0002D913D914D915C91549722833383448385
:1018000055830895FC01858996890895FC01818D91
:10181000928D0895DF93CF930F92CDB7DEB7FC0181
:101820006983A081B18112962D913C911397BE01DD
:101830006F5F7F4F41E050E0F90109950F90CF9124
:10184000DF910895CF93DF93EC0107C0E881F98120
:101850000680F781E02DCE010995898D9A8D892B1F
:10186000A9F7DF91CF9108950F9382EB94E060E0A8
:1018700040E020E000E00E945E290F910895DF9390
:10188000CF930F92CDB7DEB7FC01818D928D892B5E
:1018900019F42FEF3FEF09C08485BE016F5F7F4FC2
:1018A0000E94A00F8981282F30E0C9010F90CF91AD
:1018B000DF910895CF93DF93EC019A01498D5A8D02
:1018C00041155105A1F02417350710F08C8502C091
:1018D0008C85A9010E94AF0F9C01181619063CF4D3
:1018E000898D9A8D821B930B9A8F898F02C02FEF5F
:1018F0003FEFC901DF91CF9108950F931F93DF93BD
:10190000CF930F92CDB7DEB78C01FC01818D928D04
:10191000892BA9F08485BE016F5F7F4F41E050E0C5
:101920000E94AF0F1816190654F4F801818D928D9C
:101930000197928F818F8981282F30E002C02FEF8D
:101940003FEFC9010F90CF91DF911F910F91089543
:10195000EF92FF920F931F93DF93CF93CDB7DEB734
:1019600028970FB6F894DEBF0FBECDBF8C01DC0107
:10197000ED91FC910284F385E02D09958AEB94E0CA
:10198000F80164850E94A510892B19F420E030E04D
:1019900025C0D8011C968C917E010894E11CF11C95
:1019A000B70148E050E00E94AF0F9C0118161906DD
:1019B000ACF4C8010F96B7010E94BB299D8180E05D
:1019C0002E81820F911DF801968B858B9F8180E07F
:1019D0002885820F911D928F818F9C01C9012896C5
:1019E0000FB6F894DEBF0FBECDBFCF91DF911F9130
:1019F0000F91FF90EF9008950F931F938C01FB01BF
:101A00009A01DC0157966D917C9158971C968C91A8
:101A1000AF010E94190F9C01F8018789908D820FF8
:101A2000931F908F878BC9011F910F910895FC011F
:101A300084850E94160E0895FC01108E178A6E5F31
:101A40007F4F84850E94BD0E0895FC01138212828F
:101A500088EE93E0A0E0B0E084839583A683B7830B
:101A600089E793E09183808388E08487CF010F9694
:101A70000E94D92908956F927F928F929F92AF9280
:101A8000BF92CF92DF92EF92FF920F931F93DF935B
:101A9000CF93CDB7DEB7E5970FB6F894DEBF0FBE94
:101AA000CDBF4C015B013A0183E1E82EF12CEC0E35
:101AB000FD1EC7010E94D929CE014B960E94250D1B
:101AC0006E010894C11CD11CC6010E94D9298E0147
:101AD000095F1F4FC80164EA74E00E94BE09C70194
:101AE000B8010E94F11EC701B501A6010E94702134
:101AF0009C0181309105C9F4D401ED91FC910088DD
:101B0000F189E02D83ED93E09E878D878B819C8109
:101B1000AD81BE818F87988BA98BBA8BC401BE0122
:101B2000635F7F4FA30109959C01C901E5960FB63C
:101B3000F894DEBF0FBECDBFCF91DF911F910F9103
:101B4000FF90EF90DF90CF90BF90AF909F908F90DD
:101B50007F906F900895CF93DF93EC018C85883050
:101B600061F00E94420EEC85F0E0EE0FFF1FEC5694
:101B7000FB4F1182108288E08C87DF91CF9108950E
:101B8000EF92FF920F931F93CF93DF938C017B0112
:101B9000FC018485883031F5C0E0D0E0CE0182952B
:101BA000880F807E682F685F83E090E00E942B1092
:101BB000882311F0883119F4F801C48704C02196F4
:101BC000C830D10559F7F8018485883059F0F68678
:101BD000E586128E118E62E0A70120E00E94770E4A
:101BE00081E001C080E0DF91CF911F910F91FF90C4
:101BF000EF900895682F8AEB94E048E050E00E944F
:101C0000701108959B01682F6295660F607E685F72
:101C1000C9010E942B1008959B01682F6295660FE1
:101C2000607E645FC9010E94EF0F08951F93182F13
:101C30008AEB94E0612F40E250E00E94701110C0E6
:101C4000812F62E070E00E94020E83FF09C0812FA5
:101C500062E070E048E10E940C0E20E030E00FC02E
:101C6000812F62E070E00E94020E84FFE9CF812F95
:101C700062E070E040E10E940C0E21E030E0C9011A
:101C80001F9108951F93182F8AEB94E0612F40E174
:101C900050E00E947011812F62E070E04FEF0E94CF
:101CA0000C0E1F9108950F931F93182F062F472F87
:101CB00060E170E00E940C0E812F61E170E0402F26
:101CC0000E940C0E1F910F9108950F931F93182FD0
:101CD000062F472F64E070E00E940C0E812F65E014
:101CE00070E0402F0E940C0E1F910F910895FF92FB
:101CF0000F931F93CF93DF93082FF62EEA01122F35
:101D0000862F8150853010F080E024C0802F0E9403
:101D1000420E1F29802F60E070E0412F0E940C0EC0
:101D2000209719F0802FBE010BC06091B80470910C
:101D3000B9046F5F7F4F7093B9046093B804802F2C
:101D40000E94650E8AEB94E0602F41E050E00E9413
:101D5000701181E0DF91CF911F910F91FF90089555
:101D6000AB01682F6295660F607E645F8CE090E047
:101D700024E030E00E94071008951F93CF93DF9373
:101D8000182FFB01EA018081882349F4818188238F
:101D900031F48281882319F48381882369F02097A4
:101DA00059F0812FBF010E94B00E812FBE010E9409
:101DB000530E21E030E002C020E030E0C901DF91A5
:101DC000CF911F9108951F93CF93DF93182FFB019D
:101DD000EA0180818F3F51F481818F3F91F48281AC
:101DE0008F3F79F483818F3F61F41EC0882349F4CB
:101DF0008181882331F48281882319F483818823A7
:101E000099F0209789F0812FBF010E94B00E812F99
:101E1000BE010E94530E8AEB94E0612F44E050E033
:101E20000E94701181E001C080E0DF91CF911F918D
:101E30000895AF92BF92DF92EF92FF920F931F939C
:101E4000CF93DF93D82EEB015A0189018AEB94E0FE
:101E50006D2D0E94D7108017910710F0780106C0F1
:101E60008AEB94E06D2D0E94D7107C018AEB94E000
:101E70006D2DAE01950187010E944210C701DF91CF
:101E8000CF911F910F91FF90EF90DF90BF90AF9097
:101E90000895CF92DF92EF92FF921F93CF93DF933B
:101EA000182F6B01EA0188E04130580710F0C0E0BC
:101EB000D8E08AEB94E0612F0E94D7107C01812F3B
:101EC00063E070E00E94020E873129F08C3119F036
:101ED000C0E0D0E003C0EC16FD0658F38AEB94E0B6
:101EE000612FA6019E010E9483108AEB94E0612F6E
:101EF00040E250E00E9470110DC0812F63E070E05D
:101F00000E94020E882331F4812F0E94420EC0E00D
:101F1000D0E00DC0812F62E070E00E94020E84FFCD
:101F2000ECCF812F62E070E040E10E940C0ECE0108
:101F3000DF91CF911F91FF90EF90DF90CF900895A8
:101F40000F93282FAB018AEB94E0622F21E030E061
:101F500001E00E94251181E090E00F910895CF9259
:101F6000DF92FF920F931F93CF93DF93F82E6B01B5
:101F70008A018AEB94E06F2D0E94A510EC01009776
:101F800061F48F2D63E070E00E94020E8431D9F07D
:101F90008823C9F08C31B9F01FC0081719070CF459
:101FA000E8011C161D067CF48AEB94E06F2DA60157
:101FB0009E0100E00E9425118AEB94E06F2D40E421
:101FC00050E00E947011CE01DF91CF911F910F91CF
:101FD000FF90DF90CF900895CFEFDFEFF4CF2A98F6
:101FE0009EBD0DB407FEFDCF9EB58EBD0DB407FEA0
:101FF000FDCF8EB56EBD0DB407FEFDCF8EB54EBDC7
:102000000DB407FEFDCF8EB52A9A81E008952A9877
:102010009EBD0DB407FEFDCF9EB58EBD0DB407FE6F
:10202000FDCF8EB56EBD0DB407FEFDCF8EB560E061
:1020300070E00BC0FA01E60FF71F80818EBD0DB472
:1020400007FEFDCF8EB56F5F7F4F6217730790F36A
:102050002A9AC90108952A989EBD0DB407FEFDCFA6
:102060009EB58EBD0DB407FEFDCF8EB56EBD0DB411
:1020700007FEFDCF8EB51EBC0DB407FEFDCF8EB59D
:102080002A9A0895AF92BF92CF92DF92EF92FF9279
:102090000F931F93C62E7A015901862F64E270E0D8
:1020A0000E94020ED82E8C2D65E270E00E94020E76
:1020B000C294CC0C90EEC922E80EF11C9D2D80E05C
:1020C000E80EF91E84E1C80EC7016C2DA501980128
:1020D0000E940710E00EF11E1C2D185084E290E0C3
:1020E000612F4F2D0E94EF0F85E290E0612F4E2D62
:1020F0000E94EF0F1F910F91FF90EF90DF90CF9014
:10210000BF90AF9008950F931F93FA01890140E0AB
:1021100050E09F010E9442101F910F910895FF927D
:102120000F931F93F82E66E270E00E94020E182FA4
:1021300000E08F2D67E270E00E94020E080F111D73
:10214000C8011F910F91FF900895FF920F931F9365
:10215000CF93DF93F62EC0E0D0E08F2D0E948F103A
:102160008C01009721F08F2D0E948F10EC01C01779
:10217000D10799F7CE01DF91CF911F910F91FF9079
:102180000895FF920F931F93F82E60E270E00E9473
:10219000020E182F00E08F2D61E270E00E94020E07
:1021A000080F111DC8011F910F91FF900895FF9214
:1021B0000F931F93CF93DF93F62EC0E0D0E08F2DC7
:1021C0000E94C1108C01009721F08F2D0E94C11038
:1021D000EC01C017D10799F7CE01DF91CF911F9184
:1021E0000F91FF9008952A989EBD0DB407FEFDCF74
:1021F0009EB58EBD0DB407FEFDCF8EB56EBD0DB480
:1022000007FEFDCF8EB560E070E00BC01EBC0DB4C4
:1022100007FEFDCF8EB5FA01E60FF71F80836F5FD3
:102220007F4F6217730790F32A9AC90108950F939D
:102230001F93CA016295660F607E685EA9019801CE
:102240000E94F3101F910F9108958F929F92AF9269
:10225000BF92CF92DF92EF92FF920F931F93CF9393
:10226000DF937C01A62E6A014901B02E862F68E219
:1022700070E00E94020E182F8A2D69E270E00E9421
:10228000020E312F20E0E901C80FD11DC7016A2DD0
:10229000AE01960184010E941711BB20A1F47E01BA
:1022A000E80CF91C1A2D1295110F107E145F88E2AC
:1022B00090E0612F4F2D0E94EF0F89E290E0612F97
:1022C0004E2D0E94EF0FDF91CF911F910F91FF9044
:1022D000EF90DF90CF90BF90AF909F908F90089538
:1022E0001F93162F6295660F607E645F81E090E019
:1022F0000E94EF0F812F61E070E00E94020E8823A0
:10230000C9F71F9108950F931F93229A6CE271E011
:1023100080E090E00E94FB2B0E94FD1800E0102F4F
:102320001295110F107E145F8EE190E0612F42E054
:102330000E94EF0F8FE190E0612F42E00E94EF0FCB
:102340000F5F083061F71F910F910895DC01413054
:10235000510541F4ED91FC91E60FF71F8081282F84
:1023600030E024C041505040BA0183E0660F771F2F
:102370008A95E1F74F5F5F4F20E030E014C0ED91A8
:10238000FC911197E40FF51F3197808190E0062EA4
:1023900002C0880F991F0A94E2F7280F311D685078
:1023A000704041505040141615064CF3C901089571
:1023B0000F938BEB94E060E040E020E000E00E94AF
:1023C0005E290F9108950F931F93CF93DF938C0194
:1023D0008CE096E060E971E00E94692BC80165E03D
:1023E00070E042E050E00E94A611BC018CE096E053
:1023F0004AE050E00E94562B8CE096E068E971E0DC
:102400000E94692BC0E0D0E00BC0D801ED91FC9197
:10241000EC0FFD1F8CE096E065850E941F2A219637
:10242000F801808D918D0997C817D90774F38CE056
:1024300096E06CE971E00E946C2BDF91CF911F91C7
:102440000F910895CF92DF92EF92FF920F931F9317
:10245000CF93DF93EB0169017A01A801CB0160E022
:1024600070E00E94E6028FEFC816D104E104F10487
:1024700014F4C88218C08FEFC8168FEFD80680E01A
:10248000E80680E0F8061CF4C88219820CC08FEFC1
:10249000C8168FEFD8068FEFE80680E0F8061CF428
:1024A000C88219821A82DF91CF911F910F91FF90FC
:1024B000EF90DF90CF9008957F928F929F92AF928E
:1024C000BF92CF92DF92EF92FF920F931F935C0126
:1024D0006B01FB016081718141E050E00E94A61117
:1024E0007C014C010894811C911CC4010E943D0197
:1024F000792E082F192FF601808191810196F5011F
:1025000060817181680F791FC801A7010E94F402E0
:10251000E00EF11EF7011082F60180819181880D95
:10252000991D91838083802F972D1F910F91FF908C
:10253000EF90DF90CF90BF90AF909F908F907F9063
:102540000895EF92FF920F931F93CF93DF93EC01C7
:10255000E881F98195E0E92EF12C0894E11CF11C49
:10256000858131968823C9F7870105501040C8013D
:102570000E943D018A839B83688179816B5F7F4FD5
:10258000A8010E94F40297012C5F3F4FAE01DE01CB
:10259000BE01685F7F4FE881F981E20FF31F808100
:1025A00014968C9314972F5F3F4F1196A617B70779
:1025B00091F79701215E3F4FBE01645F7F4FE88135
:1025C000F981E20FF31F8081FA0184872F5F3F4F6B
:1025D0004F5F5F4F4617570791F7DF91CF911F91DC
:1025E0000F91FF90EF900895EF92FF920F931F933A
:1025F000CF93DF93EC018B01E881F9818481E82E90
:10260000FF24E114F104B9F5CE0165E070E040E08B
:1026100050E00E94A611F80191838083CE0166E00C
:1026200070E040E050E00E94A611F801938382839D
:10263000CE0167E070E042E050E00E94A611F80190
:1026400095838483CE0169E070E042E050E00E940F
:10265000A611F80197838683A801485F5F4FE88D34
:10266000F98D379728813981255F3F4FCA01B9011C
:10267000AF010E94DD028E2D90E0DF91CF911F917E
:102680000F91FF90EF9008950F931F93CF93DF93D7
:102690008C01015A1F4FC0E0D0E0F8018081918188
:1026A000009711F00E94E701F801119211928F0139
:1026B0002196C032D10589F7DF91CF911F910F91FB
:1026C0000895EF92FF920F931F93CF93DF938C01A6
:1026D000EC01EE24FF24EC8DFD8D3097A1F080817C
:1026E00091810E94E701EC8DFD8D828193810E9492
:1026F000E701EC8DFD8D848195810E94E7018C8D31
:102700009D8D0E94E7011D8E1C8E0894E11CF11C1A
:10271000229680E2E816F104F1F6035A1F4FF80101
:10272000118210821292DF91CF911F910F91FF9031
:10273000EF900895CF92DF92EF92FF920F931F9345
:10274000DF93CF93CDB7DEB7C456D0400FB6F89421
:10275000DEBF0FBECDBF7C018B016A01FB01808112
:10276000882309F476C083ED94E00E94342783ED3A
:1027700094E0B8010E94692B83ED94E00E94E12669
:10278000DE011196FC0184E101900D928150E1F788
:1027900083ED94E00E94342783ED94E0BE016F5FE7
:1027A0007F4F44E150E00E944A2683ED94E00E946E
:1027B000E126DE015596FC0184E101900D928150E5
:1027C000E1F783ED94E00E943427DE01DD96F70106
:1027D000349684E101900D928150E1F7DE01AF5A09
:1027E000BF4FFE01759684E101900D928150E1F793
:1027F00083ED94E0BE01635C7F4F48E250E00E94AD
:102800004A2683ED94E00E94E126DE019996FC01C0
:1028100084E101900D928150E1F740E050E08E019B
:10282000075D1F4FBE016F5F7F4F9601240F351F5D
:10283000F801E40FF51FDB01A40FB51F80819C9107
:102840008927F90180834F5F5F4F4431510569F754
:1028500081E0CC59DF4F0FB6F894DEBF0FBECDBF7D
:10286000CF91DF911F910F91FF90EF90DF90CF906C
:1028700008958F929F92AF92BF92CF92DF92EF9284
:10288000FF920F931F93CF93DF93EC01162F072F27
:102890004A0188819981009711F00E94E70180E048
:1028A00091E00E943D01FC019983888385E884833F
:1028B000E881F98186EA8583E881F98183E086836E
:1028C000E881F9811782E881F9811086E881F98130
:1028D0001186E881F9811286E881F98181E0838798
:1028E000E881F98188E084878DE090E0E881F981D2
:1028F000E80FF91F1082019685329105B9F7E12F93
:10290000F02FDF010D900020E9F71197AE1BBF0BF0
:10291000288139812C5D3F4FC901612F702FAD0196
:102920000E94DD02E12FF02FDF010D900020E9F77A
:102930007D010894E108F108EE1AFF0A87010B5D9A
:102940001F4FE881F981E00FF11F3197108284E178
:1029500090E00E943D01C92ED82EA82ECE01B401D0
:102960004D2D5C2D0E949A13882309F1E881F9818D
:10297000E00FF11F84E1808397012A5D3F4F8D2D89
:102980009C2DDC01AD014C5E5F4FE881F981E20FC7
:10299000F31F8D9180832F5F3F4FA417B507A9F7D1
:1029A0000B5E1F4FE881F981E00FF11F10828A2D25
:1029B0009C2D0E94E701E881F981E00FF11F108250
:1029C000C8010196E881F981E80FF91F11826C01B5
:1029D0000894C11CD11C6881798102501040980173
:1029E000442737FD4095542FCE0103E010E00E94AC
:1029F0002212E881F98181E083832FE9E22EF12C14
:102A0000EC0EFD1E00E010E00AC0E881F981E00F45
:102A1000F11FC70160810E9418220F5F1F4F0C1524
:102A20001D059CF3DF91CF911F910F91FF90EF90C7
:102A3000DF90CF90BF90AF909F908F9008950F93AD
:102A40001F93CF93DF938C0101561F4FC0E0D0E05E
:102A500062E370E080E090E00E94FB2BC8010E94DE
:102A600015239C018830910524F42196CA30D105A4
:102A700079F7C901DF91CF911F910F910895AF921E
:102A8000BF92CF92DF92EF92FF920F931F93DF934B
:102A9000CF9300D000D0CDB7DEB76C01DC018D91B3
:102AA0009C910E94E701C6010E941F154FE9A42EC8
:102AB000B12CAC0CBD1CC5010E94F922082F8983E2
:102AC000C5010E94F922182F8A83C5010E94F922AC
:102AD0008B83C5010E94F9228C83912F80E0800FA7
:102AE000911DF601918F808FC6010E941F159C01D8
:102AF000D60158968D919C91599728173907A4F3C0
:102B000004960E943D01F6018083918320E030E02D
:102B1000AE014F5F5F4FD601ED91FC91E20FF31FC5
:102B2000DA01A20FB31F8C9180832F5F3F4F2430B7
:102B3000310589F734E0E32EF12C0DC0F601008158
:102B400011810E0D1F1DC5010E94F922D8018C9321
:102B50000894E11CF11CF601808D918D03968E1571
:102B60009F0564F70F900F900F900F90CF91DF911A
:102B70001F910F91FF90EF90DF90CF90BF90AF909B
:102B800008950F931F938C010E943F15D801ED917A
:102B9000FC9184818E3F19F42EEF30E002C020E0DA
:102BA00030E0C9011F910F9108958F929F92AF92CB
:102BB000BF92CF92DF92EF92FF920F931F93DF931A
:102BC000CF9300D0CDB7DEB78C011A821982045A98
:102BD0001F4FF80180810C551040882339F48CE098
:102BE00096E06AEC71E00E946C2B31C0C8010E9433
:102BF0004413C8010E94C1158E3F910511F48EEF58
:102C000027C084E090E09A8389836FE5C62ED12C9B
:102C1000C00ED11EEE24FF245DE5A52EB12CA00E22
:102C2000B11E4E010894811C911C0BC0C801B40157
:102C30000E945C12F601819391936F010894E11C4C
:102C4000F11CF50180819181E816F9067CF381E0A1
:102C50000F900F90CF91DF911F910F91FF90EF9008
:102C6000DF90CF90BF90AF909F908F900895CF93BB
:102C7000DF93EC010E94D5158E3F19F420E030E07F
:102C800003C09E01215A3F4FC901DF91CF910895A2
:102C9000CF92DF92EF92FF920F931F93DF93CF9328
:102CA00000D0CDB7DEB77C016B010E943F15D70184
:102CB000ED91FC9184818E3F19F42EEF30E035C008
:102CC000C70164E070E041E050E00E94A611059663
:102CD0009A838983C7018E010F5F1F4FB8010E943D
:102CE0005C12F60191838083C701B8010E945C12D7
:102CF000D60113969C938E93129769817A81C701AE
:102D000041E050E00E94A61129813A812F5F3F4F98
:102D1000280F391F3A832983C701B8010E945C122A
:102D2000F6019583848320E030E0C9010F900F9075
:102D3000CF91DF911F910F91FF90EF90DF90CF9097
:102D40000895AF92BF92CF92DF92EF92FF920F93CE
:102D50001F93CF93DF93EC01E881F9818481C82E22
:102D6000DD24DB8ECA8EC35ADF4FD982C882CD558F
:102D7000D0408E01EE24FF241EC086E090E00E9429
:102D80003D01B82EA92ECE016B2D7A2D0E9448163A
:102D90000E5F1F4F8E3F910541F48CE096E062EF8D
:102DA00071E00E946C2B80E00DC0F801B28EA38E02
:102DB0000894E11CF11CEC14FD04FCF2CE010E940D
:102DC0003F1581E0DF91CF911F910F91FF90EF9020
:102DD000DF90CF90BF90AF900895CF93DF93EC0139
:102DE0000E946113CE010E944413C35ADF4F19821F
:102DF0001882CD55D040CE010E94A116882319F427
:102E000020E030E007C0C45ADF4F81E088839E0194
:102E100022543040C901DF91CF910895AF92BF9203
:102E2000CF92DF92EF92FF920F931F93CF93DF9396
:102E30008C010E94ED16892B09F479C07801C0E05D
:102E4000D0E01CC0D7015C96ED91FC915D97648148
:102E500075818CE096E00E94692BF801828D938D3C
:102E60000197C817D9072CF48CE096E06CE20E9419
:102E70001F2A219682E090E0E80EF91ED8015A96AA
:102E80008D919C915B97C817D907E4F28CE096E08E
:102E90000E94272ACC24DD247FE5A72EB12CA00E8A
:102EA000B11E30C07501C0E0D0E01AC0F7016081EA
:102EB00071818CE096E00E94692BD8015A968D9121
:102EC0009C915B970197C817D9072CF48CE096E08A
:102ED0006CE20E941F2A2196E2E0F0E0EE0EFF1E57
:102EE000D8015A968D919C915B97C817D907F4F237
:102EF0000894C11CD11CC8010E9444138CE096E0C8
:102F00000E94272AC8010E943716892B59F68CE0A7
:102F100096E0B6014AE050E00E94562B8CE096E025
:102F20006DE172E00E946C2BC8010E946113DF9179
:102F3000CF911F910F91FF90EF90DF90CF90BF90B6
:102F4000AF900895CF92DF92EF92FF920F931F936D
:102F5000CF93DF93EC017B01688179810894E11CB8
:102F6000F11C9701442737FD4095542F03E010E0F2
:102F70000E942212E881F9811382E881F98183E0BD
:102F80008483EFE9CE2ED12CCC0EDD1E00E010E0C4
:102F900083E090E0E80EF91E0AC0E881F981E00FB5
:102FA000F11FC60160810E9418220F5F1F4FE016BB
:102FB000F1069CF7CE010E943F1588E490E00E9444
:102FC0003D01182F092FCE01612F702F0E94F4129E
:102FD0007C01812F902F0E94E7019FEFE916F104F9
:102FE00021F4CE010E94E31102C0EF2811F480E029
:102FF00004C0C45ADF4F188281E0DF91CF911F9146
:103000000F91FF90EF90DF90CF900895EF92FF9295
:103010000F931F93CF93DF938C01F62EE72EE62FAD
:10302000F72FEF0109900020E9F72197CE1BDF0B66
:10303000FC0180819181009711F00E94E701CE018F
:1030400005960E943D019C01F801918380832B5FCE
:103050003F4FC9016F2D7E2DAE010E94DD02C801D8
:10306000BE010E94A217DF91CF911F910F91FF9097
:10307000EF9008952F923F924F925F926F927F92BE
:103080008F929F92AF92BF92CF92DF92EF92FF9278
:103090000F931F93DF93CF9300D000D000D0CDB714
:1030A000DEB77C014B015A0139012801FFE9CF2E1F
:1030B000D12CC80ED91E0FEF1FEF1E010894211C42
:1030C000311C68EE73E080E090E00E94FB2B83ED02
:1030D00093E09A838983F40182819381A481B581ED
:1030E0008B839C83AD83BE83C601B101A5010E9481
:1030F00041230F5F1F4F0330110519F0892B09F38E
:1031000002C0892B11F1C7010E943F15C7010E941F
:10311000A112C701B301A2010E943914C7010E9484
:103120003F1588E490E00E943D01182F092FC70148
:10313000612F702F0E94F412892B49F0812F902F5C
:103140000E94E701C7010E94E31180E01DC0812FAA
:10315000902F0E94E7018CE096E06EE272E00E9400
:10316000692BF701628173818CE096E00E94692BE4
:103170008CE096E06CE971E00E946C2BF701828193
:1031800093810E94E70181E026960FB6F894DEBF96
:103190000FBECDBFCF91DF911F910F91FF90EF90A8
:1031A000DF90CF90BF90AF909F908F907F906F9067
:1031B0005F904F903F902F900895CF93DF93EC0155
:1031C00081569F4F0E940622198218821B8E1A8EEA
:1031D000FE0180E090E0158E148EE15AFF4F1182BF
:1031E00010820196ED55F04080329105A1F7C45A46
:1031F000DF4F1882DF91CF9108958AE061E00E944D
:10320000C82C8AE061E00E945C2C8CB580618CBD8A
:103210008CB580648CBD8DE061E00E945C2C8BE0FD
:1032200061E00E945C2C0895FB0180E38083842F81
:1032300082958F704F704A3014F4405D01C0495C34
:1032400041833197882311F0482FF1CF08950F93D0
:1032500081EC94E060E040E020E000E00E945E2924
:103260000F9108950F931F938C01625E7F4F0E9410
:10327000C829C8011F910F9108950F931F938C01C6
:103280006A5E7F4F0E94C829C8011F910F9108955F
:103290000F931F938C016E5E7F4F0E94C829C80157
:1032A0001F910F9108950F931F938C01625F7F4FC1
:1032B0000E94C829C8011F910F9108952F923F9233
:1032C0004F925F926F927F928F929F92AF92BF9236
:1032D000CF92DF92EF92FF920F931F93DF93CF93E2
:1032E000CDB7DEB7E8970FB6F894DEBF0FBECDBFFF
:1032F0005C013A014B0129010E94C72B7B018C0123
:10330000F7E4CF2ED12CCA0CDB1C14C00E94C72BB3
:103310006E197F09800B910B661677068806990651
:1033200018F477247A941AC262E370E080E090E0A7
:103330000E94FB2BC6010E94A80C1816190634F730
:10334000C601BE01635F7F4F42E250E00E945A0C0B
:103350008D85823009F0FEC12CE530E0A20EB31E4F
:10336000F5018081918124EA3FEFA20EB31E8334E0
:10337000910509F0EFC129893A894B895C89E52ECD
:10338000FF2400271127B22FAA2799278827E82A88
:10339000F92A0A2B1B2BB42FA32F922F882780707A
:1033A0009070B070E82AF92A0A2B1B2B232F342F98
:1033B000452F5527207040705070E22AF32A042BC5
:1033C000152BF201E082F18202831383B501685F5D
:1033D0007F4FCE01899646E050E00E94D0020097D0
:1033E00099F4F50180819181A281B381E816F906F3
:1033F0000A071B0748F084819581A681B7818E1545
:103400009F05A007B10728F4C6010E94220C77246B
:10341000A5C18D8D9E8DAF8DB8A1F501868797874B
:10342000A08BB18B00E010E0C6010E947D0C0F5F05
:103430001F4F0E3C1105C1F795012E5E3F4F38AF6F
:103440002FABC50146969EAB8DABF5017E96FCABCE
:10345000EBAB8AE1882E912C8A0C9B1C95012A5D8E
:103460003F4F3AAB29ABC5018A9698AB8FA702E2D2
:10347000202E312C2A0C3B1C772418E5412E512C90
:103480004A0C5B1C5FC1C6010E947D0C8333910511
:1034900009F414C1843391058CF48130910569F1EC
:1034A0008230910524F4892B09F44CC140C183304A
:1034B000910551F1069709F03AC142C08A3391054E
:1034C00009F490C08B3391053CF48533910569F084
:1034D000C69709F02CC150C08B33910509F4B8C0D0
:1034E0008F3F910509F023C12DC1C6010E947D0CBB
:1034F000C6010E947D0C782E25C1C6010E947D0C5C
:10350000C6016FA978AD62C0C6010E947D0C182F5C
:10351000C6016DA97EA944E050E00E945A0CEE2439
:10352000FF24012F10E00450104006C0C6010E9485
:103530007D0C0894E11CF11CE016F106BCF302C1FD
:10354000C6010E947D0C182FC6016BA97CA944E01E
:1035500050E00E945A0CEE24FF24012F10E004508A
:10356000104006C0C6010E947D0C0894E11CF11CAD
:10357000E016F106BCF3E6C0C6010E947D0C182FD0
:10358000F40180819181A281B3810097A105B105E9
:10359000D9F0CE010196B4010E94C82923ED33E091
:1035A00038872F83F201208131814281538129871D
:1035B0003A874B875C878B819C81AD81BE81821766
:1035C0009307A407B50759F4C601B40144E050E0DD
:1035D0000E945A0CB7C0C6010E947D0C11501123E5
:1035E000D1F7B0C0C6010E947D0CC60169A97AA9B5
:1035F00044E050E00E945A0CF50126A137A140A5F5
:1036000051A5E52EFF2400271127B22FAA279927BD
:103610008827E82AF92A0A2B1B2BB42FA32F922FD5
:10362000882780709070B070E82AF92A0A2B1B2B2B
:10363000232F342F452F5527207040705070E22AD9
:10364000F32A042B152BE6A2F7A200A711A77AC034
:10365000C6010E947D0CC6016FA578A944E050E028
:103660000E945A0CF50122A533A544A555A5E52EC7
:10367000FF2400271127B22FAA2799278827E82A95
:10368000F92A0A2B1B2BB42FA32F922F8827807087
:103690009070B070E82AF92A0A2B1B2B232F342FA5
:1036A000452F5527207040705070E22AF32A042BD2
:1036B000152BE2A6F3A604A715A744C0C6010E94D5
:1036C0007D0CC601B10144E050E00E945A0CF501A6
:1036D00022A133A144A155A1E52EFF2400271127E3
:1036E000B22FAA2799278827E82AF92A0A2B1B2B09
:1036F000B42FA32F922F882780709070B070E82A83
:10370000F92A0A2B1B2B232F342F452F55272070E6
:1037100040705070E22AF32A042B152BE2A2F3A288
:1037200004A315A3E6A6F7A600AB11AB0BC0C60118
:103730000E947D0C182F04C0C6010E947D0C115000
:103740001123D1F7C6010E94060C181619060CF4B5
:103750009ACE01C07724C6010E94220C872DE896DC
:103760000FB6F894DEBF0FBECDBFCF91DF911F9192
:103770000F91FF90EF90DF90CF90BF90AF909F9010
:103780008F907F906F905F904F903F902F90089513
:103790000E96FC0184E1DF011D928A95E9F70895F8
:1037A0004F925F926F927F928F929F92AF92BF9251
:1037B000CF92DF92EF92FF920F931F93DF93CF93FD
:1037C000CDB7DEB7E2970FB6F894DEBF0FBECDBF20
:1037D0006C01462E3A01F3E18F2E912C8C0E9D1E2A
:1037E000E0E25E2EF401252D11922A95E9F7CE0133
:1037F00007966FEF4FEF2FEF0FEF0E945E2977E4F0
:10380000A72EB12CAC0CBD1C83ED93E09E878D8759
:1038100089859A85AB85BC858F87988BA98BBA8B58
:10382000C501BE01635F7F4F43E450E00E941C0D61
:103830008F5F9F4F09F4F3C081E08B8B8C8B86E008
:103840008D8B1E8AF6012481358146815781E52EB4
:10385000FF2400271127B22FAA2799278827E82AB3
:10386000F92A0A2B1B2BB42FA32F922F88278070A5
:103870009070B070E82AF92A0A2B1B2B232F342FC3
:10388000452F5527207040705070E22AF32A042BF0
:10389000152BEB82FC820D831E83EF8AF88E098F35
:1038A0001A8F7B8E6C8E80E890E09A8389839E8F3E
:1038B0008D8FC501B4014CE150E00E94FC0CF40175
:1038C00011925A94E9F7A8E06A2E712C6C0C7D1CB9
:1038D000D401F30186E001900D928150E1F78E0151
:1038E0000D5E1F4FC501B80140E150E00E94FC0C85
:1038F00080E2F80111928A95E9F7EE24FF24902ED8
:10390000012FC501692D702F40E250E00E94FC0C90
:103910000894E11CF11CF6E0EF16F10491F793E630
:103920009B8B82E88C8B83E58D8B9E8B85E38F8BC5
:1039300091E0988F498E8DE38A8F87E08B8F9C8FE3
:10394000DE015D96F30186E001900D928150E1F772
:103950008CE08BA38CA38E010D5E1F4FCE0185964C
:103960006BE472E00E94ED02C601BE01655D7F4F0F
:10397000F60143850E941419C601BE01635D7F4FA5
:10398000F60144850E941419C601BE01615D7F4F96
:10399000F60145850E941419C501B8014EE150E0B9
:1039A0000E94FC0CF3E04F16F1F482E38B8B94E061
:1039B0009C8BF60186858D8B87858E8B80898F8B7E
:1039C0008189888F86E3898F9A8F828D8B8F838DF3
:1039D0008C8F848D8D8F858D8E8FC501B8014CE0C5
:1039E00050E00E94FC0C87E38B8B96E09C8B81E07F
:1039F0008D8B83E08E8B9F8B8FE0888F8AE3898FFE
:103A00008BE38A8F8FEF8B8FC501BE016D5E7F4F79
:103A100049E050E00E94FC0CC5010E94170DE2969F
:103A20000FB6F894DEBF0FBECDBFCF91DF911F91CF
:103A30000F91FF90EF90DF90CF90BF90AF909F904D
:103A40008F907F906F905F904F9008952F923F924C
:103A50004F925F926F927F928F929F92AF92BF929E
:103A6000CF92DF92EF92FF920F931F93DF93CF934A
:103A700000D000D0CDB7DEB78C0161E070E080E00F
:103A800090E020ED37E040E050E00E941D2DD8018D
:103A900014966C93149715967C93159716968C93A1
:103AA000169717969C9317976C9311967C93119782
:103AB00012968C93129713969C9377E4272E312CB1
:103AC000200E311EC10164E470E00E94C00D882305
:103AD00019F46624772422C10E94C72B4B015C0194
:103AE0006624772466E4C62ED12CC00ED11E5EE378
:103AF000452E512C400E511E42E0E42EFBC088237F
:103B000009F5F80184819581A681B7810196A11DEF
:103B1000B11D84839583A683B7830E94C72B681940
:103B200079098A099B0928EE33E040E050E00E94C1
:103B30005A2DC80161E0A9010E94D01B81E0D60185
:103B40008C93C2C0843001F5F80184819581A681EF
:103B5000B7810196A11DB11D84839583A683B78388
:103B60000E94C72B681979098A099B0928EE33E05E
:103B700040E050E00E945A2DC80163E0A9010E9474
:103B8000D01BD601EC92A0C0813069F5F2014081D2
:103B9000518162817381C8019E012F5F3F4F0E9456
:103BA0005E19F82EF2E08F1709F089C089819A8199
:103BB000AB81BC81F80184839583A683B7830E947F
:103BC000C72B681979098A099B0928EE33E040E080
:103BD00050E00E945A2DC80163E0A9010E94D01B49
:103BE000D601FC9271C0823009F06EC0F2014081B2
:103BF000518162817381C8019E012F5F3F4F0E94F6
:103C00005E19F82EF5E08F1709F053C0E3E0D601F6
:103C1000EC93F80182A193A1A4A1B5A10097A105FD
:103C2000B10541F484E893E0A0E0B0E082A393A35F
:103C3000A4A3B5A3F80186A197A1A0A5B1A500975B
:103C4000A105B10561F482A193A1A4A1B5A1B69586
:103C5000A7959795879586A397A3A0A7B1A7F801E5
:103C600082A593A5A4A5B5A50097A105B10561F40A
:103C700086A197A1A0A5B1A5880F991FAA1FBB1F58
:103C800082A793A7A4A7B5A7F80186A197A1A0A58D
:103C9000B1A586A797A7A0ABB1AB82A593A5A4A514
:103CA000B5A582AB93ABA4ABB5ABA1E06A2E712CEA
:103CB0000BC0F6E08F1719F4D6011C9205C0BFEFB8
:103CC000FB1611F4F6011082F1E06F16710491F009
:103CD0000E94C72B681979098A099B09D801DA96CD
:103CE0002D913D914D915C91DD972617370748073F
:103CF000590728F0F6018081833009F000CFC10117
:103D00000E94AB0DF80184819581A681B78101964F
:103D1000A11DB11D84839583A683B783C3010F9032
:103D20000F900F900F90CF91DF911F910F91FF9007
:103D3000EF90DF90CF90BF90AF909F908F907F904B
:103D40006F905F904F903F902F900895CF92DF92A9
:103D5000EF92FF920F931F93CF93DF93EC01D62E38
:103D6000C72E1AA21BA21CA21DA21EA21FA218A629
:103D700019A61AA61BA61CA61DA61EAA1FAA18AE27
:103D800019AE2AAF3BAF4CAF5DAFEE96E882F98239
:103D90000A831B83EE978E01085F1F4F86E0F801B0
:103DA00011928A95E9F7CE010E94C81BD8012D2DEA
:103DB0003C2DC901FC0186E001900D928150E1F794
:103DC000CA5BDF4F1882C654D040CE010E94261D28
:103DD000DF91CF911F910F91FF90EF90DF90CF90E7
:103DE00008959C01FB0182819381A481B581F90131
:103DF00082839383A483B583178216820895CF9319
:103E0000DF93FB0101C0319680818823E1F7EB014C
:103E1000A0E0B0E020E030E021C06E3261F42F3F3E
:103E2000310509F07CF5FA01EA0FFB1F2283119698
:103E300020E030E012C0C901E3E0880F991FEA9545
:103E4000E1F7220F331F820F931F262F332727FD01
:103E5000309520533040280F391F21966881662302
:103E600019F0A430B105CCF22F3F310509F054F41C
:103E7000A430B1053CF4A40FB51F12962C9321E099
:103E800030E002C020E030E0C901DF91CF91089519
:103E90000F9387EC94E060E040E020E000E00E94B7
:103EA0005E290F9108952F923F924F925F926F92E9
:103EB0007F928F929F92AF92BF92CF92DF92EF92BA
:103EC000FF920F931F93DF93CF93CDB7DEB7699720
:103ED0000FB6F894DEBF0FBECDBF4C018B011A01A7
:103EE0000E94C72B2B013C01F8E0EF2EF12CE80CCF
:103EF000F91C5801CC24DD2414C00E94C72B64197E
:103F0000750986099709A616B706C806D90618F4D2
:103F10002FEF3FEF0BC162E370E080E090E00E9482
:103F2000FB2BC7010E94A80C1816190634F7F401E0
:103F30002281338144815581818D928DA38DB48DF1
:103F40008A879B87AC87BD87281739074A075B0795
:103F500009F0EAC0858D968DC59709F0E5C000C1CE
:103F60008E01025F1F4FC701B8014CE050E00E9474
:103F70005A0CF801528143815B834A83F401268104
:103F800037818E859F852817390711F457FD06C0A4
:103F9000C7010E94220C2CEF3FEFC8C04F70527037
:103FA000452B31F0C7010E94220C2BEF3FEFBEC022
:103FB000F801768067806114710441F0AA24BB2463
:103FC00048012E010894411C511C28C0C7010E94C1
:103FD000220C2AEF3FEFAAC0C701B20141E050E036
:103FE0000E945A0C8981882321F408C0C7010E94CD
:103FF0007D0C8981815089838F5FC1F789818823F6
:1040000059F700E010E0C7010E947D0C0F5F1F4FC1
:1040100004301105C1F70894A11CB11CF401D4802F
:10402000C580AC14BD04C0F244245524C701BE01B0
:104030006F5F7F4F41E050E00E945A0C9981892FB9
:10404000807C61F4992321F40DC0C7010E947D0C8E
:104050008981815089838F5FC1F704C0C7010E94A5
:104060007D0C19828981882309F7C701BE016C5F25
:104070007F4F42E050E00E945A0CC701BE016A5FC8
:104080007F4F42E050E00E945A0C00E010E0C70170
:104090000E947D0C0F5F1F4F04301105C1F7C7014F
:1040A000BE016E5F7F4F42E050E00E945A0CDC8000
:1040B000CD80F1E0CF16D10419F5BE80AF8081E04C
:1040C000A816B104E9F49A818B81049731F0C701F5
:1040D0000E94220C27EF3FEF29C0E2E0F0E02E0E15
:1040E0003F1EC701B10144E050E00E945A0C21E09C
:1040F00030E01CC0C7010E947D0C0F5F1F4F02C043
:1041000000E010E09A808B800815190598F3089458
:10411000411C511C4614570408F488CFC7010E9463
:10412000220C26EF3FEF02C02EEF3FEFC901699648
:104130000FB6F894DEBF0FBECDBFCF91DF911F91B8
:104140000F91FF90EF90DF90CF90BF90AF909F9036
:104150008F907F906F905F904F903F902F90089539
:1041600083ED93E099878887C7010E94060C0C971E
:104170000CF0F6CE2DEF3FEFD9CF6F927F928F925A
:104180009F92AF92BF92CF92DF92EF92FF920F93E6
:104190001F93DF93CF9300D00F92CDB7DEB78C0182
:1041A000F62EE72E0E94C72BF80177836683B8E0CE
:1041B000CB2ED12CC00ED11E0A5F1F4FC601B801F5
:1041C00042E050E00E94FC0C81E090E09B838A83F7
:1041D000A2E08A2E912C8C0E9D1EC601B40142E0F5
:1041E00050E00E94FC0C80E091E09B838A83C60132
:1041F000B40142E050E00E94FC0C1B821A82C6010E
:10420000B40142E050E00E94FC0CC601B40142E05F
:1042100050E00E94FC0CC601B40142E050E00E9454
:10422000FC0C2F2D3E2DC9018C017C013E01089410
:10423000611C711C20C00894E11CF11CF7018081F5
:10424000882311F08E32B9F75701A01AB10A1A1457
:104250001B0474F48E2D801B8983C601B30141E0D9
:1042600050E00E94FC0CC601B801A5010E94FC0CA4
:1042700087010F5F1F4FF7018081882311F07801BC
:10428000DDCF1982C601BE016F5F7F4F41E050E074
:104290000E94FC0C00E011E01B830A83C601B401FC
:1042A00042E050E00E94FC0C1B830A83C601B4016B
:1042B00042E050E00E94FC0C81E090E00F900F90F3
:1042C0000F90CF91DF911F910F91FF90EF90DF90B2
:1042D000CF90BF90AF909F908F907F906F900895F8
:1042E0008F929F92AF92BF92CF92DF92EF92FF9206
:1042F0000F931F93DF93CF9300D000D000D0CDB7A2
:10430000DEB76C017B014A010E94FF1E892B19F068
:1043100001E010E067C0F6012281338144815581BC
:104320008091C9049091CA04A091CB04B091CC04AF
:10433000281739074A075B0719F40EEF1FEF52C021
:1043400018E0A12EB12CAC0CBD1C0E94C72B9B0108
:10435000AC012F70307020503C4FC501B9010E9454
:10436000C00D813019F000E010E03CC083ED93E017
:104370009A838983F60182819381A481B5818B839D
:104380009C83AD83BE83C501BE016F5F7F4F45E354
:1043900050E00E941C0D8C01009709F1C601B70185
:1043A0000E94BD208C010097D1F0C5010E94170D1D
:1043B0008C010097A1F0EE24FF24C60168E873E1A8
:1043C000A4010E94531F8C010894E11CF11CF3E02E
:1043D000EF16F10421F08FEF0F3F180771F3C501BD
:1043E0000E94AB0DC80126960FB6F894DEBF0FBE33
:1043F000CDBFCF91DF911F910F91FF90EF90DF9094
:10440000CF90BF90AF909F908F900895FC01138242
:10441000128288EE93E0A0E0B0E084839583A683C7
:10442000B7838DE993E09183808388E08487089542
:10443000DF93CF930F92CDB7DEB7FC016983A081E4
:10444000B18112962D913C911397BE016F5F7F4F02
:1044500041E050E0F90109950F90CF91DF91089567
:10446000CF93DF93EC0107C0E881F9810680F781E3
:10447000E02DCE010995E881F9810480F581E02DD8
:10448000CE010995892B81F7DF91CF91089520E026
:10449000FC018485883009F021E0822F08950F9374
:1044A0008DEC94E060E040E020E000E00E945E29B6
:1044B0000F910895FC016485683011F480E008953F
:1044C0006295660F607E685F83E090E00E942B102B
:1044D0000895CF93DF93EC018C85883011F480E050
:1044E00019C0CE010E945A22843191F0882381F0B4
:1044F000883171F08C3151F4E881F9810480F581C3
:10450000E02DCE01099520E0892B19F021E001C0B2
:1045100020E0822FDF91CF910895EF92FF920F93C9
:104520001F93CF93DF93EC018C85883089F10E9433
:10453000FA0D0E94C72B7B018C01CE010E945A22EA
:10454000882301F10E94C72B6E197F09800B910B04
:10455000685E734080409040A8F461E070E080E0C5
:1045600090E00E94FB2BE9CF8C850E94420EEC85E7
:10457000F0E0EE0FFF1FEC56FB4F1182108288E037
:104580008C8706C0CE010E945A22882381F3ECCF8B
:10459000DF91CF911F910F91FF90EF9008950F93AE
:1045A0001F93DF93CF930F92CDB7DEB78C01DC0161
:1045B000ED91FC910480F581E02D0995892B19F48A
:1045C0002FEF3FEF0AC0F8018485BE016F5F7F4F78
:1045D0000E94A00F8981282F30E0C9010F90CF9150
:1045E000DF911F910F910895FC0184850E94AF0F08
:1045F0000895DF93CF930F92CDB7DEB7FC0184858A
:10460000BE016F5F7F4F41E050E00E94AF0F181670
:1046100019061CF02FEF3FEF03C08981282F30E0EF
:10462000C9010F90CF91DF910895FC016485683036
:1046300019F420E030E005C08AEB94E00E94A51058
:104640009C01C90108950F931F93CF93DF938C01B1
:10465000EA01FC018485883019F481E090E007C00C
:104660000E94490F892B39F481E090E0F80193838F
:104670008283C0E0D0E0CE01DF91CF911F910F91F6
:104680000895CF92DF92EF92FF920F931F93CF93F3
:10469000DF938C017B016A01FC018485883009F07D
:1046A00059C0C0E0D0E0CE018295880F807E682F8F
:1046B000685F83E090E00E942B10882321F088310E
:1046C00011F08C3119F4F801C48704C02196C83068
:1046D000D10549F7F80124852830E1F1809166027F
:1046E0009091670201969093670280936602892BEE
:1046F00031F480E094E090936702809366024091E9
:10470000660250916702822F61E020E00E94770EDE
:1047100082E090E0E80EF91EF8018485B701A60159
:104720000E94E30E09C061E070E080E090E00E942A
:10473000FB2BC8010E945A22882321F488E0F8014B
:10474000848708C0C8010E945A22873161F721E09E
:1047500030E002C020E030E0C901DF91CF911F912D
:104760000F91FF90EF90DF90CF9008956F927F921E
:104770008F929F92AF92BF92CF92DF92EF92FF9271
:104780000F931F93DF93CF93CDB7DEB7E5970FB6A7
:10479000F894DEBF0FBECDBF4C015B013A0193E13F
:1047A000E92EF12CEC0EFD1EC7010E94D929CE0185
:1047B0004B960E94250D6E010894C11CD11CC601A8
:1047C0000E94D9298E01095F1F4FC80164EA74E075
:1047D0000E94BE09C701B8010E94F11EC701B501C0
:1047E000A6010E9470219C0181309105C9F4D40179
:1047F000ED91FC910484F585E02D83ED93E09E8797
:104800008D878B819C81AD81BE818F87988BA98B91
:10481000BA8BC401BE01635F7F4FA30109959C0160
:10482000C901E5960FB6F894DEBF0FBECDBFCF919C
:10483000DF911F910F91FF90EF90DF90CF90BF908D
:10484000AF909F908F907F906F9008952F923F929E
:104850004F925F926F927F928F929F92AF92BF9290
:10486000CF92DF92EF92FF920F931F93DF93CF933C
:10487000CDB7DEB762970FB6F894DEBF0FBECDBFDF
:104880008B5B9F4FDC012D913D914D915D912D836F
:104890003E834F8358872D903D904D905D906D9055
:1048A0007D908D909D902D913D914D915D912983AD
:1048B0003A834B835C832D913D914D915C9113978D
:1048C0002B873C874D875E87A555B040B88BAF8757
:1048D0001A8619861985103108F469C069857A85A8
:1048E0006F7070706F5F7F4F660F771F660F771F57
:1048F000EF85F8896E0F7F1FA985BA851D96AF7069
:10490000B0701196AA0FBB1FAA0FBB1FAE0FBF1F1F
:1049100089859A8508968F7090700196880F991FE7
:10492000880F991F8E0F9F1F2D913D914D915C9186
:10493000FC0180819181A281B381282739274A27F0
:104940005B27FB0180819181A281B38128273927D0
:104950004A275B27E985FA853296EF70F070319629
:10496000EE0FFF1FEE0FFF1F8F859889E80FF91FCD
:1049700080819181A281B381282739274A275B272B
:10498000DA01C901880F991FAA1FBB1F222757FDF3
:104990002395332744275527822B932BA42BB52B04
:1049A000FB0180839183A283B3831431C8F42981EE
:1049B0003A814B815C8126253725482559252221BE
:1049C00033214421552189819A81AB81BC812827DB
:1049D00039274A275B27275636484D47554A46C050
:1049E000183298F4A4019301222533254425552536
:1049F00089819A81AB81BC81282739274A275B2787
:104A00002F5534414642514931C01C33E8F4A401CA
:104A10009301222933294429552989819A81AB811F
:104A2000BC81282339234A235B23D401C30182217B
:104A30009321A421B521282B392B4A2B5B2B2452FF
:104A40003344444E504712C0A4019301222533251C
:104A50004425552589819A81AB81BC812827392736
:104A60004A275B272A523E434D495543ED80FE803D
:104A70000F811885EBE116950795F794E794EA9571
:104A8000D1F78D819E81AF81B88575E0880F991F20
:104A9000AA1FBB1F7A95D1F7E82AF92A0A2B1B2BEC
:104AA0008B859C85AD85BE85E80EF91E0A1F1B1FF0
:104AB000E985FA85EF70F0703196EE0FFF1FEE0F6B
:104AC000FF1FAF85B889EA0FFB1F80819181A2810A
:104AD000B381E80EF91E0A1F1B1FE20EF31E041F0E
:104AE000151F620151019EE1AA0CBB1CCC1CDD1CF0
:104AF0009A95D1F782E056944794379427948A95F3
:104B0000D1F7A228B328C428D528E985FA8531969B
:104B1000FA87E98729813A814B815C812B873C8721
:104B20004D875E87B301898A9A8A2D803E804F80A7
:104B30005884E035F10589F0C701D8018D839E8343
:104B4000AF83B8873501460149895A89CB01DA011B
:104B500089839A83AB83BC83BDCEEF85F889EB5BF9
:104B6000FF4F80819181A281B381E80EF91E0A1F57
:104B70001B1FE082F182028313836F857889675B54
:104B80007F4FFB0180819181A281B3812D813E8184
:104B90004F815885820F931FA41FB51F8083918377
:104BA000A283B383EF85F889E35BFF4F8081918116
:104BB000A281B381A80EB91ECA1EDB1EA082B182DB
:104BC000C282D382EF85F889EF5AFF4F80819181AD
:104BD000A281B381860D971DA81DB91D8083918385
:104BE000A283B3836F8578896B5A7F4FFB018081E5
:104BF0009181A281B38129813A814B815C81820FAD
:104C0000931FA41FB51F80839183A283B3836296F1
:104C10000FB6F894DEBF0FBECDBFCF91DF911F91CD
:104C20000F91FF90EF90DF90CF90BF90AF909F904B
:104C30008F907F906F905F904F903F902F9008954E
:104C4000CF93DF939C01EC01CC5BDF4F988183E035
:104C50008927F901E80FF11D64839F5F98839034E1
:104C600021F4C9010E9426241882DF91CF91089572
:104C7000FC01E75AFF4F20813181428153812F5F30
:104C80003F4F4F4F5F4F20833183428353830E94B6
:104C900020260895CF92DF92EF92FF920F931F93F9
:104CA000CF93DF938C016B017A01C0E0D0E00DC09F
:104CB000D801ED91FC91D601AC0FBD1F0190F081A0
:104CC000E02DC8016C9109952196CE15DF0584F37E
:104CD000DF91CF911F910F91FF90EF90DF90CF90D8
:104CE00008950F931F93CF93DF93EC0160E80E9428
:104CF00020268E010C5B1F4F04C0CE0160E00E9495
:104D00002026F80180818833C1F7CE0160E00E943F
:104D10002026CE0160E00E942026CE0160E00E94A5
:104D200020268E01075A1F4FF801208131814281D0
:104D30005381FDE15695479537952795FA95D1F71B
:104D4000CE01622F0E942026F8012081318142810C
:104D50005381E5E15695479537952795EA95D1F723
:104D6000CE01622F0E942026F801208131814281EC
:104D700053817DE056954795379527957A95D1F7DC
:104D8000CE01622F0E942026F801208131814281CC
:104D9000538165E056954795379527956A95D1F7E4
:104DA000CE01622F0E942026F8016081660F660FF7
:104DB000660FCE010E942026DF91CF911F910F91A7
:104DC0000895EF92FF920F931F93CF93DF93EC011F
:104DD0000E947126FE01EB5BFF4F60E070E02081D6
:104DE000318142815381B22FAA2799278827E52E46
:104DF000FF2400271127E82AF92A0A2B1B2BB42F9E
:104E0000A32F922F882780709070B070E82AF92A1B
:104E10000A2B1B2B232F342F452F55272070407032
:104E20005070E22AF32A042B152BE192F1920193A0
:104E300011936F5F7F4F6530710589F69E012B5B83
:104E40003F4FC901DF91CF911F910F91FF90EF90DC
:104E500008951092D6041092D50489EB93E09093B4
:104E6000D4048093D30408950F931F938C018B5B1C
:104E70009F4F68E670E044E150E00E94C702075A85
:104E80001F4FF801108211821282138205511040C7
:104E9000F80110821F910F91089508951F920F92AB
:104EA0000FB60F9211242F933F934F938F939F939D
:104EB000EF93FF938091C00082FD1DC04091C6001A
:104EC0002091C4053091C5052F5F3F4F2F7330707F
:104ED0008091C6059091C7052817390771F0E091B8
:104EE000C405F091C505EC57FA4F40833093C505D2
:104EF0002093C40502C08091C600FF91EF919F915D
:104F00008F914F913F912F910F900FBE0F901F9057
:104F10001895E0911806F0911906E05CFF4F819119
:104F2000919120813181821B930B8F739070892B1B
:104F300011F00E944D2708951F920F920FB60F9205
:104F400011242F933F938F939F93EF93FF9320917F
:104F500008063091090680910A0690910B062817E1
:104F6000390731F48091C1008F7D8093C10014C056
:104F7000E0910A06F0910B06E853FA4F20818091E8
:104F80000A0690910B0601968F73907090930B0612
:104F900080930A062093C600FF91EF919F918F9115
:104FA0003F912F910F900FBE0F901F901895AF92C9
:104FB000BF92DF92EF92FF920F931F93CF93DF93F5
:104FC000EC017A018B01DD24403081EE580780E04E
:104FD000680780E0780711F0DD24D39491E0A92ED2
:104FE000B12CEC89FD89DD2069F0C50108A002C063
:104FF000880F991F0A94E2F7808360E079E08DE3DF
:1050000090E005C0108260E874E88EE190E0A801AD
:1050100097010E945A2D21503040404050405695F3
:1050200047953795279580E12030380720F0DD201F
:1050300011F0DD24D6CFE889F9893083EA89FB892C
:10504000208319A2EE89FF89408121E030E0C90167
:105050000C8C02C0880F991F0A94E2F7482B4083FA
:10506000EE89FF894081C9010D8C02C0880F991F0C
:105070000A94E2F7482B4083EE89FF894081C901F9
:105080000E8C02C0880F991F0A94E2F7482B4083C8
:10509000EE89FF8980810F8C02C0220F331F0A9492
:1050A000E2F7209528232083DF91CF911F910F9164
:1050B000FF90EF90DF90BF90AF900895DC011C96B9
:1050C000ED91FC911D97E05CFF4F21913191808122
:1050D0009181281B390B2F733070C9010895DC01B1
:1050E0001C96ED91FC911D97E05CFF4F2081318172
:1050F000E054F040DF01AE5BBF4F8D919C91119762
:105100002817390719F42FEF3FEF07C08D919C91B5
:10511000E80FF91F8081282F30E0C9010895DC01D4
:105120001C96ED91FC911D97E05CFF4F2081318131
:10513000E054F040DF01AE5BBF4F8D919C91119721
:105140002817390719F42FEF3FEF10C08D919C916C
:105150001197E80FF91F20818D919C91119701966D
:105160008F73907011969C938E9330E0C9010895CF
:10517000DC0191968C919197882339F05496ED91AA
:10518000FC915597808186FFF9CF91961C920895E6
:10519000CF93DF93EC01EE85FF85E05CFF4F20812C
:1051A0003181E054F0402F5F3F4F2F733070DF01AB
:1051B000AE5BBF4F8D919C91119728173907D1F3A2
:1051C000E05CFF4F80819181E054F040E80FF91FCF
:1051D0006083EE85FF85E05CFF4F31832083EE899D
:1051E000FF89208181E090E00F8C02C0880F991F19
:1051F0000A94E2F7282B208381E089A3EC89FD89BA
:1052000080818064808381E090E0DF91CF91089578
:1052100010920F0610920E0688EE93E0A0E0B0E028
:105220008093100690931106A0931206B093130674
:1052300083EC93E090930D0680930C0684E895E050
:10524000909319068093180688EC95E090931B06BE
:1052500080931A0685EC90E090931D0680931C06BF
:1052600084EC90E090931F0680931E0680EC90E003
:10527000909321068093200681EC90E09093230682
:105280008093220682EC90E090932506809324067A
:1052900086EC90E0909327068093260684E0809326
:1052A000280683E08093290687E080932A0685E01C
:1052B00080932B0681E080932C0608950F93FC01C8
:1052C00083ED93E09183808362834383248305830A
:1052D0000F91089583ED93E090932F0680932E060F
:1052E0001092300610923106109232061092330658
:1052F00008958F929F92AF92BF92CF92DF92EF92DA
:10530000FF920F931F93CF93DF934C016B017C01AE
:10531000AA24BB24C0E0D0E0C601F70162814AE0C4
:1053200050E00E94F02A8C01C6016EE20E941F2A02
:10533000080F191FA00EB11E21960894E11CF11C44
:10534000C330D10549F7C601F40165814AE050E058
:105350000E94F02A9501280F391FC901DF91CF91D2
:105360001F910F91FF90EF90DF90CF90BF90AF9083
:105370009F908F9008959C01FB0180819181A28173
:10538000B381F90182839383A483B583C90108950E
:105390009C01FB0183ED93E0D9018D939C93808167
:1053A0009181A281B381F90182839383A483B58320
:1053B0000895FC0183ED93E0918380831282138230
:1053C000148215820895CF93DF930E94212C0E94AE
:1053D000A608C9E8D7E20E94F3072097E1F30E94EC
:1053E0008927F9CF0E943D010895CF92DF92EF9275
:1053F000FF920F931F93CF93DF937C016B018A0180
:10540000C0E0D0E00FC0D6016D916D01D701ED91E4
:10541000FC910190F081E02DC7010995C80FD91FBB
:10542000015010400115110571F7CE01DF91CF91A8
:105430001F910F91FF90EF90DF90CF900895DC01C6
:10544000ED91FC910190F081E02D09950895EF9286
:10545000FF920F931F938C01DC01ED91FC91019061
:10546000F081E02D6DE009957C01D801ED91FC9172
:105470000190F081E02DC8016AE009959C012E0D94
:105480003F1DC9011F910F91FF90EF900895EF927A
:10549000FF920F931F937C01DB01ED91FC91019032
:1054A000F081E02DCB01B70109958C01C7010E9465
:1054B000272A080F191FC8011F910F91FF90EF9025
:1054C0000895CF93DF93EC016115710519F420E085
:1054D00030E00FC0DB010D900020E9F71197A61B0B
:1054E000B70BE881F9810280F381E02DAD010995C8
:1054F0009C01C901DF91CF9108954F925F927F92F5
:105500008F929F92AF92BF92CF92DF92EF92FF92D3
:105510000F931F93DF93CF93CDB7DEB7A1970FB64D
:10552000F894DEBF0FBECDBF2C01742ECB0122300C
:1055300008F42AE019A231E2C32ED12CCC0EDD1ED4
:10554000822E9924AA24BB24672D752FA5019401CE
:105550000E945A2D79018A01C801B701A501940161
:105560000E943B2D472D461B0894C108D1084A30A4
:1055700014F4405D01C0495CF6014083E114F1047C
:105580000105110521F07E2C5F2DC801DDCFC20180
:10559000B6010E94612AA1960FB6F894DEBF0FBE35
:1055A000CDBFCF91DF911F910F91FF90EF90DF90D2
:1055B000CF90BF90AF909F908F907F905F904F90D3
:1055C0000895DC012115310541F4ED91FC91019024
:1055D000F081E02D642F099508950E947D2A089599
:1055E000EF92FF920F931F939A01E62EFF2400E0A3
:1055F00010E0B801A7010E94E12A1F910F91FF90CE
:10560000EF900895CF92DF92EF92FF920F931F9346
:10561000CF93DF93EC016A017B012115310541F441
:10562000E881F9810190F081E02D642F09951FC078
:105630002A303105D1F477FF17C0E881F981019054
:10564000F081E02D6DE209958C0144275527BA01C0
:105650004C195D096E097F09CE012AE00E947D2A5E
:105660009801280F391F04C02AE00E947D2A9C015E
:10567000C901DF91CF911F910F91FF90EF90DF90C3
:10568000CF900895EF92FF920F931F937C010E9499
:10569000022B8C01C7010E94272A9C01200F311F79
:1056A000C9011F910F91FF90EF900895EF92FF9223
:1056B0000F931F937B019A010027F7FC0095102F91
:1056C000B801A7010E94022B1F910F91FF90EF904C
:1056D00008950E94612A0895EF92FF920F931F93FD
:1056E0007C010E94612A8C01C7010E94272A080FB1
:1056F000191FC8011F910F91FF90EF9008951F92FD
:105700000F920FB60F9211242F933F938F939F9375
:10571000AF93BF938091380690913906A0913A06D5
:10572000B0913B0630913C060196A11DB11D232F7F
:105730002D5F2D3720F02D570196A11DB11D20930F
:105740003C068093380690933906A0933A06B093AE
:105750003B068091340690913506A0913606B091B3
:1057600037060196A11DB11D80933406909335062E
:10577000A0933606B0933706BF91AF919F918F915A
:105780003F912F910F900FBE0F901F9018958FB7DC
:10579000F894209138063091390640913A0650919C
:1057A0003B068FBFB901CA0108959FB7F8942091B5
:1057B000340630913506409136065091370686B54D
:1057C000A89B06C08F3F21F02F5F3F4F4F4F5F4F89
:1057D0009FBF542F432F322F2227280F311D411DE9
:1057E000511D82E0220F331F441F551F8A95D1F7A8
:1057F000B901CA010895EF92FF920F931F93CF93BF
:10580000DF937B018C010E94D52BEB010EC00E941F
:10581000D52B6C1B7D0B685E7340C8F30894E108C0
:10582000F10801091109C851DC4FE114F104010527
:10583000110569F7DF91CF911F910F91FF90EF90C4
:105840000895789484B5826084BD84B5816084BDF8
:1058500085B5826085BD85B5816085BDEEE6F0E0E9
:10586000808181608083E1E8F0E010828081826045
:105870008083808181608083E0E8F0E080818160C6
:105880008083E1EBF0E0808184608083E0EBF0E0F6
:10589000808181608083EAE7F0E08081846080839A
:1058A0008081826080838081816080838081806844
:1058B00080831092C1000895CF93DF93482F50E06A
:1058C000CA0182559F4FFC01349146565F4FFA0141
:1058D0008491882369F190E0880F991FFC01E458B6
:1058E000FF4FA591B491FC01EA57FF4FC591D491A8
:1058F000662351F42FB7F8948C91932F90958923B8
:105900008C93888189230BC0623061F42FB7F8949F
:105910008C91932F909589238C938881832B8883F6
:105920002FBF06C09FB7F8948C91832B8C939FBF99
:10593000DF91CF910895833071F0843028F4813065
:10594000A1F0823021F514C08630B1F08730D1F05B
:105950008430E9F404C0809180008F7703C0809187
:1059600080008F7D80938000089584B58F7702C07A
:1059700084B58F7D84BD08958091B0008F7780932A
:10598000B00008958091B0008F7D8093B00008959D
:10599000FF920F931F93F62E482F50E0CA018E53AB
:1059A0009F4FFC012491CA0182559F4FFC01149125
:1059B00046565F4FFA0104910023C9F0222319F0E3
:1059C000822F0E949B2CE02FF0E0EE0FFF1FEA5782
:1059D000FF4FA591B4919FB7F894FF2021F48C91CB
:1059E0001095812302C08C91812B8C939FBF1F91B6
:1059F0000F91FF900895EF92FF920F931F937B01F9
:105A00008C01611571058105910529F420E030E0D4
:105A100040E050E00BC00E949202A80197010E9452
:105A20007C2DAC01CB01DA019C01AD01B901CA01A9
:105A30001F910F91FF90EF900895EF92FF920F93B7
:105A40001F937B018C01621773078407950764F429
:105A5000261B370B480B590BCA01B9010E94FB2CBE
:105A6000E60EF71E081F191FB701C8011F910F91FD
:105A7000FF90EF900895629FD001739FF001829F85
:105A8000E00DF11D649FE00DF11D929FF00D839FCD
:105A9000F00D749FF00D659FF00D9927729FB00D6A
:105AA000E11DF91F639FB00DE11DF91FBD01CF017D
:105AB00011240895A1E21A2EAA1BBB1BFD010DC0E3
:105AC000AA1FBB1FEE1FFF1FA217B307E407F507AE
:105AD00020F0A21BB30BE40BF50B661F771F881F8A
