:100000000C9469000C9491000C9491000C94910054
:100010000C9491000C9491000C9491000C9491001C
:100020000C9491000C9491000C9491000C9491000C
:100030000C9491000C9491000C9491000C949100FC
:100040000C9466190C9491000C94B9150C94071635
:100050000C9491000C9491000C9491000C949100DC
:100060000C9491000C9491000000000024002700E3
:100070002A0000000000250028002B0000000000DE
:1000800023002600290004040404040404040202DA
:100090000202020203030303030301020408102007
:1000A0004080010204081020010204081020000012
:1000B0000007000201000003040600000000000029
:1000C00000000A02CF021B053D07D90CFA12731774
:1000D000D51711241FBECFEFD8E0DEBFCDBF12E091
:1000E000A0E0B1E0EAE7F7E302C005900D92A63286
:1000F000B107D9F713E0A6E2B2E001C01D92A53323
:10010000B107E1F710E0C2EDD0E004C02297FE0194
:100110000E94801BC23CD107C9F70E944E180C9464
:10012000BB1B0C940000CF93DF93BC018230910580
:1001300010F462E070E0A0913303B0913403ED015C
:10014000E0E0F0E040E050E021C08881998186172E
:10015000970769F48A819B81309719F09383828392
:1001600004C09093340380933303FE0134C06817B6
:10017000790738F44115510519F08417950708F4EB
:10018000AC01FE018A819B819C01E9012097E9F67F
:1001900041155105A9F1CA01861B970B049708F474
:1001A000BA01E0E0F0E02AC08D919C91119784178C
:1001B0009507F9F46417750781F412968D919C9157
:1001C0001397309719F09383828304C0909334037C
:1001D00080933303FD0132964CC0CA01861B970BF6
:1001E000FD01E80FF91F6193719302978D939C9322
:1001F00040C0FD01828193819C01D9011097A1F635
:100200008091310390913203892B41F48091B001A8
:100210009091B10190933203809331034091B201E8
:100220005091B3014115510541F44DB75EB780912E
:10023000AE019091AF01481B590B209131033091D1
:100240003203CA01821B930B8617970780F0AB011C
:100250004E5F5F4F8417950750F0420F531F509326
:10026000320340933103F9016193719302C0E0E0DE
:10027000F0E0CF01DF91CF910895CF93DF93009706
:1002800009F450C0EC0122971B821A82A09133031B
:10029000B0913403109709F140E050E0AC17BD076E
:1002A00008F1BB83AA83FE0121913191E20FF31F74
:1002B000AE17BF0779F48D919C911197280F391FC4
:1002C0002E5F3F4F3983288312968D919C9113970F
:1002D0009B838A834115510571F4D0933403C093F5
:1002E000330320C012968D919C911397AD01009716
:1002F00011F0DC01D3CFFA01D383C2832191319174
:10030000E20FF31FCE17DF0769F488819981280F68
:10031000391F2E5F3F4FFA01318320838A819B81F1
:1003200093838283DF91CF910895A0E0B0E0EBE961
:10033000F1E00C948C1BEC01A880B980CA80DB80B2
:10034000A114B104C104D10441F484E2A82E89EDC2
:10035000B82E8BE5C82E87E0D82EC601B5012DE159
:1003600033EF41E050E00E94631B27EA31E440E0B4
:1003700050E00E94221B7B018C01C601B5012DE1DA
:1003800033EF41E050E00E94631BCA01B9012CEE3B
:1003900034EF4FEF5FEF0E94221B6E0D7F1D801F19
:1003A000911F97FF04C0615070408040904868835F
:1003B00079838A839B839B01AC015F77B901CA0172
:1003C000CDB7DEB7EAE00C94A81B0E949501089512
:1003D00084EB91E00E94950108956093B4017093BD
:1003E000B5018093B6019093B7010895FB01DC013C
:1003F00004C08D910190801921F441505040C8F7FC
:10040000881B990B0895FB01DC0101900D920020DF
:10041000E1F708950F9389E392E060E040E020E087
:1004200000E00E94C91786E292E060EC48EA21E011
:1004300008EC0E94C9178CE292E00E94D2040F914E
:1004400008958CE292E00E94E105892B49F08CE24C
:1004500092E00E94C505682F80E093E00E948A1810
:100460008CE292E00E943505882379F480E093E0E5
:100470000E94921880E093E060E071E00E945319BE
:100480008CE292E00E945905FFCF0895DF93CF934D
:1004900000D000D000D0CDB7DEB780E093E040E8D8
:1004A00055E260E070E00E9442168FE492E068EB53
:1004B00071E00E942E04892BF9F480E093E06FE054
:1004C00071E00E94531983E292E09A8389838091BC
:1004D000280290912902A0912A02B0912B028B83CD
:1004E0009C83AD83BE838FE492E068EB71E0AE0144
:1004F0004F5F5F4F0E94F60368EE73E080E090E08C
:100500000E94E21980E093E067E371E00E945319D2
:100510008CE292E06EEB71E040E550E00E948206D2
:10052000892BE9F080E093E065E471E00E945319C3
:100530008CE292E06FE471E00E9453198CE292E049
:100540006EE671E00E9453198CE292E063E871E07C
:100550000E9453198CE292E00E94921806C080E03B
:1005600093E065E971E00E94531926960FB6F8945E
:10057000DEBF0FBECDBFCF91DF910895DB01FC013F
:1005800023E232E03183208312962D913D914D91EB
:100590005C911597228333834483558308950F9389
:1005A00087E592E060E040E020E000E00E94C917AB
:1005B0008FE492E00E9444180F9108956F927F9209
:1005C0008F929F92AF92BF92CF92DF92EF92FF9263
:1005D0000F931F933C015B016A0149018BE692E096
:1005E0000E948C0C89E090E064E0A50126E030E0F8
:1005F0000E94100B82E090E0C80ED91E8FE090E0C0
:1006000064E0A60124E030E00E94100B0E5F1F4F53
:1006100081E090E064E0A80124E030E00E94100B4B
:10062000E2E0F0E0EE0EFF1E85E090E064E0A7015E
:1006300024E030E00E94100BF40182819381A481B8
:10064000B581F30182839383A483B5831F910F91B6
:10065000FF90EF90DF90CF90BF90AF909F908F90E2
:100660007F906F9008956F927F928F929F92AF923A
:10067000BF92CF92DF92EF92FF920F931F93DF937F
:10068000CF93CDB7DEB76E970FB6F894DEBF0FBE2F
:10069000CDBF4C013B017A0169015801CE010196A1
:1006A0006FEF4FEF2FEF00E00E94C91723E232E017
:1006B00038872F83F70182819381A481B58189874F
:1006C0009A87AB87BC873E872D87F601828193810D
:1006D000A481B5818F87988BA98BBA8B3C8B2B8B90
:1006E000F50182819381A481B5818D8B9E8BAF8B27
:1006F000B88F3A8F298F8B819C81AD81BE818B8F82
:100700009C8FAD8FBE8FC401B301AE01495F5F4FB7
:100710009E01235F3F4F8E010D5E1F4FE9E1EE2EDC
:10072000F12CEC0EFD1E0E94DE026E960FB6F894C0
:10073000DEBF0FBECDBFCF91DF911F910F91FF9014
:10074000EF90DF90CF90BF90AF909F908F907F9071
:100750006F9008950F931F93DF93CF93CDB7DEB7BC
:1007600068970FB6F894DEBF0FBECDBFFA01D9016E
:1007700022813381448155812B833C834D835E8369
:10078000E3E2F2E0F887EF8329873A874B875C87BB
:10079000FE87ED8712962D913D914D915C911597B5
:1007A0002F87388B498B5A8BFC8BEB8B21E02E8368
:1007B0002B813C814D815E812D8B3E8B4F8B588FE1
:1007C000AE01495F5F4F9E01235F3F4F8E010D5E7B
:1007D0001F4F0E94330368960FB6F894DEBF0FBE1A
:1007E000CDBFCF91DF911F910F910895DF93CF93EC
:1007F000CDB7DEB762970FB6F894DEBF0FBECDBFA0
:10080000FA0122813381448155812B833C834D83BE
:100810005E83E3E2F2E0F887EF8329873A874B872C
:100820005C87FE87ED8721E02E832B813C814D8103
:100830005E812F87388B498B5A8BAE01495F5F4FA2
:100840009E01235F3F4F0E94AA0362960FB6F89461
:10085000DEBF0FBECDBFCF91DF910895CF92DF9263
:10086000EF92FF920F931F93DF93CF93CDB7DEB735
:100870006E970FB6F894DEBF0FBECDBF6C017B0143
:1008800082E690E00E945D188C01895B9F4F0E9478
:100890002E08F601178306838BE692E00E948C0CEB
:1008A00089E090E064E0A70126E030E00E94100BB0
:1008B000CE01019660E040E020E000E00E94C91710
:1008C0008FE090E064E0AE014D5F5F4F24E030E0E8
:1008D0000E94100BF60186819781B70120E63AEE5F
:1008E00040E050E0F0EAEF2EFFE0FF2E012D112D49
:1008F0000E9458128C018130910509F043C0F60125
:1009000066817781CE0107960E94050D8FE090E009
:1009100064E0AE01475F5F4F24E030E00E94100BBF
:10092000F60166817781CE010D960E94EF0C81E081
:1009300090E064E0AE01415F5F4F24E030E00E9450
:10094000100BF60166817781CE0143960E94FA0C66
:1009500085E090E064E0AE014B5E5F4F24E030E064
:100960000E94100BF60166817781CE0149960E94A4
:10097000E40C8B8D9C8DAD8DBE8DF60182839383AF
:10098000A483B583C8016E960FB6F894DEBF0FBE80
:10099000CDBFCF91DF911F910F91FF90EF90DF902E
:1009A000CF900895FC011382128288EE93E0A0E0BC
:1009B000B0E084839583A683B78383ED91E0918330
:1009C000808388E084870895DF93CF930F92CDB71B
:1009D000DEB7FC016983A081B18112962D913C9113
:1009E0001397BE016F5F7F4F41E050E0F901099519
:1009F0000F90CF91DF910895CF93DF93EC0107C063
:100A0000E881F9810680F781E02DCE010995E88122
:100A1000F9810480F581E02DCE010995892B81F7BC
:100A2000DF91CF91089520E0FC018485883009F0A2
:100A300021E0822F08950F938DE592E060E040E081
:100A400020E000E00E94C9170F910895FC01648521
:100A5000683011F480E008956295660F607E685FEB
:100A600083E090E00E94340B0895CF93DF93EC0174
:100A70008C85883011F480E019C0CE010E942605D3
:100A8000843191F0882381F0883171F08C3151F4F8
:100A9000E881F9810480F581E02DCE01099520E0FF
:100AA000892B19F021E001C020E0822FDF91CF9146
:100AB0000895EF92FF920F931F93CF93DF93EC0172
:100AC0008C85883089F10E9403090E94AE197B0150
:100AD0008C01CE010E942605882301F10E94AE19E7
:100AE0006E197F09800B910B685E734080409040C7
:100AF000A8F461E070E080E090E00E94E219E9CFA4
:100B00008C850E944B09EC85F0E0EE0FFF1FE15C45
:100B1000FD4F1182108288E08C8706C0CE010E94B2
:100B20002605882381F3ECCFDF91CF911F910F91A0
:100B3000FF90EF9008950F931F93DF93CF930F9241
:100B4000CDB7DEB78C01DC01ED91FC910480F5811D
:100B5000E02D0995892B19F42FEF3FEF0AC0F8011A
:100B60008485BE016F5F7F4F0E94A90A8981282F6B
:100B700030E0C9010F90CF91DF911F910F9108953F
:100B8000FC0184850E94B80A0895DF93CF930F92E9
:100B9000CDB7DEB7FC018485BE016F5F7F4F41E0BA
:100BA00050E00E94B80A181619061CF02FEF3FEF0C
:100BB00003C08981282F30E0C9010F90CF91DF91C8
:100BC0000895FC016485683019F420E030E005C028
:100BD0008BE692E00E94AE0B9C01C90108950F9331
:100BE0001F93CF93DF938C01EA01FC018485883049
:100BF00019F481E090E007C00E94520A892B39F471
:100C000081E090E0F80193838283C0E0D0E0CE01E0
:100C1000DF91CF911F910F910895CF92DF92EF92C4
:100C2000FF920F931F93CF93DF938C017B016A0197
:100C3000FC018485883009F059C0C0E0D0E0CE01C5
:100C40008295880F807E682F685F83E090E00E9425
:100C5000340B882321F0883111F08C3119F4F8011C
:100C6000C48704C02196C830D10549F7F80124850E
:100C70002830E1F18091CD019091CE0101969093C1
:100C8000CE018093CD01892B31F480E094E09093E4
:100C9000CE018093CD014091CD015091CE01822FA4
:100CA00061E020E00E94800982E090E0E80EF91EF9
:100CB000F8018485B701A6010E94EC0909C061E032
:100CC00070E080E090E00E94E219C8010E942605D1
:100CD000882321F488E0F801848708C0C8010E94B5
:100CE0002605873161F721E030E002C020E030E0E6
:100CF000C901DF91CF911F910F91FF90EF90DF908D
:100D0000CF9008956F927F928F929F92AF92BF92F1
:100D1000CF92DF92EF92FF920F931F93DF93CF93C7
:100D2000CDB7DEB7E5970FB6F894DEBF0FBECDBFE7
:100D30004C015B013A0193E1E92EF12CEC0EFD1E12
:100D4000C7010E944418CE014B960E942E086E01E6
:100D50000894C11CD11CC6010E9444188E01095F71
:100D60001F4FC8016FE472E00E94BE02C701B801C4
:100D70000E94A312C701B501A6010E9422159C0181
:100D800081309105C9F4D401ED91FC910484F5857D
:100D9000E02D83E292E09E878D878B819C81AD81DF
:100DA000BE818F87988BA98BBA8BC401BE01635F0C
:100DB0007F4FA30109959C01C901E5960FB6F894F0
:100DC000DEBF0FBECDBFCF91DF911F910F91FF907E
:100DD000EF90DF90CF90BF90AF909F908F907F90DB
:100DE0006F900895DC01ED91FC91008CF18DE02D68
:100DF00009950895DB01FC0123E232E03183208371
:100E000051962D913D914D915C915497228333835E
:100E1000448355830895FC01858996890895FC01D2
:100E2000818D928D0895DF93CF930F92CDB7DEB76A
:100E3000FC016983A081B18112962D913C91139799
:100E4000BE016F5F7F4F41E050E0F90109950F90BF
:100E5000CF91DF910895CF93DF93EC0107C0E88134
:100E6000F9810680F781E02DCE010995898D9A8D53
:100E7000892BA9F7DF91CF9108950F9383E692E034
:100E800060E040E020E000E00E94C9170F91089563
:100E9000DF93CF930F92CDB7DEB7FC01818D928D9A
:100EA000892B19F42FEF3FEF09C08485BE016F5FD6
:100EB0007F4F0E94A90A8981282F30E0C9010F9035
:100EC000CF91DF910895CF93DF93EC019A01498D83
:100ED0005A8D41155105A1F02417350710F08C8566
:100EE00002C08C85A9010E94B80A9C011816190637
:100EF0003CF4898D9A8D821B930B9A8F898F02C047
:100F00002FEF3FEFC901DF91CF9108950F931F930A
:100F1000DF93CF930F92CDB7DEB78C01FC01818DAB
:100F2000928D892BA9F08485BE016F5F7F4F41E0D0
:100F300050E00E94B80A1816190654F4F801818D81
:100F4000928D0197928F818F8981282F30E002C086
:100F50002FEF3FEFC9010F90CF91DF911F910F91BC
:100F60000895EF92FF920F931F93DF93CF93CDB726
:100F7000DEB728970FB6F894DEBF0FBECDBF8C0149
:100F8000DC01ED91FC910284F385E02D09958BE65F
:100F900092E0F80164850E94AE0B892B19F420E0E1
:100FA00030E025C0D8011C968C917E010894E11C8C
:100FB000F11CB70148E050E00E94B80A9C011816E5
:100FC0001906ACF4C8010F96B7010E9426189D813E
:100FD00080E02E81820F911DF801968B858B9F8179
:100FE00080E02885820F911D928F818F9C01C9011D
:100FF00028960FB6F894DEBF0FBECDBFCF91DF911C
:101000001F910F91FF90EF9008950F931F938C0104
:10101000FB019A01DC0157966D917C9158971C96C3
:101020008C91AF010E94220A9C01F8018789908D62
:10103000820F931F908F878BC9011F910F91089585
:10104000FC0184850E941F090895FC01108E178AF7
:101050006E5F7F4F84850E94C6090895FC0113824C
:10106000128288EE93E0A0E0B0E084839583A683AB
:10107000B7838FEE91E09183808388E08487CF01EE
:101080000F960E94441808956F927F928F929F92BC
:10109000AF92BF92CF92DF92EF92FF920F931F9386
:1010A000DF93CF93CDB7DEB7E5970FB6F894DEBFE9
:1010B0000FBECDBF4C015B013A0183E1E82EF12C5C
:1010C000EC0EFD1EC7010E944418CE014B960E94F3
:1010D0002E086E010894C11CD11CC6010E94441840
:1010E0008E01095F1F4FC8016FE472E00E94BE02CB
:1010F000C701B8010E94A312C701B501A6010E9451
:1011000022159C0181309105C9F4D401ED91FC9127
:101110000088F189E02D83E292E09E878D878B81A4
:101120009C81AD81BE818F87988BA98BBA8BC401BE
:10113000BE01635F7F4FA30109959C01C901E5963C
:101140000FB6F894DEBF0FBECDBFCF91DF911F91D8
:101150000F91FF90EF90DF90CF90BF90AF909F9056
:101160008F907F906F900895CF93DF93EC018C85E3
:10117000883061F00E944B09EC85F0E0EE0FFF1F14
:10118000E15CFD4F1182108288E08C87DF91CF9166
:101190000895EF92FF920F931F93CF93DF938C01EB
:1011A0007B01FC018485883031F5C0E0D0E0CE01C0
:1011B0008295880F807E682F685F83E090E00E94B0
:1011C000340B882311F0883119F4F801C48704C066
:1011D0002196C830D10559F7F8018485883059F037
:1011E000F686E586128E118E62E0A70120E00E944D
:1011F000800981E001C080E0DF91CF911F910F91C4
:10120000FF90EF900895682F8BE692E048E050E061
:101210000E94790C08959B01682F6295660F607E8D
:10122000685FC9010E94340B08959B01682F629585
:10123000660F607E645FC9010E94F80A08951F93DB
:10124000182F8BE692E0612F40E250E00E94790C6B
:1012500010C0812F62E070E00E940B0983FF09C07B
:10126000812F62E070E048E10E94150920E030E043
:101270000FC0812F62E070E00E940B0984FFE9CF6C
:10128000812F62E070E040E10E94150921E030E02A
:10129000C9011F9108951F93182F8BE692E0612FCB
:1012A00040E150E00E94790C812F62E070E04FEF46
:1012B0000E9415091F9108950F931F93182F062F51
:1012C000472F60E170E00E941509812F61E170E015
:1012D000402F0E9415091F910F9108950F931F939E
:1012E000182F062F472F64E070E00E941509812F08
:1012F00065E070E0402F0E9415091F910F9108953D
:10130000FF920F931F93CF93DF93082FF62EEA01DE
:10131000122F862F8150853010F080E024C0802F5E
:101320000E944B091F29802F60E070E0412F0E942E
:101330001509209719F0802FBE010BC0609169023A
:1013400070916A026F5F7F4F70936A0260936902C7
:10135000802F0E946E098BE692E0602F41E050E002
:101360000E94790C81E0DF91CF911F910F91FF9046
:101370000895AB01682F6295660F607E645F8CE014
:1013800090E024E030E00E94100B08951F93CF936B
:10139000DF93182FFB01EA018081882349F48181C2
:1013A000882331F48281882319F48381882369F0AA
:1013B000209759F0812FBF010E94B909812FBE01EA
:1013C0000E945C0921E030E002C020E030E0C90169
:1013D000DF91CF911F9108951F93CF93DF93182F23
:1013E000FB01EA0180818F3F51F481818F3F91F4AD
:1013F00082818F3F79F483818F3F61F41EC08823FF
:1014000049F48181882331F48281882319F483810E
:10141000882399F0209789F0812FBF010E94B90994
:10142000812FBE010E945C098BE692E0612F44E0AF
:1014300050E00E94790C81E001C080E0DF91CF9103
:101440001F910895AF92BF92DF92EF92FF920F9398
:101450001F93CF93DF93D82EEB015A0189018BE6BE
:1014600092E06D2D0E94E00B8017910710F078013B
:1014700006C08BE692E06D2D0E94E00B7C018BE6AE
:1014800092E06D2DAE01950187010E944B0BC701C3
:10149000DF91CF911F910F91FF90EF90DF90BF9060
:1014A000AF900895CF92DF92EF92FF921F93CF9368
:1014B000DF93182F6B01EA0188E04130580710F0E4
:1014C000C0E0D8E08BE692E0612F0E94E00B7C0147
:1014D000812F63E070E00E940B09873129F08C3185
:1014E00019F0C0E0D0E003C0EC16FD0658F38BE61F
:1014F00092E0612FA6019E010E948C0B8BE692E088
:10150000612F40E250E00E94790C0DC0812F63E012
:1015100070E00E940B09882331F4812F0E944B094F
:10152000C0E0D0E00DC0812F62E070E00E940B09A6
:1015300084FFECCF812F62E070E040E10E9415094A
:10154000CE01DF91CF911F91FF90EF90DF90CF9070
:1015500008950F93282FAB018BE692E0622F21E0D4
:1015600030E001E00E942E0C81E090E00F910895A0
:10157000CF92DF92FF920F931F93CF93DF93F82EBA
:101580006B018A018BE692E06F2D0E94AE0BEC019D
:10159000009761F48F2D63E070E00E940B098431A5
:1015A000D9F08823C9F08C31B9F01FC0081719078A
:1015B0000CF4E8011C161D067CF48BE692E06F2DFE
:1015C000A6019E0100E00E942E0C8BE692E06F2D9A
:1015D00040E450E00E94790CCE01DF91CF911F9141
:1015E0000F91FF90DF90CF900895CFEFDFEFF4CF12
:1015F0002A989EBD0DB407FEFDCF9EB58EBD0DB4DD
:1016000007FEFDCF8EB56EBD0DB407FEFDCF8EB5C6
:101610004EBD0DB407FEFDCF8EB52A9A81E0089528
:101620002A989EBD0DB407FEFDCF9EB58EBD0DB4AC
:1016300007FEFDCF8EB56EBD0DB407FEFDCF8EB596
:1016400060E070E00BC0FA01E60FF71F80818EBDED
:101650000DB407FEFDCF8EB56F5F7F4F6217730726
:1016600090F32A9AC90108952A989EBD0DB407FEE9
:10167000FDCF9EB58EBD0DB407FEFDCF8EB56EBD00
:101680000DB407FEFDCF8EB51EBC0DB407FEFDCF19
:101690008EB52A9A0895AF92BF92CF92DF92EF92C1
:1016A000FF920F931F93C62E7A015901862F64E291
:1016B00070E00E940B09D82E8C2D65E270E00E942C
:1016C0000B09C294CC0C90EEC922E80EF11C9D2DA2
:1016D00080E0E80EF91E84E1C80EC7016C2DA5015B
:1016E00098010E94100BE00EF11E1C2D185084E290
:1016F00090E0612F4F2D0E94F80A85E290E0612F63
:101700004E2D0E94F80A1F910F91FF90EF90DF90ED
:10171000CF90BF90AF9008950F931F93FA01890166
:1017200040E050E09F010E944B0B1F910F910895E4
:10173000FF920F931F93F82E66E270E00E940B0950
:10174000182F00E08F2D67E270E00E940B09080F50
:10175000111DC8011F910F91FF900895FF920F93E3
:101760001F93CF93DF93F62EC0E0D0E08F2D0E9421
:10177000980B8C01009721F08F2D0E94980BEC01A3
:10178000C017D10799F7CE01DF91CF911F910F912B
:10179000FF900895FF920F931F93F82E60E270E080
:1017A0000E940B09182F00E08F2D61E270E00E946B
:1017B0000B09080F111DC8011F910F91FF9008958B
:1017C000FF920F931F93CF93DF93F62EC0E0D0E0EC
:1017D0008F2D0E94CA0B8C01009721F08F2D0E9443
:1017E000CA0BEC01C017D10799F7CE01DF91CF9159
:1017F0001F910F91FF9008952A989EBD0DB407FE8A
:10180000FDCF9EB58EBD0DB407FEFDCF8EB56EBD6E
:101810000DB407FEFDCF8EB560E070E00BC01EBCBE
:101820000DB407FEFDCF8EB5FA01E60FF71F8083DA
:101830006F5F7F4F6217730790F32A9AC90108956B
:101840000F931F93CA016295660F607E685EA901BF
:1018500098010E94FC0B1F910F9108958F929F9207
:10186000AF92BF92CF92DF92EF92FF920F931F93AE
:10187000CF93DF937C01A62E6A014901B02E862FFB
:1018800068E270E00E940B09182F8A2D69E270E06F
:101890000E940B09312F20E0E901C80FD11DC701BB
:1018A0006A2DAE01960184010E94200CBB20A1F498
:1018B0007E01E80CF91C1A2D1295110F107E145F91
:1018C00088E290E0612F4F2D0E94F80A89E290E0B3
:1018D000612F4E2D0E94F80ADF91CF911F910F9139
:1018E000FF90EF90DF90CF90BF90AF909F908F9040
:1018F00008951F93162F6295660F607E645F81E0E6
:1019000090E00E94F80A812F61E070E00E940B09CC
:101910008823C9F71F9108950F931F93229A6CE2B1
:1019200071E080E090E00E94E2190E94AF0C00E0BC
:10193000102F1295110F107E145F8EE190E0612F31
:1019400042E00E94F80A8FE190E0612F42E00E949D
:10195000F80A0F5F083061F71F910F9108958AE030
:1019600061E00E94AF1A8AE061E00E94431A8CB5E0
:1019700080618CBD8CB580648CBD8DE061E00E947F
:10198000431A8BE061E00E94431A0895FB0180E353
:101990008083842F82958F704F704A3014F4405D9D
:1019A00001C0495C41833197882311F0482FF1CF62
:1019B00008950F938CE692E060E040E020E000E0C4
:1019C0000E94C9170F9108950F931F938C01625EB7
:1019D0007F4F0E943318C8011F910F9108950F93F4
:1019E0001F938C016A5E7F4F0E943318C8011F91BC
:1019F0000F9108950F931F938C016E5E7F4F0E948D
:101A00003318C8011F910F9108950F931F938C01F4
:101A1000625F7F4F0E943318C8011F910F91089594
:101A20002F923F924F925F926F927F928F929F92EE
:101A3000AF92BF92CF92DF92EF92FF920F931F93DC
:101A4000DF93CF93CDB7DEB7E8970FB6F894DEBF3C
:101A50000FBECDBF5C013A014B0129010E94AE19B6
:101A60007B018C01F7E4CF2ED12CCA0CDB1C14C0F7
:101A70000E94AE196E197F09800B910B66167706CE
:101A80008806990618F477247A941AC262E370E003
:101A900080E090E00E94E219C6010E94B10718168A
:101AA000190634F7C601BE01635F7F4F42E250E082
:101AB0000E9463078D85823009F0FEC12CE530E07D
:101AC000A20EB31EF5018081918124EA3FEFA20EA0
:101AD000B31E8334910509F0EFC129893A894B89F6
:101AE0005C89E52EFF2400271127B22FAA2799270A
:101AF0008827E82AF92A0A2B1B2BB42FA32F922F11
:101B0000882780709070B070E82AF92A0A2B1B2B66
:101B1000232F342F452F5527207040705070E22A14
:101B2000F32A042B152BF201E082F1820283138346
:101B3000B501685F7F4FCE01899646E050E00E9474
:101B4000F601009799F4F50180819181A281B3811A
:101B5000E816F9060A071B0748F084819581A681DB
:101B6000B7818E159F05A007B10728F4C6010E9412
:101B70002B077724A5C18D8D9E8DAF8DB8A1F50162
:101B800086879787A08BB18B00E010E0C6010E948A
:101B900086070F5F1F4F0E3C1105C1F795012E5EA2
:101BA0003F4F38AF2FABC50146969EAB8DABF501CD
:101BB0007E96FCABEBAB8AE1882E912C8A0C9B1CA9
:101BC00095012A5D3F4F3AAB29ABC5018A9698AB88
:101BD0008FA702E2202E312C2A0C3B1C772418E51B
:101BE000412E512C4A0C5B1C5FC1C6010E94860726
:101BF0008333910509F414C1843391058CF4813049
:101C0000910569F18230910524F4892B09F44CC1C6
:101C100040C18330910551F1069709F03AC142C0A5
:101C20008A33910509F490C08B3391053CF48533D8
:101C3000910569F0C69709F02CC150C08B3391050E
:101C400009F4B8C08F3F910509F023C12DC1C60129
:101C50000E948607C6010E948607782E25C1C6010C
:101C60000E948607C6016FA978AD62C0C6010E94B6
:101C70008607182FC6016DA97EA944E050E00E9496
:101C80006307EE24FF24012F10E00450104006C02B
:101C9000C6010E9486070894E11CF11CE016F106BB
:101CA000BCF302C1C6010E948607182FC6016BA9AA
:101CB0007CA944E050E00E946307EE24FF24012F3A
:101CC00010E00450104006C0C6010E948607089428
:101CD000E11CF11CE016F106BCF3E6C0C6010E944F
:101CE0008607182FF40180819181A281B38100972A
:101CF000A105B105D9F0CE010196B4010E943318B7
:101D000023E232E038872F83F20120813181428142
:101D1000538129873A874B875C878B819C81AD8172
:101D2000BE8182179307A407B50759F4C601B40111
:101D300044E050E00E946307B7C0C6010E948607D6
:101D400011501123D1F7B0C0C6010E948607C60109
:101D500069A97AA944E050E00E946307F50126A131
:101D600037A140A551A5E52EFF2400271127B22F4A
:101D7000AA2799278827E82AF92A0A2B1B2BB42F90
:101D8000A32F922F882780709070B070E82AF92ACC
:101D90000A2B1B2B232F342F452F552720704070E3
:101DA0005070E22AF32A042B152BE6A2F7A200A713
:101DB00011A77AC0C6010E948607C6016FA578A93F
:101DC00044E050E00E946307F50122A533A544A535
:101DD00055A5E52EFF2400271127B22FAA27992702
:101DE0008827E82AF92A0A2B1B2BB42FA32F922F1E
:101DF000882780709070B070E82AF92A0A2B1B2B74
:101E0000232F342F452F5527207040705070E22A21
:101E1000F32A042B152BE2A6F3A604A715A744C0AA
:101E2000C6010E948607C601B10144E050E00E944D
:101E30006307F50122A133A144A155A1E52EFF249A
:101E400000271127B22FAA2799278827E82AF92ADD
:101E50000A2B1B2BB42FA32F922F882780709070F2
:101E6000B070E82AF92A0A2B1B2B232F342F452F79
:101E70005527207040705070E22AF32A042B152B4E
:101E8000E2A2F3A204A315A3E6A6F7A600AB11AB4A
:101E90000BC0C6010E948607182F04C0C6010E940D
:101EA000860711501123D1F7C6010E940F0718169B
:101EB00019060CF49ACE01C07724C6010E942B07A4
:101EC000872DE8960FB6F894DEBF0FBECDBFCF9139
:101ED000DF911F910F91FF90EF90DF90CF90BF9017
:101EE000AF909F908F907F906F905F904F903F90BA
:101EF0002F9008950E96FC0184E1DF011D928A95D2
:101F0000E9F708954F925F926F927F928F929F921E
:101F1000AF92BF92CF92DF92EF92FF920F931F93F7
:101F2000DF93CF93CDB7DEB7E2970FB6F894DEBF5D
:101F30000FBECDBF6C01462E3A01F3E18F2E912CDE
:101F40008C0E9D1EE0E25E2EF401252D11922A9545
:101F5000E9F7CE0107966FEF4FEF2FEF0FEF0E94DB
:101F6000C91777E4A72EB12CAC0CBD1C83E292E01C
:101F70009E878D8789859A85AB85BC858F87988B51
:101F8000A98BBA8BC501BE01635F7F4F43E450E06C
:101F90000E9425088F5F9F4F09F4F3C081E08B8B6F
:101FA0008C8B86E08D8B1E8AF601248135814681DB
:101FB0005781E52EFF2400271127B22FAA27992742
:101FC0008827E82AF92A0A2B1B2BB42FA32F922F3C
:101FD000882780709070B070E82AF92A0A2B1B2B92
:101FE000232F342F452F5527207040705070E22A40
:101FF000F32A042B152BEB82FC820D831E83EF8AC0
:10200000F88E098F1A8F7B8E6C8E80E890E09A8311
:1020100089839E8F8D8FC501B4014CE150E00E94F1
:102020000508F40111925A94E9F7A8E06A2E712C80
:102030006C0C7D1CD401F30186E001900D9281505F
:10204000E1F78E010D5E1F4FC501B80140E150E080
:102050000E94050880E2F80111928A95E9F7EE24C2
:10206000FF24902E012FC501692D702F40E250E012
:102070000E9405080894E11CF11CF6E0EF16F1043B
:1020800091F793E69B8B82E88C8B83E58D8B9E8BFF
:1020900085E38F8B91E0988F498E8DE38A8F87E05F
:1020A0008B8F9C8FDE015D96F30186E001900D928F
:1020B0008150E1F78CE08BA38CA38E010D5E1F4F46
:1020C000CE01859667EA71E00E940302C601BE0157
:1020D000655D7F4FF60143850E94C60CC601BE01B7
:1020E000635D7F4FF60144850E94C60CC601BE01A8
:1020F000615D7F4FF60145850E94C60CC501B801A0
:102100004EE150E00E940508F3E04F16F1F482E33F
:102110008B8B94E09C8BF60186858D8B87858E8BCF
:1021200080898F8B8189888F86E3898F9A8F828DB2
:102130008B8F838D8C8F848D8D8F858D8E8FC50138
:10214000B8014CE050E00E94050887E38B8B96E0D5
:102150009C8B81E08D8B83E08E8B9F8B8FE0888FB3
:102160008AE3898F8BE38A8F8FEF8B8FC501BE0146
:102170006D5E7F4F49E050E00E940508C5010E9456
:102180002008E2960FB6F894DEBF0FBECDBFCF9108
:10219000DF911F910F91FF90EF90DF90CF90BF9054
:1021A000AF909F908F907F906F905F904F90089529
:1021B0002F923F924F925F926F927F928F929F9257
:1021C000AF92BF92CF92DF92EF92FF920F931F9345
:1021D000DF93CF9300D000D0CDB7DEB78C0161E0A4
:1021E00070E080E090E020ED37E040E050E00E94B9
:1021F000041BD80114966C93149715967C9315972D
:1022000016968C93169717969C9317976C93119626
:102210007C93119712968C93129713969C9377E464
:10222000272E312C200E311EC10164E470E00E9483
:10223000C908882319F46624772422C10E94AE19A4
:102240004B015C016624772466E4C62ED12CC00EB7
:10225000D11E5EE3452E512C400E511E42E0E42E6D
:10226000FBC0882309F5F80184819581A681B78197
:102270000196A11DB11D84839583A683B7830E9417
:10228000AE19681979098A099B0928EE33E040E004
:1022900050E00E94411BC80161E0A9010E94820F29
:1022A00081E0D6018C93C2C0843001F5F8018481AD
:1022B0009581A681B7810196A11DB11D8483958367
:1022C000A683B7830E94AE19681979098A099B0908
:1022D00028EE33E040E050E00E94411BC80163E07B
:1022E000A9010E94820FD601EC92A0C0813069F54D
:1022F000F2014081518162817381C8019E012F5F8B
:102300003F4F0E94100DF82EF2E08F1709F089C0A0
:1023100089819A81AB81BC81F80184839583A683EE
:10232000B7830E94AE19681979098A099B0928EEBA
:1023300033E040E050E00E94411BC80163E0A90186
:102340000E94820FD601FC9271C0823009F06EC0EB
:10235000F2014081518162817381C8019E012F5F2A
:102360003F4F0E94100DF82EF5E08F1709F053C073
:10237000E3E0D601EC93F80182A193A1A4A1B5A159
:102380000097A105B10541F484E893E0A0E0B0E036
:1023900082A393A3A4A3B5A3F80186A197A1A0A5A6
:1023A000B1A50097A105B10561F482A193A1A4A1F3
:1023B000B5A1B695A7959795879586A397A3A0A74E
:1023C000B1A7F80182A593A5A4A5B5A50097A1057D
:1023D000B10561F486A197A1A0A5B1A5880F991FA9
:1023E000AA1FBB1F82A793A7A4A7B5A7F80186A120
:1023F00097A1A0A5B1A586A797A7A0ABB1AB82A5D1
:1024000093A5A4A5B5A582AB93ABA4ABB5ABA1E056
:102410006A2E712C0BC0F6E08F1719F4D6011C92AE
:1024200005C0BFEFFB1611F4F6011082F1E06F1644
:10243000710491F00E94AE19681979098A099B0903
:10244000D801DA962D913D914D915C91DD9726173B
:1024500037074807590728F0F6018081833009F0D3
:1024600000CFC1010E94B408F80184819581A68142
:10247000B7810196A11DB11D84839583A683B7837F
:10248000C3010F900F900F900F90CF91DF911F918C
:102490000F91FF90EF90DF90CF90BF90AF909F9003
:1024A0008F907F906F905F904F903F902F90089506
:1024B000CF92DF92EF92FF920F931F93CF93DF9310
:1024C000EC01D62EC72E1AA21BA21CA21DA21EA270
:1024D0001FA218A619A61AA61BA61CA61DA61EAAF0
:1024E0001FAA18AE19AE2AAF3BAF4CAF5DAFEE9648
:1024F000E882F9820A831B83EE978E01085F1F4FE3
:1025000086E0F80111928A95E9F7CE010E947A0FD0
:10251000D8012D2D3C2DC901FC0186E001900D92C2
:102520008150E1F7CA5BDF4F1882C654D040CE011C
:102530000E94D810DF91CF911F910F91FF90EF90E3
:10254000DF90CF9008959C01FB0182819381A4814B
:10255000B581F90182839383A483B58317821682A0
:102560000895CF93DF93FB0101C0319680818823CA
:10257000E1F7EB01A0E0B0E020E030E021C06E32F6
:1025800061F42F3F310509F07CF5FA01EA0FFB1FDA
:102590002283119620E030E012C0C901E3E0880FE9
:1025A000991FEA95E1F7220F331F820F931F262F01
:1025B000332727FD309520533040280F391F2196AF
:1025C0006881662319F0A430B105CCF22F3F3105A4
:1025D00009F054F4A430B1053CF4A40FB51F1296D1
:1025E0002C9321E030E002C020E030E0C901DF910F
:1025F000CF9108950F9382E792E060E040E020E001
:1026000000E00E94C9170F9108952F923F924F92B8
:102610005F926F927F928F929F92AF92BF92CF9272
:10262000DF92EF92FF920F931F93DF93CF93CDB77B
:10263000DEB769970FB6F894DEBF0FBECDBF4C0171
:102640008B011A010E94AE192B013C01F8E0EF2E1C
:10265000F12CE80CF91C5801CC24DD2414C00E9494
:10266000AE196419750986099709A616B706C80632
:10267000D90618F42FEF3FEF0BC162E370E080E062
:1026800090E00E94E219C7010E94B10718161906CE
:1026900034F7F4012281338144815581818D928DFB
:1026A000A38DB48D8A879B87AC87BD872817390790
:1026B0004A075B0709F0EAC0858D968DC59709F03A
:1026C000E5C000C18E01025F1F4FC701B8014CE099
:1026D00050E00E946307F801528143815B834A8383
:1026E000F401268137818E859F852817390711F4DB
:1026F00057FD06C0C7010E942B072CEF3FEFC8C053
:102700004F705270452B31F0C7010E942B072BEF01
:102710003FEFBEC0F801768067806114710441F01C
:10272000AA24BB2448012E010894411C511C28C036
:10273000C7010E942B072AEF3FEFAAC0C701B201D1
:1027400041E050E00E9463078981882321F408C09A
:10275000C7010E9486078981815089838F5FC1F7F5
:102760008981882359F700E010E0C7010E9486079D
:102770000F5F1F4F04301105C1F70894A11CB11C55
:10278000F401D480C580AC14BD04C0F244245524A7
:10279000C701BE016F5F7F4F41E050E00E946307B9
:1027A0009981892F807C61F4992321F40DC0C701A0
:1027B0000E9486078981815089838F5FC1F704C099
:1027C000C7010E94860719828981882309F7C701FA
:1027D000BE016C5F7F4F42E050E00E946307C7017B
:1027E000BE016A5F7F4F42E050E00E94630700E055
:1027F00010E0C7010E9486070F5F1F4F04301105CC
:10280000C1F7C701BE016E5F7F4F42E050E00E94FA
:102810006307DC80CD80F1E0CF16D10419F5BE80CE
:10282000AF8081E0A816B104E9F49A818B81049706
:1028300031F0C7010E942B0727EF3FEF29C0E2E0EC
:10284000F0E02E0E3F1EC701B10144E050E00E94AF
:10285000630721E030E01CC0C7010E9486070F5FBC
:102860001F4F02C000E010E09A808B800815190508
:1028700098F30894411C511C4614570408F488CF5F
:10288000C7010E942B0726EF3FEF02C02EEF3FEF5C
:10289000C90169960FB6F894DEBF0FBECDBFCF91C8
:1028A000DF911F910F91FF90EF90DF90CF90BF903D
:1028B000AF909F908F907F906F905F904F903F90E0
:1028C0002F90089583E292E099878887C7010E943C
:1028D0000F070C970CF0F6CE2DEF3FEFD9CF6F928C
:1028E0007F928F929F92AF92BF92CF92DF92EF92A0
:1028F000FF920F931F93DF93CF9300D00F92CDB72A
:10290000DEB78C01F62EE72E0E94AE19F801778310
:102910006683B8E0CB2ED12CC00ED11E0A5F1F4FAC
:10292000C601B80142E050E00E94050881E090E055
:102930009B838A83A2E08A2E912C8C0E9D1EC60159
:10294000B40142E050E00E94050880E091E09B83E2
:102950008A83C601B40142E050E00E9405081B8250
:102960001A82C601B40142E050E00E940508C60187
:10297000B40142E050E00E940508C601B40142E003
:1029800050E00E9405082F2D3E2DC9018C017C01CD
:102990003E010894611C711C20C00894E11CF11CCC
:1029A000F7018081882311F08E32B9F75701A01A00
:1029B000B10A1A141B0474F48E2D801B8983C6017E
:1029C000B30141E050E00E940508C601B801A5012D
:1029D0000E94050887010F5F1F4FF7018081882340
:1029E00011F07801DDCF1982C601BE016F5F7F4F04
:1029F00041E050E00E94050800E011E01B830A83DB
:102A0000C601B40142E050E00E9405081B830A831E
:102A1000C601B40142E050E00E94050881E090E068
:102A20000F900F900F90CF91DF911F910F91FF901A
:102A3000EF90DF90CF90BF90AF909F908F907F905E
:102A40006F9008958F929F92AF92BF92CF92DF9234
:102A5000EF92FF920F931F93DF93CF9300D000D09C
:102A600000D0CDB7DEB76C017B014A010E94B112E4
:102A7000892B19F001E010E067C0F6012281338153
:102A8000448155818091740290917502A0917602E3
:102A9000B0917702281739074A075B0719F40EEF40
:102AA0001FEF52C018E0A12EB12CAC0CBD1C0E942F
:102AB000AE199B01AC012F70307020503C4FC50106
:102AC000B9010E94C908813019F000E010E03CC053
:102AD00083E292E09A838983F60182819381A481C3
:102AE000B5818B839C83AD83BE83C501BE016F5FBF
:102AF0007F4F45E350E00E9425088C01009709F1C3
:102B0000C601B7010E946F148C010097D1F0C50176
:102B10000E9420088C010097A1F0EE24FF24C6013A
:102B200068E873E1A4010E9405138C010894E11C7C
:102B3000F11CF3E0EF16F10421F08FEF0F3F1807BF
:102B400071F3C5010E94B408C80126960FB6F89427
:102B5000DEBF0FBECDBFCF91DF911F910F91FF90D0
:102B6000EF90DF90CF90BF90AF909F908F9008959F
:102B700008951F920F920FB60F9211242F933F9337
:102B80004F938F939F93EF93FF938091C00082FDAB
:102B90001DC04091C6002091B8023091B9022F5F4C
:102BA0003F4F2F7330708091BA029091BB0228176B
:102BB000390771F0E091B802F091B902E858FD4F81
:102BC00040833093B9022093B80202C08091C600BE
:102BD000FF91EF919F918F914F913F912F910F9086
:102BE0000FBE0F901F901895E0910C03F0910D030C
:102BF000E05CFF4F8191919120813181821B930B89
:102C00008F739070892B11F00E94B81508951F9250
:102C10000F920FB60F9211242F933F938F939F9390
:102C2000EF93FF932091FC023091FD028091FE0210
:102C30009091FF022817390731F48091C1008F7DF0
:102C40008093C10014C0E091FE02F091FF02E454B1
:102C5000FD4F20818091FE029091FF0201968F73BB
:102C600090709093FF028093FE022093C600FF9124
:102C7000EF919F918F913F912F910F900FBE0F90E9
:102C80001F901895AF92BF92DF92EF92FF920F9331
:102C90001F93CF93DF93EC017A018B01DD24403049
:102CA00081EE580780E0680780E0780711F0DD24A6
:102CB000D39491E0A92EB12CEC89FD89DD2069F037
:102CC000C50108A002C0880F991F0A94E2F780830B
:102CD00060E079E08DE390E005C0108260E874E880
:102CE0008EE190E0A80197010E94411B21503040E5
:102CF00040405040569547953795279580E12030C4
:102D0000380720F0DD2011F0DD24D6CFE889F989DD
:102D10003083EA89FB89208319A2EE89FF894081EB
:102D200021E030E0C9010C8C02C0880F991F0A9481
:102D3000E2F7482B4083EE89FF894081C9010D8C61
:102D400002C0880F991F0A94E2F7482B4083EE894E
:102D5000FF894081C9010E8C02C0880F991F0A9417
:102D6000E2F7482B4083EE89FF8980810F8C02C0F7
:102D7000220F331F0A94E2F7209528232083DF9146
:102D8000CF911F910F91FF90EF90DF90BF90AF9088
:102D90000895DC011C96ED91FC911D97E05CFF4FBE
:102DA0002191319180819181281B390B2F733070D3
:102DB000C9010895DC011C96ED91FC911D97E05C22
:102DC000FF4F20813181E054F040DF01AE5BBF4F07
:102DD0008D919C9111972817390719F42FEF3FEF28
:102DE00007C08D919C91E80FF91F8081282F30E05A
:102DF000C9010895DC011C96ED91FC911D97E05CE2
:102E0000FF4F20813181E054F040DF01AE5BBF4FC6
:102E10008D919C9111972817390719F42FEF3FEFE7
:102E200010C08D919C911197E80FF91F20818D9111
:102E30009C91119701968F73907011969C938E932D
:102E400030E0C9010895DC0191968C919197882317
:102E500039F05496ED91FC915597808186FFF9CF1A
:102E600091961C920895CF93DF93EC01EE85FF8538
:102E7000E05CFF4F20813181E054F0402F5F3F4FF5
:102E80002F733070DF01AE5BBF4F8D919C91119716
:102E900028173907D1F3E05CFF4F80819181E0541E
:102EA000F040E80FF91F6083EE85FF85E05CFF4F7F
:102EB00031832083EE89FF89208181E090E00F8CAF
:102EC00002C0880F991F0A94E2F7282B208381E023
:102ED00089A3EC89FD8980818064808381E090E012
:102EE000DF91CF910895109203031092020388EEB0
:102EF00093E0A0E0B0E08093040390930503A093D7
:102F00000603B093070383E192E09093010380935B
:102F1000000388E792E090930D0380930C038CEB01
:102F200092E090930F0380930E0385EC90E09093D2
:102F300011038093100384EC90E09093130380932B
:102F4000120380EC90E0909315038093140381ECBE
:102F500090E0909317038093160382EC90E0909397
:102F600019038093180386EC90E090931B038093E1
:102F70001A0384E080931C0383E080931D0387E0A1
:102F800080931E0385E080931F0381E080932003DC
:102F900008950F93FC0183E292E091838083628322
:102FA0004383248305830F91089583E292E09093F5
:102FB000230380932203109224031092250310927E
:102FC00026031092270308958F929F92AF92BF928B
:102FD000CF92DF92EF92FF920F931F93CF93DF93E5
:102FE0004C016B017C01AA24BB24C0E0D0E0C601E7
:102FF000F70162814AE050E00E9441198C01C6014C
:103000006EE20E948A18080F191FA00EB11E2196A9
:103010000894E11CF11CC330D10549F7C601F40145
:1030200065814AE050E00E9441199501280F391F3F
:10303000C901DF91CF911F910F91FF90EF90DF9029
:10304000CF90BF90AF909F908F9008959C01FB010F
:1030500080819181A281B381F90182839383A483CA
:10306000B583C90108959C01FB0183E292E0D90177
:103070008D939C9380819181A281B381F901828398
:103080009383A483B5830895FC0183E292E0918346
:10309000808312821382148215820895CF93DF9366
:1030A0000E94081A0E944602C4EFD5E10E94210244
:1030B0002097E1F30E94F415F9CF0E949300089540
:1030C000CF92DF92EF92FF920F931F93CF93DF93F4
:1030D0007C016B018A01C0E0D0E00FC0D6016D9188
:1030E0006D01D701ED91FC910190F081E02DC701B8
:1030F0000995C80FD91F015010400115110571F72E
:10310000CE01DF91CF911F910F91FF90EF90DF9053
:10311000CF900895DC01ED91FC910190F081E02DBC
:1031200009950895EF92FF920F931F938C01DC0194
:10313000ED91FC910190F081E02D6DE009957C010D
:10314000D801ED91FC910190F081E02DC8016AE079
:1031500009959C012E0D3F1DC9011F910F91FF90F4
:10316000EF900895CF93DF93EC016115710519F489
:1031700020E030E00FC0DB010D900020E9F711974F
:10318000A61BB70BE881F9810280F381E02DAD0128
:1031900009959C01C901DF91CF9108954F925F92EB
:1031A0007F928F929F92AF92BF92CF92DF92EF92D7
:1031B000FF920F931F93DF93CF93CDB7DEB7A19705
:1031C0000FB6F894DEBF0FBECDBF2C01742ECB011D
:1031D000223008F42AE019A231E2C32ED12CCC0E01
:1031E000DD1E822E9924AA24BB24672D752FA501EC
:1031F00094010E94411B79018A01C801B701A50110
:1032000094010E94221B472D461B0894C108D10837
:103210004A3014F4405D01C0495CF6014083E1147A
:10322000F1040105110521F07E2C5F2DC801DDCFD1
:10323000C201B6010E94B218A1960FB6F894DEBF83
:103240000FBECDBFCF91DF911F910F91FF90EF90F7
:10325000DF90CF90BF90AF909F908F907F905F90C6
:103260004F900895DC012115310541F4ED91FC9159
:103270000190F081E02D642F099508950E94CE18E9
:103280000895EF92FF920F931F939A01E62EFF2469
:1032900000E010E0B801A7010E9432191F910F91C0
:1032A000FF90EF900895EF92FF920F931F937C0190
:1032B0000E94B2188C01C7010E949218080F191FB2
:1032C000C8011F910F91FF90EF9008951F920F92E8
:1032D0000FB60F9211242F933F938F939F93AF9329
:1032E000BF9380912C0390912D03A0912E03B09158
:1032F0002F03309130030196A11DB11D232F2D5FA7
:103300002D3720F02D570196A11DB11D20933003BC
:1033100080932C0390932D03A0932E03B0932F033F
:103320008091280390912903A0912A03B0912B0347
:103330000196A11DB11D8093280390932903A093AA
:103340002A03B0932B03BF91AF919F918F913F912F
:103350002F910F900FBE0F901F9018958FB7F89474
:1033600020912C0330912D0340912E0350912F0377
:103370008FBFB901CA0108959FB7F894209128031F
:103380003091290340912A0350912B0386B5A89BC5
:1033900006C08F3F21F02F5F3F4F4F4F5F4F9FBFC2
:1033A000542F432F322F2227280F311D411D511D2D
:1033B00082E0220F331F441F551F8A95D1F7B901B0
:1033C000CA010895EF92FF920F931F93CF93DF935B
:1033D0007B018C010E94BC19EB010EC00E94BC193C
:1033E0006C1B7D0B685E7340C8F30894E108F1081C
:1033F00001091109C851DC4FE114F104010511055F
:1034000069F7DF91CF911F910F91FF90EF90089591
:10341000789484B5826084BD84B5816084BD85B5AF
:10342000826085BD85B5816085BDEEE6F0E0808176
:1034300081608083E1E8F0E0108280818260808397
:10344000808181608083E0E8F0E08081816080831A
:10345000E1EBF0E0808184608083E0EBF0E080814C
:1034600081608083EAE7F0E08081846080838081EE
:103470008260808380818160808380818068808396
:103480001092C1000895CF93DF93482F50E0CA01F6
:1034900086569F4FFC0134914A575F4FFA01849141
:1034A000882369F190E0880F991FFC01E859FF4FCC
:1034B000A591B491FC01EE58FF4FC591D4916623BC
:1034C00051F42FB7F8948C91932F909589238C9376
:1034D000888189230BC0623061F42FB7F8948C91F6
:1034E000932F909589238C938881832B88832FBF7A
:1034F00006C09FB7F8948C91832B8C939FBFDF916C
:10350000CF910895833071F0843028F48130A1F098
:10351000823021F514C08630B1F08730D1F084308C
:10352000E9F404C0809180008F7703C0809180000F
:103530008F7D80938000089584B58F7702C084B515
:103540008F7D84BD08958091B0008F778093B00007
:1035500008958091B0008F7D8093B0000895FF9210
:103560000F931F93F62E482F50E0CA0182559F4FAC
:10357000FC012491CA0186569F4FFC0114914A57C1
:103580005F4FFA0104910023C9F0222319F0822F22
:103590000E94821AE02FF0E0EE0FFF1FEE58FF4F5F
:1035A000A591B4919FB7F894FF2021F48C911095C8
:1035B000812302C08C91812B8C939FBF1F910F910F
:1035C000FF900895EF92FF920F931F937B018C0160
:1035D000611571058105910529F420E030E040E096
:1035E00050E00BC00E94E801A80197010E94631BF4
:1035F000AC01CB01DA019C01AD01B901CA011F91F7
:103600000F91FF90EF900895EF92FF920F931F9309
:103610007B018C01621773078407950764F4261BEE
:10362000370B480B590BCA01B9010E94E21AE60E8A
:10363000F71E081F191FB701C8011F910F91FF90B6
:10364000EF900895629FD001739FF001829FE00D7B
:10365000F11D649FE00DF11D929FF00D839FF00D11
:10366000749FF00D659FF00D9927729FB00DE11DBD
:10367000F91F639FB00DE11DF91FBD01CF0111249A
:103680000895A1E21A2EAA1BBB1BFD010DC0AA1FA3
:10369000BB1FEE1FFF1FA217B307E407F50720F0BB
:1036A000A21BB30BE40BF50B661F771F881F991F36
:1036B0001A9469F760957095809590959B01AC017F
:1036C000BD01CF01089597FB092E05260ED057FDA9
:1036D00004D0D7DF0AD0001C38F4509540953095BF
:1036E00021953F4F4F4F5F4F0895F6F79095809586
:1036F000709561957F4F8F4F9F4F0895EE0FFF1F7D
:103700000590F491E02D09942F923F924F925F9291
:103710006F927F928F929F92AF92BF92CF92DF92E1
:10372000EF92FF920F931F93CF93DF93CDB7DEB746
:10373000CA1BDB0B0FB6F894DEBF0FBECDBF0994DA
:103740002A88398848885F846E847D848C849B8431
:10375000AA84B984C884DF80EE80FD800C811B813F
:10376000AA81B981CE0FD11D0FB6F894DEBF0FBE6E
:0A377000CDBFED010895F894FFCFDE
:10377A00646973636F6E6E656374696E672E004663
:10378A0061696C656420746F20636F6E6669677522
:10379A0072652045746865726E6574207573696E0A
:1037AA0067204448435000636F6E6E656374696EA8
:1037BA00672E2E2E00636F6E6E6563746564004714
:1037CA004554202F7365617263683F713D6172646D
:1037DA0075696E6F20485454502F312E3100486F4E
:1037EA0073743A207777772E676F6F676C652E63ED
:1037FA006F6D00436F6E6E656374696F6E3A206316
:10380A006C6F736500636F6E6E656374696F6E20AB
:10381A006661696C65640057495A6E6574002000D8
:10382A003503000001000000DEADBEEFFEED777744
:10383A00772E676F6F676C652E636F6D00000400EB
:10384A00000000E404EF05E105C5059B05FC040D35
:10385A00068206C005590535051305000000001348
:10386A000705080F07860748072B07C908B4082564
:10387A000844082008B1076307F206FA060B070096
:10388A0000000033176018C916FA16DA1623170053
:06389A00000000E417002D
:00000001FF
