:100000000C946A000C9492000C9492000C94920050
:100010000C9492000C9492000C9492000C94920018
:100020000C9492000C9492000C9492000C94920008
:100030000C9492000C9492000C9492000C949200F8
:100040000C94D41E0C9492000C948E1A0C94DC1A0E
:100050000C9492000C9492000C9492000C949200D8
:100060000C9492000C9492000000000024002700E1
:100070002A0000000000250028002B0000000000DE
:1000800023002600290004040404040404040202DA
:100090000202020203030303030301020408102007
:1000A0004080010204081020010204081020000012
:1000B0000007000201000003040600000000000029
:1000C0000000AC049306F808BE0A8E0FAF15B618F0
:1000D000481CAA1C11241FBECFEFD8E0DEBFCDBF45
:1000E00013E0A0E0B1E0ECE2F3E402C005900D9271
:1000F000A230B107D9F714E0A2E0B3E001C01D922D
:10010000A03BB107E1F710E0C4EDD0E004C02297B6
:10011000FE010E945921C23CD107C9F70E94231D4C
:100120000C9494210C940000CF93DF93BC01823097
:10013000910510F462E070E0A091AE04B091AF04BC
:10014000ED01E0E0F0E040E050E021C088819981DD
:100150008617970769F48A819B81309719F09383FA
:10016000828304C09093AF048093AE04FE0134C038
:100170006817790738F44115510519F08417950768
:1001800008F4AC01FE018A819B819C01E901209762
:10019000E9F641155105A9F1CA01861B970B049791
:1001A00008F4BA01E0E0F0E02AC08D919C9111972B
:1001B00084179507F9F46417750781F412968D91E9
:1001C0009C911397309719F09383828304C0909386
:1001D000AF048093AE04FD0132964CC0CA01861B69
:1001E000970BFD01E80FF91F6193719302978D93AF
:1001F0009C9340C0FD01828193819C01D90110979D
:10020000A1F68091AC049091AD04892B41F48091CA
:100210006D0290916E029093AD048093AC04409176
:100220006F02509170024115510541F44DB75EB710
:1002300080916B0290916C02481B590B2091AC0489
:100240003091AD04CA01821B930B8617970780F08B
:10025000AB014E5F5F4F8417950750F0420F531F5D
:100260005093AD044093AC04F9016193719302C0C3
:10027000E0E0F0E0CF01DF91CF910895CF93DF93DD
:10028000009709F450C0EC0122971B821A82A091BA
:10029000AE04B091AF04109709F140E050E0AC1704
:1002A000BD0708F1BB83AA83FE0121913191E20FC2
:1002B000F31FAE17BF0779F48D919C911197280F0A
:1002C000391F2E5F3F4F3983288312968D919C9161
:1002D00013979B838A834115510571F4D093AF0422
:1002E000C093AE0420C012968D919C911397AD01DE
:1002F000009711F0DC01D3CFFA01D383C28321919F
:100300003191E20FF31FCE17DF0769F488819981DD
:10031000280F391F2E5F3F4FFA01318320838A81D6
:100320009B8193838283DF91CF910895A0E0B0E019
:10033000ECE9F1E00C946521EC01A880B980CA8059
:10034000DB80A114B104C104D10441F484E2A82EDD
:1003500089EDB82E8BE5C82E87E0D82EC601B501F1
:100360002DE133EF41E050E00E943C2127EA31E4E7
:1003700040E050E00E94FB207B018C01C601B501EA
:100380002DE133EF41E050E00E943C21CA01B90168
:100390002CEE34EF4FEF5FEF0E94FB206E0D7F1DC0
:1003A000801F911F97FF04C06150704080409048AB
:1003B000688379838A839B839B01AC015F77B90152
:1003C000CA01CDB7DEB7EAE00C9481210E94960104
:1003D000089581E792E00E9496010895609371026A
:1003E0007093720280937302909374020895FB01DC
:1003F000DC0104C08D910190801921F441505040DE
:10040000C8F7881B990B0895FB01DC0101900D9240
:100410000020E1F70895AEE0B0E0E1E1F2E00C94F5
:100420006B210D891E8986E08C831A8309838FEFE7
:100430009FE79E838D839E01275E3F4FCE010196ED
:100440006F89788DA9010E942F022F813885020FB4
:10045000131FF80110822E96E4E00C948721ABE084
:10046000B0E0E5E3F2E00C945D213C012B015A0180
:10047000FC0117821682838181FD03C06FEF7FEF3D
:10048000C6C19AE0892E1E010894211C311CF3017B
:100490002381F20123FD859123FF81912F01882380
:1004A00009F4B2C1853239F423FD859123FF81918E
:1004B0002F01853229F490E0B3010E942204E7CF96
:1004C000982FFF24EE249924FFE1FF15D0F09B32F2
:1004D00069F09C3228F4903259F0933291F40EC0B6
:1004E0009D3249F0903369F441E024C052E0F52A8E
:1004F00084E0F82A28C098E0F92A25C0E0E1FE2A25
:1005000022C0F7FC29C0892F80538A3070F4F6FE90
:1005100005C0989C902C1124980E15C0E89CE02CE6
:100520001124E80EF0E2FF2A0EC09E3229F4F6FCF8
:100530006BC140E4F42A07C09C3619F450E8F52A50
:1005400002C0983649F4F20123FD959123FF919161
:100550002F01992309F0B8CF892F8554833018F0E3
:100560008052833038F444E050E0A40EB51E5FE3BF
:1005700059830FC0933631F0933779F0933509F0F2
:1005800056C020C0F5018081898342E050E0A40E6E
:10059000B51E610101E010E012C0F501C080D180FC
:1005A000F6FC03C06FEF7FEF02C0692D70E042E000
:1005B00050E0A40EB51EC6010E9417048C015FE72F
:1005C000F52214C0F501C080D180F6FC03C06FEFA6
:1005D0007FEF02C0692D70E042E050E0A40EB51E2E
:1005E000C6010E940C048C0150E8F52AF3FE07C0F6
:1005F0001AC080E290E0B3010E942204EA948E2D9A
:1006000090E008171907A8F30EC0F601F7FC8591D2
:10061000F7FE81916F0190E0B3010E942204E11086
:10062000EA94015010400115110579F7EAC094369B
:1006300011F0993669F5F7FE08C0F5012081318186
:100640004281538184E090E00AC0F501808191816C
:100650009C01442737FD4095542F82E090E0A80E7E
:10066000B91E9FE6F92257FF09C050954095309575
:1006700021953F4F4F4F5F4FE0E8FE2ACA01B90175
:10068000A1012AE030E00E944E04D82ED21840C0CA
:10069000953729F41F2D1F7E2AE030E01DC01F2D45
:1006A000197F9F3661F0903720F4983509F0ACC07F
:1006B0000FC0903739F0983709F0A6C004C028E081
:1006C00030E00AC0106114FD146020E130E004C085
:1006D00014FD166020E132E017FF08C0F5016081CB
:1006E00071818281938144E050E008C0F5018081EE
:1006F0009181BC0180E090E042E050E0A40EB51E84
:10070000A1010E944E04D82ED2188FE7F82EF122B4
:10071000F6FE0BC05EEFF522D91438F4F4FE07C0E4
:10072000F2FC05C08FEEF82202C01D2D01C0192D6C
:10073000F4FE0DC0FE01ED0DF11D8081803319F432
:1007400099EEF92208C01F5FF2FE05C003C08F2D8D
:10075000867809F01F5F0F2DF3FC14C0F0FE0FC068
:100760001E1510F09D2C0BC09D2C9E0C911A1E2D59
:1007700006C080E290E0B3010E9422041F5F1E15B4
:10078000C0F304C01E1510F4E11A01C0EE2404FFEA
:100790000FC080E390E0B3010E94220402FF1DC05D
:1007A00001FD03C088E790E00EC088E590E00BC033
:1007B000802F867891F001FF02C08BE201C080E2B9
:1007C000F7FC8DE290E0B3010E94220406C080E3B2
:1007D00090E0B3010E9422049A94D914C0F3DA94F1
:1007E000F101ED0DF11D808190E0B3010E94220422
:1007F000DD20A9F706C080E290E0B3010E94220448
:10080000EA94EE20C1F743CEF30166817781CB01F4
:100810002B96E2E10C947921FC0105906150704027
:100820000110D8F7809590958E0F9F1F0895FC01B9
:100830006150704001900110D8F7809590958E0F0F
:100840009F1F08950F931F93CF93DF938C01EB01AC
:100850008B8181FF1BC082FF0DC02E813F818C8167
:100860009D812817390764F4E881F9810193F983A0
:10087000E88306C0E885F985802F0995892B31F436
:100880008E819F8101969F838E8302C00FEF1FEFA1
:10089000C801DF91CF911F910F910895FA01AA2706
:1008A000283051F1203181F1E8946F936E7F6E5FB3
:1008B0007F4F8F4F9F4FAF4FB1E03ED0B4E03CD061
:1008C000670F781F891F9A1FA11D680F791F8A1F44
:1008D000911DA11D6A0F711D811D911DA11D20D0AB
:1008E00009F468943F912AE0269F11243019305D65
:1008F0003193DEF6CF010895462F4770405D419356
:10090000B3E00FD0C9F7F6CF462F4F70405D4A33A2
:1009100018F0495D31FD4052419302D0A9F7EACF6A
:10092000B4E0A6959795879577956795BA95C9F799
:1009300000976105710508959B01AC010A2E06948C
:100940005795479537952795BA95C9F7620F731F45
:10095000841F951FA01D08950F938EEA93E060E019
:1009600040E020E000E00E949E1C82E093E060EC0A
:1009700048EA21E00AE00E949E1C88E093E060E0E3
:1009800071E00E94B10B0F9108950F931F93CF93C5
:10099000DF938C018BE794E063E371E00E94C11E5A
:1009A00088E093E0B8010E944A0B8823E9F088E0D0
:1009B00093E06BE774E00E94370BEC01883C9105F3
:1009C00029F48BE794E065E471E012C08BE794E0D2
:1009D00069E471E00E94BE1E8BE794E0BE014AE02C
:1009E00050E00E949F1E06C08BE794E067E571E02F
:1009F0000E94C11EDF91CF911F910F9108950F9317
:100A00001F93DF93CF93CDB7DEB72C970FB6F89433
:100A1000DEBF0FBECDBF68E873E180E090E00E94CA
:100A2000501F8BE794E040E855E260E070E00E94E0
:100A3000171B84EC93E00E940E08892BE9F48BE7E6
:100A400094E066E671E00E94C11E80E093E09A8324
:100A500089838091040390910503A0910603B091CE
:100A600007038B839C83AD83BE8384EC93E0BE013C
:100A70006F5F7F4F0E94D6078BE794E066E971E0D5
:100A80000E94BE1E8E01095F1F4FC80164EC73E017
:100A90000E94A2068BE794E0B8010E94871D8BE7B5
:100AA00094E063E371E00E94C11E85E792E00E943A
:100AB000C5042C960FB6F894DEBF0FBECDBFCF9104
:100AC000DF911F910F9108956F927F928F929F9265
:100AD000AF92BF92CF92DF92EF92FF920F931F934C
:100AE0008EE00E94B11F90931B0380931A0300D0E5
:100AF00000D0AA2797FDA095BA2F28E833E140E05F
:100B000050E0EDB7FEB72183328343835483BC01A9
:100B1000CD0120E030E040E050E0EFEFEE2EE3E0EA
:100B2000FE2E012D112DAA24BB2465010E947220E6
:100B300070931B0360931A030F900F900F900F9008
:100B40008FE00E94B11F90931D0380931C0300D07F
:100B500000D0AA2797FDA095BA2F28EE33E040E0F9
:100B600050E0EDB7FEB72183328343835483BC0149
:100B7000CD0120E030E040E050E00E947220709310
:100B80001D0360931C030F900F900F900F9080E156
:100B90000E94B11F90931F0380931E0300D000D0CA
:100BA000AA2797FDA095BA2F24E6622E712C812CDE
:100BB000912CEDB7FEB76182728283829482BC0170
:100BC000CD0120E030E040E050E00E9472207093C0
:100BD0001F0360931E030F900F900F900F9081E101
:100BE0000E94B11F909321038093200300D000D076
:100BF000AA2797FDA095BA2FEDB7FEB76182728242
:100C000083829482BC01CD0120E030E040E050E0DE
:100C10000E947220709321036093200300D000D0C3
:100C2000EDB7FEB7319602E213E0ADB7BEB712964C
:100C30001C930E93119783EB91E0938382838091B1
:100C40001C0390911D039583848380911E039091D2
:100C50001F03978386830E940B02EDB7FEB7389679
:100C60000FB6F894FEBF0FBEEDBFC8010E94C504C9
:100C70006AE070E080E090E00E94501F8DB79EB760
:100C800008970FB6F8949EBF0FBE8DBFEDB7FEB7A5
:100C90003196ADB7BEB712961C930E93119789ED9E
:100CA00091E09383828380911A0390911B03958333
:100CB00084838091200390912103978386830E94EF
:100CC0000B02EDB7FEB738960FB6F894FEBF0FBE15
:100CD000EDBFC8010E94C5041F910F91FF90EF90D6
:100CE000DF90CF90BF90AF909F908F907F906F904C
:100CF000089560E67AEE80E090E00E94501F0E9426
:100D000064050895DB01FC0120E033E0318320839A
:100D100012962D913D914D915C91159722833383CD
:100D20004483558308950F938CEC93E060E040E09A
:100D300020E000E00E949E1C84EC93E00E94191DBC
:100D40000F910895EF92FF920F931F93182F092F81
:100D5000E82EF92EC7010E94191D82E090E0E80EEE
:100D6000F91E8FE090E060E0A70124E030E00E94EF
:100D7000B10E812F902F1F910F91FF90EF9008954A
:100D8000AB018FE090E064E024E030E00E94C50D0C
:100D90000895AB0181E090E064E024E030E00E943F
:100DA000C50D0895AB0185E090E064E024E030E0FB
:100DB0000E94C50D08956F927F928F929F92AF927D
:100DC000BF92CF92DF92EF92FF920F931F933C015D
:100DD0007B014A01590180EEC82E83E0D82EC6015E
:100DE0000E94410F82E090E0E80EF91EC601B701B3
:100DF0000E94C006E2E0F0E0AE0EBF1EC601B501E3
:100E00000E94C9060E5F1F4FC601B8010E94D2069C
:100E1000F40182819381A481B581F301828393835C
:100E2000A483B5831F910F91FF90EF90DF90CF9037
:100E3000BF90AF909F908F907F906F9008958F920A
:100E40009F92AF92BF92CF92DF92EF92FF920F9359
:100E50001F93DF93CF93CDB7DEB76E970FB6F8949D
:100E6000DEBF0FBECDBF4C017B016A015901CE012F
:100E700001966FEF4FEF2FEF00E00E949E1C20E0E5
:100E800033E038872F83F70182819381A481B58174
:100E900089879A87AB87BC873E872D87F601828139
:100EA0009381A481B5818F87988BA98BBA8B3C8B5A
:100EB0002B8BF50182819381A481B5818D8B9E8BD3
:100EC000AF8BB88F3A8F298F8B819C81AD81BE818A
:100ED0008B8F9C8FAD8FBE8FC401BE01695F7F4F2A
:100EE000AE01435F5F4F9E012D5E3F4F8E01075E57
:100EF0001F4F0E94DB066E960FB6F894DEBF0FBE42
:100F0000CDBFCF91DF911F910F91FF90EF90DF90B8
:100F1000CF90BF90AF909F908F900895DF93CF9325
:100F2000CDB7DEB768970FB6F894DEBF0FBECDBF62
:100F3000FB01DA0122813381448155812B833C837B
:100F40004D835E8360E073E078876F8329873A87FB
:100F50004B875C877E876D8712962D913D914D91D1
:100F60005C9115972F87388B498B5A8B7C8B6B8BB9
:100F700021E02E832B813C814D815E812D8B3E8B28
:100F80004F8B588FBE01695F7F4FAE01435F5F4F4C
:100F90009E012D5E3F4F0E941F0768960FB6F89482
:100FA000DEBF0FBECDBFCF91DF910895DF93CF930A
:100FB000CDB7DEB762970FB6F894DEBF0FBECDBFD8
:100FC000FB0122813381448155812B833C834D83F6
:100FD0005E8360E073E078876F8329873A874B8769
:100FE0005C877E876D8721E02E832B813C814D813C
:100FF0005E812F87388B498B5A8BBE01695F7F4F8B
:10100000AE01435F5F4F0E948E0762960FB6F89461
:10101000DEBF0FBECDBFCF91DF910895CF92DF929B
:10102000EF92FF920F931F93DF93CF93CDB7DEB76D
:10103000A4970FB6F894DEBF0FBECDBF6C017E0142
:101040000894E11CF11C86E0F70111928A95E9F7FA
:1010500082E690E00E94321D8C01895B9F4F0E94C6
:10106000E909F6011783068380EE93E00E94410FA1
:10107000CE01079660E040E020E000E00E949E1C68
:1010800080EE93E0BE01675F7F4F0E94C00689E05B
:1010900090E060E0A70126E030E00E94B10EF6018A
:1010A00086819781B70120E63AEE40E050E0F0EA11
:1010B000EF2EFFE0FF2E012D112D0E940D158C014A
:1010C00081309105D1F5F60166817781CE010D96CB
:1010D0000E94BA0F80EE93E0BE01615F7F4F0E94D5
:1010E000C006F60166817781CE0143960E94A40F67
:1010F00080EE93E0BE016B5E7F4F0E94C906F60151
:1011000066817781CE0149960E94AF0F80EE93E011
:10111000BE01655E7F4F0E94D206F601668177812F
:10112000CE014F960E94990F89A19AA1ABA1BCA1B3
:10113000F60182839383A483B583C801A4960FB676
:10114000F894DEBF0FBECDBFCF91DF911F910F91FD
:10115000FF90EF90DF90CF900895DC01ED91FC912E
:10116000008CF18DE02D09950895DB01FC0120E054
:1011700033E03183208351962D913D914D915C91C7
:10118000549722833383448355830895FC018589D2
:1011900096890895FC01818D928D0895DF93CF93F8
:1011A0000F92CDB7DEB7FC016983A081B1811296A1
:1011B0002D913C911397BE016F5F7F4F41E050E04E
:1011C000F90109950F90CF91DF910895CF93DF93A7
:1011D000EC0107C0E881F9810680F781E02DCE019E
:1011E0000995898D9A8D892BA9F7DF91CF91089563
:1011F0000F9382ED93E060E040E020E000E00E9489
:101200009E1C0F910895DF93CF930F92CDB7DEB759
:10121000FC01818D928D892B19F42FEF3FEF09C0CE
:101220008485BE016F5F7F4F0E945E0D8981282FEC
:1012300030E0C9010F90CF91DF910895CF93DF93F4
:10124000EC019A01498D5A8D41155105A1F02417E1
:10125000350710F08C8502C08C85A9010E946D0DA8
:101260009C01181619063CF4898D9A8D821B930BEC
:101270009A8F898F02C02FEF3FEFC901DF91CF9185
:1012800008950F931F93DF93CF930F92CDB7DEB7DF
:101290008C01FC01818D928D892BA9F08485BE0182
:1012A0006F5F7F4F41E050E00E946D0D18161906E8
:1012B00054F4F801818D928D0197928F818F8981ED
:1012C000282F30E002C02FEF3FEFC9010F90CF91E0
:1012D000DF911F910F910895EF92FF920F931F934B
:1012E000DF93CF93CDB7DEB728970FB6F894DEBF64
:1012F0000FBECDBF8C01DC01ED91FC910284F38522
:10130000E02D099580EE93E0F80164850E94630E5C
:10131000892B19F420E030E025C0D8011C968C916F
:101320007E010894E11CF11CB70148E050E00E94E6
:101330006D0D9C0118161906ACF4C8010F96B70183
:101340000E94FB1C9D8180E02E81820F911DF8017F
:10135000968B858B9F8180E02885820F911D928FCF
:10136000818F9C01C90128960FB6F894DEBF0FBE8D
:10137000CDBFCF91DF911F910F91FF90EF90089516
:101380000F931F938C01FB019A01DC0157966D911D
:101390007C9158971C968C91AF010E94D70C9C01B0
:1013A000F8018789908D820F931F908F878BC901D9
:1013B0001F910F910895FC0184850E94D40B08951C
:1013C000FC01108E178A6E5F7F4F84850E947B0C14
:1013D0000895FC011382128288EE93E0A0E0B0E051
:1013E00084839583A683B78380EB92E09183808387
:1013F00088E08487CF010F960E94191D08956F928F
:101400007F928F929F92AF92BF92CF92DF92EF9294
:10141000FF920F931F93DF93CF93CDB7DEB7E5977E
:101420000FB6F894DEBF0FBECDBF4C015B013A0191
:1014300083E1E82EF12CEC0EFD1EC7010E94191D60
:10144000CE014B960E94E9096E010894C11CD11C83
:10145000C6010E94191D8E01095F1F4FC80164EC6F
:1014600073E00E948206C701B8010E945815C701A7
:10147000B501A6010E94D7179C0181309105C9F4DE
:10148000D401ED91FC910088F189E02D80E093E09A
:101490009E878D878B819C81AD81BE818F87988B44
:1014A000A98BBA8BC401BE01635F7F4FA30109956D
:1014B0009C01C901E5960FB6F894DEBF0FBECDBF03
:1014C000CF91DF911F910F91FF90EF90DF90CF9020
:1014D000BF90AF909F908F907F906F900895CF9323
:1014E000DF93EC018C85883061F00E94000CEC8564
:1014F000F0E0EE0FFF1FEC54FC4F1182108288E0E9
:101500008C87DF91CF910895EF92FF920F931F93F5
:10151000CF93DF938C017B01FC018485883031F50A
:10152000C0E0D0E0CE018295880F807E682F685F92
:1015300083E090E00E94E90D882311F0883119F4CE
:10154000F801C48704C02196C830D10559F7F801C5
:101550008485883059F0F686E586128E118E62E019
:10156000A70120E00E94350C81E001C080E0DF91FE
:10157000CF911F910F91FF90EF9008950F9388EDF9
:1015800093E060E040E020E000E00E949E1C0F91AC
:101590000895DF92EF92FF920F931F93CF93DF9303
:1015A0008C017B01EC012596CE010E94D018882386
:1015B000C1F4E114F10441F40CC0CE010E946019A1
:1015C000682FC7010E945F1DCE010E947C19892BE4
:1015D000A1F7CE010E949718CE010E94F41880E076
:1015E0003EC0CE010E947C19892BC1F1CE010E9420
:1015F0006019D82EE114F10421F0C7016D2D0E946D
:101600005F1DF8018081882319F0813039F507C00A
:10161000F0E2DF1619F581E0F801808320C08D2DFE
:1016200080538A30C0F4F801818192819C0153E09B
:10163000220F331F5A95E1F7880F991F280F391F82
:10164000205330408D2D992787FD9095280F391F05
:101650003283218303C082E0F801808381E0DF913F
:10166000CF911F910F91FF90EF90DF9008950F930E
:101670001F93CF93DF93EC018B01CE01B8010E9441
:10168000C90A8823D1F789819A81DF91CF911F916F
:101690000F910895EF92FF920F931F93CF93DF93D3
:1016A0008C01F62EE72EDC011C9212961C921E92E3
:1016B0001197EC012596CE0163EF71E040E550E013
:1016C0000E941D1A892B11F480E044C0CE016DE008
:1016D00072E00E94C11ECE0163E472E00E94BE1E51
:1016E000EF2DFE2DDF010D900020E9F79D01215027
:1016F00030402E1B3F0BF801A381B481FD01019006
:101700000020E9F73197EA1BFB0B2E0F3F1F225FEA
:101710003F4FCE01B9014AE050E00E94301ECE0199
:101720000E94671DCE0164E572E00E94BE1ED801D2
:1017300013966D917C911497CE010E94BE1ECE012E
:101740006BE572E00E94BE1ECE016F2D7E2D0E94C1
:10175000C11E81E0DF91CF911F910F91FF90EF901B
:101760000895FC017483638305960E946D180895A3
:10177000682F80EE93E048E050E00E942E0F08951D
:101780009B01682F6295660F607E685FC9010E94A9
:10179000E90D08959B01682F6295660F607E645F76
:1017A000C9010E94AD0D08951F93182F80EE93E09C
:1017B000612F40E250E00E942E0F10C0812F62E0A6
:1017C00070E00E94C00B83FF09C0812F62E070E0CF
:1017D00048E10E94CA0B20E030E00FC0812F62E098
:1017E00070E00E94C00B84FFE9CF812F62E070E0BF
:1017F00040E10E94CA0B21E030E0C9011F91089529
:101800001F93182F80EE93E0612F40E150E00E947B
:101810002E0F812F62E070E04FEF0E94CA0B1F91E4
:1018200008950F931F93182F062F472F60E170E044
:101830000E94CA0B812F61E170E0402F0E94CA0B09
:101840001F910F9108950F931F93182F062F472F65
:1018500064E070E00E94CA0B812F65E070E0402FC9
:101860000E94CA0B1F910F910895FF920F931F932F
:10187000CF93DF93082FF62EEA01122F862F815087
:10188000853010F080E024C0802F0E94000C1F29BA
:10189000802F60E070E0412F0E94CA0B209719F062
:1018A000802FBE010BC06091DE037091DF036F5F7C
:1018B0007F4F7093DF036093DE03802F0E94230C21
:1018C00080EE93E0602F41E050E00E942E0F81E017
:1018D000DF91CF911F910F91FF900895AB01682F79
:1018E0006295660F607E645F8CE090E024E030E0FB
:1018F0000E94C50D08951F93CF93DF93182FFB010E
:10190000EA018081882349F48181882331F482812E
:10191000882319F48381882369F0209759F0812F57
:10192000BF010E946E0C812FBE010E94110C21E0AC
:1019300030E002C020E030E0C901DF91CF911F917B
:1019400008951F93CF93DF93182FFB01EA01808145
:101950008F3F51F481818F3F91F482818F3F79F4E1
:1019600083818F3F61F41EC0882349F481818823DD
:1019700031F48281882319F48381882399F0209798
:1019800089F0812FBF010E946E0C812FBE010E9441
:10199000110C80EE93E0612F44E050E00E942E0F86
:1019A00081E001C080E0DF91CF911F910895AF9257
:1019B000BF92DF92EF92FF920F931F93CF93DF932B
:1019C000D82EEB015A01890180EE93E06D2D0E9423
:1019D000950E8017910710F0780106C080EE93E015
:1019E0006D2D0E94950E7C0180EE93E06D2DAE0171
:1019F000950187010E94000EC701DF91CF911F91D1
:101A00000F91FF90EF90DF90BF90AF900895CF922D
:101A1000DF92EF92FF921F93CF93DF93182F6B010A
:101A2000EA0188E04130580710F0C0E0D8E080EECD
:101A300093E0612F0E94950E7C01812F63E070E09E
:101A40000E94C00B873129F08C3119F0C0E0D0E042
:101A500003C0EC16FD0658F380EE93E0612FA6015B
:101A60009E010E94410E80EE93E0612F40E250E023
:101A70000E942E0F0DC0812F63E070E00E94C00B0A
:101A8000882331F4812F0E94000CC0E0D0E00DC00B
:101A9000812F62E070E00E94C00B84FFECCF812FA9
:101AA00062E070E040E10E94CA0BCE01DF91CF916D
:101AB0001F91FF90EF90DF90CF9008950F93282F04
:101AC000AB0180EE93E0622F21E030E001E00E9464
:101AD000E30E81E090E00F910895CF92DF92FF92A4
:101AE0000F931F93CF93DF93F82E6B018A0180EE43
:101AF00093E06F2D0E94630EEC01009761F48F2D2F
:101B000063E070E00E94C00B8431D9F08823C9F0F3
:101B10008C31B9F01FC0081719070CF4E8011C1626
:101B20001D067CF480EE93E06F2DA6019E0100E07F
:101B30000E94E30E80EE93E06F2D40E450E00E949F
:101B40002E0FCE01DF91CF911F910F91FF90DF906B
:101B5000CF900895CFEFDFEFF4CF2A989EBD0DB45C
:101B600007FEFDCF9EB58EBD0DB407FEFDCF8EB531
:101B70006EBD0DB407FEFDCF8EB54EBD0DB407FE94
:101B8000FDCF8EB52A9A81E008952A989EBD0DB4A6
:101B900007FEFDCF9EB58EBD0DB407FEFDCF8EB501
:101BA0006EBD0DB407FEFDCF8EB560E070E00BC0DA
:101BB000FA01E60FF71F80818EBD0DB407FEFDCF41
:101BC0008EB56F5F7F4F6217730790F32A9AC90132
:101BD00008952A989EBD0DB407FEFDCF9EB58EBD1B
:101BE0000DB407FEFDCF8EB56EBD0DB407FEFDCF63
:101BF0008EB51EBC0DB407FEFDCF8EB52A9A089592
:101C0000AF92BF92CF92DF92EF92FF920F931F930A
:101C1000C62E7A015901862F64E270E00E94C00B43
:101C2000D82E8C2D65E270E00E94C00BC294CC0CC3
:101C300090EEC922E80EF11C9D2D80E0E80EF91E01
:101C400084E1C80EC7016C2DA50198010E94C50D45
:101C5000E00EF11E1C2D185084E290E0612F4F2DF4
:101C60000E94AD0D85E290E0612F4E2D0E94AD0DDA
:101C70001F910F91FF90EF90DF90CF90BF90AF90AA
:101C800008950F931F93FA01890140E050E09F01EE
:101C90000E94000E1F910F910895FF920F931F93C2
:101CA000F82E66E270E00E94C00B182F00E08F2D26
:101CB00067E270E00E94C00B080F111DC8011F9160
:101CC0000F91FF900895FF920F931F93CF93DF938F
:101CD000F62EC0E0D0E08F2D0E944D0E8C010097B3
:101CE00021F08F2D0E944D0EEC01C017D10799F7FE
:101CF000CE01DF91CF911F910F91FF900895FF9238
:101D00000F931F93F82E60E270E00E94C00B182F13
:101D100000E08F2D61E270E00E94C00B080F111DE2
:101D2000C8011F910F91FF900895FF920F931F9389
:101D3000CF93DF93F62EC0E0D0E08F2D0E947F0E70
:101D40008C01009721F08F2D0E947F0EEC01C017AF
:101D5000D10799F7CE01DF91CF911F910F91FF909D
:101D600008952A989EBD0DB407FEFDCF9EB58EBD89
:101D70000DB407FEFDCF8EB56EBD0DB407FEFDCFD1
:101D80008EB560E070E00BC01EBC0DB407FEFDCF49
:101D90008EB5FA01E60FF71F80836F5F7F4F6217E2
:101DA000730790F32A9AC90108950F931F93CA01EC
:101DB0006295660F607E685EA90198010E94B10E6F
:101DC0001F910F9108958F929F92AF92BF92CF92E1
:101DD000DF92EF92FF920F931F93CF93DF937C01DB
:101DE000A62E6A014901B02E862F68E270E00E949B
:101DF000C00B182F8A2D69E270E00E94C00B312FB2
:101E000020E0E901C80FD11DC7016A2DAE0196017E
:101E100084010E94D50EBB20A1F47E01E80CF91CC0
:101E20001A2D1295110F107E145F88E290E0612F39
:101E30004F2D0E94AD0D89E290E0612F4E2D0E9442
:101E4000AD0DDF91CF911F910F91FF90EF90DF903B
:101E5000CF90BF90AF909F908F9008951F93162FB3
:101E60006295660F607E645F81E090E00E94AD0D38
:101E7000812F61E070E00E94C00B8823C9F71F9199
:101E800008950F931F93229A6CE271E080E090E036
:101E90000E94501F0E94640F00E0102F1295110F36
:101EA000107E145F8EE190E0612F42E00E94AD0D44
:101EB0008FE190E0612F42E00E94AD0D0F5F08308E
:101EC00061F71F910F9108958AE061E00E943F2021
:101ED0008AE061E00E94D31F8CB580618CBD8CB517
:101EE00080648CBD8DE061E00E94D31F8BE061E0D7
:101EF0000E94D31F0895FB0180E38083842F829585
:101F00008F704F704A3014F4405D01C0495C4183CA
:101F10003197882311F0482FF1CF08950F9381EE68
:101F200093E060E040E020E000E00E949E1C0F9102
:101F300008950F931F938C01625E7F4F0E94081DCE
:101F4000C8011F910F9108950F931F938C016A5E32
:101F50007F4F0E94081DC8011F910F9108950F9394
:101F60001F938C016E5E7F4F0E94081DC8011F9158
:101F70000F9108950F931F938C01625F7F4F0E9412
:101F8000081DC8011F910F9108952F923F924F9203
:101F90005F926F927F928F929F92AF92BF92CF92F9
:101FA000DF92EF92FF920F931F93DF93CF93CDB702
:101FB000DEB7E8970FB6F894DEBF0FBECDBF5C0169
:101FC0003A014B0129010E941C1F7B018C01F7E49F
:101FD000CF2ED12CCA0CDB1C14C00E941C1F6E1902
:101FE0007F09800B910B661677068806990618F410
:101FF00077247A941AC262E370E080E090E00E9455
:10200000501FC6010E946C091816190634F7C60144
:10201000BE01635F7F4F42E250E00E941E098D8542
:10202000823009F0FEC12CE530E0A20EB31EF501AE
:102030008081918124EA3FEFA20EB31E8334910583
:1020400009F0EFC129893A894B895C89E52EFF2483
:1020500000271127B22FAA2799278827E82AF92ACB
:102060000A2B1B2BB42FA32F922F882780709070E0
:10207000B070E82AF92A0A2B1B2B232F342F452F67
:102080005527207040705070E22AF32A042B152B3C
:10209000F201E082F18202831383B501685F7F4F12
:1020A000CE01899646E050E00E94F701009799F42E
:1020B000F50180819181A281B381E816F9060A07B2
:1020C0001B0748F084819581A681B7818E159F05F5
:1020D000A007B10728F4C6010E94E6087724A5C12D
:1020E0008D8D9E8DAF8DB8A1F50186879787A08BCA
:1020F000B18B00E010E0C6010E9441090F5F1F4F45
:102100000E3C1105C1F795012E5E3F4F38AF2FAB46
:10211000C50146969EAB8DABF5017E96FCABEBAB55
:102120008AE1882E912C8A0C9B1C95012A5D3F4FD9
:102130003AAB29ABC5018A9698AB8FA702E2202E55
:10214000312C2A0C3B1C772418E5412E512C4A0CCB
:102150005B1C5FC1C6010E9441098333910509F4EC
:1021600014C1843391058CF48130910569F182307A
:10217000910524F4892B09F44CC140C183309105A9
:1021800051F1069709F03AC142C08A33910509F42A
:1021900090C08B3391053CF48533910569F0C69767
:1021A00009F02CC150C08B33910509F4B8C08F3FA2
:1021B000910509F023C12DC1C6010E944109C60144
:1021C0000E944109782E25C1C6010E944109C6011D
:1021D0006FA978AD62C0C6010E944109182FC601DF
:1021E0006DA97EA944E050E00E941E09EE24FF2460
:1021F000012F10E00450104006C0C6010E944109A2
:102200000894E11CF11CE016F106BCF302C1C60102
:102210000E944109182FC6016BA97CA944E050E037
:102220000E941E09EE24FF24012F10E004501040EC
:1022300006C0C6010E9441090894E11CF11CE01689
:10224000F106BCF3E6C0C6010E944109182FF40153
:1022500080819181A281B3810097A105B105D9F058
:10226000CE010196B4010E94081D20E033E03887BA
:102270002F83F201208131814281538129873A875E
:102280004B875C878B819C81AD81BE8182179307D0
:10229000A407B50759F4C601B40144E050E00E9418
:1022A0001E09B7C0C6010E94410911501123D1F780
:1022B000B0C0C6010E944109C60169A97AA944E0DB
:1022C00050E00E941E09F50126A137A140A551A5A5
:1022D000E52EFF2400271127B22FAA279927882748
:1022E000E82AF92A0A2B1B2BB42FA32F922F882719
:1022F00080709070B070E82AF92A0A2B1B2B232FCC
:10230000342F452F5527207040705070E22AF32A51
:10231000042B152BE6A2F7A200A711A77AC0C601CD
:102320000E944109C6016FA578A944E050E00E94CF
:102330001E09F50122A533A544A555A5E52EFF24C8
:1023400000271127B22FAA2799278827E82AF92AD8
:102350000A2B1B2BB42FA32F922F882780709070ED
:10236000B070E82AF92A0A2B1B2B232F342F452F74
:102370005527207040705070E22AF32A042B152B49
:10238000E2A6F3A604A715A744C0C6010E9441090E
:10239000C601B10144E050E00E941E09F50122A1EE
:1023A00033A144A155A1E52EFF2400271127B22F08
:1023B000AA2799278827E82AF92A0A2B1B2BB42F4A
:1023C000A32F922F882780709070B070E82AF92A86
:1023D0000A2B1B2B232F342F452F5527207040709D
:1023E0005070E22AF32A042B152BE2A2F3A204A3D5
:1023F00015A3E6A6F7A600AB11AB0BC0C6010E9461
:102400004109182F04C0C6010E944109115011232F
:10241000D1F7C6010E94CA08181619060CF49ACE04
:1024200001C07724C6010E94E608872DE8960FB602
:10243000F894DEBF0FBECDBFCF91DF911F910F91FA
:10244000FF90EF90DF90CF90BF90AF909F908F90D4
:102450007F906F905F904F903F902F9008950E96D1
:10246000FC0184E1DF011D928A95E9F708954F92FE
:102470005F926F927F928F929F92AF92BF92CF9214
:10248000DF92EF92FF920F931F93DF93CF93CDB71D
:10249000DEB7E2970FB6F894DEBF0FBECDBF6C017A
:1024A000462E3A01F3E18F2E912C8C0E9D1EE0E218
:1024B0005E2EF401252D11922A95E9F7CE0107969B
:1024C0006FEF4FEF2FEF0FEF0E949E1C77E4A72EC8
:1024D000B12CAC0CBD1C80E093E09E878D87898574
:1024E0009A85AB85BC858F87988BA98BBA8BC501E4
:1024F000BE01635F7F4F43E450E00E94E0098F5FBD
:102500009F4F09F4F3C081E08B8B8C8B86E08D8B21
:102510001E8AF6012481358146815781E52EFF24EC
:1025200000271127B22FAA2799278827E82AF92AF6
:102530000A2B1B2BB42FA32F922F8827807090700B
:10254000B070E82AF92A0A2B1B2B232F342F452F92
:102550005527207040705070E22AF32A042B152B67
:10256000EB82FC820D831E83EF8AF88E098F1A8F0F
:102570007B8E6C8E80E890E09A8389839E8F8D8F0E
:10258000C501B4014CE150E00E94C009F401119270
:102590005A94E9F7A8E06A2E712C6C0C7D1CD401CA
:1025A000F30186E001900D928150E1F78E010D5EFE
:1025B0001F4FC501B80140E150E00E94C00980E210
:1025C000F80111928A95E9F7EE24FF24902E012F4D
:1025D000C501692D702F40E250E00E94C0090894A7
:1025E000E11CF11CF6E0EF16F10491F793E69B8BEA
:1025F00082E88C8B83E58D8B9E8B85E38F8B91E0BE
:10260000988F498E8DE38A8F87E08B8F9C8FDE01B8
:102610005D96F30186E001900D928150E1F78CE028
:102620008BA38CA38E010D5E1F4FCE01859664E6B1
:1026300072E00E940402C601BE01655D7F4FF60193
:1026400043850E947B0FC601BE01635D7F4FF6018B
:1026500044850E947B0FC601BE01615D7F4FF6017C
:1026600045850E947B0FC501B8014EE150E00E94F4
:10267000C009F3E04F16F1F482E38B8B94E09C8B5E
:10268000F60186858D8B87858E8B80898F8B8189DE
:10269000888F86E3898F9A8F828D8B8F838D8C8F25
:1026A000848D8D8F858D8E8FC501B8014CE050E0F3
:1026B0000E94C00987E38B8B96E09C8B81E08D8B19
:1026C00083E08E8B9F8B8FE0888F8AE3898F8BE3EB
:1026D0008A8F8FEF8B8FC501BE016D5E7F4F49E002
:1026E00050E00E94C009C5010E94DB09E2960FB6C6
:1026F000F894DEBF0FBECDBFCF91DF911F910F9138
:10270000FF90EF90DF90CF90BF90AF909F908F9011
:102710007F906F905F904F9008952F923F924F92CD
:102720005F926F927F928F929F92AF92BF92CF9261
:10273000DF92EF92FF920F931F93DF93CF9300D01E
:1027400000D0CDB7DEB78C0161E070E080E090E0B2
:1027500020ED37E040E050E00E94DD20D8011496E3
:102760006C93149715967C93159716968C931697E1
:1027700017969C9317976C9311967C9311971296CA
:102780008C93129713969C9377E4272E312C200E6E
:10279000311EC10164E470E00E94840A882319F4A8
:1027A0006624772422C10E941C1F4B015C01662411
:1027B000772466E4C62ED12CC00ED11E5EE3452ED2
:1027C000512C400E511E42E0E42EFBC0882309F537
:1027D000F80184819581A681B7810196A11DB11D63
:1027E00084839583A683B7830E941C1F6819790987
:1027F0008A099B0928EE33E040E050E00E941A214C
:10280000C80161E0A9010E94371281E0D6018C93D2
:10281000C2C0843001F5F80184819581A681B78119
:102820000196A11DB11D84839583A683B7830E9461
:102830001C1F681979098A099B0928EE33E040E0DA
:1028400050E00E941A21C80163E0A9010E943712DA
:10285000D601EC92A0C0813069F5F201408151812E
:1028600062817381C8019E012F5F3F4F0E94C50F97
:10287000F82EF2E08F1709F089C089819A81AB8127
:10288000BC81F80184839583A683B7830E941C1FB3
:10289000681979098A099B0928EE33E040E050E085
:1028A0000E941A21C80163E0A9010E943712D601D3
:1028B000FC9271C0823009F06EC0F20140815181FA
:1028C00062817381C8019E012F5F3F4F0E94C50F37
:1028D000F82EF5E08F1709F053C0E3E0D601EC9332
:1028E000F80182A193A1A4A1B5A10097A105B1050A
:1028F00041F484E893E0A0E0B0E082A393A3A4A312
:10290000B5A3F80186A197A1A0A5B1A50097A1053F
:10291000B10561F482A193A1A4A1B5A1B695A79533
:102920009795879586A397A3A0A7B1A7F80182A53D
:1029300093A5A4A5B5A50097A105B10561F486A14D
:1029400097A1A0A5B1A5880F991FAA1FBB1F82A799
:1029500093A7A4A7B5A7F80186A197A1A0A5B1A5A3
:1029600086A797A7A0ABB1AB82A593A5A4A5B5A553
:1029700082AB93ABA4ABB5ABA1E06A2E712C0BC0BC
:10298000F6E08F1719F4D6011C9205C0BFEFFB16B5
:1029900011F4F6011082F1E06F16710491F00E94BB
:1029A0001C1F681979098A099B09D801DA962D91AB
:1029B0003D914D915C91DD972617370748075907E0
:1029C00028F0F6018081833009F000CFC1010E9418
:1029D0006F0AF80184819581A681B7810196A11DB6
:1029E000B11D84839583A683B783C3010F900F9095
:1029F0000F900F90CF91DF911F910F91FF90EF906B
:102A0000DF90CF90BF90AF909F908F907F906F900E
:102A10005F904F903F902F900895CF92DF92EF926A
:102A2000FF920F931F93CF93DF93EC01D62EC72E07
:102A30001AA21BA21CA21DA21EA21FA218A619A6A2
:102A40001AA61BA61CA61DA61EAA1FAA18AE19AE62
:102A50002AAF3BAF4CAF5DAFEE96E882F9820A83B6
:102A60001B83EE978E01085F1F4F86E0F8011192DD
:102A70008A95E9F7CE010E942F12D8012D2D3C2D09
:102A8000C901FC0186E001900D928150E1F7CA5B1B
:102A9000DF4F1882C654D040CE010E948D13DF91C3
:102AA000CF911F910F91FF90EF90DF90CF900895FD
:102AB0009C01FB0182819381A481B581F90182830C
:102AC0009383A483B583178216820895CF93DF93EF
:102AD000FB0101C0319680818823E1F7EB01A0E082
:102AE000B0E020E030E021C06E3261F42F3F3105CC
:102AF00009F07CF5FA01EA0FFB1F2283119620E012
:102B000030E012C0C901E3E0880F991FEA95E1F7B0
:102B1000220F331F820F931F262F332727FD309557
:102B200020533040280F391F21966881662319F001
:102B3000A430B105CCF22F3F310509F054F4A43094
:102B4000B1053CF4A40FB51F12962C9321E030E0A0
:102B500002C020E030E0C901DF91CF9108950F93CA
:102B600087EE93E060E040E020E000E00E949E1CE1
:102B70000F9108952F923F924F925F926F927F92A2
:102B80008F929F92AF92BF92CF92DF92EF92FF927D
:102B90000F931F93DF93CF93CDB7DEB769970FB62F
:102BA000F894DEBF0FBECDBF4C018B011A010E940D
:102BB0001C1F2B013C01F8E0EF2EF12CE80CF91C56
:102BC0005801CC24DD2414C00E941C1F641975090F
:102BD00086099709A616B706C806D90618F42FEF76
:102BE0003FEF0BC162E370E080E090E00E94501F75
:102BF000C7010E946C091816190634F7F4012281E6
:102C0000338144815581818D928DA38DB48D8A87C6
:102C10009B87AC87BD87281739074A075B0709F0F0
:102C2000EAC0858D968DC59709F0E5C000C18E017B
:102C3000025F1F4FC701B8014CE050E00E941E091F
:102C4000F801528143815B834A83F40126813781F5
:102C50008E859F852817390711F457FD06C0C701D7
:102C60000E94E6082CEF3FEFC8C04F705270452B12
:102C700031F0C7010E94E6082BEF3FEFBEC0F8011C
:102C8000768067806114710441F0AA24BB24480156
:102C90002E010894411C511C28C0C7010E94E6085F
:102CA0002AEF3FEFAAC0C701B20141E050E00E9405
:102CB0001E098981882321F408C0C7010E944109A7
:102CC0008981815089838F5FC1F78981882359F772
:102CD00000E010E0C7010E9441090F5F1F4F043060
:102CE0001105C1F70894A11CB11CF401D480C58062
:102CF000AC14BD04C0F244245524C701BE016F5F6B
:102D00007F4F41E050E00E941E099981892F807C0D
:102D100061F4992321F40DC0C7010E944109898102
:102D2000815089838F5FC1F704C0C7010E944109A8
:102D300019828981882309F7C701BE016C5F7F4F23
:102D400042E050E00E941E09C701BE016A5F7F4F4A
:102D500042E050E00E941E0900E010E0C7010E941E
:102D600041090F5F1F4F04301105C1F7C701BE01B4
:102D70006E5F7F4F42E050E00E941E09DC80CD80F4
:102D8000F1E0CF16D10419F5BE80AF8081E0A8161E
:102D9000B104E9F49A818B81049731F0C7010E9454
:102DA000E60827EF3FEF29C0E2E0F0E02E0E3F1EDD
:102DB000C701B10144E050E00E941E0921E030E06B
:102DC0001CC0C7010E9441090F5F1F4F02C000E0F5
:102DD00010E09A808B800815190598F30894411C1F
:102DE000511C4614570408F488CFC7010E94E60816
:102DF00026EF3FEF02C02EEF3FEFC90169960FB6F5
:102E0000F894DEBF0FBECDBFCF91DF911F910F9120
:102E1000FF90EF90DF90CF90BF90AF909F908F90FA
:102E20007F906F905F904F903F902F90089580E03B
:102E300093E099878887C7010E94CA080C970CF015
:102E4000F6CE2DEF3FEFD9CF6F927F928F929F9268
:102E5000AF92BF92CF92DF92EF92FF920F931F93A8
:102E6000DF93CF9300D00F92CDB7DEB78C01F62E53
:102E7000E72E0E941C1FF80177836683B8E0CB2EF3
:102E8000D12CC00ED11E0A5F1F4FC601B80142E00F
:102E900050E00E94C00981E090E09B838A83A2E019
:102EA0008A2E912C8C0E9D1EC601B40142E050E08A
:102EB0000E94C00980E091E09B838A83C601B4012F
:102EC00042E050E00E94C0091B821A82C601B40190
:102ED00042E050E00E94C009C601B40142E050E067
:102EE0000E94C009C601B40142E050E00E94C0093E
:102EF0002F2D3E2DC9018C017C013E010894611CDF
:102F0000711C20C00894E11CF11CF701808188230A
:102F100011F08E32B9F75701A01AB10A1A141B0426
:102F200074F48E2D801B8983C601B30141E050E00B
:102F30000E94C009C601B801A5010E94C00987010D
:102F40000F5F1F4FF7018081882311F07801DDCFDB
:102F50001982C601BE016F5F7F4F41E050E00E94C1
:102F6000C00900E011E01B830A83C601B40142E0FE
:102F700050E00E94C0091B830A83C601B40142E0ED
:102F800050E00E94C00981E090E00F900F900F90F8
:102F9000CF91DF911F910F91FF90EF90DF90CF9035
:102FA000BF90AF909F908F907F906F9008958F9279
:102FB0009F92AF92BF92CF92DF92EF92FF920F93C8
:102FC0001F93DF93CF9300D000D000D0CDB7DEB7F2
:102FD0006C017B014A010E946615892B19F001E002
:102FE00010E067C0F60122813381448155818091D0
:102FF000E9039091EA03A091EB03B091EC03281749
:1030000039074A075B0719F40EEF1FEF52C018E0AB
:10301000A12EB12CAC0CBD1C0E941C1F9B01AC014D
:103020002F70307020503C4FC501B9010E94840AB6
:10303000813019F000E010E03CC080E093E09A831A
:103040008983F60182819381A481B5818B839C83DE
:10305000AD83BE83C501BE016F5F7F4F45E350E086
:103060000E94E0098C01009709F1C601B7010E9496
:1030700024178C010097D1F0C5010E94DB098C0157
:103080000097A1F0EE24FF24C60168E873E1A401D3
:103090000E94BA158C010894E11CF11CF3E0EF16B4
:1030A000F10421F08FEF0F3F180771F3C5010E9463
:1030B0006F0AC80126960FB6F894DEBF0FBECDBFCB
:1030C000CF91DF911F910F91FF90EF90DF90CF9004
:1030D000BF90AF909F908F900895FC011382128251
:1030E00088EE93E0A0E0B0E084839583A683B78365
:1030F00084ED92E09183808388E084870895DF9354
:10310000CF930F92CDB7DEB7FC016983A081B18167
:1031100012962D913C911397BE016F5F7F4F41E056
:1031200050E0F90109950F90CF91DF910895CF9369
:10313000DF93EC0107C0E881F9810680F781E02D7B
:10314000CE010995E881F9810480F581E02DCE0159
:103150000995892B81F7DF91CF91089520E0FC013B
:103160008485883009F021E0822F08950F938DEE39
:1031700093E060E040E020E000E00E949E1C0F91A0
:103180000895FC016485683011F480E0089562952B
:10319000660F607E685F83E090E00E94E90D08950D
:1031A000CF93DF93EC018C85883011F480E019C057
:1031B000CE010E94C118843191F0882381F08831BA
:1031C00071F08C3151F4E881F9810480F581E02DB2
:1031D000CE01099520E0892B19F021E001C020E003
:1031E000822FDF91CF910895EF92FF920F931F935B
:1031F000CF93DF93EC018C85883089F10E94B80B66
:103200000E941C1F7B018C01CE010E94C1188823E3
:1032100001F10E941C1F6E197F09800B910B685EE3
:10322000734080409040A8F461E070E080E090E05E
:103230000E94501FE9CF8C850E94000CEC85F0E0C5
:10324000EE0FFF1FEC54FC4F1182108288E08C8738
:1032500006C0CE010E94C118882381F3ECCFDF9114
:10326000CF911F910F91FF90EF9008950F931F93AF
:10327000DF93CF930F92CDB7DEB78C01DC01ED91D8
:10328000FC910480F581E02D0995892B19F42FEF2D
:103290003FEF0AC0F8018485BE016F5F7F4F0E9437
:1032A0005E0D8981282F30E0C9010F90CF91DF9109
:1032B0001F910F910895FC0184850E946D0D089562
:1032C000DF93CF930F92CDB7DEB7FC018485BE01AB
:1032D0006F5F7F4F41E050E00E946D0D1816190698
:1032E0001CF02FEF3FEF03C08981282F30E0C90188
:1032F0000F90CF91DF910895FC016485683019F437
:1033000020E030E005C080EE93E00E94630E9C0157
:10331000C90108950F931F93CF93DF938C01EA01A6
:10332000FC018485883019F481E090E007C00E9498
:10333000070D892B39F481E090E0F80193838283B3
:10334000C0E0D0E0CE01DF91CF911F910F910895A1
:10335000CF92DF92EF92FF920F931F93CF93DF9361
:103360008C017B016A01FC018485883009F059C019
:10337000C0E0D0E0CE018295880F807E682F685F24
:1033800083E090E00E94E90D882321F0883111F05C
:103390008C3119F4F801C48704C02196C830D105D6
:1033A00049F7F80124852830E1F18091A902909134
:1033B000AA0201969093AA028093A902892B31F464
:1033C00080E094E09093AA028093A9024091A90220
:1033D0005091AA02822F61E020E00E94350C82E029
:1033E00090E0E80EF91EF8018485B701A6010E945D
:1033F000A10C09C061E070E080E090E00E94501FE5
:10340000C8010E94C118882321F488E0F80184874C
:1034100008C0C8010E94C118873161F721E030E07F
:1034200002C020E030E0C901DF91CF911F910F91E0
:10343000FF90EF90DF90CF9008956F927F928F92E0
:103440009F92AF92BF92CF92DF92EF92FF920F9333
:103450001F93DF93CF93CDB7DEB7E5970FB6F89400
:10346000DEBF0FBECDBF4C015B013A0193E1E92EF7
:10347000F12CEC0EFD1EC7010E94191DCE014B96CA
:103480000E94E9096E010894C11CD11CC6010E946A
:10349000191D8E01095F1F4FC80164EC73E00E9483
:1034A0008206C701B8010E945815C701B501A601DF
:1034B0000E94D7179C0181309105C9F4D401ED9188
:1034C000FC910484F585E02D80E093E09E878D8754
:1034D0008B819C81AD81BE818F87988BA98BBA8BA4
:1034E000C401BE01635F7F4FA30109959C01C9011F
:1034F000E5960FB6F894DEBF0FBECDBFCF91DF913A
:103500001F910F91FF90EF90DF90CF90BF90AF9001
:103510009F908F907F906F90089508951F920F92C3
:103520000FB60F9211242F933F934F938F939F9336
:10353000EF93FF938091C00082FD1DC04091C600B3
:1035400020913304309134042F5F3F4F2F7330703C
:1035500080913504909136042817390771F0E09175
:103560003304F0913404ED50FC4F40833093340425
:103570002093330402C08091C600FF91EF919F9188
:103580008F914F913F912F910F900FBE0F901F90F1
:103590001895E0918704F0918804E05CFF4F8191D9
:1035A000919120813181821B930B8F739070892BB5
:1035B00011F00E948D1A08951F920F920FB60F926C
:1035C00011242F933F938F939F93EF93FF93209119
:1035D0007704309178048091790490917A042817C7
:1035E000390731F48091C1008F7D8093C10014C0F0
:1035F000E0917904F0917A04E95CFB4F208180919D
:10360000790490917A0401968F73907090937A0464
:10361000809379042093C600FF91EF919F918F9141
:103620003F912F910F900FBE0F901F901895AF9262
:10363000BF92DF92EF92FF920F931F93CF93DF938E
:10364000EC017A018B01DD24403081EE580780E0E7
:10365000680780E0780711F0DD24D39491E0A92E6B
:10366000B12CEC89FD89DD2069F0C50108A002C0FC
:10367000880F991F0A94E2F7808360E079E08DE378
:1036800090E005C0108260E874E88EE190E0A80147
:1036900097010E941A2121503040404050405695D9
:1036A00047953795279580E12030380720F0DD20B9
:1036B00011F0DD24D6CFE889F9893083EA89FB89C6
:1036C000208319A2EE89FF89408121E030E0C90101
:1036D0000C8C02C0880F991F0A94E2F7482B408394
:1036E000EE89FF894081C9010D8C02C0880F991FA6
:1036F0000A94E2F7482B4083EE89FF894081C90193
:103700000E8C02C0880F991F0A94E2F7482B408361
:10371000EE89FF8980810F8C02C0220F331F0A942B
:10372000E2F7209528232083DF91CF911F910F91FD
:10373000FF90EF90DF90BF90AF900895DC011C9652
:10374000ED91FC911D97E05CFF4F219131918081BB
:103750009181281B390B2F733070C9010895DC014A
:103760001C96ED91FC911D97E05CFF4F208131810B
:10377000E054F040DF01AE5BBF4F8D919C911197FB
:103780002817390719F42FEF3FEF07C08D919C914F
:10379000E80FF91F8081282F30E0C9010895DC016E
:1037A0001C96ED91FC911D97E05CFF4F20813181CB
:1037B000E054F040DF01AE5BBF4F8D919C911197BB
:1037C0002817390719F42FEF3FEF10C08D919C9106
:1037D0001197E80FF91F20818D919C911197019607
:1037E0008F73907011969C938E9330E0C901089569
:1037F000DC0191968C919197882339F05496ED9144
:10380000FC915597808186FFF9CF91961C9208957F
:10381000CF93DF93EC01EE85FF85E05CFF4F2081C5
:103820003181E054F0402F5F3F4F2F733070DF0144
:10383000AE5BBF4F8D919C91119728173907D1F33B
:10384000E05CFF4F80819181E054F040E80FF91F68
:103850006083EE85FF85E05CFF4F31832083EE8936
:10386000FF89208181E090E00F8C02C0880F991FB2
:103870000A94E2F7282B208381E089A3EC89FD8953
:1038800080818064808381E090E0DF91CF91089512
:1038900010927E0410927D0488EE93E0A0E0B0E0E8
:1038A00080937F0490938004A0938104B09382045A
:1038B00080EF92E090937C0480937B0483EF93E00D
:1038C000909388048093870487E394E090938A041C
:1038D0008093890485EC90E090938C0480938B0412
:1038E00084EC90E090938E0480938D0480EC90E0C3
:1038F0009093900480938F0481EC90E090939204D5
:103900008093910482EC90E09093940480939304CC
:1039100086EC90E0909396048093950484E08093E5
:10392000970483E08093980487E08093990485E06E
:1039300080939A0481E080939B0408950F93FC0187
:1039400080E093E0918380836283438324830583B3
:103950000F91089580E093E090939E0480939D04DE
:1039600010929F041092A0041092A1041092A2043D
:1039700008958F929F92AF92BF92CF92DF92EF9273
:10398000FF920F931F93CF93DF934C016B017C0148
:10399000AA24BB24C0E0D0E0C601F70162814AE05E
:1039A00050E00E944D1E8C01C6016EE20E945F1D18
:1039B000080F191FA00EB11E21960894E11CF11CDE
:1039C000C330D10549F7C601F40165814AE050E0F2
:1039D0000E944D1E9501280F391FC901DF91CF911B
:1039E0001F910F91FF90EF90DF90CF90BF90AF901D
:1039F0009F908F9008959C01FB0180819181A2810D
:103A0000B381F90182839383A483B583C9010895A7
:103A10009C01FB0180E093E0D9018D939C93808110
:103A20009181A281B381F90182839383A483B583B9
:103A30000895FC0180E093E09183808312821382D9
:103A4000148215820895CF93DF930E94761F0E94FF
:103A5000FF04C9ECDAE10E9479062097E1F30E94A5
:103A6000C91AF9CF0E9494000895CF92DF92EF9285
:103A7000FF920F931F93CF93DF937C016B018A0119
:103A8000C0E0D0E00FC0D6016D916D01D701ED917E
:103A9000FC910190F081E02DC7010995C80FD91F55
:103AA000015010400115110571F7CE01DF91CF9142
:103AB0001F910F91FF90EF90DF90CF900895DC0160
:103AC000ED91FC910190F081E02D09950895EF9220
:103AD000FF920F931F938C01DC01ED91FC910190FB
:103AE000F081E02D6DE009957C01D801ED91FC910C
:103AF0000190F081E02DC8016AE009959C012E0D2E
:103B00003F1DC9011F910F91FF90EF900895EF9213
:103B1000FF920F931F937C01DB01ED91FC910190CB
:103B2000F081E02DCB01B70109958C01C7010E94FE
:103B3000671D080F191FC8011F910F91FF90EF908B
:103B40000895CF93DF93EC016115710519F420E01E
:103B500030E00FC0DB010D900020E9F71197A61BA4
:103B6000B70BE881F9810280F381E02DAD01099561
:103B70009C01C901DF91CF9108954F925F927F928E
:103B80008F929F92AF92BF92CF92DF92EF92FF926D
:103B90000F931F93DF93CF93CDB7DEB7A1970FB6E7
:103BA000F894DEBF0FBECDBF2C01742ECB012230A6
:103BB00008F42AE019A231E2C32ED12CCC0EDD1E6E
:103BC000822E9924AA24BB24672D752FA501940168
:103BD0000E941A2179018A01C801B701A501940147
:103BE0000E94FB20472D461B0894C108D1084A308B
:103BF00014F4405D01C0495CF6014083E114F10416
:103C00000105110521F07E2C5F2DC801DDCFC20119
:103C1000B6010E94A11DA1960FB6F894DEBF0FBE9B
:103C2000CDBFCF91DF911F910F91FF90EF90DF906B
:103C3000CF90BF90AF909F908F907F905F904F906C
:103C40000895DC012115310541F4ED91FC910190BD
:103C5000F081E02D642F099508950E94BD1D0895FF
:103C6000CF92DF92EF92FF920F931F936C017B0133
:103C70009A0100E010E0B801A7010E94211E8C010A
:103C8000C6010E94671D080F191FC8011F910F91DF
:103C9000FF90EF90DF90CF900895EF92FF920F93F7
:103CA0001F939A01E62EFF2400E010E0B801A7015F
:103CB0000E94211E1F910F91FF90EF900895CF92C7
:103CC000DF92EF92FF920F931F93CF93DF93EC015C
:103CD0006A017B012115310541F4E881F9810190E8
:103CE000F081E02D642F09951FC02A303105D1F4F1
:103CF00077FF17C0E881F9810190F081E02D6DE236
:103D000009958C0144275527BA014C195D096E09A4
:103D10007F09CE012AE00E94BD1D9801280F391F9E
:103D200004C02AE00E94BD1D9C01C901DF91CF9112
:103D30001F910F91FF90EF90DF90CF900895CF9259
:103D4000DF92EF92FF920F931F936C017B019A0118
:103D50000027F7FC0095102FB801A7010E945F1EF5
:103D60008C01C6010E94671D080F191FC8011F9111
:103D70000F91FF90EF90DF90CF9008950E94A11DCA
:103D80000895EF92FF920F931F937C010E94A11D53
:103D90008C01C7010E94671D080F191FC8011F91E0
:103DA0000F91FF90EF9008951F920F920FB60F9210
:103DB00011242F933F938F939F93AF93BF93809141
:103DC000A7049091A804A091A904B091AA043091ED
:103DD000AB040196A11DB11D232F2D5F2D3720F0BF
:103DE0002D570196A11DB11D2093AB048093A7040C
:103DF0009093A804A093A904B093AA048091A3046B
:103E00009091A404A091A504B091A6040196A11DCF
:103E1000B11D8093A3049093A404A093A504B09330
:103E2000A604BF91AF919F918F913F912F910F90D9
:103E30000FBE0F901F9018958FB7F8942091A7048C
:103E40003091A8044091A9045091AA048FBFB901F0
:103E5000CA0108959FB7F8942091A3043091A40457
:103E60004091A5045091A60486B5A89B06C08F3F3B
:103E700021F02F5F3F4F4F4F5F4F9FBF542F432F76
:103E8000322F2227280F311D411D511D82E0220FA4
:103E9000331F441F551F8A95D1F7B901CA010895F0
:103EA000EF92FF920F931F93CF93DF937B018C01CF
:103EB0000E942A1FEB010EC00E942A1F6C1B7D0B63
:103EC000685E7340C8F30894E108F108010911091C
:103ED000C851DC4FE114F1040105110569F7DF91C8
:103EE000CF911F910F91FF90EF900895789484B532
:103EF000826084BD84B5816084BD85B5826085BDE6
:103F000085B5816085BDEEE6F0E0808181608083CB
:103F1000E1E8F0E0108280818260808380818160AE
:103F20008083E0E8F0E0808181608083E1EBF0E075
:103F3000808184608083E0EBF0E080818160808319
:103F4000EAE7F0E080818460808380818260808302
:103F50008081816080838081806880831092C1002D
:103F60000895982F8E3008F09E5097708091AB0284
:103F70008295880F880F807C892B80937C008091AC
:103F80007A00806480937A0080917A0086FDFCCF6D
:103F90002091780040917900942F80E030E0282B28
:103FA000392BC9010895CF93DF93482F50E0CA0100
:103FB00086569F4FFC0134914A575F4FFA01849116
:103FC000882369F190E0880F991FFC01E859FF4FA1
:103FD000A591B491FC01EE58FF4FC591D491662391
:103FE00051F42FB7F8948C91932F909589238C934B
:103FF000888189230BC0623061F42FB7F8948C91CB
:10400000932F909589238C938881832B88832FBF4E
:1040100006C09FB7F8948C91832B8C939FBFDF9140
:10402000CF910895833071F0843028F48130A1F06D
:10403000823021F514C08630B1F08730D1F0843061
:10404000E9F404C0809180008F7703C080918000E4
:104050008F7D80938000089584B58F7702C084B5EA
:104060008F7D84BD08958091B0008F778093B000DC
:1040700008958091B0008F7D8093B0000895FF92E5
:104080000F931F93F62E482F50E0CA0182559F4F81
:10409000FC012491CA0186569F4FFC0114914A5796
:1040A0005F4FFA0104910023C9F0222319F0822FF7
:1040B0000E941220E02FF0E0EE0FFF1FEE58FF4F9E
:1040C000A591B4919FB7F894FF2021F48C9110959D
:1040D000812302C08C91812B8C939FBF1F910F91E4
:1040E000FF9008952F923F924F925F926F927F922E
:1040F0008F929F92AF92BF92CF92DF92EF92FF92F8
:104100000F931F93DF93CF93CDB7DEB73B014C01E5
:1041100019012A016D897E898F89988D6A197B0919
:104120008C099D09621A730A840A950AA4019301F5
:104130000E94FB20E218F30804091509A801970161
:104140000E943C212A0D3B1D4C1D5D1DB901CA0179
:10415000CF91DF911F910F91FF90EF90DF90CF9063
:10416000BF90AF909F908F907F906F905F904F9097
:104170003F902F900895EF92FF920F931F937B0132
:104180008C01611571058105910529F420E030E06D
:1041900040E050E00BC00E94E901A80197010E9495
:1041A0003C21AC01CB01DA019C01AD01B901CA018E
:1041B0001F910F91FF90EF900895EF92FF920F9350
:1041C0001F937B018C01621773078407950764F4C2
:1041D000261B370B480B590BCA01B9010E94BB20A3
:1041E000E60EF71E081F191FB701C8011F910F9196
:1041F000FF90EF900895629FD001739FF001829F1E
:10420000E00DF11D649FE00DF11D929FF00D839F65
:10421000F00D749FF00D659FF00D9927729FB00D02
:10422000E11DF91F639FB00DE11DF91FBD01CF0115
:1042300011240895A1E21A2EAA1BBB1BFD010DC07B
:10424000AA1FBB1FEE1FFF1FA217B307E407F50746
:1042500020F0A21BB30BE40BF50B661F771F881F22
:10426000991F1A9469F760957095809590959B01B8
:10427000AC01BD01CF01089597FB092E05260ED094
:1042800057FD04D0D7DF0AD0001C38F45095409574
:10429000309521953F4F4F4F5F4F0895F6F790951A
:1042A0008095709561957F4F8F4F9F4F0895EE0FCA
:1042B000FF1F0590F491E02D09942F923F924F92A9
:1042C0005F926F927F928F929F92AF92BF92CF92A6
:1042D000DF92EF92FF920F931F93CF93DF93CDB7AF
:1042E000DEB7CA1BDB0B0FB6F894DEBF0FBECDBF27
:1042F00009942A88398848885F846E847D848C84F8
:104300009B84AA84B984C884DF80EE80FD800C8100
:104310001B81AA81B981CE0FD11D0FB6F894DEBFE3
:0C4320000FBECDBFED010895F894FFCF53
:10432C0037373137313136302D756D7576356A56F4
:10433C0050656967794A65584D726B66534E696171
:10434C00715A767270326459757479374834304FBB
:10435C004337006D656E67687562756E676B616E6D
:10436C00202E2E2E004F4B2E00676167616C203A79
:10437C00206B6F646520004B6F6E656B73692067F3
:10438C006167616C2E00476167616C206D656E67BB
:10439C006B6F6E66696775726173692045746865C9
:1043AC00726E6574206D656E6767756E616B616E9C
:1043BC00204448435000416C616D61742049502089
:1043CC004D6F64756C2057697A35353030696F20C4
:1043DC003A2000456E65726769202564204B57486A
:1043EC002C204B656C656D626162616E20256420CA
:1043FC0070657263656E742500546567616E6761E4
:10440C006E202564206D562C20537568752025640C
:10441C0020430061726475696E6F2D7477656574E5
:10442C002E61707073706F742E636F6D00504F53EC
:10443C005420687474703A2F2F61726475696E6FB2
:10444C002D74776565742E61707073706F742E6344
:10445C006F6D2F75706461746520485454502F3102
:10446C002E3000436F6E74656E742D4C656E6774E0
:10447C00683A2000746F6B656E3D0026737461742E
:10448C0075733D0057495A6E6574002000B00400E6
:10449C00000100000041726475696E6F20616B61F0
:1044AC006E206D656E74776565742064617461202F
:1044BC0073656E736F722D73656E736F7220727588
:1044CC006D616820736179610000040100000000D7
:1044DC00CE08C009CA0841090309E608840A6F0A14
:1044EC00E009FF09DB096C091E09AD08B508C6080F
:1044FC00000000007F188A197C196019361997186A
:10450C00A8191D1A5B19F418D018AE180000000079
:10451C00081C351D9E1BCF1BAF1BF81B0000000099
:02452C00B91CB8
:00000001FF
